{
  "contractName": "AccountManager",
  "abi": [
    {
      "inputs": [],
      "stateMutability": "nonpayable",
      "type": "constructor"
    },
    {
      "anonymous": false,
      "inputs": [
        {
          "indexed": true,
          "internalType": "address",
          "name": "user",
          "type": "address"
        },
        {
          "indexed": false,
          "internalType": "string",
          "name": "name",
          "type": "string"
        },
        {
          "indexed": false,
          "internalType": "string",
          "name": "email",
          "type": "string"
        }
      ],
      "name": "AccountCreated",
      "type": "event"
    },
    {
      "anonymous": false,
      "inputs": [
        {
          "indexed": true,
          "internalType": "address",
          "name": "user",
          "type": "address"
        }
      ],
      "name": "AccountPurged",
      "type": "event"
    },
    {
      "inputs": [
        {
          "internalType": "address",
          "name": "",
          "type": "address"
        }
      ],
      "name": "accounts",
      "outputs": [
        {
          "internalType": "string",
          "name": "name",
          "type": "string"
        },
        {
          "internalType": "string",
          "name": "email",
          "type": "string"
        },
        {
          "internalType": "bool",
          "name": "exists",
          "type": "bool"
        }
      ],
      "stateMutability": "view",
      "type": "function",
      "constant": true
    },
    {
      "inputs": [
        {
          "internalType": "address",
          "name": "_user",
          "type": "address"
        },
        {
          "internalType": "string",
          "name": "_name",
          "type": "string"
        },
        {
          "internalType": "string",
          "name": "_email",
          "type": "string"
        }
      ],
      "name": "createAccount",
      "outputs": [],
      "stateMutability": "nonpayable",
      "type": "function"
    },
    {
      "inputs": [
        {
          "internalType": "address",
          "name": "_user",
          "type": "address"
        }
      ],
      "name": "purgeAccount",
      "outputs": [],
      "stateMutability": "nonpayable",
      "type": "function"
    },
    {
      "inputs": [
        {
          "internalType": "address",
          "name": "_user",
          "type": "address"
        }
      ],
      "name": "getAccountDetails",
      "outputs": [
        {
          "internalType": "string",
          "name": "name",
          "type": "string"
        },
        {
          "internalType": "string",
          "name": "email",
          "type": "string"
        }
      ],
      "stateMutability": "view",
      "type": "function",
      "constant": true
    },
    {
      "inputs": [],
      "name": "getAccountCount",
      "outputs": [
        {
          "internalType": "uint256",
          "name": "",
          "type": "uint256"
        }
      ],
      "stateMutability": "view",
      "type": "function",
      "constant": true
    },
    {
      "inputs": [
        {
          "internalType": "address",
          "name": "_account",
          "type": "address"
        }
      ],
      "name": "accountExists",
      "outputs": [
        {
          "internalType": "bool",
          "name": "",
          "type": "bool"
        }
      ],
      "stateMutability": "view",
      "type": "function",
      "constant": true
    }
  ],
  "bytecode": "0x60806040526000805534801561001457600080fd5b5033600160006101000a81548173ffffffffffffffffffffffffffffffffffffffff021916908373ffffffffffffffffffffffffffffffffffffffff160217905550611034806100656000396000f3fe608060405234801561001057600080fd5b50600436106100625760003560e01c8063135c0701146100675780632aceb534146100835780634dbe4454146100b45780635e5c06e2146100d057806375cd51ed14610102578063a98e4e7714610132575b600080fd5b610081600480360381019061007c9190610aba565b610150565b005b61009d60048036038101906100989190610aba565b610342565b6040516100ab929190610b80565b60405180910390f35b6100ce60048036038101906100c99190610cec565b610605565b005b6100ea60048036038101906100e59190610aba565b6107bb565b6040516100f993929190610d92565b60405180910390f35b61011c60048036038101906101179190610aba565b610902565b6040516101299190610dd7565b60405180910390f35b61013a61095c565b6040516101479190610e0b565b60405180910390f35b600160009054906101000a900473ffffffffffffffffffffffffffffffffffffffff1673ffffffffffffffffffffffffffffffffffffffff163373ffffffffffffffffffffffffffffffffffffffff16146101e0576040517f08c379a00000000000000000000000000000000000000000000000000000000081526004016101d790610e72565b60405180910390fd5b600260008273ffffffffffffffffffffffffffffffffffffffff1673ffffffffffffffffffffffffffffffffffffffff16815260200190815260200160002060020160009054906101000a900460ff1661026f576040517f08c379a000000000000000000000000000000000000000000000000000000000815260040161026690610ede565b60405180910390fd5b60008081548092919061028190610f2d565b9190505550600260008273ffffffffffffffffffffffffffffffffffffffff1673ffffffffffffffffffffffffffffffffffffffff168152602001908152602001600020600080820160006102d69190610965565b6001820160006102e69190610965565b6002820160006101000a81549060ff021916905550508073ffffffffffffffffffffffffffffffffffffffff167f3f14551b0d08d686bfd223c59a828990f1a536ffb54391ad7e5658874d91649960405160405180910390a250565b606080600160009054906101000a900473ffffffffffffffffffffffffffffffffffffffff1673ffffffffffffffffffffffffffffffffffffffff163373ffffffffffffffffffffffffffffffffffffffff16146103d5576040517f08c379a00000000000000000000000000000000000000000000000000000000081526004016103cc90610e72565b60405180910390fd5b600260008473ffffffffffffffffffffffffffffffffffffffff1673ffffffffffffffffffffffffffffffffffffffff16815260200190815260200160002060020160009054906101000a900460ff16610464576040517f08c379a000000000000000000000000000000000000000000000000000000000815260040161045b90610ede565b60405180910390fd5b6000600260008573ffffffffffffffffffffffffffffffffffffffff1673ffffffffffffffffffffffffffffffffffffffff1681526020019081526020016000206040518060600160405290816000820180546104c090610f85565b80601f01602080910402602001604051908101604052809291908181526020018280546104ec90610f85565b80156105395780601f1061050e57610100808354040283529160200191610539565b820191906000526020600020905b81548152906001019060200180831161051c57829003601f168201915b5050505050815260200160018201805461055290610f85565b80601f016020809104026020016040519081016040528092919081815260200182805461057e90610f85565b80156105cb5780601f106105a0576101008083540402835291602001916105cb565b820191906000526020600020905b8154815290600101906020018083116105ae57829003601f168201915b505050505081526020016002820160009054906101000a900460ff1615151515815250509050806000015181602001519250925050915091565b600160009054906101000a900473ffffffffffffffffffffffffffffffffffffffff1673ffffffffffffffffffffffffffffffffffffffff163373ffffffffffffffffffffffffffffffffffffffff1614610695576040517f08c379a000000000000000000000000000000000000000000000000000000000815260040161068c90610e72565b60405180910390fd5b604051806060016040528083815260200182815260200160011515815250600260008573ffffffffffffffffffffffffffffffffffffffff1673ffffffffffffffffffffffffffffffffffffffff168152602001908152602001600020600082015181600001908051906020019061070e9291906109a5565b50602082015181600101908051906020019061072b9291906109a5565b5060408201518160020160006101000a81548160ff02191690831515021790555090505060008081548092919061076190610fb6565b91905055508273ffffffffffffffffffffffffffffffffffffffff167fc0aeb94f00ab755d522e33588ad4d9a9f6d7b62d88ec529f7dffa861292517c583836040516107ae929190610b80565b60405180910390a2505050565b60026020528060005260406000206000915090508060000180546107de90610f85565b80601f016020809104026020016040519081016040528092919081815260200182805461080a90610f85565b80156108575780601f1061082c57610100808354040283529160200191610857565b820191906000526020600020905b81548152906001019060200180831161083a57829003601f168201915b50505050509080600101805461086c90610f85565b80601f016020809104026020016040519081016040528092919081815260200182805461089890610f85565b80156108e55780601f106108ba576101008083540402835291602001916108e5565b820191906000526020600020905b8154815290600101906020018083116108c857829003601f168201915b5050505050908060020160009054906101000a900460ff16905083565b600080600260008473ffffffffffffffffffffffffffffffffffffffff1673ffffffffffffffffffffffffffffffffffffffff168152602001908152602001600020600001805461095290610f85565b9050119050919050565b60008054905090565b50805461097190610f85565b6000825580601f1061098357506109a2565b601f0160209004906000526020600020908101906109a19190610a2b565b5b50565b8280546109b190610f85565b90600052602060002090601f0160209004810192826109d35760008555610a1a565b82601f106109ec57805160ff1916838001178555610a1a565b82800160010185558215610a1a579182015b82811115610a195782518255916020019190600101906109fe565b5b509050610a279190610a2b565b5090565b5b80821115610a44576000816000905550600101610a2c565b5090565b6000604051905090565b600080fd5b600080fd5b600073ffffffffffffffffffffffffffffffffffffffff82169050919050565b6000610a8782610a5c565b9050919050565b610a9781610a7c565b8114610aa257600080fd5b50565b600081359050610ab481610a8e565b92915050565b600060208284031215610ad057610acf610a52565b5b6000610ade84828501610aa5565b91505092915050565b600081519050919050565b600082825260208201905092915050565b60005b83811015610b21578082015181840152602081019050610b06565b83811115610b30576000848401525b50505050565b6000601f19601f8301169050919050565b6000610b5282610ae7565b610b5c8185610af2565b9350610b6c818560208601610b03565b610b7581610b36565b840191505092915050565b60006040820190508181036000830152610b9a8185610b47565b90508181036020830152610bae8184610b47565b90509392505050565b600080fd5b600080fd5b7f4e487b7100000000000000000000000000000000000000000000000000000000600052604160045260246000fd5b610bf982610b36565b810181811067ffffffffffffffff82111715610c1857610c17610bc1565b5b80604052505050565b6000610c2b610a48565b9050610c378282610bf0565b919050565b600067ffffffffffffffff821115610c5757610c56610bc1565b5b610c6082610b36565b9050602081019050919050565b82818337600083830152505050565b6000610c8f610c8a84610c3c565b610c21565b905082815260208101848484011115610cab57610caa610bbc565b5b610cb6848285610c6d565b509392505050565b600082601f830112610cd357610cd2610bb7565b5b8135610ce3848260208601610c7c565b91505092915050565b600080600060608486031215610d0557610d04610a52565b5b6000610d1386828701610aa5565b935050602084013567ffffffffffffffff811115610d3457610d33610a57565b5b610d4086828701610cbe565b925050604084013567ffffffffffffffff811115610d6157610d60610a57565b5b610d6d86828701610cbe565b9150509250925092565b60008115159050919050565b610d8c81610d77565b82525050565b60006060820190508181036000830152610dac8186610b47565b90508181036020830152610dc08185610b47565b9050610dcf6040830184610d83565b949350505050565b6000602082019050610dec6000830184610d83565b92915050565b6000819050919050565b610e0581610df2565b82525050565b6000602082019050610e206000830184610dfc565b92915050565b7f4e6f742074686520636f6e7472616374206f776e657200000000000000000000600082015250565b6000610e5c601683610af2565b9150610e6782610e26565b602082019050919050565b60006020820190508181036000830152610e8b81610e4f565b9050919050565b7f4163636f756e7420646f6573206e6f7420657869737400000000000000000000600082015250565b6000610ec8601683610af2565b9150610ed382610e92565b602082019050919050565b60006020820190508181036000830152610ef781610ebb565b9050919050565b7f4e487b7100000000000000000000000000000000000000000000000000000000600052601160045260246000fd5b6000610f3882610df2565b915060008203610f4b57610f4a610efe565b5b600182039050919050565b7f4e487b7100000000000000000000000000000000000000000000000000000000600052602260045260246000fd5b60006002820490506001821680610f9d57607f821691505b602082108103610fb057610faf610f56565b5b50919050565b6000610fc182610df2565b91507fffffffffffffffffffffffffffffffffffffffffffffffffffffffffffffffff8203610ff357610ff2610efe565b5b60018201905091905056fea26469706673582212205be47718d1cb6a7d211ceadeb5013fb882907be110302f5371b40ee6c1b0e46764736f6c634300080d0033",
  "immutableReferences": {},
  "source": "// SPDX-License-Identifier: MIT\r\npragma solidity ^0.8.0;\r\n\r\ncontract AccountManager {\r\n    // Define a struct to hold account details\r\n    struct Account {\r\n        string name;\r\n        string email;\r\n        bool exists;\r\n    }\r\n\r\n    uint256 total = 0;\r\n\r\n    // State variable to store the contract owner's address\r\n    address private owner;\r\n\r\n    // Mapping to store accounts with the address as the key\r\n    mapping(address => Account)  public accounts;\r\n\r\n    // Event to be emitted when an account is created\r\n    event AccountCreated(address indexed user, string name, string email);\r\n\r\n    // Event to be emitted when an account is purged\r\n    event AccountPurged(address indexed user);\r\n\r\n    // Modifier to restrict access to only the owner\r\n    modifier onlyOwner() {\r\n        require(msg.sender == owner, \"Not the contract owner\");\r\n        _;\r\n    }\r\n\r\n    // Constructor to set the contract owner\r\n    constructor() {\r\n        owner = msg.sender;\r\n    }\r\n\r\n    // Function to create or update an account\r\n    function createAccount(address _user, string memory _name, string memory _email) public onlyOwner {\r\n        // Create or update the account details\r\n        accounts[_user] = Account({\r\n            name: _name,\r\n            email: _email,\r\n            exists: true\r\n        });\r\n        total++;\r\n        emit AccountCreated(_user, _name, _email);\r\n    }\r\n\r\n    // Function to purge an account\r\n    function purgeAccount(address _user) public onlyOwner {\r\n        require(accounts[_user].exists, \"Account does not exist\");\r\n        total--;\r\n        // Delete the account details\r\n        delete accounts[_user];\r\n\r\n        emit AccountPurged(_user);\r\n    }\r\n\r\n    // Function to get account details\r\n    function getAccountDetails(address _user) public view onlyOwner returns (string memory name, string memory email) {\r\n        require(accounts[_user].exists, \"Account does not exist\");\r\n\r\n        Account memory account = accounts[_user];\r\n        return (account.name, account.email);\r\n    }\r\n\r\n    // Retrieve the total number of accounts\r\n    function getAccountCount() external view returns (uint256) {\r\n        return total;\r\n    }\r\n   // Function to check if an account exists\r\n    function accountExists(address _account) public view returns (bool) {\r\n        return bytes(accounts[_account].name).length > 0;\r\n    }\r\n}\r\n",
  "sourcePath": "C:\\Users\\quint\\vscode\\My Projects\\Timelock\\contracts\\Account.sol",
  "compiler": {
    "name": "solc",
    "version": "0.8.13+commit.abaa5c0e.Emscripten.clang"
  },
  "schemaVersion": "3.4.16",
  "updatedAt": "2024-09-11T06:16:38.339Z",
  "networkType": "ethereum",
  "devdoc": {
    "kind": "dev",
    "methods": {},
    "version": 1
  },
  "userdoc": {
    "kind": "user",
    "methods": {},
    "version": 1
  }
}