{
  "contractName": "AccountManager",
  "abi": [
    {
      "inputs": [],
      "stateMutability": "nonpayable",
      "type": "constructor"
    },
    {
      "anonymous": false,
      "inputs": [
        {
          "indexed": true,
          "internalType": "address",
          "name": "user",
          "type": "address"
        },
        {
          "indexed": false,
          "internalType": "string",
          "name": "name",
          "type": "string"
        },
        {
          "indexed": false,
          "internalType": "string",
          "name": "email",
          "type": "string"
        },
        {
          "indexed": false,
          "internalType": "uint256",
          "name": "value",
          "type": "uint256"
        }
      ],
      "name": "AccountCreated",
      "type": "event"
    },
    {
      "anonymous": false,
      "inputs": [
        {
          "indexed": true,
          "internalType": "address",
          "name": "user",
          "type": "address"
        }
      ],
      "name": "AccountPurged",
      "type": "event"
    },
    {
      "anonymous": false,
      "inputs": [
        {
          "indexed": true,
          "internalType": "address",
          "name": "user",
          "type": "address"
        },
        {
          "indexed": false,
          "internalType": "uint256",
          "name": "amount",
          "type": "uint256"
        }
      ],
      "name": "DepositMade",
      "type": "event"
    },
    {
      "anonymous": false,
      "inputs": [
        {
          "indexed": true,
          "internalType": "address",
          "name": "user",
          "type": "address"
        },
        {
          "indexed": false,
          "internalType": "uint256",
          "name": "newAmount",
          "type": "uint256"
        }
      ],
      "name": "DepositUpdated",
      "type": "event"
    },
    {
      "anonymous": false,
      "inputs": [
        {
          "indexed": true,
          "internalType": "address",
          "name": "user",
          "type": "address"
        },
        {
          "indexed": false,
          "internalType": "uint256",
          "name": "amount",
          "type": "uint256"
        }
      ],
      "name": "WithdrawalMade",
      "type": "event"
    },
    {
      "inputs": [
        {
          "internalType": "uint256",
          "name": "",
          "type": "uint256"
        }
      ],
      "name": "accountAddresses",
      "outputs": [
        {
          "internalType": "address",
          "name": "",
          "type": "address"
        }
      ],
      "stateMutability": "view",
      "type": "function",
      "constant": true
    },
    {
      "inputs": [
        {
          "internalType": "address",
          "name": "",
          "type": "address"
        }
      ],
      "name": "accounts",
      "outputs": [
        {
          "internalType": "address",
          "name": "userAddress",
          "type": "address"
        },
        {
          "internalType": "string",
          "name": "name",
          "type": "string"
        },
        {
          "internalType": "string",
          "name": "email",
          "type": "string"
        },
        {
          "internalType": "bool",
          "name": "exist",
          "type": "bool"
        },
        {
          "internalType": "uint256",
          "name": "value",
          "type": "uint256"
        }
      ],
      "stateMutability": "view",
      "type": "function",
      "constant": true
    },
    {
      "inputs": [],
      "name": "totalAccounts",
      "outputs": [
        {
          "internalType": "uint256",
          "name": "",
          "type": "uint256"
        }
      ],
      "stateMutability": "view",
      "type": "function",
      "constant": true
    },
    {
      "inputs": [],
      "name": "getAdmin",
      "outputs": [
        {
          "internalType": "address",
          "name": "",
          "type": "address"
        }
      ],
      "stateMutability": "view",
      "type": "function",
      "constant": true
    },
    {
      "inputs": [],
      "name": "getAllAccounts",
      "outputs": [
        {
          "components": [
            {
              "internalType": "address",
              "name": "userAddress",
              "type": "address"
            },
            {
              "internalType": "string",
              "name": "name",
              "type": "string"
            },
            {
              "internalType": "string",
              "name": "email",
              "type": "string"
            },
            {
              "internalType": "bool",
              "name": "exist",
              "type": "bool"
            },
            {
              "internalType": "uint256",
              "name": "value",
              "type": "uint256"
            }
          ],
          "internalType": "struct AccountManager.Account[]",
          "name": "",
          "type": "tuple[]"
        }
      ],
      "stateMutability": "view",
      "type": "function",
      "constant": true
    },
    {
      "inputs": [],
      "name": "getAccountCount",
      "outputs": [
        {
          "internalType": "uint256",
          "name": "",
          "type": "uint256"
        }
      ],
      "stateMutability": "view",
      "type": "function",
      "constant": true
    },
    {
      "inputs": [
        {
          "internalType": "address",
          "name": "_account",
          "type": "address"
        }
      ],
      "name": "accountExists",
      "outputs": [
        {
          "internalType": "bool",
          "name": "",
          "type": "bool"
        }
      ],
      "stateMutability": "view",
      "type": "function",
      "constant": true
    },
    {
      "inputs": [
        {
          "internalType": "address",
          "name": "_user",
          "type": "address"
        },
        {
          "internalType": "string",
          "name": "_name",
          "type": "string"
        },
        {
          "internalType": "string",
          "name": "_email",
          "type": "string"
        }
      ],
      "name": "createAccount",
      "outputs": [],
      "stateMutability": "nonpayable",
      "type": "function"
    },
    {
      "inputs": [
        {
          "internalType": "address",
          "name": "_user",
          "type": "address"
        }
      ],
      "name": "purgeAccount",
      "outputs": [],
      "stateMutability": "nonpayable",
      "type": "function"
    },
    {
      "inputs": [
        {
          "internalType": "address",
          "name": "_user",
          "type": "address"
        }
      ],
      "name": "getAccountDetails",
      "outputs": [
        {
          "internalType": "string",
          "name": "name",
          "type": "string"
        },
        {
          "internalType": "string",
          "name": "email",
          "type": "string"
        },
        {
          "internalType": "uint256",
          "name": "value",
          "type": "uint256"
        }
      ],
      "stateMutability": "view",
      "type": "function",
      "constant": true
    },
    {
      "inputs": [],
      "name": "deposit",
      "outputs": [],
      "stateMutability": "payable",
      "type": "function",
      "payable": true
    },
    {
      "inputs": [
        {
          "internalType": "uint256",
          "name": "_amount",
          "type": "uint256"
        }
      ],
      "name": "withdraw",
      "outputs": [],
      "stateMutability": "nonpayable",
      "type": "function"
    },
    {
      "inputs": [
        {
          "internalType": "address",
          "name": "_user",
          "type": "address"
        },
        {
          "internalType": "uint256",
          "name": "_newAmount",
          "type": "uint256"
        }
      ],
      "name": "depositUpdate",
      "outputs": [
        {
          "internalType": "bool",
          "name": "success",
          "type": "bool"
        }
      ],
      "stateMutability": "nonpayable",
      "type": "function"
    },
    {
      "inputs": [],
      "name": "getContractBalance",
      "outputs": [
        {
          "internalType": "uint256",
          "name": "",
          "type": "uint256"
        }
      ],
      "stateMutability": "view",
      "type": "function",
      "constant": true
    },
    {
      "inputs": [
        {
          "internalType": "address",
          "name": "_target",
          "type": "address"
        }
      ],
      "name": "adminGetAccountDeposit",
      "outputs": [
        {
          "internalType": "uint256",
          "name": "value",
          "type": "uint256"
        }
      ],
      "stateMutability": "view",
      "type": "function",
      "constant": true
    },
    {
      "inputs": [
        {
          "internalType": "address",
          "name": "_target",
          "type": "address"
        }
      ],
      "name": "getAccountDeposit",
      "outputs": [
        {
          "internalType": "uint256",
          "name": "value",
          "type": "uint256"
        }
      ],
      "stateMutability": "view",
      "type": "function",
      "constant": true
    },
    {
      "inputs": [],
      "name": "getMyDeposit",
      "outputs": [
        {
          "internalType": "uint256",
          "name": "value",
          "type": "uint256"
        }
      ],
      "stateMutability": "view",
      "type": "function",
      "constant": true
    }
  ],
  "bytecode": "0x60806040526000805534801561001457600080fd5b5033600160006101000a81548173ffffffffffffffffffffffffffffffffffffffff021916908373ffffffffffffffffffffffffffffffffffffffff160217905550612ebf806100656000396000f3fe6080604052600436106100fe5760003560e01c806358451f971161009557806375cd51ed1161006457806375cd51ed14610361578063a98e4e771461039e578063b6aa680c146103c9578063d0e30db014610406578063f413599214610410576100fe565b806358451f971461029f5780635e5c06e2146102ca5780636e9960c31461030b5780636f9fb98a14610336576100fe565b80632aceb534116100d15780632aceb534146101d15780632e1a7d4d1461021057806333d07dc9146102395780634dbe445414610276576100fe565b806308d2a40f1461010357806308e93d0a14610140578063135c07011461016b5780631bff58d814610194575b600080fd5b34801561010f57600080fd5b5061012a60048036038101906101259190612286565b61043b565b60405161013791906122cc565b60405180910390f35b34801561014c57600080fd5b50610155610756565b60405161016291906124f8565b60405180910390f35b34801561017757600080fd5b50610192600480360381019061018d9190612286565b610ac5565b005b3480156101a057600080fd5b506101bb60048036038101906101b69190612546565b610e73565b6040516101c89190612582565b60405180910390f35b3480156101dd57600080fd5b506101f860048036038101906101f39190612286565b610eb2565b604051610207939291906125e7565b60405180910390f35b34801561021c57600080fd5b5061023760048036038101906102329190612546565b611150565b005b34801561024557600080fd5b50610260600480360381019061025b919061262c565b6113fe565b60405161026d919061267b565b60405180910390f35b34801561028257600080fd5b5061029d600480360381019061029891906127cb565b61152e565b005b3480156102ab57600080fd5b506102b461184e565b6040516102c191906122cc565b60405180910390f35b3480156102d657600080fd5b506102f160048036038101906102ec9190612286565b611854565b604051610302959493929190612856565b60405180910390f35b34801561031757600080fd5b506103206119c7565b60405161032d9190612582565b60405180910390f35b34801561034257600080fd5b5061034b6119f1565b60405161035891906122cc565b60405180910390f35b34801561036d57600080fd5b5061038860048036038101906103839190612286565b6119f9565b604051610395919061267b565b60405180910390f35b3480156103aa57600080fd5b506103b3611a52565b6040516103c091906122cc565b60405180910390f35b3480156103d557600080fd5b506103f060048036038101906103eb9190612286565b611a5b565b6040516103fd91906122cc565b60405180910390f35b61040e611ce6565b005b34801561041c57600080fd5b50610425611e61565b60405161043291906122cc565b60405180910390f35b6000600160009054906101000a900473ffffffffffffffffffffffffffffffffffffffff1673ffffffffffffffffffffffffffffffffffffffff163373ffffffffffffffffffffffffffffffffffffffff16146104cd576040517f08c379a00000000000000000000000000000000000000000000000000000000081526004016104c490612903565b60405180910390fd5b600260008373ffffffffffffffffffffffffffffffffffffffff1673ffffffffffffffffffffffffffffffffffffffff16815260200190815260200160002060030160009054906101000a900460ff1661055c576040517f08c379a00000000000000000000000000000000000000000000000000000000081526004016105539061296f565b60405180910390fd5b6000600260008473ffffffffffffffffffffffffffffffffffffffff1673ffffffffffffffffffffffffffffffffffffffff1681526020019081526020016000206040518060a00160405290816000820160009054906101000a900473ffffffffffffffffffffffffffffffffffffffff1673ffffffffffffffffffffffffffffffffffffffff1673ffffffffffffffffffffffffffffffffffffffff16815260200160018201805461060e906129be565b80601f016020809104026020016040519081016040528092919081815260200182805461063a906129be565b80156106875780601f1061065c57610100808354040283529160200191610687565b820191906000526020600020905b81548152906001019060200180831161066a57829003601f168201915b505050505081526020016002820180546106a0906129be565b80601f01602080910402602001604051908101604052809291908181526020018280546106cc906129be565b80156107195780601f106106ee57610100808354040283529160200191610719565b820191906000526020600020905b8154815290600101906020018083116106fc57829003601f168201915b505050505081526020016003820160009054906101000a900460ff1615151515815260200160048201548152505090508060800151915050919050565b60606000805467ffffffffffffffff811115610775576107746126a0565b5b6040519080825280602002602001820160405280156107ae57816020015b61079b6120ea565b8152602001906001900390816107935790505b5090506000805b600380549050811015610abc5760026000600383815481106107da576107d96129ef565b5b9060005260206000200160009054906101000a900473ffffffffffffffffffffffffffffffffffffffff1673ffffffffffffffffffffffffffffffffffffffff1673ffffffffffffffffffffffffffffffffffffffff16815260200190815260200160002060030160009054906101000a900460ff1615610aa957600260006003838154811061086d5761086c6129ef565b5b9060005260206000200160009054906101000a900473ffffffffffffffffffffffffffffffffffffffff1673ffffffffffffffffffffffffffffffffffffffff1673ffffffffffffffffffffffffffffffffffffffff1681526020019081526020016000206040518060a00160405290816000820160009054906101000a900473ffffffffffffffffffffffffffffffffffffffff1673ffffffffffffffffffffffffffffffffffffffff1673ffffffffffffffffffffffffffffffffffffffff168152602001600182018054610943906129be565b80601f016020809104026020016040519081016040528092919081815260200182805461096f906129be565b80156109bc5780601f10610991576101008083540402835291602001916109bc565b820191906000526020600020905b81548152906001019060200180831161099f57829003601f168201915b505050505081526020016002820180546109d5906129be565b80601f0160208091040260200160405190810160405280929190818152602001828054610a01906129be565b8015610a4e5780601f10610a2357610100808354040283529160200191610a4e565b820191906000526020600020905b815481529060010190602001808311610a3157829003601f168201915b505050505081526020016003820160009054906101000a900460ff16151515158152602001600482015481525050838381518110610a8f57610a8e6129ef565b5b60200260200101819052508180610aa590612a4d565b9250505b8080610ab490612a4d565b9150506107b5565b50819250505090565b600160009054906101000a900473ffffffffffffffffffffffffffffffffffffffff1673ffffffffffffffffffffffffffffffffffffffff163373ffffffffffffffffffffffffffffffffffffffff1614610b55576040517f08c379a0000000000000000000000000000000000000000000000000000000008152600401610b4c90612903565b60405180910390fd5b600260008273ffffffffffffffffffffffffffffffffffffffff1673ffffffffffffffffffffffffffffffffffffffff16815260200190815260200160002060030160009054906101000a900460ff16610be4576040517f08c379a0000000000000000000000000000000000000000000000000000000008152600401610bdb9061296f565b60405180910390fd5b600080815480929190610bf690612a95565b9190505550600260008273ffffffffffffffffffffffffffffffffffffffff1673ffffffffffffffffffffffffffffffffffffffff168152602001908152602001600020600080820160006101000a81549073ffffffffffffffffffffffffffffffffffffffff0219169055600182016000610c729190612131565b600282016000610c829190612131565b6003820160006101000a81549060ff02191690556004820160009055505060005b600380549050811015610e2c578173ffffffffffffffffffffffffffffffffffffffff1660038281548110610cdb57610cda6129ef565b5b9060005260206000200160009054906101000a900473ffffffffffffffffffffffffffffffffffffffff1673ffffffffffffffffffffffffffffffffffffffff1603610e195760036001600380549050610d359190612abe565b81548110610d4657610d456129ef565b5b9060005260206000200160009054906101000a900473ffffffffffffffffffffffffffffffffffffffff1660038281548110610d8557610d846129ef565b5b9060005260206000200160006101000a81548173ffffffffffffffffffffffffffffffffffffffff021916908373ffffffffffffffffffffffffffffffffffffffff1602179055506003805480610ddf57610dde612af2565b5b6001900381819060005260206000200160006101000a81549073ffffffffffffffffffffffffffffffffffffffff02191690559055610e2c565b8080610e2490612a4d565b915050610ca3565b508073ffffffffffffffffffffffffffffffffffffffff167f3f14551b0d08d686bfd223c59a828990f1a536ffb54391ad7e5658874d91649960405160405180910390a250565b60038181548110610e8357600080fd5b906000526020600020016000915054906101000a900473ffffffffffffffffffffffffffffffffffffffff1681565b6060806000600260008573ffffffffffffffffffffffffffffffffffffffff1673ffffffffffffffffffffffffffffffffffffffff16815260200190815260200160002060030160009054906101000a900460ff16610f46576040517f08c379a0000000000000000000000000000000000000000000000000000000008152600401610f3d9061296f565b60405180910390fd5b6000600260008673ffffffffffffffffffffffffffffffffffffffff1673ffffffffffffffffffffffffffffffffffffffff1681526020019081526020016000206040518060a00160405290816000820160009054906101000a900473ffffffffffffffffffffffffffffffffffffffff1673ffffffffffffffffffffffffffffffffffffffff1673ffffffffffffffffffffffffffffffffffffffff168152602001600182018054610ff8906129be565b80601f0160208091040260200160405190810160405280929190818152602001828054611024906129be565b80156110715780601f1061104657610100808354040283529160200191611071565b820191906000526020600020905b81548152906001019060200180831161105457829003601f168201915b5050505050815260200160028201805461108a906129be565b80601f01602080910402602001604051908101604052809291908181526020018280546110b6906129be565b80156111035780601f106110d857610100808354040283529160200191611103565b820191906000526020600020905b8154815290600101906020018083116110e657829003601f168201915b505050505081526020016003820160009054906101000a900460ff161515151581526020016004820154815250509050806020015181604001518260800151935093509350509193909250565b600260003373ffffffffffffffffffffffffffffffffffffffff1673ffffffffffffffffffffffffffffffffffffffff16815260200190815260200160002060030160009054906101000a900460ff166111df576040517f08c379a00000000000000000000000000000000000000000000000000000000081526004016111d69061296f565b60405180910390fd5b60008111611222576040517f08c379a000000000000000000000000000000000000000000000000000000000815260040161121990612b93565b60405180910390fd5b80600260003373ffffffffffffffffffffffffffffffffffffffff1673ffffffffffffffffffffffffffffffffffffffff1681526020019081526020016000206004015410156112a7576040517f08c379a000000000000000000000000000000000000000000000000000000000815260040161129e90612bff565b60405180910390fd5b80600260003373ffffffffffffffffffffffffffffffffffffffff1673ffffffffffffffffffffffffffffffffffffffff16815260200190815260200160002060040160008282546112f99190612abe565b9250508190555060003373ffffffffffffffffffffffffffffffffffffffff168260405161132690612c50565b60006040518083038185875af1925050503d8060008114611363576040519150601f19603f3d011682016040523d82523d6000602084013e611368565b606091505b50509050806113ac576040517f08c379a00000000000000000000000000000000000000000000000000000000081526004016113a390612cb1565b60405180910390fd5b3373ffffffffffffffffffffffffffffffffffffffff167fbc158bb64f05d6383aea69bbb0b20c1bbf4b7a18f63359c5649b7c39e29d3884836040516113f291906122cc565b60405180910390a25050565b6000600260008473ffffffffffffffffffffffffffffffffffffffff1673ffffffffffffffffffffffffffffffffffffffff16815260200190815260200160002060030160009054906101000a900460ff1661148f576040517f08c379a00000000000000000000000000000000000000000000000000000000081526004016114869061296f565b60405180910390fd5b81600260008573ffffffffffffffffffffffffffffffffffffffff1673ffffffffffffffffffffffffffffffffffffffff168152602001908152602001600020600401819055508273ffffffffffffffffffffffffffffffffffffffff167f6f477b4fa05359c0d3b9148b7b6428fc74aadbcab5661c67d059f01b8255c5918360405161151c91906122cc565b60405180910390a26001905092915050565b600160009054906101000a900473ffffffffffffffffffffffffffffffffffffffff1673ffffffffffffffffffffffffffffffffffffffff163373ffffffffffffffffffffffffffffffffffffffff16146115be576040517f08c379a00000000000000000000000000000000000000000000000000000000081526004016115b590612903565b60405180910390fd5b600260008473ffffffffffffffffffffffffffffffffffffffff1673ffffffffffffffffffffffffffffffffffffffff16815260200190815260200160002060030160009054906101000a900460ff161561164e576040517f08c379a000000000000000000000000000000000000000000000000000000000815260040161164590612d1d565b60405180910390fd5b6040518060a001604052808473ffffffffffffffffffffffffffffffffffffffff1681526020018381526020018281526020016001151581526020016000815250600260008573ffffffffffffffffffffffffffffffffffffffff1673ffffffffffffffffffffffffffffffffffffffff16815260200190815260200160002060008201518160000160006101000a81548173ffffffffffffffffffffffffffffffffffffffff021916908373ffffffffffffffffffffffffffffffffffffffff1602179055506020820151816001019080519060200190611731929190612171565b50604082015181600201908051906020019061174e929190612171565b5060608201518160030160006101000a81548160ff021916908315150217905550608082015181600401559050506003839080600181540180825580915050600190039060005260206000200160009091909190916101000a81548173ffffffffffffffffffffffffffffffffffffffff021916908373ffffffffffffffffffffffffffffffffffffffff1602179055506000808154809291906117f190612a4d565b91905055508273ffffffffffffffffffffffffffffffffffffffff167f1fc94085b6f00acdb1339935d5f8516e3aa7d501142158ed1e455e2149944a8b8383600060405161184193929190612d82565b60405180910390a2505050565b60005481565b60026020528060005260406000206000915090508060000160009054906101000a900473ffffffffffffffffffffffffffffffffffffffff169080600101805461189d906129be565b80601f01602080910402602001604051908101604052809291908181526020018280546118c9906129be565b80156119165780601f106118eb57610100808354040283529160200191611916565b820191906000526020600020905b8154815290600101906020018083116118f957829003601f168201915b50505050509080600201805461192b906129be565b80601f0160208091040260200160405190810160405280929190818152602001828054611957906129be565b80156119a45780601f10611979576101008083540402835291602001916119a4565b820191906000526020600020905b81548152906001019060200180831161198757829003601f168201915b5050505050908060030160009054906101000a900460ff16908060040154905085565b6000600160009054906101000a900473ffffffffffffffffffffffffffffffffffffffff16905090565b600047905090565b6000600260008373ffffffffffffffffffffffffffffffffffffffff1673ffffffffffffffffffffffffffffffffffffffff16815260200190815260200160002060030160009054906101000a900460ff169050919050565b60008054905090565b6000600260008373ffffffffffffffffffffffffffffffffffffffff1673ffffffffffffffffffffffffffffffffffffffff16815260200190815260200160002060030160009054906101000a900460ff16611aec576040517f08c379a0000000000000000000000000000000000000000000000000000000008152600401611ae39061296f565b60405180910390fd5b6000600260008473ffffffffffffffffffffffffffffffffffffffff1673ffffffffffffffffffffffffffffffffffffffff1681526020019081526020016000206040518060a00160405290816000820160009054906101000a900473ffffffffffffffffffffffffffffffffffffffff1673ffffffffffffffffffffffffffffffffffffffff1673ffffffffffffffffffffffffffffffffffffffff168152602001600182018054611b9e906129be565b80601f0160208091040260200160405190810160405280929190818152602001828054611bca906129be565b8015611c175780601f10611bec57610100808354040283529160200191611c17565b820191906000526020600020905b815481529060010190602001808311611bfa57829003601f168201915b50505050508152602001600282018054611c30906129be565b80601f0160208091040260200160405190810160405280929190818152602001828054611c5c906129be565b8015611ca95780601f10611c7e57610100808354040283529160200191611ca9565b820191906000526020600020905b815481529060010190602001808311611c8c57829003601f168201915b505050505081526020016003820160009054906101000a900460ff1615151515815260200160048201548152505090508060800151915050919050565b600260003373ffffffffffffffffffffffffffffffffffffffff1673ffffffffffffffffffffffffffffffffffffffff16815260200190815260200160002060030160009054906101000a900460ff16611d75576040517f08c379a0000000000000000000000000000000000000000000000000000000008152600401611d6c9061296f565b60405180910390fd5b60003411611db8576040517f08c379a0000000000000000000000000000000000000000000000000000000008152600401611daf90612e13565b60405180910390fd5b34600260003373ffffffffffffffffffffffffffffffffffffffff1673ffffffffffffffffffffffffffffffffffffffff1681526020019081526020016000206004016000828254611e0a9190612e33565b925050819055503373ffffffffffffffffffffffffffffffffffffffff167fd15c9547ea5c06670c0010ce19bc32d54682a4b3801ece7f3ab0c3f17106b4bb34604051611e5791906122cc565b60405180910390a2565b6000600260003373ffffffffffffffffffffffffffffffffffffffff1673ffffffffffffffffffffffffffffffffffffffff16815260200190815260200160002060030160009054906101000a900460ff16611ef2576040517f08c379a0000000000000000000000000000000000000000000000000000000008152600401611ee99061296f565b60405180910390fd5b6000600260003373ffffffffffffffffffffffffffffffffffffffff1673ffffffffffffffffffffffffffffffffffffffff1681526020019081526020016000206040518060a00160405290816000820160009054906101000a900473ffffffffffffffffffffffffffffffffffffffff1673ffffffffffffffffffffffffffffffffffffffff1673ffffffffffffffffffffffffffffffffffffffff168152602001600182018054611fa4906129be565b80601f0160208091040260200160405190810160405280929190818152602001828054611fd0906129be565b801561201d5780601f10611ff25761010080835404028352916020019161201d565b820191906000526020600020905b81548152906001019060200180831161200057829003601f168201915b50505050508152602001600282018054612036906129be565b80601f0160208091040260200160405190810160405280929190818152602001828054612062906129be565b80156120af5780601f10612084576101008083540402835291602001916120af565b820191906000526020600020905b81548152906001019060200180831161209257829003601f168201915b505050505081526020016003820160009054906101000a900460ff161515151581526020016004820154815250509050806080015191505090565b6040518060a00160405280600073ffffffffffffffffffffffffffffffffffffffff1681526020016060815260200160608152602001600015158152602001600081525090565b50805461213d906129be565b6000825580601f1061214f575061216e565b601f01602090049060005260206000209081019061216d91906121f7565b5b50565b82805461217d906129be565b90600052602060002090601f01602090048101928261219f57600085556121e6565b82601f106121b857805160ff19168380011785556121e6565b828001600101855582156121e6579182015b828111156121e55782518255916020019190600101906121ca565b5b5090506121f391906121f7565b5090565b5b808211156122105760008160009055506001016121f8565b5090565b6000604051905090565b600080fd5b600080fd5b600073ffffffffffffffffffffffffffffffffffffffff82169050919050565b600061225382612228565b9050919050565b61226381612248565b811461226e57600080fd5b50565b6000813590506122808161225a565b92915050565b60006020828403121561229c5761229b61221e565b5b60006122aa84828501612271565b91505092915050565b6000819050919050565b6122c6816122b3565b82525050565b60006020820190506122e160008301846122bd565b92915050565b600081519050919050565b600082825260208201905092915050565b6000819050602082019050919050565b61231c81612248565b82525050565b600081519050919050565b600082825260208201905092915050565b60005b8381101561235c578082015181840152602081019050612341565b8381111561236b576000848401525b50505050565b6000601f19601f8301169050919050565b600061238d82612322565b612397818561232d565b93506123a781856020860161233e565b6123b081612371565b840191505092915050565b60008115159050919050565b6123d0816123bb565b82525050565b6123df816122b3565b82525050565b600060a0830160008301516123fd6000860182612313565b50602083015184820360208601526124158282612382565b9150506040830151848203604086015261242f8282612382565b915050606083015161244460608601826123c7565b50608083015161245760808601826123d6565b508091505092915050565b600061246e83836123e5565b905092915050565b6000602082019050919050565b600061248e826122e7565b61249881856122f2565b9350836020820285016124aa85612303565b8060005b858110156124e657848403895281516124c78582612462565b94506124d283612476565b925060208a019950506001810190506124ae565b50829750879550505050505092915050565b600060208201905081810360008301526125128184612483565b905092915050565b612523816122b3565b811461252e57600080fd5b50565b6000813590506125408161251a565b92915050565b60006020828403121561255c5761255b61221e565b5b600061256a84828501612531565b91505092915050565b61257c81612248565b82525050565b60006020820190506125976000830184612573565b92915050565b600082825260208201905092915050565b60006125b982612322565b6125c3818561259d565b93506125d381856020860161233e565b6125dc81612371565b840191505092915050565b6000606082019050818103600083015261260181866125ae565b9050818103602083015261261581856125ae565b905061262460408301846122bd565b949350505050565b600080604083850312156126435761264261221e565b5b600061265185828601612271565b925050602061266285828601612531565b9150509250929050565b612675816123bb565b82525050565b6000602082019050612690600083018461266c565b92915050565b600080fd5b600080fd5b7f4e487b7100000000000000000000000000000000000000000000000000000000600052604160045260246000fd5b6126d882612371565b810181811067ffffffffffffffff821117156126f7576126f66126a0565b5b80604052505050565b600061270a612214565b905061271682826126cf565b919050565b600067ffffffffffffffff821115612736576127356126a0565b5b61273f82612371565b9050602081019050919050565b82818337600083830152505050565b600061276e6127698461271b565b612700565b90508281526020810184848401111561278a5761278961269b565b5b61279584828561274c565b509392505050565b600082601f8301126127b2576127b1612696565b5b81356127c284826020860161275b565b91505092915050565b6000806000606084860312156127e4576127e361221e565b5b60006127f286828701612271565b935050602084013567ffffffffffffffff81111561281357612812612223565b5b61281f8682870161279d565b925050604084013567ffffffffffffffff8111156128405761283f612223565b5b61284c8682870161279d565b9150509250925092565b600060a08201905061286b6000830188612573565b818103602083015261287d81876125ae565b9050818103604083015261289181866125ae565b90506128a0606083018561266c565b6128ad60808301846122bd565b9695505050505050565b7f4e6f7420436f6e74726163742041646d696e0000000000000000000000000000600082015250565b60006128ed60128361259d565b91506128f8826128b7565b602082019050919050565b6000602082019050818103600083015261291c816128e0565b9050919050565b7f4163636f756e7420646f65736e27742065786973740000000000000000000000600082015250565b600061295960158361259d565b915061296482612923565b602082019050919050565b600060208201905081810360008301526129888161294c565b9050919050565b7f4e487b7100000000000000000000000000000000000000000000000000000000600052602260045260246000fd5b600060028204905060018216806129d657607f821691505b6020821081036129e9576129e861298f565b5b50919050565b7f4e487b7100000000000000000000000000000000000000000000000000000000600052603260045260246000fd5b7f4e487b7100000000000000000000000000000000000000000000000000000000600052601160045260246000fd5b6000612a58826122b3565b91507fffffffffffffffffffffffffffffffffffffffffffffffffffffffffffffffff8203612a8a57612a89612a1e565b5b600182019050919050565b6000612aa0826122b3565b915060008203612ab357612ab2612a1e565b5b600182039050919050565b6000612ac9826122b3565b9150612ad4836122b3565b925082821015612ae757612ae6612a1e565b5b828203905092915050565b7f4e487b7100000000000000000000000000000000000000000000000000000000600052603160045260246000fd5b7f576974686472617720616d6f756e74206d75737420626520677265617465722060008201527f7468616e207a65726f0000000000000000000000000000000000000000000000602082015250565b6000612b7d60298361259d565b9150612b8882612b21565b604082019050919050565b60006020820190508181036000830152612bac81612b70565b9050919050565b7f496e73756666696369656e742062616c616e6365000000000000000000000000600082015250565b6000612be960148361259d565b9150612bf482612bb3565b602082019050919050565b60006020820190508181036000830152612c1881612bdc565b9050919050565b600081905092915050565b50565b6000612c3a600083612c1f565b9150612c4582612c2a565b600082019050919050565b6000612c5b82612c2d565b9150819050919050565b7f5769746864726177616c206661696c6564000000000000000000000000000000600082015250565b6000612c9b60118361259d565b9150612ca682612c65565b602082019050919050565b60006020820190508181036000830152612cca81612c8e565b9050919050565b7f4163636f756e7420616c72656164792065786973747300000000000000000000600082015250565b6000612d0760168361259d565b9150612d1282612cd1565b602082019050919050565b60006020820190508181036000830152612d3681612cfa565b9050919050565b6000819050919050565b6000819050919050565b6000612d6c612d67612d6284612d3d565b612d47565b6122b3565b9050919050565b612d7c81612d51565b82525050565b60006060820190508181036000830152612d9c81866125ae565b90508181036020830152612db081856125ae565b9050612dbf6040830184612d73565b949350505050565b7f596f75206e65656420746f206465706f73697420736f6d652045746865720000600082015250565b6000612dfd601e8361259d565b9150612e0882612dc7565b602082019050919050565b60006020820190508181036000830152612e2c81612df0565b9050919050565b6000612e3e826122b3565b9150612e49836122b3565b9250827fffffffffffffffffffffffffffffffffffffffffffffffffffffffffffffffff03821115612e7e57612e7d612a1e565b5b82820190509291505056fea2646970667358221220f2ea860e4aeff65bfa43697d1647dd627f8fb60a2e80d9e177151f885b9e02fd64736f6c634300080d0033",
  "immutableReferences": {},
  "source": "// SPDX-License-Identifier: MIT\r\npragma solidity ^0.8.0;\r\n\r\ncontract AccountManager {\r\n    //Account Manager----------------------------------------\r\n\r\n    struct Account {\r\n        address userAddress;\r\n        string name;\r\n        string email;\r\n        bool exist;\r\n        uint256 value;\r\n    }\r\n\r\n    uint256 public totalAccounts = 0;\r\n    address private admin;\r\n\r\n    mapping(address => Account) public accounts;\r\n\r\n    address[] public accountAddresses;\r\n\r\n    event AccountCreated(\r\n        address indexed user,\r\n        string name,\r\n        string email,\r\n        uint256 value\r\n    );\r\n    event AccountPurged(address indexed user);\r\n    event DepositMade(address indexed user, uint256 amount);\r\n    event WithdrawalMade(address indexed user, uint256 amount);\r\n    event DepositUpdated(address indexed user, uint256 newAmount);\r\n    // Modifiers\r\n    modifier onlyAdmin() {\r\n        require(msg.sender == admin, \"Not Contract Admin\");\r\n        _;\r\n    }\r\n\r\n    constructor() {\r\n        admin = msg.sender;\r\n    }\r\n\r\n    function getAdmin() public view returns (address) {\r\n        return admin;\r\n    }\r\n\r\n    function getAllAccounts() public view returns (Account[] memory) {\r\n        Account[] memory allAccounts = new Account[](totalAccounts);\r\n        uint256 count = 0;\r\n\r\n        for (uint256 i = 0; i < accountAddresses.length; i++) {\r\n            if (accounts[accountAddresses[i]].exist) {\r\n                allAccounts[count] = accounts[accountAddresses[i]];\r\n                count++;\r\n            }\r\n        }\r\n\r\n        return allAccounts;\r\n    }\r\n\r\n    function getAccountCount() public view returns (uint256) {\r\n        return totalAccounts;\r\n    }\r\n\r\n    function accountExists(address _account) public view returns (bool) {\r\n        return accounts[_account].exist;\r\n    }\r\n\r\n    function createAccount(\r\n        address _user,\r\n        string memory _name,\r\n        string memory _email\r\n    ) public onlyAdmin  {\r\n        require(!accounts[_user].exist, \"Account already exists\");\r\n\r\n        accounts[_user] = Account({\r\n            userAddress: _user,\r\n            name: _name,\r\n            email: _email,\r\n            exist: true,\r\n            value: 0\r\n        });\r\n        accountAddresses.push(_user); // Add the user's address to the array\r\n        totalAccounts++;\r\n\r\n        emit AccountCreated(_user, _name, _email, 0);\r\n    }\r\n\r\n    function purgeAccount(address _user) public onlyAdmin {\r\n        require(accounts[_user].exist, \"Account doesn't exist\");\r\n\r\n        totalAccounts--;\r\n        delete accounts[_user];\r\n\r\n        for (uint256 i = 0; i < accountAddresses.length; i++) {\r\n            if (accountAddresses[i] == _user) {\r\n                accountAddresses[i] = accountAddresses[\r\n                    accountAddresses.length - 1\r\n                ];\r\n                accountAddresses.pop(); // Remove last element\r\n                break;\r\n            }\r\n        }\r\n\r\n        emit AccountPurged(_user);\r\n    }\r\n\r\n    function getAccountDetails(\r\n        address _user\r\n    )\r\n        public\r\n        view\r\n        returns (string memory name, string memory email, uint256 value)\r\n    {\r\n        require(accounts[_user].exist, \"Account doesn't exist\");\r\n        Account memory account = accounts[_user];\r\n        return (account.name, account.email, account.value);\r\n    }\r\n\r\n    function deposit() public payable {\r\n        require(accounts[msg.sender].exist, \"Account doesn't exist\");\r\n        require(msg.value > 0, \"You need to deposit some Ether\");\r\n\r\n        // Update the user's balance\r\n        accounts[msg.sender].value += msg.value;\r\n\r\n        // Emit the DepositMade event\r\n        emit DepositMade(msg.sender, msg.value);\r\n    }\r\n\r\n    function withdraw(uint256 _amount) public {\r\n        require(accounts[msg.sender].exist, \"Account doesn't exist\");\r\n        require(_amount > 0, \"Withdraw amount must be greater than zero\");\r\n        require(accounts[msg.sender].value >= _amount, \"Insufficient balance\");\r\n\r\n        // Deduct the withdrawn amount from the user's balance\r\n        accounts[msg.sender].value -= _amount;\r\n\r\n        // Transfer the Ether back to the user\r\n        (bool success, ) = msg.sender.call{value: _amount}(\"\");\r\n        require(success, \"Withdrawal failed\");\r\n\r\n        // Emit the WithdrawalMade event\r\n        emit WithdrawalMade(msg.sender, _amount);\r\n    }\r\n\r\n    function depositUpdate(\r\n        address _user,\r\n        uint256 _newAmount\r\n    ) public returns (bool success) {\r\n        require(accounts[_user].exist, \"Account doesn't exist\");\r\n\r\n        // Update the user's value to the new amount\r\n        accounts[_user].value = _newAmount;\r\n\r\n        // Emit the DepositUpdated event\r\n        emit DepositUpdated(_user, _newAmount);\r\n        return true;\r\n    }\r\n\r\n    function getContractBalance() public view returns (uint256) {\r\n        return address(this).balance;\r\n    }\r\n\r\n    function adminGetAccountDeposit(\r\n        address _target\r\n    ) public  view  onlyAdmin returns (uint256 value) {\r\n        require(accounts[_target].exist, \"Account doesn't exist\");\r\n        Account memory account = accounts[_target];\r\n        return account.value;\r\n    }\r\n\r\n    // for proccesing use onlt\r\n\r\n     function getAccountDeposit(\r\n        address _target\r\n    ) external  view  returns (uint256 value) {\r\n        require(accounts[_target].exist, \"Account doesn't exist\");\r\n        Account memory account = accounts[_target];\r\n        return account.value;\r\n    }\r\n    function getMyDeposit(\r\n    ) public view returns (uint256 value) {\r\n        require(accounts[msg.sender].exist, \"Account doesn't exist\");\r\n        Account memory account = accounts[msg.sender];\r\n        return account.value;\r\n    }\r\n\r\n    \r\n\r\n   \r\n}\r\n",
  "sourcePath": "C:\\Users\\quint\\vscode\\My Projects\\Timelock\\contracts\\AccountManager.sol",
  "compiler": {
    "name": "solc",
    "version": "0.8.13+commit.abaa5c0e.Emscripten.clang"
  },
  "schemaVersion": "3.4.16",
  "updatedAt": "2024-09-25T06:47:04.369Z",
  "networkType": "ethereum",
  "devdoc": {
    "kind": "dev",
    "methods": {},
    "version": 1
  },
  "userdoc": {
    "kind": "user",
    "methods": {},
    "version": 1
  }
}