{
  "contractName": "AccountManager",
  "abi": [
    {
      "inputs": [],
      "stateMutability": "nonpayable",
      "type": "constructor"
    },
    {
      "anonymous": false,
      "inputs": [
        {
          "indexed": true,
          "internalType": "address",
          "name": "user",
          "type": "address"
        },
        {
          "indexed": false,
          "internalType": "string",
          "name": "name",
          "type": "string"
        },
        {
          "indexed": false,
          "internalType": "string",
          "name": "email",
          "type": "string"
        },
        {
          "indexed": false,
          "internalType": "uint256",
          "name": "value",
          "type": "uint256"
        }
      ],
      "name": "AccountCreated",
      "type": "event"
    },
    {
      "anonymous": false,
      "inputs": [
        {
          "indexed": true,
          "internalType": "address",
          "name": "user",
          "type": "address"
        }
      ],
      "name": "AccountPurged",
      "type": "event"
    },
    {
      "anonymous": false,
      "inputs": [
        {
          "indexed": true,
          "internalType": "address",
          "name": "newAdmin",
          "type": "address"
        }
      ],
      "name": "AdminChanged",
      "type": "event"
    },
    {
      "anonymous": false,
      "inputs": [
        {
          "indexed": true,
          "internalType": "address",
          "name": "user",
          "type": "address"
        },
        {
          "indexed": false,
          "internalType": "uint256",
          "name": "amount",
          "type": "uint256"
        }
      ],
      "name": "DepositMade",
      "type": "event"
    },
    {
      "anonymous": false,
      "inputs": [
        {
          "indexed": true,
          "internalType": "address",
          "name": "user",
          "type": "address"
        },
        {
          "indexed": false,
          "internalType": "uint256",
          "name": "newAmount",
          "type": "uint256"
        }
      ],
      "name": "DepositUpdated",
      "type": "event"
    },
    {
      "anonymous": false,
      "inputs": [],
      "name": "StartVoting",
      "type": "event"
    },
    {
      "anonymous": false,
      "inputs": [
        {
          "indexed": true,
          "internalType": "address",
          "name": "user",
          "type": "address"
        },
        {
          "indexed": false,
          "internalType": "uint256",
          "name": "amount",
          "type": "uint256"
        }
      ],
      "name": "WithdrawalMade",
      "type": "event"
    },
    {
      "inputs": [
        {
          "internalType": "uint256",
          "name": "",
          "type": "uint256"
        }
      ],
      "name": "accountAddresses",
      "outputs": [
        {
          "internalType": "address",
          "name": "",
          "type": "address"
        }
      ],
      "stateMutability": "view",
      "type": "function",
      "constant": true
    },
    {
      "inputs": [
        {
          "internalType": "address",
          "name": "",
          "type": "address"
        }
      ],
      "name": "accounts",
      "outputs": [
        {
          "internalType": "address",
          "name": "userAddress",
          "type": "address"
        },
        {
          "internalType": "string",
          "name": "name",
          "type": "string"
        },
        {
          "internalType": "string",
          "name": "email",
          "type": "string"
        },
        {
          "internalType": "bool",
          "name": "exist",
          "type": "bool"
        },
        {
          "internalType": "uint256",
          "name": "value",
          "type": "uint256"
        }
      ],
      "stateMutability": "view",
      "type": "function",
      "constant": true
    },
    {
      "inputs": [
        {
          "internalType": "uint256",
          "name": "",
          "type": "uint256"
        }
      ],
      "name": "proposedAdminAddresses",
      "outputs": [
        {
          "internalType": "address",
          "name": "",
          "type": "address"
        }
      ],
      "stateMutability": "view",
      "type": "function",
      "constant": true
    },
    {
      "inputs": [
        {
          "internalType": "address",
          "name": "",
          "type": "address"
        }
      ],
      "name": "proposedAdmins",
      "outputs": [
        {
          "internalType": "string",
          "name": "name",
          "type": "string"
        },
        {
          "internalType": "bool",
          "name": "exist",
          "type": "bool"
        },
        {
          "internalType": "uint256",
          "name": "votes",
          "type": "uint256"
        }
      ],
      "stateMutability": "view",
      "type": "function",
      "constant": true
    },
    {
      "inputs": [],
      "name": "totalAccounts",
      "outputs": [
        {
          "internalType": "uint256",
          "name": "",
          "type": "uint256"
        }
      ],
      "stateMutability": "view",
      "type": "function",
      "constant": true
    },
    {
      "inputs": [
        {
          "internalType": "uint256",
          "name": "",
          "type": "uint256"
        }
      ],
      "name": "voted",
      "outputs": [
        {
          "internalType": "address",
          "name": "",
          "type": "address"
        }
      ],
      "stateMutability": "view",
      "type": "function",
      "constant": true
    },
    {
      "inputs": [],
      "name": "getAdmin",
      "outputs": [
        {
          "internalType": "address",
          "name": "",
          "type": "address"
        }
      ],
      "stateMutability": "view",
      "type": "function",
      "constant": true
    },
    {
      "inputs": [],
      "name": "getAllAccounts",
      "outputs": [
        {
          "components": [
            {
              "internalType": "address",
              "name": "userAddress",
              "type": "address"
            },
            {
              "internalType": "string",
              "name": "name",
              "type": "string"
            },
            {
              "internalType": "string",
              "name": "email",
              "type": "string"
            },
            {
              "internalType": "bool",
              "name": "exist",
              "type": "bool"
            },
            {
              "internalType": "uint256",
              "name": "value",
              "type": "uint256"
            }
          ],
          "internalType": "struct AccountManager.Account[]",
          "name": "",
          "type": "tuple[]"
        }
      ],
      "stateMutability": "view",
      "type": "function",
      "constant": true
    },
    {
      "inputs": [],
      "name": "getAccountCount",
      "outputs": [
        {
          "internalType": "uint256",
          "name": "",
          "type": "uint256"
        }
      ],
      "stateMutability": "view",
      "type": "function",
      "constant": true
    },
    {
      "inputs": [
        {
          "internalType": "address",
          "name": "_account",
          "type": "address"
        }
      ],
      "name": "accountExists",
      "outputs": [
        {
          "internalType": "bool",
          "name": "",
          "type": "bool"
        }
      ],
      "stateMutability": "view",
      "type": "function",
      "constant": true
    },
    {
      "inputs": [
        {
          "internalType": "address",
          "name": "_user",
          "type": "address"
        },
        {
          "internalType": "string",
          "name": "_name",
          "type": "string"
        },
        {
          "internalType": "string",
          "name": "_email",
          "type": "string"
        }
      ],
      "name": "createAccount",
      "outputs": [],
      "stateMutability": "nonpayable",
      "type": "function"
    },
    {
      "inputs": [
        {
          "internalType": "address",
          "name": "_user",
          "type": "address"
        }
      ],
      "name": "purgeAccount",
      "outputs": [],
      "stateMutability": "nonpayable",
      "type": "function"
    },
    {
      "inputs": [
        {
          "internalType": "address",
          "name": "_user",
          "type": "address"
        }
      ],
      "name": "getAccountDetails",
      "outputs": [
        {
          "internalType": "string",
          "name": "name",
          "type": "string"
        },
        {
          "internalType": "string",
          "name": "email",
          "type": "string"
        },
        {
          "internalType": "uint256",
          "name": "value",
          "type": "uint256"
        }
      ],
      "stateMutability": "view",
      "type": "function",
      "constant": true
    },
    {
      "inputs": [],
      "name": "deposit",
      "outputs": [],
      "stateMutability": "payable",
      "type": "function",
      "payable": true
    },
    {
      "inputs": [
        {
          "internalType": "uint256",
          "name": "_amount",
          "type": "uint256"
        }
      ],
      "name": "withdraw",
      "outputs": [],
      "stateMutability": "nonpayable",
      "type": "function"
    },
    {
      "inputs": [
        {
          "internalType": "address",
          "name": "_user",
          "type": "address"
        },
        {
          "internalType": "uint256",
          "name": "_newAmount",
          "type": "uint256"
        }
      ],
      "name": "depositUpdate",
      "outputs": [
        {
          "internalType": "bool",
          "name": "success",
          "type": "bool"
        }
      ],
      "stateMutability": "nonpayable",
      "type": "function"
    },
    {
      "inputs": [],
      "name": "getContractBalance",
      "outputs": [
        {
          "internalType": "uint256",
          "name": "",
          "type": "uint256"
        }
      ],
      "stateMutability": "view",
      "type": "function",
      "constant": true
    },
    {
      "inputs": [
        {
          "internalType": "address",
          "name": "_target",
          "type": "address"
        }
      ],
      "name": "adminGetAccountDeposit",
      "outputs": [
        {
          "internalType": "uint256",
          "name": "value",
          "type": "uint256"
        }
      ],
      "stateMutability": "view",
      "type": "function",
      "constant": true
    },
    {
      "inputs": [
        {
          "internalType": "address",
          "name": "_target",
          "type": "address"
        }
      ],
      "name": "getAccountDeposit",
      "outputs": [
        {
          "internalType": "uint256",
          "name": "value",
          "type": "uint256"
        }
      ],
      "stateMutability": "view",
      "type": "function",
      "constant": true
    },
    {
      "inputs": [],
      "name": "getMyDeposit",
      "outputs": [
        {
          "internalType": "uint256",
          "name": "value",
          "type": "uint256"
        }
      ],
      "stateMutability": "view",
      "type": "function",
      "constant": true
    },
    {
      "inputs": [],
      "name": "startVoting",
      "outputs": [],
      "stateMutability": "nonpayable",
      "type": "function"
    },
    {
      "inputs": [
        {
          "internalType": "address",
          "name": "_admin",
          "type": "address"
        }
      ],
      "name": "proposeAdmin",
      "outputs": [],
      "stateMutability": "nonpayable",
      "type": "function"
    },
    {
      "inputs": [
        {
          "internalType": "address",
          "name": "_admin",
          "type": "address"
        }
      ],
      "name": "voteForAdmin",
      "outputs": [],
      "stateMutability": "nonpayable",
      "type": "function"
    },
    {
      "inputs": [],
      "name": "getProposedAdmins",
      "outputs": [
        {
          "components": [
            {
              "internalType": "string",
              "name": "name",
              "type": "string"
            },
            {
              "internalType": "bool",
              "name": "exist",
              "type": "bool"
            },
            {
              "internalType": "uint256",
              "name": "votes",
              "type": "uint256"
            }
          ],
          "internalType": "struct AccountManager.proposedAdmin[]",
          "name": "",
          "type": "tuple[]"
        }
      ],
      "stateMutability": "view",
      "type": "function",
      "constant": true
    },
    {
      "inputs": [],
      "name": "finalizeAdmin",
      "outputs": [],
      "stateMutability": "nonpayable",
      "type": "function"
    },
    {
      "inputs": [
        {
          "internalType": "address",
          "name": "_address",
          "type": "address"
        }
      ],
      "name": "voterHasVoted",
      "outputs": [
        {
          "internalType": "bool",
          "name": "",
          "type": "bool"
        }
      ],
      "stateMutability": "view",
      "type": "function",
      "constant": true
    }
  ],
  "bytecode": "0x60806040526000805534801561001457600080fd5b5033600160006101000a81548173ffffffffffffffffffffffffffffffffffffffff021916908373ffffffffffffffffffffffffffffffffffffffff160217905550614817806100656000396000f3fe6080604052600436106101815760003560e01c80636e9960c3116100d1578063afc4c4cf1161008a578063da836d5e11610064578063da836d5e146105b3578063db843bd4146105f2578063f413599214610609578063fb185bf31461063457610181565b8063afc4c4cf1461052f578063b6aa680c1461056c578063d0e30db0146105a957610181565b80636e9960c3146103f75780636f9fb98a1461042257806375cd51ed1461044d5780638fbb38ff1461048a578063a98e4e77146104c7578063ada6e9f2146104f257610181565b80631ec6b60a1161013e57806333d07dc91161011857806333d07dc9146103255780634dbe44541461036257806358451f971461038b5780635e5c06e2146103b657610181565b80631ec6b60a146102a65780632aceb534146102bd5780632e1a7d4d146102fc57610181565b806308d2a40f1461018657806308e93d0a146101c357806309b6a59c146101ee578063135c070114610217578063147bf6c4146102405780631bff58d814610269575b600080fd5b34801561019257600080fd5b506101ad60048036038101906101a8919061347c565b61065f565b6040516101ba91906134c2565b60405180910390f35b3480156101cf57600080fd5b506101d861097a565b6040516101e591906136ee565b60405180910390f35b3480156101fa57600080fd5b506102156004803603810190610210919061347c565b610ce9565b005b34801561022357600080fd5b5061023e6004803603810190610239919061347c565b610f25565b005b34801561024c57600080fd5b506102676004803603810190610262919061347c565b6112d3565b005b34801561027557600080fd5b50610290600480360381019061028b919061373c565b61166c565b60405161029d9190613778565b60405180910390f35b3480156102b257600080fd5b506102bb6116ab565b005b3480156102c957600080fd5b506102e460048036038101906102df919061347c565b611779565b6040516102f3939291906137dd565b60405180910390f35b34801561030857600080fd5b50610323600480360381019061031e919061373c565b611a17565b005b34801561033157600080fd5b5061034c60048036038101906103479190613822565b611cc5565b6040516103599190613871565b60405180910390f35b34801561036e57600080fd5b50610389600480360381019061038491906139c1565b611df5565b005b34801561039757600080fd5b506103a0612165565b6040516103ad91906134c2565b60405180910390f35b3480156103c257600080fd5b506103dd60048036038101906103d8919061347c565b61216b565b6040516103ee959493929190613a4c565b60405180910390f35b34801561040357600080fd5b5061040c6122de565b6040516104199190613778565b60405180910390f35b34801561042e57600080fd5b50610437612308565b60405161044491906134c2565b60405180910390f35b34801561045957600080fd5b50610474600480360381019061046f919061347c565b612310565b6040516104819190613871565b60405180910390f35b34801561049657600080fd5b506104b160048036038101906104ac919061373c565b612369565b6040516104be9190613778565b60405180910390f35b3480156104d357600080fd5b506104dc6123a8565b6040516104e991906134c2565b60405180910390f35b3480156104fe57600080fd5b506105196004803603810190610514919061347c565b6123b1565b6040516105269190613871565b60405180910390f35b34801561053b57600080fd5b506105566004803603810190610551919061373c565b61245f565b6040516105639190613778565b60405180910390f35b34801561057857600080fd5b50610593600480360381019061058e919061347c565b61249e565b6040516105a091906134c2565b60405180910390f35b6105b1612729565b005b3480156105bf57600080fd5b506105da60048036038101906105d5919061347c565b6128a4565b6040516105e993929190613aad565b60405180910390f35b3480156105fe57600080fd5b50610607612963565b005b34801561061557600080fd5b5061061e612bb1565b60405161062b91906134c2565b60405180910390f35b34801561064057600080fd5b50610649612e3a565b6040516106569190613bfd565b60405180910390f35b6000600160009054906101000a900473ffffffffffffffffffffffffffffffffffffffff1673ffffffffffffffffffffffffffffffffffffffff163373ffffffffffffffffffffffffffffffffffffffff16146106f1576040517f08c379a00000000000000000000000000000000000000000000000000000000081526004016106e890613c6b565b60405180910390fd5b600260008373ffffffffffffffffffffffffffffffffffffffff1673ffffffffffffffffffffffffffffffffffffffff16815260200190815260200160002060030160009054906101000a900460ff16610780576040517f08c379a000000000000000000000000000000000000000000000000000000000815260040161077790613cd7565b60405180910390fd5b6000600260008473ffffffffffffffffffffffffffffffffffffffff1673ffffffffffffffffffffffffffffffffffffffff1681526020019081526020016000206040518060a00160405290816000820160009054906101000a900473ffffffffffffffffffffffffffffffffffffffff1673ffffffffffffffffffffffffffffffffffffffff1673ffffffffffffffffffffffffffffffffffffffff16815260200160018201805461083290613d26565b80601f016020809104026020016040519081016040528092919081815260200182805461085e90613d26565b80156108ab5780601f10610880576101008083540402835291602001916108ab565b820191906000526020600020905b81548152906001019060200180831161088e57829003601f168201915b505050505081526020016002820180546108c490613d26565b80601f01602080910402602001604051908101604052809291908181526020018280546108f090613d26565b801561093d5780601f106109125761010080835404028352916020019161093d565b820191906000526020600020905b81548152906001019060200180831161092057829003601f168201915b505050505081526020016003820160009054906101000a900460ff1615151515815260200160048201548152505090508060800151915050919050565b60606000805467ffffffffffffffff81111561099957610998613896565b5b6040519080825280602002602001820160405280156109d257816020015b6109bf61329c565b8152602001906001900390816109b75790505b5090506000805b600380549050811015610ce05760026000600383815481106109fe576109fd613d57565b5b9060005260206000200160009054906101000a900473ffffffffffffffffffffffffffffffffffffffff1673ffffffffffffffffffffffffffffffffffffffff1673ffffffffffffffffffffffffffffffffffffffff16815260200190815260200160002060030160009054906101000a900460ff1615610ccd576002600060038381548110610a9157610a90613d57565b5b9060005260206000200160009054906101000a900473ffffffffffffffffffffffffffffffffffffffff1673ffffffffffffffffffffffffffffffffffffffff1673ffffffffffffffffffffffffffffffffffffffff1681526020019081526020016000206040518060a00160405290816000820160009054906101000a900473ffffffffffffffffffffffffffffffffffffffff1673ffffffffffffffffffffffffffffffffffffffff1673ffffffffffffffffffffffffffffffffffffffff168152602001600182018054610b6790613d26565b80601f0160208091040260200160405190810160405280929190818152602001828054610b9390613d26565b8015610be05780601f10610bb557610100808354040283529160200191610be0565b820191906000526020600020905b815481529060010190602001808311610bc357829003601f168201915b50505050508152602001600282018054610bf990613d26565b80601f0160208091040260200160405190810160405280929190818152602001828054610c2590613d26565b8015610c725780601f10610c4757610100808354040283529160200191610c72565b820191906000526020600020905b815481529060010190602001808311610c5557829003601f168201915b505050505081526020016003820160009054906101000a900460ff16151515158152602001600482015481525050838381518110610cb357610cb2613d57565b5b60200260200101819052508180610cc990613db5565b9250505b8080610cd890613db5565b9150506109d9565b50819250505090565b6009544210158015610cfd57506008544211155b610d3c576040517f08c379a0000000000000000000000000000000000000000000000000000000008152600401610d3390613e49565b60405180910390fd5b6000600b5403610d81576040517f08c379a0000000000000000000000000000000000000000000000000000000008152600401610d7890613eb5565b60405180910390fd5b610d8a33612310565b610dc9576040517f08c379a0000000000000000000000000000000000000000000000000000000008152600401610dc090613f21565b60405180910390fd5b610dd2336123b1565b15610e12576040517f08c379a0000000000000000000000000000000000000000000000000000000008152600401610e0990613f8d565b60405180910390fd5b600c339080600181540180825580915050600190039060005260206000200160009091909190916101000a81548173ffffffffffffffffffffffffffffffffffffffff021916908373ffffffffffffffffffffffffffffffffffffffff160217905550600460008273ffffffffffffffffffffffffffffffffffffffff1673ffffffffffffffffffffffffffffffffffffffff1681526020019081526020016000206002016000815480929190610ec890613db5565b9190505550600554600460008373ffffffffffffffffffffffffffffffffffffffff1673ffffffffffffffffffffffffffffffffffffffff1681526020019081526020016000206002015410610f2257610f21816130c2565b5b50565b600160009054906101000a900473ffffffffffffffffffffffffffffffffffffffff1673ffffffffffffffffffffffffffffffffffffffff163373ffffffffffffffffffffffffffffffffffffffff1614610fb5576040517f08c379a0000000000000000000000000000000000000000000000000000000008152600401610fac90613c6b565b60405180910390fd5b600260008273ffffffffffffffffffffffffffffffffffffffff1673ffffffffffffffffffffffffffffffffffffffff16815260200190815260200160002060030160009054906101000a900460ff16611044576040517f08c379a000000000000000000000000000000000000000000000000000000000815260040161103b90613cd7565b60405180910390fd5b60008081548092919061105690613fad565b9190505550600260008273ffffffffffffffffffffffffffffffffffffffff1673ffffffffffffffffffffffffffffffffffffffff168152602001908152602001600020600080820160006101000a81549073ffffffffffffffffffffffffffffffffffffffff02191690556001820160006110d291906132e3565b6002820160006110e291906132e3565b6003820160006101000a81549060ff02191690556004820160009055505060005b60038054905081101561128c578173ffffffffffffffffffffffffffffffffffffffff166003828154811061113b5761113a613d57565b5b9060005260206000200160009054906101000a900473ffffffffffffffffffffffffffffffffffffffff1673ffffffffffffffffffffffffffffffffffffffff160361127957600360016003805490506111959190613fd6565b815481106111a6576111a5613d57565b5b9060005260206000200160009054906101000a900473ffffffffffffffffffffffffffffffffffffffff16600382815481106111e5576111e4613d57565b5b9060005260206000200160006101000a81548173ffffffffffffffffffffffffffffffffffffffff021916908373ffffffffffffffffffffffffffffffffffffffff160217905550600380548061123f5761123e61400a565b5b6001900381819060005260206000200160006101000a81549073ffffffffffffffffffffffffffffffffffffffff0219169055905561128c565b808061128490613db5565b915050611103565b508073ffffffffffffffffffffffffffffffffffffffff167f3f14551b0d08d686bfd223c59a828990f1a536ffb54391ad7e5658874d91649960405160405180910390a250565b600954421115611318576040517f08c379a000000000000000000000000000000000000000000000000000000000815260040161130f90614085565b60405180910390fd5b6003600b541061135d576040517f08c379a0000000000000000000000000000000000000000000000000000000008152600401611354906140f1565b60405180910390fd5b600260008273ffffffffffffffffffffffffffffffffffffffff1673ffffffffffffffffffffffffffffffffffffffff16815260200190815260200160002060030160009054906101000a900460ff166113ec576040517f08c379a00000000000000000000000000000000000000000000000000000000081526004016113e390614183565b60405180910390fd5b600460008273ffffffffffffffffffffffffffffffffffffffff1673ffffffffffffffffffffffffffffffffffffffff16815260200190815260200160002060010160009054906101000a900460ff161561147c576040517f08c379a0000000000000000000000000000000000000000000000000000000008152600401611473906141ef565b60405180910390fd5b6040518060600160405280600260008473ffffffffffffffffffffffffffffffffffffffff1673ffffffffffffffffffffffffffffffffffffffff16815260200190815260200160002060010180546114d490613d26565b80601f016020809104026020016040519081016040528092919081815260200182805461150090613d26565b801561154d5780601f106115225761010080835404028352916020019161154d565b820191906000526020600020905b81548152906001019060200180831161153057829003601f168201915b505050505081526020016001151581526020016000815250600460008373ffffffffffffffffffffffffffffffffffffffff1673ffffffffffffffffffffffffffffffffffffffff16815260200190815260200160002060008201518160000190805190602001906115c0929190613323565b5060208201518160010160006101000a81548160ff021916908315150217905550604082015181600201559050506006819080600181540180825580915050600190039060005260206000200160009091909190916101000a81548173ffffffffffffffffffffffffffffffffffffffff021916908373ffffffffffffffffffffffffffffffffffffffff160217905550600b600081548092919061166490613db5565b919050555050565b6003818154811061167c57600080fd5b906000526020600020016000915054906101000a900473ffffffffffffffffffffffffffffffffffffffff1681565b600a60009054906101000a900460ff16156116fb576040517f08c379a00000000000000000000000000000000000000000000000000000000081526004016116f29061425b565b60405180910390fd5b42600781905550603c4261170f919061427b565b600981905550607842611722919061427b565b6008819055506001600a60006101000a81548160ff02191690831515021790555061174b613151565b7f7a99c0a6f05e0021fc40bcc1b922b654f7f5f7c0239d3cdc7c8502bf553d3df060405160405180910390a1565b6060806000600260008573ffffffffffffffffffffffffffffffffffffffff1673ffffffffffffffffffffffffffffffffffffffff16815260200190815260200160002060030160009054906101000a900460ff1661180d576040517f08c379a000000000000000000000000000000000000000000000000000000000815260040161180490613cd7565b60405180910390fd5b6000600260008673ffffffffffffffffffffffffffffffffffffffff1673ffffffffffffffffffffffffffffffffffffffff1681526020019081526020016000206040518060a00160405290816000820160009054906101000a900473ffffffffffffffffffffffffffffffffffffffff1673ffffffffffffffffffffffffffffffffffffffff1673ffffffffffffffffffffffffffffffffffffffff1681526020016001820180546118bf90613d26565b80601f01602080910402602001604051908101604052809291908181526020018280546118eb90613d26565b80156119385780601f1061190d57610100808354040283529160200191611938565b820191906000526020600020905b81548152906001019060200180831161191b57829003601f168201915b5050505050815260200160028201805461195190613d26565b80601f016020809104026020016040519081016040528092919081815260200182805461197d90613d26565b80156119ca5780601f1061199f576101008083540402835291602001916119ca565b820191906000526020600020905b8154815290600101906020018083116119ad57829003601f168201915b505050505081526020016003820160009054906101000a900460ff161515151581526020016004820154815250509050806020015181604001518260800151935093509350509193909250565b600260003373ffffffffffffffffffffffffffffffffffffffff1673ffffffffffffffffffffffffffffffffffffffff16815260200190815260200160002060030160009054906101000a900460ff16611aa6576040517f08c379a0000000000000000000000000000000000000000000000000000000008152600401611a9d90613cd7565b60405180910390fd5b60008111611ae9576040517f08c379a0000000000000000000000000000000000000000000000000000000008152600401611ae090614343565b60405180910390fd5b80600260003373ffffffffffffffffffffffffffffffffffffffff1673ffffffffffffffffffffffffffffffffffffffff168152602001908152602001600020600401541015611b6e576040517f08c379a0000000000000000000000000000000000000000000000000000000008152600401611b65906143af565b60405180910390fd5b80600260003373ffffffffffffffffffffffffffffffffffffffff1673ffffffffffffffffffffffffffffffffffffffff1681526020019081526020016000206004016000828254611bc09190613fd6565b9250508190555060003373ffffffffffffffffffffffffffffffffffffffff1682604051611bed90614400565b60006040518083038185875af1925050503d8060008114611c2a576040519150601f19603f3d011682016040523d82523d6000602084013e611c2f565b606091505b5050905080611c73576040517f08c379a0000000000000000000000000000000000000000000000000000000008152600401611c6a90614461565b60405180910390fd5b3373ffffffffffffffffffffffffffffffffffffffff167fbc158bb64f05d6383aea69bbb0b20c1bbf4b7a18f63359c5649b7c39e29d388483604051611cb991906134c2565b60405180910390a25050565b6000600260008473ffffffffffffffffffffffffffffffffffffffff1673ffffffffffffffffffffffffffffffffffffffff16815260200190815260200160002060030160009054906101000a900460ff16611d56576040517f08c379a0000000000000000000000000000000000000000000000000000000008152600401611d4d90613cd7565b60405180910390fd5b81600260008573ffffffffffffffffffffffffffffffffffffffff1673ffffffffffffffffffffffffffffffffffffffff168152602001908152602001600020600401819055508273ffffffffffffffffffffffffffffffffffffffff167f6f477b4fa05359c0d3b9148b7b6428fc74aadbcab5661c67d059f01b8255c59183604051611de391906134c2565b60405180910390a26001905092915050565b600160009054906101000a900473ffffffffffffffffffffffffffffffffffffffff1673ffffffffffffffffffffffffffffffffffffffff163373ffffffffffffffffffffffffffffffffffffffff1614611e85576040517f08c379a0000000000000000000000000000000000000000000000000000000008152600401611e7c90613c6b565b60405180910390fd5b600954421080611e96575060085442115b611ed5576040517f08c379a0000000000000000000000000000000000000000000000000000000008152600401611ecc906144cd565b60405180910390fd5b600260008473ffffffffffffffffffffffffffffffffffffffff1673ffffffffffffffffffffffffffffffffffffffff16815260200190815260200160002060030160009054906101000a900460ff1615611f65576040517f08c379a0000000000000000000000000000000000000000000000000000000008152600401611f5c90614539565b60405180910390fd5b6040518060a001604052808473ffffffffffffffffffffffffffffffffffffffff1681526020018381526020018281526020016001151581526020016000815250600260008573ffffffffffffffffffffffffffffffffffffffff1673ffffffffffffffffffffffffffffffffffffffff16815260200190815260200160002060008201518160000160006101000a81548173ffffffffffffffffffffffffffffffffffffffff021916908373ffffffffffffffffffffffffffffffffffffffff1602179055506020820151816001019080519060200190612048929190613323565b506040820151816002019080519060200190612065929190613323565b5060608201518160030160006101000a81548160ff021916908315150217905550608082015181600401559050506003839080600181540180825580915050600190039060005260206000200160009091909190916101000a81548173ffffffffffffffffffffffffffffffffffffffff021916908373ffffffffffffffffffffffffffffffffffffffff16021790555060008081548092919061210890613db5565b91905055508273ffffffffffffffffffffffffffffffffffffffff167f1fc94085b6f00acdb1339935d5f8516e3aa7d501142158ed1e455e2149944a8b838360006040516121589392919061459e565b60405180910390a2505050565b60005481565b60026020528060005260406000206000915090508060000160009054906101000a900473ffffffffffffffffffffffffffffffffffffffff16908060010180546121b490613d26565b80601f01602080910402602001604051908101604052809291908181526020018280546121e090613d26565b801561222d5780601f106122025761010080835404028352916020019161222d565b820191906000526020600020905b81548152906001019060200180831161221057829003601f168201915b50505050509080600201805461224290613d26565b80601f016020809104026020016040519081016040528092919081815260200182805461226e90613d26565b80156122bb5780601f10612290576101008083540402835291602001916122bb565b820191906000526020600020905b81548152906001019060200180831161229e57829003601f168201915b5050505050908060030160009054906101000a900460ff16908060040154905085565b6000600160009054906101000a900473ffffffffffffffffffffffffffffffffffffffff16905090565b600047905090565b6000600260008373ffffffffffffffffffffffffffffffffffffffff1673ffffffffffffffffffffffffffffffffffffffff16815260200190815260200160002060030160009054906101000a900460ff169050919050565b600c818154811061237957600080fd5b906000526020600020016000915054906101000a900473ffffffffffffffffffffffffffffffffffffffff1681565b60008054905090565b600080600090505b600c80549050811015612454578273ffffffffffffffffffffffffffffffffffffffff16600c82815481106123f1576123f0613d57565b5b9060005260206000200160009054906101000a900473ffffffffffffffffffffffffffffffffffffffff1673ffffffffffffffffffffffffffffffffffffffff160361244157600191505061245a565b808061244c90613db5565b9150506123b9565b50600090505b919050565b6006818154811061246f57600080fd5b906000526020600020016000915054906101000a900473ffffffffffffffffffffffffffffffffffffffff1681565b6000600260008373ffffffffffffffffffffffffffffffffffffffff1673ffffffffffffffffffffffffffffffffffffffff16815260200190815260200160002060030160009054906101000a900460ff1661252f576040517f08c379a000000000000000000000000000000000000000000000000000000000815260040161252690613cd7565b60405180910390fd5b6000600260008473ffffffffffffffffffffffffffffffffffffffff1673ffffffffffffffffffffffffffffffffffffffff1681526020019081526020016000206040518060a00160405290816000820160009054906101000a900473ffffffffffffffffffffffffffffffffffffffff1673ffffffffffffffffffffffffffffffffffffffff1673ffffffffffffffffffffffffffffffffffffffff1681526020016001820180546125e190613d26565b80601f016020809104026020016040519081016040528092919081815260200182805461260d90613d26565b801561265a5780601f1061262f5761010080835404028352916020019161265a565b820191906000526020600020905b81548152906001019060200180831161263d57829003601f168201915b5050505050815260200160028201805461267390613d26565b80601f016020809104026020016040519081016040528092919081815260200182805461269f90613d26565b80156126ec5780601f106126c1576101008083540402835291602001916126ec565b820191906000526020600020905b8154815290600101906020018083116126cf57829003601f168201915b505050505081526020016003820160009054906101000a900460ff1615151515815260200160048201548152505090508060800151915050919050565b600260003373ffffffffffffffffffffffffffffffffffffffff1673ffffffffffffffffffffffffffffffffffffffff16815260200190815260200160002060030160009054906101000a900460ff166127b8576040517f08c379a00000000000000000000000000000000000000000000000000000000081526004016127af90613cd7565b60405180910390fd5b600034116127fb576040517f08c379a00000000000000000000000000000000000000000000000000000000081526004016127f29061462f565b60405180910390fd5b34600260003373ffffffffffffffffffffffffffffffffffffffff1673ffffffffffffffffffffffffffffffffffffffff168152602001908152602001600020600401600082825461284d919061427b565b925050819055503373ffffffffffffffffffffffffffffffffffffffff167fd15c9547ea5c06670c0010ce19bc32d54682a4b3801ece7f3ab0c3f17106b4bb3460405161289a91906134c2565b60405180910390a2565b60046020528060005260406000206000915090508060000180546128c790613d26565b80601f01602080910402602001604051908101604052809291908181526020018280546128f390613d26565b80156129405780601f1061291557610100808354040283529160200191612940565b820191906000526020600020905b81548152906001019060200180831161292357829003601f168201915b5050505050908060010160009054906101000a900460ff16908060020154905083565b60085442116129a7576040517f08c379a000000000000000000000000000000000000000000000000000000000815260040161299e9061469b565b60405180910390fd5b6000600b54036129ec576040517f08c379a00000000000000000000000000000000000000000000000000000000081526004016129e390613eb5565b60405180910390fd5b6000806000905060005b600680549050811015612ab157600060068281548110612a1957612a18613d57565b5b9060005260206000200160009054906101000a900473ffffffffffffffffffffffffffffffffffffffff1690506000600460008373ffffffffffffffffffffffffffffffffffffffff1673ffffffffffffffffffffffffffffffffffffffff16815260200190815260200160002060020154905083811115612a9c578093508194505b50508080612aa990613db5565b9150506129f6565b50600073ffffffffffffffffffffffffffffffffffffffff168273ffffffffffffffffffffffffffffffffffffffff1603612b21576040517f08c379a0000000000000000000000000000000000000000000000000000000008152600401612b1890614707565b60405180910390fd5b81600160006101000a81548173ffffffffffffffffffffffffffffffffffffffff021916908373ffffffffffffffffffffffffffffffffffffffff1602179055508173ffffffffffffffffffffffffffffffffffffffff167f7ce7ec0b50378fb6c0186ffb5f48325f6593fcb4ca4386f21861af3129188f5c60405160405180910390a2612bad61318b565b5050565b6000600260003373ffffffffffffffffffffffffffffffffffffffff1673ffffffffffffffffffffffffffffffffffffffff16815260200190815260200160002060030160009054906101000a900460ff16612c42576040517f08c379a0000000000000000000000000000000000000000000000000000000008152600401612c3990613cd7565b60405180910390fd5b6000600260003373ffffffffffffffffffffffffffffffffffffffff1673ffffffffffffffffffffffffffffffffffffffff1681526020019081526020016000206040518060a00160405290816000820160009054906101000a900473ffffffffffffffffffffffffffffffffffffffff1673ffffffffffffffffffffffffffffffffffffffff1673ffffffffffffffffffffffffffffffffffffffff168152602001600182018054612cf490613d26565b80601f0160208091040260200160405190810160405280929190818152602001828054612d2090613d26565b8015612d6d5780601f10612d4257610100808354040283529160200191612d6d565b820191906000526020600020905b815481529060010190602001808311612d5057829003601f168201915b50505050508152602001600282018054612d8690613d26565b80601f0160208091040260200160405190810160405280929190818152602001828054612db290613d26565b8015612dff5780601f10612dd457610100808354040283529160200191612dff565b820191906000526020600020905b815481529060010190602001808311612de257829003601f168201915b505050505081526020016003820160009054906101000a900460ff161515151581526020016004820154815250509050806080015191505090565b60606000600b5467ffffffffffffffff811115612e5a57612e59613896565b5b604051908082528060200260200182016040528015612e9357816020015b612e806133a9565b815260200190600190039081612e785790505b5090506000805b6003805490508110156130b9576004600060038381548110612ebf57612ebe613d57565b5b9060005260206000200160009054906101000a900473ffffffffffffffffffffffffffffffffffffffff1673ffffffffffffffffffffffffffffffffffffffff1673ffffffffffffffffffffffffffffffffffffffff16815260200190815260200160002060010160009054906101000a900460ff16156130a6576004600060038381548110612f5257612f51613d57565b5b9060005260206000200160009054906101000a900473ffffffffffffffffffffffffffffffffffffffff1673ffffffffffffffffffffffffffffffffffffffff1673ffffffffffffffffffffffffffffffffffffffff168152602001908152602001600020604051806060016040529081600082018054612fd290613d26565b80601f0160208091040260200160405190810160405280929190818152602001828054612ffe90613d26565b801561304b5780601f106130205761010080835404028352916020019161304b565b820191906000526020600020905b81548152906001019060200180831161302e57829003601f168201915b505050505081526020016001820160009054906101000a900460ff1615151515815260200160028201548152505083838151811061308c5761308b613d57565b5b602002602001018190525081806130a290613db5565b9250505b80806130b190613db5565b915050612e9a565b50819250505090565b80600160006101000a81548173ffffffffffffffffffffffffffffffffffffffff021916908373ffffffffffffffffffffffffffffffffffffffff1602179055508073ffffffffffffffffffffffffffffffffffffffff167f7ce7ec0b50378fb6c0186ffb5f48325f6593fcb4ca4386f21861af3129188f5c60405160405180910390a261314e61318b565b50565b600061315b6123a8565b90506064606360338361316e9190614727565b613178919061427b565b61318291906147b0565b60058190555050565b60005b600c8054905081101561325a5760046000600c83815481106131b3576131b2613d57565b5b9060005260206000200160009054906101000a900473ffffffffffffffffffffffffffffffffffffffff1673ffffffffffffffffffffffffffffffffffffffff1673ffffffffffffffffffffffffffffffffffffffff1681526020019081526020016000206000808201600061322991906132e3565b6001820160006101000a81549060ff021916905560028201600090555050808061325290613db5565b91505061318e565b506000600a60006101000a81548160ff0219169083151502179055506000600b819055506006600061328c91906133cc565b600c600061329a91906133cc565b565b6040518060a00160405280600073ffffffffffffffffffffffffffffffffffffffff1681526020016060815260200160608152602001600015158152602001600081525090565b5080546132ef90613d26565b6000825580601f106133015750613320565b601f01602090049060005260206000209081019061331f91906133ed565b5b50565b82805461332f90613d26565b90600052602060002090601f0160209004810192826133515760008555613398565b82601f1061336a57805160ff1916838001178555613398565b82800160010185558215613398579182015b8281111561339757825182559160200191906001019061337c565b5b5090506133a591906133ed565b5090565b604051806060016040528060608152602001600015158152602001600081525090565b50805460008255906000526020600020908101906133ea91906133ed565b50565b5b808211156134065760008160009055506001016133ee565b5090565b6000604051905090565b600080fd5b600080fd5b600073ffffffffffffffffffffffffffffffffffffffff82169050919050565b60006134498261341e565b9050919050565b6134598161343e565b811461346457600080fd5b50565b60008135905061347681613450565b92915050565b60006020828403121561349257613491613414565b5b60006134a084828501613467565b91505092915050565b6000819050919050565b6134bc816134a9565b82525050565b60006020820190506134d760008301846134b3565b92915050565b600081519050919050565b600082825260208201905092915050565b6000819050602082019050919050565b6135128161343e565b82525050565b600081519050919050565b600082825260208201905092915050565b60005b83811015613552578082015181840152602081019050613537565b83811115613561576000848401525b50505050565b6000601f19601f8301169050919050565b600061358382613518565b61358d8185613523565b935061359d818560208601613534565b6135a681613567565b840191505092915050565b60008115159050919050565b6135c6816135b1565b82525050565b6135d5816134a9565b82525050565b600060a0830160008301516135f36000860182613509565b506020830151848203602086015261360b8282613578565b915050604083015184820360408601526136258282613578565b915050606083015161363a60608601826135bd565b50608083015161364d60808601826135cc565b508091505092915050565b600061366483836135db565b905092915050565b6000602082019050919050565b6000613684826134dd565b61368e81856134e8565b9350836020820285016136a0856134f9565b8060005b858110156136dc57848403895281516136bd8582613658565b94506136c88361366c565b925060208a019950506001810190506136a4565b50829750879550505050505092915050565b600060208201905081810360008301526137088184613679565b905092915050565b613719816134a9565b811461372457600080fd5b50565b60008135905061373681613710565b92915050565b60006020828403121561375257613751613414565b5b600061376084828501613727565b91505092915050565b6137728161343e565b82525050565b600060208201905061378d6000830184613769565b92915050565b600082825260208201905092915050565b60006137af82613518565b6137b98185613793565b93506137c9818560208601613534565b6137d281613567565b840191505092915050565b600060608201905081810360008301526137f781866137a4565b9050818103602083015261380b81856137a4565b905061381a60408301846134b3565b949350505050565b6000806040838503121561383957613838613414565b5b600061384785828601613467565b925050602061385885828601613727565b9150509250929050565b61386b816135b1565b82525050565b60006020820190506138866000830184613862565b92915050565b600080fd5b600080fd5b7f4e487b7100000000000000000000000000000000000000000000000000000000600052604160045260246000fd5b6138ce82613567565b810181811067ffffffffffffffff821117156138ed576138ec613896565b5b80604052505050565b600061390061340a565b905061390c82826138c5565b919050565b600067ffffffffffffffff82111561392c5761392b613896565b5b61393582613567565b9050602081019050919050565b82818337600083830152505050565b600061396461395f84613911565b6138f6565b9050828152602081018484840111156139805761397f613891565b5b61398b848285613942565b509392505050565b600082601f8301126139a8576139a761388c565b5b81356139b8848260208601613951565b91505092915050565b6000806000606084860312156139da576139d9613414565b5b60006139e886828701613467565b935050602084013567ffffffffffffffff811115613a0957613a08613419565b5b613a1586828701613993565b925050604084013567ffffffffffffffff811115613a3657613a35613419565b5b613a4286828701613993565b9150509250925092565b600060a082019050613a616000830188613769565b8181036020830152613a7381876137a4565b90508181036040830152613a8781866137a4565b9050613a966060830185613862565b613aa360808301846134b3565b9695505050505050565b60006060820190508181036000830152613ac781866137a4565b9050613ad66020830185613862565b613ae360408301846134b3565b949350505050565b600081519050919050565b600082825260208201905092915050565b6000819050602082019050919050565b60006060830160008301518482036000860152613b348282613578565b9150506020830151613b4960208601826135bd565b506040830151613b5c60408601826135cc565b508091505092915050565b6000613b738383613b17565b905092915050565b6000602082019050919050565b6000613b9382613aeb565b613b9d8185613af6565b935083602082028501613baf85613b07565b8060005b85811015613beb5784840389528151613bcc8582613b67565b9450613bd783613b7b565b925060208a01995050600181019050613bb3565b50829750879550505050505092915050565b60006020820190508181036000830152613c178184613b88565b905092915050565b7f4e6f7420436f6e74726163742041646d696e0000000000000000000000000000600082015250565b6000613c55601283613793565b9150613c6082613c1f565b602082019050919050565b60006020820190508181036000830152613c8481613c48565b9050919050565b7f4163636f756e7420646f65736e27742065786973740000000000000000000000600082015250565b6000613cc1601583613793565b9150613ccc82613c8b565b602082019050919050565b60006020820190508181036000830152613cf081613cb4565b9050919050565b7f4e487b7100000000000000000000000000000000000000000000000000000000600052602260045260246000fd5b60006002820490506001821680613d3e57607f821691505b602082108103613d5157613d50613cf7565b5b50919050565b7f4e487b7100000000000000000000000000000000000000000000000000000000600052603260045260246000fd5b7f4e487b7100000000000000000000000000000000000000000000000000000000600052601160045260246000fd5b6000613dc0826134a9565b91507fffffffffffffffffffffffffffffffffffffffffffffffffffffffffffffffff8203613df257613df1613d86565b5b600182019050919050565b7f566f74696e67207068617365206973206e6f74206163746976652e0000000000600082015250565b6000613e33601b83613793565b9150613e3e82613dfd565b602082019050919050565b60006020820190508181036000830152613e6281613e26565b9050919050565b7f4e6f2061646d696e2070726f706f736564000000000000000000000000000000600082015250565b6000613e9f601183613793565b9150613eaa82613e69565b602082019050919050565b60006020820190508181036000830152613ece81613e92565b9050919050565b7f4f6e6c7920726567697374657265642075736572732063616e20766f74652e00600082015250565b6000613f0b601f83613793565b9150613f1682613ed5565b602082019050919050565b60006020820190508181036000830152613f3a81613efe565b9050919050565b7f416c726561647920766f7465642e000000000000000000000000000000000000600082015250565b6000613f77600e83613793565b9150613f8282613f41565b602082019050919050565b60006020820190508181036000830152613fa681613f6a565b9050919050565b6000613fb8826134a9565b915060008203613fcb57613fca613d86565b5b600182039050919050565b6000613fe1826134a9565b9150613fec836134a9565b925082821015613fff57613ffe613d86565b5b828203905092915050565b7f4e487b7100000000000000000000000000000000000000000000000000000000600052603160045260246000fd5b7f50726f706f73616c2070686173652068617320656e6465642e00000000000000600082015250565b600061406f601983613793565b915061407a82614039565b602082019050919050565b6000602082019050818103600083015261409e81614062565b9050919050565b7f50726f706f7365642041646d696e2046756c6c00000000000000000000000000600082015250565b60006140db601383613793565b91506140e6826140a5565b602082019050919050565b6000602082019050818103600083015261410a816140ce565b9050919050565b7f41646472657373206973206e6f7420696e20746865204163636f756e7420636f60008201527f6e74726163740000000000000000000000000000000000000000000000000000602082015250565b600061416d602683613793565b915061417882614111565b604082019050919050565b6000602082019050818103600083015261419c81614160565b9050919050565b7f41646d696e20697320616c72656164792070726f706f7365642e000000000000600082015250565b60006141d9601a83613793565b91506141e4826141a3565b602082019050919050565b60006020820190508181036000830152614208816141cc565b9050919050565b7f566f74696e6720697320616c7265616479206163746976652e00000000000000600082015250565b6000614245601983613793565b91506142508261420f565b602082019050919050565b6000602082019050818103600083015261427481614238565b9050919050565b6000614286826134a9565b9150614291836134a9565b9250827fffffffffffffffffffffffffffffffffffffffffffffffffffffffffffffffff038211156142c6576142c5613d86565b5b828201905092915050565b7f576974686472617720616d6f756e74206d75737420626520677265617465722060008201527f7468616e207a65726f0000000000000000000000000000000000000000000000602082015250565b600061432d602983613793565b9150614338826142d1565b604082019050919050565b6000602082019050818103600083015261435c81614320565b9050919050565b7f496e73756666696369656e742062616c616e6365000000000000000000000000600082015250565b6000614399601483613793565b91506143a482614363565b602082019050919050565b600060208201905081810360008301526143c88161438c565b9050919050565b600081905092915050565b50565b60006143ea6000836143cf565b91506143f5826143da565b600082019050919050565b600061440b826143dd565b9150819050919050565b7f5769746864726177616c206661696c6564000000000000000000000000000000600082015250565b600061444b601183613793565b915061445682614415565b602082019050919050565b6000602082019050818103600083015261447a8161443e565b9050919050565b7f566f74696e67207068617365206973206163746976652e000000000000000000600082015250565b60006144b7601783613793565b91506144c282614481565b602082019050919050565b600060208201905081810360008301526144e6816144aa565b9050919050565b7f4163636f756e7420616c72656164792065786973747300000000000000000000600082015250565b6000614523601683613793565b915061452e826144ed565b602082019050919050565b6000602082019050818103600083015261455281614516565b9050919050565b6000819050919050565b6000819050919050565b600061458861458361457e84614559565b614563565b6134a9565b9050919050565b6145988161456d565b82525050565b600060608201905081810360008301526145b881866137a4565b905081810360208301526145cc81856137a4565b90506145db604083018461458f565b949350505050565b7f596f75206e65656420746f206465706f73697420736f6d652045746865720000600082015250565b6000614619601e83613793565b9150614624826145e3565b602082019050919050565b600060208201905081810360008301526146488161460c565b9050919050565b7f566f74696e6720706572696f6420686173206e6f7420656e6465642e00000000600082015250565b6000614685601c83613793565b91506146908261464f565b602082019050919050565b600060208201905081810360008301526146b481614678565b9050919050565b7f4e6f2076616c69642061646d696e20666f756e642e0000000000000000000000600082015250565b60006146f1601583613793565b91506146fc826146bb565b602082019050919050565b60006020820190508181036000830152614720816146e4565b9050919050565b6000614732826134a9565b915061473d836134a9565b9250817fffffffffffffffffffffffffffffffffffffffffffffffffffffffffffffffff048311821515161561477657614775613d86565b5b828202905092915050565b7f4e487b7100000000000000000000000000000000000000000000000000000000600052601260045260246000fd5b60006147bb826134a9565b91506147c6836134a9565b9250826147d6576147d5614781565b5b82820490509291505056fea26469706673582212206a3a33283780ef23a45a318a4897f2ac64808b211b78411b097c3cec44ed5ce364736f6c634300080d0033",
  "immutableReferences": {},
  "source": "// SPDX-License-Identifier: MIT\r\npragma solidity ^0.8.0;\r\n\r\ncontract AccountManager {\r\n    //Account Manager----------------------------------------\r\n\r\n    struct Account {\r\n        address userAddress;\r\n        string name;\r\n        string email;\r\n        bool exist;\r\n        uint256 value;\r\n    }\r\n\r\n    uint256 public totalAccounts = 0;\r\n    address private admin;\r\n\r\n    mapping(address => Account) public accounts;\r\n\r\n    address[] public accountAddresses;\r\n\r\n    event AccountCreated(\r\n        address indexed user,\r\n        string name,\r\n        string email,\r\n        uint256 value\r\n    );\r\n    event AccountPurged(address indexed user);\r\n    event DepositMade(address indexed user, uint256 amount);\r\n    event WithdrawalMade(address indexed user, uint256 amount);\r\n    event DepositUpdated(address indexed user, uint256 newAmount);\r\n    // Modifiers\r\n    modifier onlyAdmin() {\r\n        require(msg.sender == admin, \"Not Contract Admin\");\r\n        _;\r\n    }\r\n\r\n    constructor() {\r\n        admin = msg.sender;\r\n    }\r\n\r\n    function getAdmin() public view returns (address) {\r\n        return admin;\r\n    }\r\n\r\n    function getAllAccounts() public view returns (Account[] memory) {\r\n        Account[] memory allAccounts = new Account[](totalAccounts);\r\n        uint256 count = 0;\r\n\r\n        for (uint256 i = 0; i < accountAddresses.length; i++) {\r\n            if (accounts[accountAddresses[i]].exist) {\r\n                allAccounts[count] = accounts[accountAddresses[i]];\r\n                count++;\r\n            }\r\n        }\r\n\r\n        return allAccounts;\r\n    }\r\n\r\n    function getAccountCount() public view returns (uint256) {\r\n        return totalAccounts;\r\n    }\r\n\r\n    function accountExists(address _account) public view returns (bool) {\r\n        return accounts[_account].exist;\r\n    }\r\n\r\n    function createAccount(\r\n        address _user,\r\n        string memory _name,\r\n        string memory _email\r\n    ) public onlyAdmin notDuringVotingPhase {\r\n        require(!accounts[_user].exist, \"Account already exists\");\r\n\r\n        accounts[_user] = Account({\r\n            userAddress: _user,\r\n            name: _name,\r\n            email: _email,\r\n            exist: true,\r\n            value: 0\r\n        });\r\n        accountAddresses.push(_user); // Add the user's address to the array\r\n        totalAccounts++;\r\n\r\n        emit AccountCreated(_user, _name, _email, 0);\r\n    }\r\n\r\n    function purgeAccount(address _user) public onlyAdmin {\r\n        require(accounts[_user].exist, \"Account doesn't exist\");\r\n\r\n        totalAccounts--;\r\n        delete accounts[_user];\r\n\r\n        for (uint256 i = 0; i < accountAddresses.length; i++) {\r\n            if (accountAddresses[i] == _user) {\r\n                accountAddresses[i] = accountAddresses[\r\n                    accountAddresses.length - 1\r\n                ];\r\n                accountAddresses.pop(); // Remove last element\r\n                break;\r\n            }\r\n        }\r\n\r\n        emit AccountPurged(_user);\r\n    }\r\n\r\n    function getAccountDetails(\r\n        address _user\r\n    )\r\n        public\r\n        view\r\n        returns (string memory name, string memory email, uint256 value)\r\n    {\r\n        require(accounts[_user].exist, \"Account doesn't exist\");\r\n        Account memory account = accounts[_user];\r\n        return (account.name, account.email, account.value);\r\n    }\r\n\r\n    function deposit() public payable {\r\n        require(accounts[msg.sender].exist, \"Account doesn't exist\");\r\n        require(msg.value > 0, \"You need to deposit some Ether\");\r\n\r\n        // Update the user's balance\r\n        accounts[msg.sender].value += msg.value;\r\n\r\n        // Emit the DepositMade event\r\n        emit DepositMade(msg.sender, msg.value);\r\n    }\r\n\r\n    function withdraw(uint256 _amount) public {\r\n        require(accounts[msg.sender].exist, \"Account doesn't exist\");\r\n        require(_amount > 0, \"Withdraw amount must be greater than zero\");\r\n        require(accounts[msg.sender].value >= _amount, \"Insufficient balance\");\r\n\r\n        // Deduct the withdrawn amount from the user's balance\r\n        accounts[msg.sender].value -= _amount;\r\n\r\n        // Transfer the Ether back to the user\r\n        (bool success, ) = msg.sender.call{value: _amount}(\"\");\r\n        require(success, \"Withdrawal failed\");\r\n\r\n        // Emit the WithdrawalMade event\r\n        emit WithdrawalMade(msg.sender, _amount);\r\n    }\r\n\r\n    function depositUpdate(\r\n        address _user,\r\n        uint256 _newAmount\r\n    ) public returns (bool success) {\r\n        require(accounts[_user].exist, \"Account doesn't exist\");\r\n\r\n        // Update the user's value to the new amount\r\n        accounts[_user].value = _newAmount;\r\n\r\n        // Emit the DepositUpdated event\r\n        emit DepositUpdated(_user, _newAmount);\r\n        return true;\r\n    }\r\n\r\n    function getContractBalance() public view returns (uint256) {\r\n        return address(this).balance;\r\n    }\r\n\r\n    function adminGetAccountDeposit(\r\n        address _target\r\n    ) public  view  onlyAdmin returns (uint256 value) {\r\n        require(accounts[_target].exist, \"Account doesn't exist\");\r\n        Account memory account = accounts[_target];\r\n        return account.value;\r\n    }\r\n\r\n    // for proccesing use onlt\r\n\r\n     function getAccountDeposit(\r\n        address _target\r\n    ) external  view  returns (uint256 value) {\r\n        require(accounts[_target].exist, \"Account doesn't exist\");\r\n        Account memory account = accounts[_target];\r\n        return account.value;\r\n    }\r\n    function getMyDeposit(\r\n    ) public view returns (uint256 value) {\r\n        require(accounts[msg.sender].exist, \"Account doesn't exist\");\r\n        Account memory account = accounts[msg.sender];\r\n        return account.value;\r\n    }\r\n\r\n    \r\n\r\n    //Vote Admin---------------------------------------------------\r\n    struct proposedAdmin {\r\n        string name;\r\n        bool exist;\r\n        uint256 votes;\r\n    }\r\n    mapping(address => proposedAdmin) public proposedAdmins;\r\n    uint256 private voteThreshold;\r\n    address[] public proposedAdminAddresses;\r\n    uint256 private votingStartTime;\r\n    uint256 private votingEndTime;\r\n    uint256 private proposalDeadline;\r\n    bool private votingActive;\r\n    uint256 proposedAdminsCounts;\r\n    address[] public voted;\r\n    event StartVoting();\r\n    event AdminChanged(address indexed newAdmin);\r\n    modifier duringProposalPhase() {\r\n        require(\r\n            block.timestamp <= proposalDeadline,\r\n            \"Proposal phase has ended.\"\r\n        );\r\n        _;\r\n    }\r\n\r\n    modifier duringVotingPhase() {\r\n        require(\r\n            block.timestamp >= proposalDeadline &&\r\n                block.timestamp <= votingEndTime,\r\n            \"Voting phase is not active.\"\r\n        );\r\n        _;\r\n    }\r\n\r\n    modifier notDuringVotingPhase() {\r\n        require(\r\n            block.timestamp < proposalDeadline ||\r\n                block.timestamp > votingEndTime,\r\n            \"Voting phase is active.\"\r\n        );\r\n        _;\r\n    }\r\n\r\n    modifier afterVotingPhase() {\r\n        require(\r\n            block.timestamp > votingEndTime,\r\n            \"Voting period has not ended.\"\r\n        );\r\n        _;\r\n    }\r\n\r\n    modifier adminProposedRestrict() {\r\n        require(proposedAdminsCounts < 3, \"Proposed Admin Full\");\r\n        _;\r\n    }\r\n\r\n    modifier checkAdminProposed() {\r\n        require(proposedAdminsCounts != 0, \"No admin proposed\");\r\n        _;\r\n    }\r\n\r\n    // Zheheng's version\r\n    function startVoting() public {\r\n        require(!votingActive, \"Voting is already active.\");\r\n        votingStartTime = block.timestamp;\r\n        proposalDeadline = block.timestamp + 60; // First 1 minutes for proposing\r\n        votingEndTime = block.timestamp + 120; // Total of 2 minutes\r\n\r\n        votingActive = true;\r\n        updateVoteThreshold();\r\n        emit StartVoting();\r\n    }\r\n\r\n    // quinton's\r\n    // function startVoting() internal {\r\n    //     // require(!votingActive, \"Voting is already active.\");\r\n    //     votingStartTime = block.timestamp;\r\n    //     proposalDeadline = block.timestamp + 60; // First 1 minutes for proposing\r\n    //     votingEndTime = block.timestamp + 120; // Total of 2 minutes\r\n\r\n    //     votingActive = true;\r\n    //     updateVoteThreshold();\r\n    //     emit StartVoting();\r\n    // }\r\n\r\n    function updateVoteThreshold() internal {\r\n        uint256 totalRegisteredUsers = getAccountCount();\r\n        voteThreshold = (totalRegisteredUsers * 51 + 99) / 100; // Equivalent to rounding up (51% rule)\r\n    }\r\n\r\n    function proposeAdmin(\r\n        address _admin\r\n    ) public duringProposalPhase adminProposedRestrict {\r\n        // if (!votingActive) {\r\n        //     startVoting();\r\n        // }\r\n\r\n        require(\r\n            accounts[_admin].exist,\r\n            \"Address is not in the Account contract\"\r\n        );\r\n        require(!proposedAdmins[_admin].exist, \"Admin is already proposed.\");\r\n        proposedAdmins[_admin] = proposedAdmin(accounts[_admin].name, true, 0);\r\n        proposedAdminAddresses.push(_admin);\r\n        proposedAdminsCounts++;\r\n    }\r\n\r\n    function voteForAdmin(\r\n        address _admin\r\n    ) public duringVotingPhase checkAdminProposed {\r\n        require(accountExists(msg.sender), \"Only registered users can vote.\");\r\n        require(!voterHasVoted(msg.sender), \"Already voted.\");\r\n        voted.push(msg.sender);\r\n        proposedAdmins[_admin].votes++; //Increment the voted proposed admin votes\r\n\r\n        if (proposedAdmins[_admin].votes >= voteThreshold) {\r\n            finalizeAdminByThresHold(_admin);\r\n        }\r\n    }\r\n    function getProposedAdmins() public view returns (proposedAdmin[] memory) {\r\n        proposedAdmin[] memory admins = new proposedAdmin[](\r\n            proposedAdminsCounts\r\n        );\r\n        uint256 count = 0;\r\n\r\n        for (uint256 i = 0; i < accountAddresses.length; i++) {\r\n            if (proposedAdmins[accountAddresses[i]].exist) {\r\n                admins[count] = proposedAdmins[accountAddresses[i]];\r\n                count++;\r\n            }\r\n        }\r\n\r\n        return admins;\r\n    }\r\n\r\n    function finalizeAdminByThresHold(address _admin) internal {\r\n        admin = _admin;\r\n\r\n        emit AdminChanged(_admin);\r\n        resetVoting();\r\n    }\r\n\r\n    function finalizeAdmin() public afterVotingPhase checkAdminProposed {\r\n        address mostVotedAdmin;\r\n        uint256 highestVotes = 0;\r\n\r\n        for (uint256 i = 0; i < proposedAdminAddresses.length; i++) {\r\n            address proposedAddress = proposedAdminAddresses[i];\r\n            uint256 votes = proposedAdmins[proposedAddress].votes;\r\n\r\n            // Check if the current admin has more votes than the current highest\r\n            if (votes > highestVotes) {\r\n                highestVotes = votes;\r\n                mostVotedAdmin = proposedAddress;\r\n            }\r\n        }\r\n\r\n        require(mostVotedAdmin != address(0), \"No valid admin found.\");\r\n\r\n        // Set the new admin\r\n        admin = mostVotedAdmin;\r\n\r\n        emit AdminChanged(mostVotedAdmin); // Emit an event for admin change\r\n\r\n        resetVoting();\r\n    }\r\n\r\n    function resetVoting() internal {\r\n        for (uint256 i = 0; i < voted.length; i++) {\r\n            delete proposedAdmins[voted[i]]; // Reset the proposed admin votes\r\n        }\r\n        votingActive = false;\r\n        proposedAdminsCounts = 0;\r\n        delete proposedAdminAddresses;\r\n        delete voted;\r\n    }\r\n\r\n    function voterHasVoted(address _address) public view returns (bool) {\r\n        for (uint256 i = 0; i < voted.length; i++) {\r\n            if (voted[i] == _address) {\r\n                return true;\r\n            }\r\n        }\r\n        return false;\r\n    }\r\n}\r\n",
  "sourcePath": "C:\\Users\\quint\\vscode\\My Projects\\Timelock\\contracts\\AccountManager.sol",
  "compiler": {
    "name": "solc",
    "version": "0.8.13+commit.abaa5c0e.Emscripten.clang"
  },
  "schemaVersion": "3.4.16",
  "updatedAt": "2024-09-22T06:59:51.854Z",
  "networkType": "ethereum",
  "devdoc": {
    "kind": "dev",
    "methods": {},
    "version": 1
  },
  "userdoc": {
    "kind": "user",
    "methods": {},
    "version": 1
  }
}