{
  "contractName": "AccountManager",
  "abi": [
    {
      "inputs": [],
      "stateMutability": "nonpayable",
      "type": "constructor"
    },
    {
      "anonymous": false,
      "inputs": [
        {
          "indexed": true,
          "internalType": "address",
          "name": "user",
          "type": "address"
        },
        {
          "indexed": false,
          "internalType": "string",
          "name": "name",
          "type": "string"
        },
        {
          "indexed": false,
          "internalType": "string",
          "name": "email",
          "type": "string"
        },
        {
          "indexed": false,
          "internalType": "uint256",
          "name": "value",
          "type": "uint256"
        }
      ],
      "name": "AccountCreated",
      "type": "event"
    },
    {
      "anonymous": false,
      "inputs": [
        {
          "indexed": true,
          "internalType": "address",
          "name": "user",
          "type": "address"
        }
      ],
      "name": "AccountPurged",
      "type": "event"
    },
    {
      "anonymous": false,
      "inputs": [
        {
          "indexed": true,
          "internalType": "address",
          "name": "user",
          "type": "address"
        },
        {
          "indexed": false,
          "internalType": "uint256",
          "name": "amount",
          "type": "uint256"
        }
      ],
      "name": "DepositMade",
      "type": "event"
    },
    {
      "anonymous": false,
      "inputs": [
        {
          "indexed": true,
          "internalType": "address",
          "name": "user",
          "type": "address"
        },
        {
          "indexed": false,
          "internalType": "uint256",
          "name": "newAmount",
          "type": "uint256"
        }
      ],
      "name": "DepositUpdated",
      "type": "event"
    },
    {
      "anonymous": false,
      "inputs": [
        {
          "indexed": true,
          "internalType": "address",
          "name": "user",
          "type": "address"
        },
        {
          "indexed": false,
          "internalType": "uint256",
          "name": "amount",
          "type": "uint256"
        }
      ],
      "name": "WithdrawalMade",
      "type": "event"
    },
    {
      "inputs": [
        {
          "internalType": "uint256",
          "name": "",
          "type": "uint256"
        }
      ],
      "name": "accountAddresses",
      "outputs": [
        {
          "internalType": "address",
          "name": "",
          "type": "address"
        }
      ],
      "stateMutability": "view",
      "type": "function",
      "constant": true
    },
    {
      "inputs": [
        {
          "internalType": "address",
          "name": "",
          "type": "address"
        }
      ],
      "name": "accounts",
      "outputs": [
        {
          "internalType": "address",
          "name": "userAddress",
          "type": "address"
        },
        {
          "internalType": "string",
          "name": "name",
          "type": "string"
        },
        {
          "internalType": "string",
          "name": "email",
          "type": "string"
        },
        {
          "internalType": "bool",
          "name": "exist",
          "type": "bool"
        },
        {
          "internalType": "uint256",
          "name": "value",
          "type": "uint256"
        }
      ],
      "stateMutability": "view",
      "type": "function",
      "constant": true
    },
    {
      "inputs": [],
      "name": "totalAccounts",
      "outputs": [
        {
          "internalType": "uint256",
          "name": "",
          "type": "uint256"
        }
      ],
      "stateMutability": "view",
      "type": "function",
      "constant": true
    },
    {
      "inputs": [],
      "name": "getAdmin",
      "outputs": [
        {
          "internalType": "address",
          "name": "",
          "type": "address"
        }
      ],
      "stateMutability": "view",
      "type": "function",
      "constant": true
    },
    {
      "inputs": [],
      "name": "getAllAccounts",
      "outputs": [
        {
          "components": [
            {
              "internalType": "address",
              "name": "userAddress",
              "type": "address"
            },
            {
              "internalType": "string",
              "name": "name",
              "type": "string"
            },
            {
              "internalType": "string",
              "name": "email",
              "type": "string"
            },
            {
              "internalType": "bool",
              "name": "exist",
              "type": "bool"
            },
            {
              "internalType": "uint256",
              "name": "value",
              "type": "uint256"
            }
          ],
          "internalType": "struct AccountManager.Account[]",
          "name": "",
          "type": "tuple[]"
        }
      ],
      "stateMutability": "view",
      "type": "function",
      "constant": true
    },
    {
      "inputs": [],
      "name": "getAccountCount",
      "outputs": [
        {
          "internalType": "uint256",
          "name": "",
          "type": "uint256"
        }
      ],
      "stateMutability": "view",
      "type": "function",
      "constant": true
    },
    {
      "inputs": [
        {
          "internalType": "address",
          "name": "_account",
          "type": "address"
        }
      ],
      "name": "accountExists",
      "outputs": [
        {
          "internalType": "bool",
          "name": "",
          "type": "bool"
        }
      ],
      "stateMutability": "view",
      "type": "function",
      "constant": true
    },
    {
      "inputs": [
        {
          "internalType": "string",
          "name": "_name",
          "type": "string"
        },
        {
          "internalType": "string",
          "name": "_email",
          "type": "string"
        }
      ],
      "name": "createAccount",
      "outputs": [],
      "stateMutability": "nonpayable",
      "type": "function"
    },
    {
      "inputs": [],
      "name": "purgeAccount",
      "outputs": [],
      "stateMutability": "nonpayable",
      "type": "function"
    },
    {
      "inputs": [
        {
          "internalType": "address",
          "name": "_user",
          "type": "address"
        }
      ],
      "name": "getAccountDetails",
      "outputs": [
        {
          "internalType": "string",
          "name": "name",
          "type": "string"
        },
        {
          "internalType": "string",
          "name": "email",
          "type": "string"
        },
        {
          "internalType": "uint256",
          "name": "value",
          "type": "uint256"
        }
      ],
      "stateMutability": "view",
      "type": "function",
      "constant": true
    },
    {
      "inputs": [],
      "name": "deposit",
      "outputs": [],
      "stateMutability": "payable",
      "type": "function",
      "payable": true
    },
    {
      "inputs": [
        {
          "internalType": "uint256",
          "name": "_amount",
          "type": "uint256"
        }
      ],
      "name": "withdraw",
      "outputs": [],
      "stateMutability": "nonpayable",
      "type": "function"
    },
    {
      "inputs": [
        {
          "internalType": "address",
          "name": "_user",
          "type": "address"
        },
        {
          "internalType": "uint256",
          "name": "_newAmount",
          "type": "uint256"
        }
      ],
      "name": "depositUpdate",
      "outputs": [
        {
          "internalType": "bool",
          "name": "success",
          "type": "bool"
        }
      ],
      "stateMutability": "nonpayable",
      "type": "function"
    },
    {
      "inputs": [],
      "name": "getContractBalance",
      "outputs": [
        {
          "internalType": "uint256",
          "name": "",
          "type": "uint256"
        }
      ],
      "stateMutability": "view",
      "type": "function",
      "constant": true
    },
    {
      "inputs": [
        {
          "internalType": "address",
          "name": "_target",
          "type": "address"
        }
      ],
      "name": "adminGetAccountDeposit",
      "outputs": [
        {
          "internalType": "uint256",
          "name": "value",
          "type": "uint256"
        }
      ],
      "stateMutability": "view",
      "type": "function",
      "constant": true
    },
    {
      "inputs": [
        {
          "internalType": "address",
          "name": "_target",
          "type": "address"
        }
      ],
      "name": "isExisted",
      "outputs": [
        {
          "internalType": "bool",
          "name": "exist",
          "type": "bool"
        }
      ],
      "stateMutability": "view",
      "type": "function",
      "constant": true
    },
    {
      "inputs": [
        {
          "internalType": "address",
          "name": "_target",
          "type": "address"
        }
      ],
      "name": "getAccountDeposit",
      "outputs": [
        {
          "internalType": "uint256",
          "name": "value",
          "type": "uint256"
        }
      ],
      "stateMutability": "view",
      "type": "function",
      "constant": true
    },
    {
      "inputs": [],
      "name": "getMyDeposit",
      "outputs": [
        {
          "internalType": "uint256",
          "name": "value",
          "type": "uint256"
        }
      ],
      "stateMutability": "view",
      "type": "function",
      "constant": true
    }
  ],
  "bytecode": "0x60806040526000805534801561001457600080fd5b5033600160006101000a81548173ffffffffffffffffffffffffffffffffffffffff021916908373ffffffffffffffffffffffffffffffffffffffff160217905550612d72806100656000396000f3fe6080604052600436106101095760003560e01c80636e9960c311610095578063aaad0c8411610064578063aaad0c84146103ab578063b6aa680c146103e8578063d0e30db014610425578063d67015951461042f578063f41359921461044657610109565b80636e9960c3146102ed5780636f9fb98a1461031857806375cd51ed14610343578063a98e4e771461038057610109565b80632aceb534116100dc5780632aceb534146101dc5780632e1a7d4d1461021b57806333d07dc91461024457806358451f97146102815780635e5c06e2146102ac57610109565b806308d2a40f1461010e57806308e93d0a1461014b57806319289287146101765780631bff58d81461019f575b600080fd5b34801561011a57600080fd5b50610135600480360381019061013091906121b8565b610471565b60405161014291906121fe565b60405180910390f35b34801561015757600080fd5b506101606106fc565b60405161016d919061242a565b60405180910390f35b34801561018257600080fd5b5061019d60048036038101906101989190612581565b610a6b565b005b3480156101ab57600080fd5b506101c660048036038101906101c19190612625565b610cfa565b6040516101d39190612661565b60405180910390f35b3480156101e857600080fd5b5061020360048036038101906101fe91906121b8565b610d39565b604051610212939291906126c6565b60405180910390f35b34801561022757600080fd5b50610242600480360381019061023d9190612625565b610fd7565b005b34801561025057600080fd5b5061026b6004803603810190610266919061270b565b611285565b604051610278919061275a565b60405180910390f35b34801561028d57600080fd5b506102966113b5565b6040516102a391906121fe565b60405180910390f35b3480156102b857600080fd5b506102d360048036038101906102ce91906121b8565b6113bb565b6040516102e4959493929190612775565b60405180910390f35b3480156102f957600080fd5b5061030261152e565b60405161030f9190612661565b60405180910390f35b34801561032457600080fd5b5061032d611558565b60405161033a91906121fe565b60405180910390f35b34801561034f57600080fd5b5061036a600480360381019061036591906121b8565b611560565b604051610377919061275a565b60405180910390f35b34801561038c57600080fd5b506103956115b9565b6040516103a291906121fe565b60405180910390f35b3480156103b757600080fd5b506103d260048036038101906103cd91906121b8565b6115c2565b6040516103df919061275a565b60405180910390f35b3480156103f457600080fd5b5061040f600480360381019061040a91906121b8565b611670565b60405161041c91906121fe565b60405180910390f35b61042d6118fb565b005b34801561043b57600080fd5b50610444611a76565b005b34801561045257600080fd5b5061045b611d93565b60405161046891906121fe565b60405180910390f35b6000600260008373ffffffffffffffffffffffffffffffffffffffff1673ffffffffffffffffffffffffffffffffffffffff16815260200190815260200160002060030160009054906101000a900460ff16610502576040517f08c379a00000000000000000000000000000000000000000000000000000000081526004016104f990612822565b60405180910390fd5b6000600260008473ffffffffffffffffffffffffffffffffffffffff1673ffffffffffffffffffffffffffffffffffffffff1681526020019081526020016000206040518060a00160405290816000820160009054906101000a900473ffffffffffffffffffffffffffffffffffffffff1673ffffffffffffffffffffffffffffffffffffffff1673ffffffffffffffffffffffffffffffffffffffff1681526020016001820180546105b490612871565b80601f01602080910402602001604051908101604052809291908181526020018280546105e090612871565b801561062d5780601f106106025761010080835404028352916020019161062d565b820191906000526020600020905b81548152906001019060200180831161061057829003601f168201915b5050505050815260200160028201805461064690612871565b80601f016020809104026020016040519081016040528092919081815260200182805461067290612871565b80156106bf5780601f10610694576101008083540402835291602001916106bf565b820191906000526020600020905b8154815290600101906020018083116106a257829003601f168201915b505050505081526020016003820160009054906101000a900460ff1615151515815260200160048201548152505090508060800151915050919050565b60606000805467ffffffffffffffff81111561071b5761071a612456565b5b60405190808252806020026020018201604052801561075457816020015b61074161201c565b8152602001906001900390816107395790505b5090506000805b600380549050811015610a625760026000600383815481106107805761077f6128a2565b5b9060005260206000200160009054906101000a900473ffffffffffffffffffffffffffffffffffffffff1673ffffffffffffffffffffffffffffffffffffffff1673ffffffffffffffffffffffffffffffffffffffff16815260200190815260200160002060030160009054906101000a900460ff1615610a4f576002600060038381548110610813576108126128a2565b5b9060005260206000200160009054906101000a900473ffffffffffffffffffffffffffffffffffffffff1673ffffffffffffffffffffffffffffffffffffffff1673ffffffffffffffffffffffffffffffffffffffff1681526020019081526020016000206040518060a00160405290816000820160009054906101000a900473ffffffffffffffffffffffffffffffffffffffff1673ffffffffffffffffffffffffffffffffffffffff1673ffffffffffffffffffffffffffffffffffffffff1681526020016001820180546108e990612871565b80601f016020809104026020016040519081016040528092919081815260200182805461091590612871565b80156109625780601f1061093757610100808354040283529160200191610962565b820191906000526020600020905b81548152906001019060200180831161094557829003601f168201915b5050505050815260200160028201805461097b90612871565b80601f01602080910402602001604051908101604052809291908181526020018280546109a790612871565b80156109f45780601f106109c9576101008083540402835291602001916109f4565b820191906000526020600020905b8154815290600101906020018083116109d757829003601f168201915b505050505081526020016003820160009054906101000a900460ff16151515158152602001600482015481525050838381518110610a3557610a346128a2565b5b60200260200101819052508180610a4b90612900565b9250505b8080610a5a90612900565b91505061075b565b50819250505090565b600260003373ffffffffffffffffffffffffffffffffffffffff1673ffffffffffffffffffffffffffffffffffffffff16815260200190815260200160002060030160009054906101000a900460ff1615610afb576040517f08c379a0000000000000000000000000000000000000000000000000000000008152600401610af290612994565b60405180910390fd5b6040518060a001604052803373ffffffffffffffffffffffffffffffffffffffff1681526020018381526020018281526020016001151581526020016000815250600260003373ffffffffffffffffffffffffffffffffffffffff1673ffffffffffffffffffffffffffffffffffffffff16815260200190815260200160002060008201518160000160006101000a81548173ffffffffffffffffffffffffffffffffffffffff021916908373ffffffffffffffffffffffffffffffffffffffff1602179055506020820151816001019080519060200190610bde929190612063565b506040820151816002019080519060200190610bfb929190612063565b5060608201518160030160006101000a81548160ff021916908315150217905550608082015181600401559050506003339080600181540180825580915050600190039060005260206000200160009091909190916101000a81548173ffffffffffffffffffffffffffffffffffffffff021916908373ffffffffffffffffffffffffffffffffffffffff160217905550600080815480929190610c9e90612900565b91905055503373ffffffffffffffffffffffffffffffffffffffff167f1fc94085b6f00acdb1339935d5f8516e3aa7d501142158ed1e455e2149944a8b83836000604051610cee939291906129f9565b60405180910390a25050565b60038181548110610d0a57600080fd5b906000526020600020016000915054906101000a900473ffffffffffffffffffffffffffffffffffffffff1681565b6060806000600260008573ffffffffffffffffffffffffffffffffffffffff1673ffffffffffffffffffffffffffffffffffffffff16815260200190815260200160002060030160009054906101000a900460ff16610dcd576040517f08c379a0000000000000000000000000000000000000000000000000000000008152600401610dc490612822565b60405180910390fd5b6000600260008673ffffffffffffffffffffffffffffffffffffffff1673ffffffffffffffffffffffffffffffffffffffff1681526020019081526020016000206040518060a00160405290816000820160009054906101000a900473ffffffffffffffffffffffffffffffffffffffff1673ffffffffffffffffffffffffffffffffffffffff1673ffffffffffffffffffffffffffffffffffffffff168152602001600182018054610e7f90612871565b80601f0160208091040260200160405190810160405280929190818152602001828054610eab90612871565b8015610ef85780601f10610ecd57610100808354040283529160200191610ef8565b820191906000526020600020905b815481529060010190602001808311610edb57829003601f168201915b50505050508152602001600282018054610f1190612871565b80601f0160208091040260200160405190810160405280929190818152602001828054610f3d90612871565b8015610f8a5780601f10610f5f57610100808354040283529160200191610f8a565b820191906000526020600020905b815481529060010190602001808311610f6d57829003601f168201915b505050505081526020016003820160009054906101000a900460ff161515151581526020016004820154815250509050806020015181604001518260800151935093509350509193909250565b600260003373ffffffffffffffffffffffffffffffffffffffff1673ffffffffffffffffffffffffffffffffffffffff16815260200190815260200160002060030160009054906101000a900460ff16611066576040517f08c379a000000000000000000000000000000000000000000000000000000000815260040161105d90612822565b60405180910390fd5b600081116110a9576040517f08c379a00000000000000000000000000000000000000000000000000000000081526004016110a090612ab0565b60405180910390fd5b80600260003373ffffffffffffffffffffffffffffffffffffffff1673ffffffffffffffffffffffffffffffffffffffff16815260200190815260200160002060040154101561112e576040517f08c379a000000000000000000000000000000000000000000000000000000000815260040161112590612b1c565b60405180910390fd5b80600260003373ffffffffffffffffffffffffffffffffffffffff1673ffffffffffffffffffffffffffffffffffffffff16815260200190815260200160002060040160008282546111809190612b3c565b9250508190555060003373ffffffffffffffffffffffffffffffffffffffff16826040516111ad90612ba1565b60006040518083038185875af1925050503d80600081146111ea576040519150601f19603f3d011682016040523d82523d6000602084013e6111ef565b606091505b5050905080611233576040517f08c379a000000000000000000000000000000000000000000000000000000000815260040161122a90612c02565b60405180910390fd5b3373ffffffffffffffffffffffffffffffffffffffff167fbc158bb64f05d6383aea69bbb0b20c1bbf4b7a18f63359c5649b7c39e29d38848360405161127991906121fe565b60405180910390a25050565b6000600260008473ffffffffffffffffffffffffffffffffffffffff1673ffffffffffffffffffffffffffffffffffffffff16815260200190815260200160002060030160009054906101000a900460ff16611316576040517f08c379a000000000000000000000000000000000000000000000000000000000815260040161130d90612822565b60405180910390fd5b81600260008573ffffffffffffffffffffffffffffffffffffffff1673ffffffffffffffffffffffffffffffffffffffff168152602001908152602001600020600401819055508273ffffffffffffffffffffffffffffffffffffffff167f6f477b4fa05359c0d3b9148b7b6428fc74aadbcab5661c67d059f01b8255c591836040516113a391906121fe565b60405180910390a26001905092915050565b60005481565b60026020528060005260406000206000915090508060000160009054906101000a900473ffffffffffffffffffffffffffffffffffffffff169080600101805461140490612871565b80601f016020809104026020016040519081016040528092919081815260200182805461143090612871565b801561147d5780601f106114525761010080835404028352916020019161147d565b820191906000526020600020905b81548152906001019060200180831161146057829003601f168201915b50505050509080600201805461149290612871565b80601f01602080910402602001604051908101604052809291908181526020018280546114be90612871565b801561150b5780601f106114e05761010080835404028352916020019161150b565b820191906000526020600020905b8154815290600101906020018083116114ee57829003601f168201915b5050505050908060030160009054906101000a900460ff16908060040154905085565b6000600160009054906101000a900473ffffffffffffffffffffffffffffffffffffffff16905090565b600047905090565b6000600260008373ffffffffffffffffffffffffffffffffffffffff1673ffffffffffffffffffffffffffffffffffffffff16815260200190815260200160002060030160009054906101000a900460ff169050919050565b60008054905090565b6000806000905060005b60038054905081101561166657600381815481106115ed576115ec6128a2565b5b9060005260206000200160009054906101000a900473ffffffffffffffffffffffffffffffffffffffff1673ffffffffffffffffffffffffffffffffffffffff168473ffffffffffffffffffffffffffffffffffffffff16036116535760019150611666565b808061165e90612900565b9150506115cc565b5080915050919050565b6000600260008373ffffffffffffffffffffffffffffffffffffffff1673ffffffffffffffffffffffffffffffffffffffff16815260200190815260200160002060030160009054906101000a900460ff16611701576040517f08c379a00000000000000000000000000000000000000000000000000000000081526004016116f890612822565b60405180910390fd5b6000600260008473ffffffffffffffffffffffffffffffffffffffff1673ffffffffffffffffffffffffffffffffffffffff1681526020019081526020016000206040518060a00160405290816000820160009054906101000a900473ffffffffffffffffffffffffffffffffffffffff1673ffffffffffffffffffffffffffffffffffffffff1673ffffffffffffffffffffffffffffffffffffffff1681526020016001820180546117b390612871565b80601f01602080910402602001604051908101604052809291908181526020018280546117df90612871565b801561182c5780601f106118015761010080835404028352916020019161182c565b820191906000526020600020905b81548152906001019060200180831161180f57829003601f168201915b5050505050815260200160028201805461184590612871565b80601f016020809104026020016040519081016040528092919081815260200182805461187190612871565b80156118be5780601f10611893576101008083540402835291602001916118be565b820191906000526020600020905b8154815290600101906020018083116118a157829003601f168201915b505050505081526020016003820160009054906101000a900460ff1615151515815260200160048201548152505090508060800151915050919050565b600260003373ffffffffffffffffffffffffffffffffffffffff1673ffffffffffffffffffffffffffffffffffffffff16815260200190815260200160002060030160009054906101000a900460ff1661198a576040517f08c379a000000000000000000000000000000000000000000000000000000000815260040161198190612822565b60405180910390fd5b600034116119cd576040517f08c379a00000000000000000000000000000000000000000000000000000000081526004016119c490612c6e565b60405180910390fd5b34600260003373ffffffffffffffffffffffffffffffffffffffff1673ffffffffffffffffffffffffffffffffffffffff1681526020019081526020016000206004016000828254611a1f9190612c8e565b925050819055503373ffffffffffffffffffffffffffffffffffffffff167fd15c9547ea5c06670c0010ce19bc32d54682a4b3801ece7f3ab0c3f17106b4bb34604051611a6c91906121fe565b60405180910390a2565b600260003373ffffffffffffffffffffffffffffffffffffffff1673ffffffffffffffffffffffffffffffffffffffff16815260200190815260200160002060030160009054906101000a900460ff16611b05576040517f08c379a0000000000000000000000000000000000000000000000000000000008152600401611afc90612822565b60405180910390fd5b600080815480929190611b1790612ce4565b9190505550600260003373ffffffffffffffffffffffffffffffffffffffff1673ffffffffffffffffffffffffffffffffffffffff168152602001908152602001600020600080820160006101000a81549073ffffffffffffffffffffffffffffffffffffffff0219169055600182016000611b9391906120e9565b600282016000611ba391906120e9565b6003820160006101000a81549060ff02191690556004820160009055505060005b600380549050811015611d4d573373ffffffffffffffffffffffffffffffffffffffff1660038281548110611bfc57611bfb6128a2565b5b9060005260206000200160009054906101000a900473ffffffffffffffffffffffffffffffffffffffff1673ffffffffffffffffffffffffffffffffffffffff1603611d3a5760036001600380549050611c569190612b3c565b81548110611c6757611c666128a2565b5b9060005260206000200160009054906101000a900473ffffffffffffffffffffffffffffffffffffffff1660038281548110611ca657611ca56128a2565b5b9060005260206000200160006101000a81548173ffffffffffffffffffffffffffffffffffffffff021916908373ffffffffffffffffffffffffffffffffffffffff1602179055506003805480611d0057611cff612d0d565b5b6001900381819060005260206000200160006101000a81549073ffffffffffffffffffffffffffffffffffffffff02191690559055611d4d565b8080611d4590612900565b915050611bc4565b503373ffffffffffffffffffffffffffffffffffffffff167f3f14551b0d08d686bfd223c59a828990f1a536ffb54391ad7e5658874d91649960405160405180910390a2565b6000600260003373ffffffffffffffffffffffffffffffffffffffff1673ffffffffffffffffffffffffffffffffffffffff16815260200190815260200160002060030160009054906101000a900460ff16611e24576040517f08c379a0000000000000000000000000000000000000000000000000000000008152600401611e1b90612822565b60405180910390fd5b6000600260003373ffffffffffffffffffffffffffffffffffffffff1673ffffffffffffffffffffffffffffffffffffffff1681526020019081526020016000206040518060a00160405290816000820160009054906101000a900473ffffffffffffffffffffffffffffffffffffffff1673ffffffffffffffffffffffffffffffffffffffff1673ffffffffffffffffffffffffffffffffffffffff168152602001600182018054611ed690612871565b80601f0160208091040260200160405190810160405280929190818152602001828054611f0290612871565b8015611f4f5780601f10611f2457610100808354040283529160200191611f4f565b820191906000526020600020905b815481529060010190602001808311611f3257829003601f168201915b50505050508152602001600282018054611f6890612871565b80601f0160208091040260200160405190810160405280929190818152602001828054611f9490612871565b8015611fe15780601f10611fb657610100808354040283529160200191611fe1565b820191906000526020600020905b815481529060010190602001808311611fc457829003601f168201915b505050505081526020016003820160009054906101000a900460ff161515151581526020016004820154815250509050806080015191505090565b6040518060a00160405280600073ffffffffffffffffffffffffffffffffffffffff1681526020016060815260200160608152602001600015158152602001600081525090565b82805461206f90612871565b90600052602060002090601f01602090048101928261209157600085556120d8565b82601f106120aa57805160ff19168380011785556120d8565b828001600101855582156120d8579182015b828111156120d75782518255916020019190600101906120bc565b5b5090506120e59190612129565b5090565b5080546120f590612871565b6000825580601f106121075750612126565b601f0160209004906000526020600020908101906121259190612129565b5b50565b5b8082111561214257600081600090555060010161212a565b5090565b6000604051905090565b600080fd5b600080fd5b600073ffffffffffffffffffffffffffffffffffffffff82169050919050565b60006121858261215a565b9050919050565b6121958161217a565b81146121a057600080fd5b50565b6000813590506121b28161218c565b92915050565b6000602082840312156121ce576121cd612150565b5b60006121dc848285016121a3565b91505092915050565b6000819050919050565b6121f8816121e5565b82525050565b600060208201905061221360008301846121ef565b92915050565b600081519050919050565b600082825260208201905092915050565b6000819050602082019050919050565b61224e8161217a565b82525050565b600081519050919050565b600082825260208201905092915050565b60005b8381101561228e578082015181840152602081019050612273565b8381111561229d576000848401525b50505050565b6000601f19601f8301169050919050565b60006122bf82612254565b6122c9818561225f565b93506122d9818560208601612270565b6122e2816122a3565b840191505092915050565b60008115159050919050565b612302816122ed565b82525050565b612311816121e5565b82525050565b600060a08301600083015161232f6000860182612245565b506020830151848203602086015261234782826122b4565b9150506040830151848203604086015261236182826122b4565b915050606083015161237660608601826122f9565b5060808301516123896080860182612308565b508091505092915050565b60006123a08383612317565b905092915050565b6000602082019050919050565b60006123c082612219565b6123ca8185612224565b9350836020820285016123dc85612235565b8060005b8581101561241857848403895281516123f98582612394565b9450612404836123a8565b925060208a019950506001810190506123e0565b50829750879550505050505092915050565b6000602082019050818103600083015261244481846123b5565b905092915050565b600080fd5b600080fd5b7f4e487b7100000000000000000000000000000000000000000000000000000000600052604160045260246000fd5b61248e826122a3565b810181811067ffffffffffffffff821117156124ad576124ac612456565b5b80604052505050565b60006124c0612146565b90506124cc8282612485565b919050565b600067ffffffffffffffff8211156124ec576124eb612456565b5b6124f5826122a3565b9050602081019050919050565b82818337600083830152505050565b600061252461251f846124d1565b6124b6565b9050828152602081018484840111156125405761253f612451565b5b61254b848285612502565b509392505050565b600082601f8301126125685761256761244c565b5b8135612578848260208601612511565b91505092915050565b6000806040838503121561259857612597612150565b5b600083013567ffffffffffffffff8111156125b6576125b5612155565b5b6125c285828601612553565b925050602083013567ffffffffffffffff8111156125e3576125e2612155565b5b6125ef85828601612553565b9150509250929050565b612602816121e5565b811461260d57600080fd5b50565b60008135905061261f816125f9565b92915050565b60006020828403121561263b5761263a612150565b5b600061264984828501612610565b91505092915050565b61265b8161217a565b82525050565b60006020820190506126766000830184612652565b92915050565b600082825260208201905092915050565b600061269882612254565b6126a2818561267c565b93506126b2818560208601612270565b6126bb816122a3565b840191505092915050565b600060608201905081810360008301526126e0818661268d565b905081810360208301526126f4818561268d565b905061270360408301846121ef565b949350505050565b6000806040838503121561272257612721612150565b5b6000612730858286016121a3565b925050602061274185828601612610565b9150509250929050565b612754816122ed565b82525050565b600060208201905061276f600083018461274b565b92915050565b600060a08201905061278a6000830188612652565b818103602083015261279c818761268d565b905081810360408301526127b0818661268d565b90506127bf606083018561274b565b6127cc60808301846121ef565b9695505050505050565b7f4163636f756e7420646f65736e27742065786973740000000000000000000000600082015250565b600061280c60158361267c565b9150612817826127d6565b602082019050919050565b6000602082019050818103600083015261283b816127ff565b9050919050565b7f4e487b7100000000000000000000000000000000000000000000000000000000600052602260045260246000fd5b6000600282049050600182168061288957607f821691505b60208210810361289c5761289b612842565b5b50919050565b7f4e487b7100000000000000000000000000000000000000000000000000000000600052603260045260246000fd5b7f4e487b7100000000000000000000000000000000000000000000000000000000600052601160045260246000fd5b600061290b826121e5565b91507fffffffffffffffffffffffffffffffffffffffffffffffffffffffffffffffff820361293d5761293c6128d1565b5b600182019050919050565b7f4163636f756e7420616c72656164792065786973747300000000000000000000600082015250565b600061297e60168361267c565b915061298982612948565b602082019050919050565b600060208201905081810360008301526129ad81612971565b9050919050565b6000819050919050565b6000819050919050565b60006129e36129de6129d9846129b4565b6129be565b6121e5565b9050919050565b6129f3816129c8565b82525050565b60006060820190508181036000830152612a13818661268d565b90508181036020830152612a27818561268d565b9050612a3660408301846129ea565b949350505050565b7f576974686472617720616d6f756e74206d75737420626520677265617465722060008201527f7468616e207a65726f0000000000000000000000000000000000000000000000602082015250565b6000612a9a60298361267c565b9150612aa582612a3e565b604082019050919050565b60006020820190508181036000830152612ac981612a8d565b9050919050565b7f496e73756666696369656e742062616c616e6365000000000000000000000000600082015250565b6000612b0660148361267c565b9150612b1182612ad0565b602082019050919050565b60006020820190508181036000830152612b3581612af9565b9050919050565b6000612b47826121e5565b9150612b52836121e5565b925082821015612b6557612b646128d1565b5b828203905092915050565b600081905092915050565b50565b6000612b8b600083612b70565b9150612b9682612b7b565b600082019050919050565b6000612bac82612b7e565b9150819050919050565b7f5769746864726177616c206661696c6564000000000000000000000000000000600082015250565b6000612bec60118361267c565b9150612bf782612bb6565b602082019050919050565b60006020820190508181036000830152612c1b81612bdf565b9050919050565b7f596f75206e65656420746f206465706f73697420736f6d652045746865720000600082015250565b6000612c58601e8361267c565b9150612c6382612c22565b602082019050919050565b60006020820190508181036000830152612c8781612c4b565b9050919050565b6000612c99826121e5565b9150612ca4836121e5565b9250827fffffffffffffffffffffffffffffffffffffffffffffffffffffffffffffffff03821115612cd957612cd86128d1565b5b828201905092915050565b6000612cef826121e5565b915060008203612d0257612d016128d1565b5b600182039050919050565b7f4e487b7100000000000000000000000000000000000000000000000000000000600052603160045260246000fdfea2646970667358221220c820bf8334f875327952ac7fc932308844754da18078df9e5ff592d29827187c64736f6c634300080d0033",
  "immutableReferences": {},
  "source": "// SPDX-License-Identifier: MIT\r\npragma solidity ^0.8.0;\r\n\r\ncontract AccountManager {\r\n    //Account Manager----------------------------------------\r\n\r\n    struct Account {\r\n        address userAddress;\r\n        string name;\r\n        string email;\r\n        bool exist;\r\n        uint256 value;\r\n    }\r\n\r\n    uint256 public totalAccounts = 0;\r\n    address private admin;\r\n\r\n    mapping(address => Account) public accounts;\r\n\r\n    address[] public accountAddresses;\r\n\r\n    event AccountCreated(\r\n        address indexed user,\r\n        string name,\r\n        string email,\r\n        uint256 value\r\n    );\r\n    event AccountPurged(address indexed user);\r\n    event DepositMade(address indexed user, uint256 amount);\r\n    event WithdrawalMade(address indexed user, uint256 amount);\r\n    event DepositUpdated(address indexed user, uint256 newAmount);\r\n\r\n    // Modifiers\r\n    // modifier onlyAdmin() {\r\n    //     require(msg.sender == admin, \"Not Contract Admin\");\r\n    //     _;\r\n    // }\r\n\r\n    constructor() {\r\n        admin = msg.sender;\r\n    }\r\n\r\n    function getAdmin() public view returns (address) {\r\n        return admin;\r\n    }\r\n\r\n    function getAllAccounts() public view returns (Account[] memory) {\r\n        Account[] memory allAccounts = new Account[](totalAccounts);\r\n        uint256 count = 0;\r\n\r\n        for (uint256 i = 0; i < accountAddresses.length; i++) {\r\n            if (accounts[accountAddresses[i]].exist) {\r\n                allAccounts[count] = accounts[accountAddresses[i]];\r\n                count++;\r\n            }\r\n        }\r\n\r\n        return allAccounts;\r\n    }\r\n\r\n    function getAccountCount() public view returns (uint256) {\r\n        return totalAccounts;\r\n    }\r\n\r\n    function accountExists(address _account) public view returns (bool) {\r\n        return accounts[_account].exist;\r\n    }\r\n\r\n    function createAccount(string memory _name, string memory _email) public {\r\n        require(!accounts[msg.sender].exist, \"Account already exists\");\r\n\r\n        accounts[msg.sender] = Account({\r\n            userAddress: msg.sender,\r\n            name: _name,\r\n            email: _email,\r\n            exist: true,\r\n            value: 0\r\n        });\r\n        accountAddresses.push(msg.sender); // Add the user's address to the array\r\n        totalAccounts++;\r\n\r\n        emit AccountCreated(msg.sender, _name, _email, 0);\r\n    }\r\n\r\n    function purgeAccount() public {\r\n        require(accounts[msg.sender].exist, \"Account doesn't exist\");\r\n\r\n        totalAccounts--;\r\n        delete accounts[msg.sender];\r\n\r\n        for (uint256 i = 0; i < accountAddresses.length; i++) {\r\n            if (accountAddresses[i] == msg.sender) {\r\n                accountAddresses[i] = accountAddresses[\r\n                    accountAddresses.length - 1\r\n                ];\r\n                accountAddresses.pop(); // Remove last element\r\n                break;\r\n            }\r\n        }\r\n\r\n        emit AccountPurged(msg.sender);\r\n    }\r\n\r\n    function getAccountDetails(address _user)\r\n        public\r\n        view\r\n        returns (\r\n            string memory name,\r\n            string memory email,\r\n            uint256 value\r\n        )\r\n    {\r\n        require(accounts[_user].exist, \"Account doesn't exist\");\r\n        Account memory account = accounts[_user];\r\n        return (account.name, account.email, account.value);\r\n    }\r\n\r\n    function deposit() public payable {\r\n        require(accounts[msg.sender].exist, \"Account doesn't exist\");\r\n        require(msg.value > 0, \"You need to deposit some Ether\");\r\n\r\n        // Update the user's balance\r\n        accounts[msg.sender].value += msg.value;\r\n\r\n        // Emit the DepositMade event\r\n        emit DepositMade(msg.sender, msg.value);\r\n    }\r\n\r\n    function withdraw(uint256 _amount) public {\r\n        require(accounts[msg.sender].exist, \"Account doesn't exist\");\r\n        require(_amount > 0, \"Withdraw amount must be greater than zero\");\r\n        require(accounts[msg.sender].value >= _amount, \"Insufficient balance\");\r\n\r\n        // Deduct the withdrawn amount from the user's balance\r\n        accounts[msg.sender].value -= _amount;\r\n\r\n        // Transfer the Ether back to the user\r\n        (bool success, ) = msg.sender.call{value: _amount}(\"\");\r\n        require(success, \"Withdrawal failed\");\r\n\r\n        // Emit the WithdrawalMade event\r\n        emit WithdrawalMade(msg.sender, _amount);\r\n    }\r\n\r\n    function depositUpdate(address _user, uint256 _newAmount)\r\n        public\r\n        returns (bool success)\r\n    {\r\n        require(accounts[_user].exist, \"Account doesn't exist\");\r\n\r\n        // Update the user's value to the new amount\r\n        accounts[_user].value = _newAmount;\r\n\r\n        // Emit the DepositUpdated event\r\n        emit DepositUpdated(_user, _newAmount);\r\n        return true;\r\n    }\r\n\r\n    function getContractBalance() public view returns (uint256) {\r\n        return address(this).balance;\r\n    }\r\n\r\n    function adminGetAccountDeposit(address _target)\r\n        public\r\n        view\r\n        returns (uint256 value)\r\n    {\r\n        require(accounts[_target].exist, \"Account doesn't exist\");\r\n        Account memory account = accounts[_target];\r\n        return account.value;\r\n    }\r\n\r\n    function isExisted(address _target) public view returns(bool exist){\r\n        bool found = false;\r\n        for (uint256 i = 0; i < accountAddresses.length; i++){\r\n            if(_target == accountAddresses[i]){\r\n                found = true;\r\n                break;\r\n            }\r\n        }\r\n\r\n        return found;\r\n    }\r\n\r\n    // for proccesing use onlt\r\n\r\n    function getAccountDeposit(address _target)\r\n        external\r\n        view\r\n        returns (uint256 value)\r\n    {\r\n        require(accounts[_target].exist, \"Account doesn't exist\");\r\n        Account memory account = accounts[_target];\r\n        return account.value;\r\n    }\r\n\r\n    function getMyDeposit() public view returns (uint256 value) {\r\n        require(accounts[msg.sender].exist, \"Account doesn't exist\");\r\n        Account memory account = accounts[msg.sender];\r\n        return account.value;\r\n    }\r\n}\r\n",
  "sourcePath": "c:\\Timelock\\contracts\\AccountManager.sol",
  "compiler": {
    "name": "solc",
    "version": "0.8.13+commit.abaa5c0e.Emscripten.clang"
  },
  "schemaVersion": "3.4.16",
  "updatedAt": "2024-09-26T07:53:32.916Z",
  "networkType": "ethereum",
  "devdoc": {
    "kind": "dev",
    "methods": {},
    "version": 1
  },
  "userdoc": {
    "kind": "user",
    "methods": {},
    "version": 1
  }
}