{
  "contractName": "AccountManager",
  "abi": [
    {
      "inputs": [],
      "stateMutability": "nonpayable",
      "type": "constructor"
    },
    {
      "anonymous": false,
      "inputs": [
        {
          "indexed": true,
          "internalType": "address",
          "name": "user",
          "type": "address"
        },
        {
          "indexed": false,
          "internalType": "string",
          "name": "name",
          "type": "string"
        },
        {
          "indexed": false,
          "internalType": "string",
          "name": "email",
          "type": "string"
        }
      ],
      "name": "AccountCreated",
      "type": "event"
    },
    {
      "anonymous": false,
      "inputs": [
        {
          "indexed": true,
          "internalType": "address",
          "name": "user",
          "type": "address"
        }
      ],
      "name": "AccountPurged",
      "type": "event"
    },
    {
      "inputs": [
        {
          "internalType": "address",
          "name": "",
          "type": "address"
        }
      ],
      "name": "accounts",
      "outputs": [
        {
          "internalType": "string",
          "name": "name",
          "type": "string"
        },
        {
          "internalType": "string",
          "name": "email",
          "type": "string"
        },
        {
          "internalType": "bool",
          "name": "exists",
          "type": "bool"
        }
      ],
      "stateMutability": "view",
      "type": "function",
      "constant": true
    },
    {
      "inputs": [],
      "name": "adminContract",
      "outputs": [
        {
          "internalType": "contract VoteAdmin",
          "name": "",
          "type": "address"
        }
      ],
      "stateMutability": "view",
      "type": "function",
      "constant": true
    },
    {
      "inputs": [
        {
          "internalType": "address",
          "name": "_address",
          "type": "address"
        }
      ],
      "name": "setAdminContract",
      "outputs": [],
      "stateMutability": "nonpayable",
      "type": "function"
    },
    {
      "inputs": [
        {
          "internalType": "address",
          "name": "_user",
          "type": "address"
        },
        {
          "internalType": "string",
          "name": "_name",
          "type": "string"
        },
        {
          "internalType": "string",
          "name": "_email",
          "type": "string"
        }
      ],
      "name": "createAccount",
      "outputs": [],
      "stateMutability": "nonpayable",
      "type": "function"
    },
    {
      "inputs": [
        {
          "internalType": "address",
          "name": "_user",
          "type": "address"
        }
      ],
      "name": "purgeAccount",
      "outputs": [],
      "stateMutability": "nonpayable",
      "type": "function"
    },
    {
      "inputs": [
        {
          "internalType": "address",
          "name": "_user",
          "type": "address"
        }
      ],
      "name": "getAccountDetails",
      "outputs": [
        {
          "internalType": "string",
          "name": "name",
          "type": "string"
        },
        {
          "internalType": "string",
          "name": "email",
          "type": "string"
        }
      ],
      "stateMutability": "view",
      "type": "function",
      "constant": true
    },
    {
      "inputs": [],
      "name": "getAccountCount",
      "outputs": [
        {
          "internalType": "uint256",
          "name": "",
          "type": "uint256"
        }
      ],
      "stateMutability": "view",
      "type": "function",
      "constant": true
    },
    {
      "inputs": [
        {
          "internalType": "address",
          "name": "_account",
          "type": "address"
        }
      ],
      "name": "accountExists",
      "outputs": [
        {
          "internalType": "bool",
          "name": "",
          "type": "bool"
        }
      ],
      "stateMutability": "view",
      "type": "function",
      "constant": true
    }
  ],
  "bytecode": "0x60806040526000805534801561001457600080fd5b50611304806100246000396000f3fe608060405234801561001057600080fd5b50600436106100885760003560e01c806363a812f91161005b57806363a812f91461012857806375cd51ed14610144578063a98e4e7714610174578063c05c5e941461019257610088565b8063135c07011461008d5780632aceb534146100a95780634dbe4454146100da5780635e5c06e2146100f6575b600080fd5b6100a760048036038101906100a29190610cce565b6101b0565b005b6100c360048036038101906100be9190610cce565b610410565b6040516100d1929190610d94565b60405180910390f35b6100f460048036038101906100ef9190610f00565b610741565b005b610110600480360381019061010b9190610cce565b610965565b60405161011f93929190610fa6565b60405180910390f35b610142600480360381019061013d9190610cce565b610aac565b005b61015e60048036038101906101599190610cce565b610af0565b60405161016b9190610feb565b60405180910390f35b61017c610b4a565b604051610189919061101f565b60405180910390f35b61019a610b53565b6040516101a79190611099565b60405180910390f35b600360009054906101000a900473ffffffffffffffffffffffffffffffffffffffff1673ffffffffffffffffffffffffffffffffffffffff1663643d430c6040518163ffffffff1660e01b8152600401602060405180830381865afa15801561021d573d6000803e3d6000fd5b505050506040513d601f19601f8201168201806040525081019061024191906110c9565b73ffffffffffffffffffffffffffffffffffffffff163373ffffffffffffffffffffffffffffffffffffffff16146102ae576040517f08c379a00000000000000000000000000000000000000000000000000000000081526004016102a590611142565b60405180910390fd5b600260008273ffffffffffffffffffffffffffffffffffffffff1673ffffffffffffffffffffffffffffffffffffffff16815260200190815260200160002060020160009054906101000a900460ff1661033d576040517f08c379a0000000000000000000000000000000000000000000000000000000008152600401610334906111ae565b60405180910390fd5b60008081548092919061034f906111fd565b9190505550600260008273ffffffffffffffffffffffffffffffffffffffff1673ffffffffffffffffffffffffffffffffffffffff168152602001908152602001600020600080820160006103a49190610b79565b6001820160006103b49190610b79565b6002820160006101000a81549060ff021916905550508073ffffffffffffffffffffffffffffffffffffffff167f3f14551b0d08d686bfd223c59a828990f1a536ffb54391ad7e5658874d91649960405160405180910390a250565b606080600360009054906101000a900473ffffffffffffffffffffffffffffffffffffffff1673ffffffffffffffffffffffffffffffffffffffff1663643d430c6040518163ffffffff1660e01b8152600401602060405180830381865afa158015610480573d6000803e3d6000fd5b505050506040513d601f19601f820116820180604052508101906104a491906110c9565b73ffffffffffffffffffffffffffffffffffffffff163373ffffffffffffffffffffffffffffffffffffffff1614610511576040517f08c379a000000000000000000000000000000000000000000000000000000000815260040161050890611142565b60405180910390fd5b600260008473ffffffffffffffffffffffffffffffffffffffff1673ffffffffffffffffffffffffffffffffffffffff16815260200190815260200160002060020160009054906101000a900460ff166105a0576040517f08c379a0000000000000000000000000000000000000000000000000000000008152600401610597906111ae565b60405180910390fd5b6000600260008573ffffffffffffffffffffffffffffffffffffffff1673ffffffffffffffffffffffffffffffffffffffff1681526020019081526020016000206040518060600160405290816000820180546105fc90611255565b80601f016020809104026020016040519081016040528092919081815260200182805461062890611255565b80156106755780601f1061064a57610100808354040283529160200191610675565b820191906000526020600020905b81548152906001019060200180831161065857829003601f168201915b5050505050815260200160018201805461068e90611255565b80601f01602080910402602001604051908101604052809291908181526020018280546106ba90611255565b80156107075780601f106106dc57610100808354040283529160200191610707565b820191906000526020600020905b8154815290600101906020018083116106ea57829003601f168201915b505050505081526020016002820160009054906101000a900460ff1615151515815250509050806000015181602001519250925050915091565b600360009054906101000a900473ffffffffffffffffffffffffffffffffffffffff1673ffffffffffffffffffffffffffffffffffffffff1663643d430c6040518163ffffffff1660e01b8152600401602060405180830381865afa1580156107ae573d6000803e3d6000fd5b505050506040513d601f19601f820116820180604052508101906107d291906110c9565b73ffffffffffffffffffffffffffffffffffffffff163373ffffffffffffffffffffffffffffffffffffffff161461083f576040517f08c379a000000000000000000000000000000000000000000000000000000000815260040161083690611142565b60405180910390fd5b604051806060016040528083815260200182815260200160011515815250600260008573ffffffffffffffffffffffffffffffffffffffff1673ffffffffffffffffffffffffffffffffffffffff16815260200190815260200160002060008201518160000190805190602001906108b8929190610bb9565b5060208201518160010190805190602001906108d5929190610bb9565b5060408201518160020160006101000a81548160ff02191690831515021790555090505060008081548092919061090b90611286565b91905055508273ffffffffffffffffffffffffffffffffffffffff167fc0aeb94f00ab755d522e33588ad4d9a9f6d7b62d88ec529f7dffa861292517c58383604051610958929190610d94565b60405180910390a2505050565b600260205280600052604060002060009150905080600001805461098890611255565b80601f01602080910402602001604051908101604052809291908181526020018280546109b490611255565b8015610a015780601f106109d657610100808354040283529160200191610a01565b820191906000526020600020905b8154815290600101906020018083116109e457829003601f168201915b505050505090806001018054610a1690611255565b80601f0160208091040260200160405190810160405280929190818152602001828054610a4290611255565b8015610a8f5780601f10610a6457610100808354040283529160200191610a8f565b820191906000526020600020905b815481529060010190602001808311610a7257829003601f168201915b5050505050908060020160009054906101000a900460ff16905083565b80600360006101000a81548173ffffffffffffffffffffffffffffffffffffffff021916908373ffffffffffffffffffffffffffffffffffffffff16021790555050565b600080600260008473ffffffffffffffffffffffffffffffffffffffff1673ffffffffffffffffffffffffffffffffffffffff1681526020019081526020016000206000018054610b4090611255565b9050119050919050565b60008054905090565b600360009054906101000a900473ffffffffffffffffffffffffffffffffffffffff1681565b508054610b8590611255565b6000825580601f10610b975750610bb6565b601f016020900490600052602060002090810190610bb59190610c3f565b5b50565b828054610bc590611255565b90600052602060002090601f016020900481019282610be75760008555610c2e565b82601f10610c0057805160ff1916838001178555610c2e565b82800160010185558215610c2e579182015b82811115610c2d578251825591602001919060010190610c12565b5b509050610c3b9190610c3f565b5090565b5b80821115610c58576000816000905550600101610c40565b5090565b6000604051905090565b600080fd5b600080fd5b600073ffffffffffffffffffffffffffffffffffffffff82169050919050565b6000610c9b82610c70565b9050919050565b610cab81610c90565b8114610cb657600080fd5b50565b600081359050610cc881610ca2565b92915050565b600060208284031215610ce457610ce3610c66565b5b6000610cf284828501610cb9565b91505092915050565b600081519050919050565b600082825260208201905092915050565b60005b83811015610d35578082015181840152602081019050610d1a565b83811115610d44576000848401525b50505050565b6000601f19601f8301169050919050565b6000610d6682610cfb565b610d708185610d06565b9350610d80818560208601610d17565b610d8981610d4a565b840191505092915050565b60006040820190508181036000830152610dae8185610d5b565b90508181036020830152610dc28184610d5b565b90509392505050565b600080fd5b600080fd5b7f4e487b7100000000000000000000000000000000000000000000000000000000600052604160045260246000fd5b610e0d82610d4a565b810181811067ffffffffffffffff82111715610e2c57610e2b610dd5565b5b80604052505050565b6000610e3f610c5c565b9050610e4b8282610e04565b919050565b600067ffffffffffffffff821115610e6b57610e6a610dd5565b5b610e7482610d4a565b9050602081019050919050565b82818337600083830152505050565b6000610ea3610e9e84610e50565b610e35565b905082815260208101848484011115610ebf57610ebe610dd0565b5b610eca848285610e81565b509392505050565b600082601f830112610ee757610ee6610dcb565b5b8135610ef7848260208601610e90565b91505092915050565b600080600060608486031215610f1957610f18610c66565b5b6000610f2786828701610cb9565b935050602084013567ffffffffffffffff811115610f4857610f47610c6b565b5b610f5486828701610ed2565b925050604084013567ffffffffffffffff811115610f7557610f74610c6b565b5b610f8186828701610ed2565b9150509250925092565b60008115159050919050565b610fa081610f8b565b82525050565b60006060820190508181036000830152610fc08186610d5b565b90508181036020830152610fd48185610d5b565b9050610fe36040830184610f97565b949350505050565b60006020820190506110006000830184610f97565b92915050565b6000819050919050565b61101981611006565b82525050565b60006020820190506110346000830184611010565b92915050565b6000819050919050565b600061105f61105a61105584610c70565b61103a565b610c70565b9050919050565b600061107182611044565b9050919050565b600061108382611066565b9050919050565b61109381611078565b82525050565b60006020820190506110ae600083018461108a565b92915050565b6000815190506110c381610ca2565b92915050565b6000602082840312156110df576110de610c66565b5b60006110ed848285016110b4565b91505092915050565b7f4e6f742074686520636f6e74726163742061646d696e00000000000000000000600082015250565b600061112c601683610d06565b9150611137826110f6565b602082019050919050565b6000602082019050818103600083015261115b8161111f565b9050919050565b7f4163636f756e7420646f6573206e6f7420657869737400000000000000000000600082015250565b6000611198601683610d06565b91506111a382611162565b602082019050919050565b600060208201905081810360008301526111c78161118b565b9050919050565b7f4e487b7100000000000000000000000000000000000000000000000000000000600052601160045260246000fd5b600061120882611006565b91506000820361121b5761121a6111ce565b5b600182039050919050565b7f4e487b7100000000000000000000000000000000000000000000000000000000600052602260045260246000fd5b6000600282049050600182168061126d57607f821691505b6020821081036112805761127f611226565b5b50919050565b600061129182611006565b91507fffffffffffffffffffffffffffffffffffffffffffffffffffffffffffffffff82036112c3576112c26111ce565b5b60018201905091905056fea2646970667358221220d5ae5bf5a223b4b088f95cdfa4922bbde2064460b191491afe5b8068f0c030a964736f6c634300080d0033",
  "immutableReferences": {},
  "source": "// SPDX-License-Identifier: MIT\r\npragma solidity ^0.8.0;\r\nimport \"./VoteAdmin.sol\";\r\n\r\ncontract AccountManager {\r\n    // Define a struct to hold account details\r\n    struct Account {\r\n        string name;\r\n        string email;\r\n        bool exists;\r\n    }\r\n\r\n    uint256 total = 0;\r\n\r\n    // State variable to store the contract owner's address\r\n    address private admin;\r\n\r\n    // Mapping to store accounts with the address as the key\r\n    mapping(address => Account)  public accounts;\r\n\r\n    // Event to be emitted when an account is created\r\n    event AccountCreated(address indexed user, string name, string email);\r\n\r\n    // Event to be emitted when an account is purged\r\n    event AccountPurged(address indexed user);\r\n\r\n    // Modifier to restrict access to only the owner\r\n    modifier onlyAdmin() {\r\n        require(msg.sender == adminContract.getCurrentAdmin(), \"Not the contract admin\");\r\n        _;\r\n    }\r\n\r\n    // Constructor to set the contract owner\r\n    constructor() {\r\n        // owner = msg.sender;\r\n    }\r\n\r\n        VoteAdmin  public adminContract;\r\n\r\n\r\n    function setAdminContract(address _address) public {\r\n        adminContract = VoteAdmin(_address);\r\n    }\r\n    // Function to create or update an account\r\n    function createAccount(address _user, string memory _name, string memory _email) public onlyAdmin {\r\n        // Create or update the account details\r\n        accounts[_user] = Account({\r\n            name: _name,\r\n            email: _email,\r\n            exists: true\r\n        });\r\n        total++;\r\n        emit AccountCreated(_user, _name, _email);\r\n    }\r\n\r\n    // Function to purge an account\r\n    function purgeAccount(address _user) public onlyAdmin {\r\n        require(accounts[_user].exists, \"Account does not exist\");\r\n        total--;\r\n        // Delete the account details\r\n        delete accounts[_user];\r\n\r\n        emit AccountPurged(_user);\r\n    }\r\n\r\n    // Function to get account details\r\n    function getAccountDetails(address _user) public view onlyAdmin returns (string memory name, string memory email) {\r\n        require(accounts[_user].exists, \"Account does not exist\");\r\n\r\n        Account memory account = accounts[_user];\r\n        return (account.name, account.email);\r\n    }\r\n\r\n    // Retrieve the total number of accounts\r\n    function getAccountCount() external view returns (uint256) {\r\n        return total;\r\n    }\r\n   // Function to check if an account exists\r\n    function accountExists(address _account) public view returns (bool) {\r\n        return bytes(accounts[_account].name).length > 0;\r\n    }\r\n}\r\n",
  "sourcePath": "c:\\Timelock\\contracts\\Account.sol",
  "compiler": {
    "name": "solc",
    "version": "0.8.13+commit.abaa5c0e.Emscripten.clang"
  },
  "schemaVersion": "3.4.16",
  "updatedAt": "2024-09-18T09:00:14.190Z",
  "networkType": "ethereum",
  "devdoc": {
    "kind": "dev",
    "methods": {},
    "version": 1
  },
  "userdoc": {
    "kind": "user",
    "methods": {},
    "version": 1
  }
}