{
  "contractName": "AccountManager",
  "abi": [
    {
      "inputs": [],
      "stateMutability": "nonpayable",
      "type": "constructor"
    },
    {
      "anonymous": false,
      "inputs": [
        {
          "indexed": true,
          "internalType": "address",
          "name": "user",
          "type": "address"
        },
        {
          "indexed": false,
          "internalType": "string",
          "name": "name",
          "type": "string"
        },
        {
          "indexed": false,
          "internalType": "string",
          "name": "email",
          "type": "string"
        },
        {
          "indexed": false,
          "internalType": "uint256",
          "name": "value",
          "type": "uint256"
        }
      ],
      "name": "AccountCreated",
      "type": "event"
    },
    {
      "anonymous": false,
      "inputs": [
        {
          "indexed": true,
          "internalType": "address",
          "name": "user",
          "type": "address"
        }
      ],
      "name": "AccountPurged",
      "type": "event"
    },
    {
      "anonymous": false,
      "inputs": [
        {
          "indexed": true,
          "internalType": "address",
          "name": "newAdmin",
          "type": "address"
        }
      ],
      "name": "AdminChanged",
      "type": "event"
    },
    {
      "anonymous": false,
      "inputs": [
        {
          "indexed": true,
          "internalType": "address",
          "name": "user",
          "type": "address"
        },
        {
          "indexed": false,
          "internalType": "uint256",
          "name": "amount",
          "type": "uint256"
        }
      ],
      "name": "DepositMade",
      "type": "event"
    },
    {
      "anonymous": false,
      "inputs": [
        {
          "indexed": true,
          "internalType": "address",
          "name": "user",
          "type": "address"
        },
        {
          "indexed": false,
          "internalType": "uint256",
          "name": "newAmount",
          "type": "uint256"
        }
      ],
      "name": "DepositUpdated",
      "type": "event"
    },
    {
      "anonymous": false,
      "inputs": [],
      "name": "StartVoting",
      "type": "event"
    },
    {
      "anonymous": false,
      "inputs": [
        {
          "indexed": true,
          "internalType": "address",
          "name": "user",
          "type": "address"
        },
        {
          "indexed": false,
          "internalType": "uint256",
          "name": "amount",
          "type": "uint256"
        }
      ],
      "name": "WithdrawalMade",
      "type": "event"
    },
    {
      "inputs": [
        {
          "internalType": "uint256",
          "name": "",
          "type": "uint256"
        }
      ],
      "name": "accountAddresses",
      "outputs": [
        {
          "internalType": "address",
          "name": "",
          "type": "address"
        }
      ],
      "stateMutability": "view",
      "type": "function",
      "constant": true
    },
    {
      "inputs": [
        {
          "internalType": "address",
          "name": "",
          "type": "address"
        }
      ],
      "name": "accounts",
      "outputs": [
        {
          "internalType": "address",
          "name": "userAddress",
          "type": "address"
        },
        {
          "internalType": "string",
          "name": "name",
          "type": "string"
        },
        {
          "internalType": "string",
          "name": "email",
          "type": "string"
        },
        {
          "internalType": "bool",
          "name": "exist",
          "type": "bool"
        },
        {
          "internalType": "uint256",
          "name": "value",
          "type": "uint256"
        }
      ],
      "stateMutability": "view",
      "type": "function",
      "constant": true
    },
    {
      "inputs": [
        {
          "internalType": "uint256",
          "name": "",
          "type": "uint256"
        }
      ],
      "name": "proposedAdminAddresses",
      "outputs": [
        {
          "internalType": "address",
          "name": "",
          "type": "address"
        }
      ],
      "stateMutability": "view",
      "type": "function",
      "constant": true
    },
    {
      "inputs": [
        {
          "internalType": "address",
          "name": "",
          "type": "address"
        }
      ],
      "name": "proposedAdmins",
      "outputs": [
        {
          "internalType": "string",
          "name": "name",
          "type": "string"
        },
        {
          "internalType": "bool",
          "name": "exist",
          "type": "bool"
        },
        {
          "internalType": "uint256",
          "name": "votes",
          "type": "uint256"
        }
      ],
      "stateMutability": "view",
      "type": "function",
      "constant": true
    },
    {
      "inputs": [],
      "name": "totalAccounts",
      "outputs": [
        {
          "internalType": "uint256",
          "name": "",
          "type": "uint256"
        }
      ],
      "stateMutability": "view",
      "type": "function",
      "constant": true
    },
    {
      "inputs": [
        {
          "internalType": "uint256",
          "name": "",
          "type": "uint256"
        }
      ],
      "name": "voted",
      "outputs": [
        {
          "internalType": "address",
          "name": "",
          "type": "address"
        }
      ],
      "stateMutability": "view",
      "type": "function",
      "constant": true
    },
    {
      "inputs": [],
      "name": "getAdmin",
      "outputs": [
        {
          "internalType": "address",
          "name": "",
          "type": "address"
        }
      ],
      "stateMutability": "view",
      "type": "function",
      "constant": true
    },
    {
      "inputs": [],
      "name": "getAllAccounts",
      "outputs": [
        {
          "components": [
            {
              "internalType": "address",
              "name": "userAddress",
              "type": "address"
            },
            {
              "internalType": "string",
              "name": "name",
              "type": "string"
            },
            {
              "internalType": "string",
              "name": "email",
              "type": "string"
            },
            {
              "internalType": "bool",
              "name": "exist",
              "type": "bool"
            },
            {
              "internalType": "uint256",
              "name": "value",
              "type": "uint256"
            }
          ],
          "internalType": "struct AccountManager.Account[]",
          "name": "",
          "type": "tuple[]"
        }
      ],
      "stateMutability": "view",
      "type": "function",
      "constant": true
    },
    {
      "inputs": [],
      "name": "getAccountCount",
      "outputs": [
        {
          "internalType": "uint256",
          "name": "",
          "type": "uint256"
        }
      ],
      "stateMutability": "view",
      "type": "function",
      "constant": true
    },
    {
      "inputs": [
        {
          "internalType": "address",
          "name": "_account",
          "type": "address"
        }
      ],
      "name": "accountExists",
      "outputs": [
        {
          "internalType": "bool",
          "name": "",
          "type": "bool"
        }
      ],
      "stateMutability": "view",
      "type": "function",
      "constant": true
    },
    {
      "inputs": [
        {
          "internalType": "address",
          "name": "_user",
          "type": "address"
        },
        {
          "internalType": "string",
          "name": "_name",
          "type": "string"
        },
        {
          "internalType": "string",
          "name": "_email",
          "type": "string"
        }
      ],
      "name": "createAccount",
      "outputs": [],
      "stateMutability": "nonpayable",
      "type": "function"
    },
    {
      "inputs": [
        {
          "internalType": "address",
          "name": "_user",
          "type": "address"
        }
      ],
      "name": "purgeAccount",
      "outputs": [],
      "stateMutability": "nonpayable",
      "type": "function"
    },
    {
      "inputs": [
        {
          "internalType": "address",
          "name": "_user",
          "type": "address"
        }
      ],
      "name": "getAccountDetails",
      "outputs": [
        {
          "internalType": "string",
          "name": "name",
          "type": "string"
        },
        {
          "internalType": "string",
          "name": "email",
          "type": "string"
        },
        {
          "internalType": "uint256",
          "name": "value",
          "type": "uint256"
        }
      ],
      "stateMutability": "view",
      "type": "function",
      "constant": true
    },
    {
      "inputs": [],
      "name": "deposit",
      "outputs": [],
      "stateMutability": "payable",
      "type": "function",
      "payable": true
    },
    {
      "inputs": [
        {
          "internalType": "uint256",
          "name": "_amount",
          "type": "uint256"
        }
      ],
      "name": "withdraw",
      "outputs": [],
      "stateMutability": "nonpayable",
      "type": "function"
    },
    {
      "inputs": [
        {
          "internalType": "address",
          "name": "_user",
          "type": "address"
        },
        {
          "internalType": "uint256",
          "name": "_newAmount",
          "type": "uint256"
        }
      ],
      "name": "depositUpdate",
      "outputs": [
        {
          "internalType": "bool",
          "name": "success",
          "type": "bool"
        }
      ],
      "stateMutability": "nonpayable",
      "type": "function"
    },
    {
      "inputs": [],
      "name": "getContractBalance",
      "outputs": [
        {
          "internalType": "uint256",
          "name": "",
          "type": "uint256"
        }
      ],
      "stateMutability": "view",
      "type": "function",
      "constant": true
    },
    {
      "inputs": [
        {
          "internalType": "address",
          "name": "_target",
          "type": "address"
        }
      ],
      "name": "getAccountDeposit",
      "outputs": [
        {
          "internalType": "uint256",
          "name": "value",
          "type": "uint256"
        }
      ],
      "stateMutability": "view",
      "type": "function",
      "constant": true
    },
    {
      "inputs": [],
      "name": "startVoting",
      "outputs": [],
      "stateMutability": "nonpayable",
      "type": "function"
    },
    {
      "inputs": [
        {
          "internalType": "address",
          "name": "_admin",
          "type": "address"
        }
      ],
      "name": "proposeAdmin",
      "outputs": [],
      "stateMutability": "nonpayable",
      "type": "function"
    },
    {
      "inputs": [
        {
          "internalType": "address",
          "name": "_admin",
          "type": "address"
        }
      ],
      "name": "voteForAdmin",
      "outputs": [],
      "stateMutability": "nonpayable",
      "type": "function"
    },
    {
      "inputs": [],
      "name": "finalizeAdmin",
      "outputs": [],
      "stateMutability": "nonpayable",
      "type": "function"
    },
    {
      "inputs": [
        {
          "internalType": "address",
          "name": "_address",
          "type": "address"
        }
      ],
      "name": "voterHasVoted",
      "outputs": [
        {
          "internalType": "bool",
          "name": "",
          "type": "bool"
        }
      ],
      "stateMutability": "view",
      "type": "function",
      "constant": true
    }
  ],
  "bytecode": "0x60806040526000805534801561001457600080fd5b5033600160006101000a81548173ffffffffffffffffffffffffffffffffffffffff021916908373ffffffffffffffffffffffffffffffffffffffff160217905550613e50806100656000396000f3fe6080604052600436106101405760003560e01c80635e5c06e2116100b6578063ada6e9f21161006f578063ada6e9f214610474578063afc4c4cf146104b1578063b6aa680c146104ee578063d0e30db01461052b578063da836d5e14610535578063db843bd41461057457610140565b80635e5c06e2146103385780636e9960c3146103795780636f9fb98a146103a457806375cd51ed146103cf5780638fbb38ff1461040c578063a98e4e771461044957610140565b80631ec6b60a116101085780631ec6b60a146102285780632aceb5341461023f5780632e1a7d4d1461027e57806333d07dc9146102a75780634dbe4454146102e457806358451f971461030d57610140565b806308e93d0a1461014557806309b6a59c14610170578063135c070114610199578063147bf6c4146101c25780631bff58d8146101eb575b600080fd5b34801561015157600080fd5b5061015a61058b565b6040516101679190612dc4565b60405180910390f35b34801561017c57600080fd5b5061019760048036038101906101929190612e26565b6108fa565b005b3480156101a557600080fd5b506101c060048036038101906101bb9190612e26565b610b36565b005b3480156101ce57600080fd5b506101e960048036038101906101e49190612e26565b610ee4565b005b3480156101f757600080fd5b50610212600480360381019061020d9190612e7f565b61127d565b60405161021f9190612ebb565b60405180910390f35b34801561023457600080fd5b5061023d6112bc565b005b34801561024b57600080fd5b5061026660048036038101906102619190612e26565b61141a565b60405161027593929190612f2f565b60405180910390f35b34801561028a57600080fd5b506102a560048036038101906102a09190612e7f565b6116b8565b005b3480156102b357600080fd5b506102ce60048036038101906102c99190612f74565b611966565b6040516102db9190612fc3565b60405180910390f35b3480156102f057600080fd5b5061030b60048036038101906103069190613113565b611a96565b005b34801561031957600080fd5b50610322611e06565b60405161032f919061319e565b60405180910390f35b34801561034457600080fd5b5061035f600480360381019061035a9190612e26565b611e0c565b6040516103709594939291906131b9565b60405180910390f35b34801561038557600080fd5b5061038e611f7f565b60405161039b9190612ebb565b60405180910390f35b3480156103b057600080fd5b506103b9611fa9565b6040516103c6919061319e565b60405180910390f35b3480156103db57600080fd5b506103f660048036038101906103f19190612e26565b611fb1565b6040516104039190612fc3565b60405180910390f35b34801561041857600080fd5b50610433600480360381019061042e9190612e7f565b61200a565b6040516104409190612ebb565b60405180910390f35b34801561045557600080fd5b5061045e612049565b60405161046b919061319e565b60405180910390f35b34801561048057600080fd5b5061049b60048036038101906104969190612e26565b612052565b6040516104a89190612fc3565b60405180910390f35b3480156104bd57600080fd5b506104d860048036038101906104d39190612e7f565b612100565b6040516104e59190612ebb565b60405180910390f35b3480156104fa57600080fd5b5061051560048036038101906105109190612e26565b61213f565b604051610522919061319e565b60405180910390f35b6105336123ca565b005b34801561054157600080fd5b5061055c60048036038101906105579190612e26565b612545565b60405161056b9392919061321a565b60405180910390f35b34801561058057600080fd5b50610589612604565b005b60606000805467ffffffffffffffff8111156105aa576105a9612fe8565b5b6040519080825280602002602001820160405280156105e357816020015b6105d0612a2c565b8152602001906001900390816105c85790505b5090506000805b6003805490508110156108f157600260006003838154811061060f5761060e613258565b5b9060005260206000200160009054906101000a900473ffffffffffffffffffffffffffffffffffffffff1673ffffffffffffffffffffffffffffffffffffffff1673ffffffffffffffffffffffffffffffffffffffff16815260200190815260200160002060030160009054906101000a900460ff16156108de5760026000600383815481106106a2576106a1613258565b5b9060005260206000200160009054906101000a900473ffffffffffffffffffffffffffffffffffffffff1673ffffffffffffffffffffffffffffffffffffffff1673ffffffffffffffffffffffffffffffffffffffff1681526020019081526020016000206040518060a00160405290816000820160009054906101000a900473ffffffffffffffffffffffffffffffffffffffff1673ffffffffffffffffffffffffffffffffffffffff1673ffffffffffffffffffffffffffffffffffffffff168152602001600182018054610778906132b6565b80601f01602080910402602001604051908101604052809291908181526020018280546107a4906132b6565b80156107f15780601f106107c6576101008083540402835291602001916107f1565b820191906000526020600020905b8154815290600101906020018083116107d457829003601f168201915b5050505050815260200160028201805461080a906132b6565b80601f0160208091040260200160405190810160405280929190818152602001828054610836906132b6565b80156108835780601f1061085857610100808354040283529160200191610883565b820191906000526020600020905b81548152906001019060200180831161086657829003601f168201915b505050505081526020016003820160009054906101000a900460ff161515151581526020016004820154815250508383815181106108c4576108c3613258565b5b602002602001018190525081806108da90613316565b9250505b80806108e990613316565b9150506105ea565b50819250505090565b600954421015801561090e57506008544211155b61094d576040517f08c379a0000000000000000000000000000000000000000000000000000000008152600401610944906133aa565b60405180910390fd5b6000600b5403610992576040517f08c379a000000000000000000000000000000000000000000000000000000000815260040161098990613416565b60405180910390fd5b61099b33611fb1565b6109da576040517f08c379a00000000000000000000000000000000000000000000000000000000081526004016109d190613482565b60405180910390fd5b6109e333612052565b15610a23576040517f08c379a0000000000000000000000000000000000000000000000000000000008152600401610a1a906134ee565b60405180910390fd5b600c339080600181540180825580915050600190039060005260206000200160009091909190916101000a81548173ffffffffffffffffffffffffffffffffffffffff021916908373ffffffffffffffffffffffffffffffffffffffff160217905550600460008273ffffffffffffffffffffffffffffffffffffffff1673ffffffffffffffffffffffffffffffffffffffff1681526020019081526020016000206002016000815480929190610ad990613316565b9190505550600554600460008373ffffffffffffffffffffffffffffffffffffffff1673ffffffffffffffffffffffffffffffffffffffff1681526020019081526020016000206002015410610b3357610b3281612852565b5b50565b600160009054906101000a900473ffffffffffffffffffffffffffffffffffffffff1673ffffffffffffffffffffffffffffffffffffffff163373ffffffffffffffffffffffffffffffffffffffff1614610bc6576040517f08c379a0000000000000000000000000000000000000000000000000000000008152600401610bbd9061355a565b60405180910390fd5b600260008273ffffffffffffffffffffffffffffffffffffffff1673ffffffffffffffffffffffffffffffffffffffff16815260200190815260200160002060030160009054906101000a900460ff16610c55576040517f08c379a0000000000000000000000000000000000000000000000000000000008152600401610c4c906135c6565b60405180910390fd5b600080815480929190610c67906135e6565b9190505550600260008273ffffffffffffffffffffffffffffffffffffffff1673ffffffffffffffffffffffffffffffffffffffff168152602001908152602001600020600080820160006101000a81549073ffffffffffffffffffffffffffffffffffffffff0219169055600182016000610ce39190612a73565b600282016000610cf39190612a73565b6003820160006101000a81549060ff02191690556004820160009055505060005b600380549050811015610e9d578173ffffffffffffffffffffffffffffffffffffffff1660038281548110610d4c57610d4b613258565b5b9060005260206000200160009054906101000a900473ffffffffffffffffffffffffffffffffffffffff1673ffffffffffffffffffffffffffffffffffffffff1603610e8a5760036001600380549050610da6919061360f565b81548110610db757610db6613258565b5b9060005260206000200160009054906101000a900473ffffffffffffffffffffffffffffffffffffffff1660038281548110610df657610df5613258565b5b9060005260206000200160006101000a81548173ffffffffffffffffffffffffffffffffffffffff021916908373ffffffffffffffffffffffffffffffffffffffff1602179055506003805480610e5057610e4f613643565b5b6001900381819060005260206000200160006101000a81549073ffffffffffffffffffffffffffffffffffffffff02191690559055610e9d565b8080610e9590613316565b915050610d14565b508073ffffffffffffffffffffffffffffffffffffffff167f3f14551b0d08d686bfd223c59a828990f1a536ffb54391ad7e5658874d91649960405160405180910390a250565b600954421115610f29576040517f08c379a0000000000000000000000000000000000000000000000000000000008152600401610f20906136be565b60405180910390fd5b6003600b5410610f6e576040517f08c379a0000000000000000000000000000000000000000000000000000000008152600401610f659061372a565b60405180910390fd5b600260008273ffffffffffffffffffffffffffffffffffffffff1673ffffffffffffffffffffffffffffffffffffffff16815260200190815260200160002060030160009054906101000a900460ff16610ffd576040517f08c379a0000000000000000000000000000000000000000000000000000000008152600401610ff4906137bc565b60405180910390fd5b600460008273ffffffffffffffffffffffffffffffffffffffff1673ffffffffffffffffffffffffffffffffffffffff16815260200190815260200160002060010160009054906101000a900460ff161561108d576040517f08c379a000000000000000000000000000000000000000000000000000000000815260040161108490613828565b60405180910390fd5b6040518060600160405280600260008473ffffffffffffffffffffffffffffffffffffffff1673ffffffffffffffffffffffffffffffffffffffff16815260200190815260200160002060010180546110e5906132b6565b80601f0160208091040260200160405190810160405280929190818152602001828054611111906132b6565b801561115e5780601f106111335761010080835404028352916020019161115e565b820191906000526020600020905b81548152906001019060200180831161114157829003601f168201915b505050505081526020016001151581526020016000815250600460008373ffffffffffffffffffffffffffffffffffffffff1673ffffffffffffffffffffffffffffffffffffffff16815260200190815260200160002060008201518160000190805190602001906111d1929190612ab3565b5060208201518160010160006101000a81548160ff021916908315150217905550604082015181600201559050506006819080600181540180825580915050600190039060005260206000200160009091909190916101000a81548173ffffffffffffffffffffffffffffffffffffffff021916908373ffffffffffffffffffffffffffffffffffffffff160217905550600b600081548092919061127590613316565b919050555050565b6003818154811061128d57600080fd5b906000526020600020016000915054906101000a900473ffffffffffffffffffffffffffffffffffffffff1681565b600160009054906101000a900473ffffffffffffffffffffffffffffffffffffffff1673ffffffffffffffffffffffffffffffffffffffff163373ffffffffffffffffffffffffffffffffffffffff161461134c576040517f08c379a00000000000000000000000000000000000000000000000000000000081526004016113439061355a565b60405180910390fd5b600a60009054906101000a900460ff161561139c576040517f08c379a000000000000000000000000000000000000000000000000000000000815260040161139390613894565b60405180910390fd5b42600781905550603c426113b091906138b4565b6009819055506078426113c391906138b4565b6008819055506001600a60006101000a81548160ff0219169083151502179055506113ec6128e1565b7f7a99c0a6f05e0021fc40bcc1b922b654f7f5f7c0239d3cdc7c8502bf553d3df060405160405180910390a1565b6060806000600260008573ffffffffffffffffffffffffffffffffffffffff1673ffffffffffffffffffffffffffffffffffffffff16815260200190815260200160002060030160009054906101000a900460ff166114ae576040517f08c379a00000000000000000000000000000000000000000000000000000000081526004016114a5906135c6565b60405180910390fd5b6000600260008673ffffffffffffffffffffffffffffffffffffffff1673ffffffffffffffffffffffffffffffffffffffff1681526020019081526020016000206040518060a00160405290816000820160009054906101000a900473ffffffffffffffffffffffffffffffffffffffff1673ffffffffffffffffffffffffffffffffffffffff1673ffffffffffffffffffffffffffffffffffffffff168152602001600182018054611560906132b6565b80601f016020809104026020016040519081016040528092919081815260200182805461158c906132b6565b80156115d95780601f106115ae576101008083540402835291602001916115d9565b820191906000526020600020905b8154815290600101906020018083116115bc57829003601f168201915b505050505081526020016002820180546115f2906132b6565b80601f016020809104026020016040519081016040528092919081815260200182805461161e906132b6565b801561166b5780601f106116405761010080835404028352916020019161166b565b820191906000526020600020905b81548152906001019060200180831161164e57829003601f168201915b505050505081526020016003820160009054906101000a900460ff161515151581526020016004820154815250509050806020015181604001518260800151935093509350509193909250565b600260003373ffffffffffffffffffffffffffffffffffffffff1673ffffffffffffffffffffffffffffffffffffffff16815260200190815260200160002060030160009054906101000a900460ff16611747576040517f08c379a000000000000000000000000000000000000000000000000000000000815260040161173e906135c6565b60405180910390fd5b6000811161178a576040517f08c379a00000000000000000000000000000000000000000000000000000000081526004016117819061397c565b60405180910390fd5b80600260003373ffffffffffffffffffffffffffffffffffffffff1673ffffffffffffffffffffffffffffffffffffffff16815260200190815260200160002060040154101561180f576040517f08c379a0000000000000000000000000000000000000000000000000000000008152600401611806906139e8565b60405180910390fd5b80600260003373ffffffffffffffffffffffffffffffffffffffff1673ffffffffffffffffffffffffffffffffffffffff1681526020019081526020016000206004016000828254611861919061360f565b9250508190555060003373ffffffffffffffffffffffffffffffffffffffff168260405161188e90613a39565b60006040518083038185875af1925050503d80600081146118cb576040519150601f19603f3d011682016040523d82523d6000602084013e6118d0565b606091505b5050905080611914576040517f08c379a000000000000000000000000000000000000000000000000000000000815260040161190b90613a9a565b60405180910390fd5b3373ffffffffffffffffffffffffffffffffffffffff167fbc158bb64f05d6383aea69bbb0b20c1bbf4b7a18f63359c5649b7c39e29d38848360405161195a919061319e565b60405180910390a25050565b6000600260008473ffffffffffffffffffffffffffffffffffffffff1673ffffffffffffffffffffffffffffffffffffffff16815260200190815260200160002060030160009054906101000a900460ff166119f7576040517f08c379a00000000000000000000000000000000000000000000000000000000081526004016119ee906135c6565b60405180910390fd5b81600260008573ffffffffffffffffffffffffffffffffffffffff1673ffffffffffffffffffffffffffffffffffffffff168152602001908152602001600020600401819055508273ffffffffffffffffffffffffffffffffffffffff167f6f477b4fa05359c0d3b9148b7b6428fc74aadbcab5661c67d059f01b8255c59183604051611a84919061319e565b60405180910390a26001905092915050565b600160009054906101000a900473ffffffffffffffffffffffffffffffffffffffff1673ffffffffffffffffffffffffffffffffffffffff163373ffffffffffffffffffffffffffffffffffffffff1614611b26576040517f08c379a0000000000000000000000000000000000000000000000000000000008152600401611b1d9061355a565b60405180910390fd5b600954421080611b37575060085442115b611b76576040517f08c379a0000000000000000000000000000000000000000000000000000000008152600401611b6d90613b06565b60405180910390fd5b600260008473ffffffffffffffffffffffffffffffffffffffff1673ffffffffffffffffffffffffffffffffffffffff16815260200190815260200160002060030160009054906101000a900460ff1615611c06576040517f08c379a0000000000000000000000000000000000000000000000000000000008152600401611bfd90613b72565b60405180910390fd5b6040518060a001604052808473ffffffffffffffffffffffffffffffffffffffff1681526020018381526020018281526020016001151581526020016000815250600260008573ffffffffffffffffffffffffffffffffffffffff1673ffffffffffffffffffffffffffffffffffffffff16815260200190815260200160002060008201518160000160006101000a81548173ffffffffffffffffffffffffffffffffffffffff021916908373ffffffffffffffffffffffffffffffffffffffff1602179055506020820151816001019080519060200190611ce9929190612ab3565b506040820151816002019080519060200190611d06929190612ab3565b5060608201518160030160006101000a81548160ff021916908315150217905550608082015181600401559050506003839080600181540180825580915050600190039060005260206000200160009091909190916101000a81548173ffffffffffffffffffffffffffffffffffffffff021916908373ffffffffffffffffffffffffffffffffffffffff160217905550600080815480929190611da990613316565b91905055508273ffffffffffffffffffffffffffffffffffffffff167f1fc94085b6f00acdb1339935d5f8516e3aa7d501142158ed1e455e2149944a8b83836000604051611df993929190613bd7565b60405180910390a2505050565b60005481565b60026020528060005260406000206000915090508060000160009054906101000a900473ffffffffffffffffffffffffffffffffffffffff1690806001018054611e55906132b6565b80601f0160208091040260200160405190810160405280929190818152602001828054611e81906132b6565b8015611ece5780601f10611ea357610100808354040283529160200191611ece565b820191906000526020600020905b815481529060010190602001808311611eb157829003601f168201915b505050505090806002018054611ee3906132b6565b80601f0160208091040260200160405190810160405280929190818152602001828054611f0f906132b6565b8015611f5c5780601f10611f3157610100808354040283529160200191611f5c565b820191906000526020600020905b815481529060010190602001808311611f3f57829003601f168201915b5050505050908060030160009054906101000a900460ff16908060040154905085565b6000600160009054906101000a900473ffffffffffffffffffffffffffffffffffffffff16905090565b600047905090565b6000600260008373ffffffffffffffffffffffffffffffffffffffff1673ffffffffffffffffffffffffffffffffffffffff16815260200190815260200160002060030160009054906101000a900460ff169050919050565b600c818154811061201a57600080fd5b906000526020600020016000915054906101000a900473ffffffffffffffffffffffffffffffffffffffff1681565b60008054905090565b600080600090505b600c805490508110156120f5578273ffffffffffffffffffffffffffffffffffffffff16600c828154811061209257612091613258565b5b9060005260206000200160009054906101000a900473ffffffffffffffffffffffffffffffffffffffff1673ffffffffffffffffffffffffffffffffffffffff16036120e25760019150506120fb565b80806120ed90613316565b91505061205a565b50600090505b919050565b6006818154811061211057600080fd5b906000526020600020016000915054906101000a900473ffffffffffffffffffffffffffffffffffffffff1681565b6000600260008373ffffffffffffffffffffffffffffffffffffffff1673ffffffffffffffffffffffffffffffffffffffff16815260200190815260200160002060030160009054906101000a900460ff166121d0576040517f08c379a00000000000000000000000000000000000000000000000000000000081526004016121c7906135c6565b60405180910390fd5b6000600260008473ffffffffffffffffffffffffffffffffffffffff1673ffffffffffffffffffffffffffffffffffffffff1681526020019081526020016000206040518060a00160405290816000820160009054906101000a900473ffffffffffffffffffffffffffffffffffffffff1673ffffffffffffffffffffffffffffffffffffffff1673ffffffffffffffffffffffffffffffffffffffff168152602001600182018054612282906132b6565b80601f01602080910402602001604051908101604052809291908181526020018280546122ae906132b6565b80156122fb5780601f106122d0576101008083540402835291602001916122fb565b820191906000526020600020905b8154815290600101906020018083116122de57829003601f168201915b50505050508152602001600282018054612314906132b6565b80601f0160208091040260200160405190810160405280929190818152602001828054612340906132b6565b801561238d5780601f106123625761010080835404028352916020019161238d565b820191906000526020600020905b81548152906001019060200180831161237057829003601f168201915b505050505081526020016003820160009054906101000a900460ff1615151515815260200160048201548152505090508060800151915050919050565b600260003373ffffffffffffffffffffffffffffffffffffffff1673ffffffffffffffffffffffffffffffffffffffff16815260200190815260200160002060030160009054906101000a900460ff16612459576040517f08c379a0000000000000000000000000000000000000000000000000000000008152600401612450906135c6565b60405180910390fd5b6000341161249c576040517f08c379a000000000000000000000000000000000000000000000000000000000815260040161249390613c68565b60405180910390fd5b34600260003373ffffffffffffffffffffffffffffffffffffffff1673ffffffffffffffffffffffffffffffffffffffff16815260200190815260200160002060040160008282546124ee91906138b4565b925050819055503373ffffffffffffffffffffffffffffffffffffffff167fd15c9547ea5c06670c0010ce19bc32d54682a4b3801ece7f3ab0c3f17106b4bb3460405161253b919061319e565b60405180910390a2565b6004602052806000526040600020600091509050806000018054612568906132b6565b80601f0160208091040260200160405190810160405280929190818152602001828054612594906132b6565b80156125e15780601f106125b6576101008083540402835291602001916125e1565b820191906000526020600020905b8154815290600101906020018083116125c457829003601f168201915b5050505050908060010160009054906101000a900460ff16908060020154905083565b6008544211612648576040517f08c379a000000000000000000000000000000000000000000000000000000000815260040161263f90613cd4565b60405180910390fd5b6000600b540361268d576040517f08c379a000000000000000000000000000000000000000000000000000000000815260040161268490613416565b60405180910390fd5b6000806000905060005b600680549050811015612752576000600682815481106126ba576126b9613258565b5b9060005260206000200160009054906101000a900473ffffffffffffffffffffffffffffffffffffffff1690506000600460008373ffffffffffffffffffffffffffffffffffffffff1673ffffffffffffffffffffffffffffffffffffffff1681526020019081526020016000206002015490508381111561273d578093508194505b5050808061274a90613316565b915050612697565b50600073ffffffffffffffffffffffffffffffffffffffff168273ffffffffffffffffffffffffffffffffffffffff16036127c2576040517f08c379a00000000000000000000000000000000000000000000000000000000081526004016127b990613d40565b60405180910390fd5b81600160006101000a81548173ffffffffffffffffffffffffffffffffffffffff021916908373ffffffffffffffffffffffffffffffffffffffff1602179055508173ffffffffffffffffffffffffffffffffffffffff167f7ce7ec0b50378fb6c0186ffb5f48325f6593fcb4ca4386f21861af3129188f5c60405160405180910390a261284e61291b565b5050565b80600160006101000a81548173ffffffffffffffffffffffffffffffffffffffff021916908373ffffffffffffffffffffffffffffffffffffffff1602179055508073ffffffffffffffffffffffffffffffffffffffff167f7ce7ec0b50378fb6c0186ffb5f48325f6593fcb4ca4386f21861af3129188f5c60405160405180910390a26128de61291b565b50565b60006128eb612049565b9050606460636033836128fe9190613d60565b61290891906138b4565b6129129190613de9565b60058190555050565b60005b600c805490508110156129ea5760046000600c838154811061294357612942613258565b5b9060005260206000200160009054906101000a900473ffffffffffffffffffffffffffffffffffffffff1673ffffffffffffffffffffffffffffffffffffffff1673ffffffffffffffffffffffffffffffffffffffff168152602001908152602001600020600080820160006129b99190612a73565b6001820160006101000a81549060ff02191690556002820160009055505080806129e290613316565b91505061291e565b506000600a60006101000a81548160ff0219169083151502179055506000600b8190555060066000612a1c9190612b39565b600c6000612a2a9190612b39565b565b6040518060a00160405280600073ffffffffffffffffffffffffffffffffffffffff1681526020016060815260200160608152602001600015158152602001600081525090565b508054612a7f906132b6565b6000825580601f10612a915750612ab0565b601f016020900490600052602060002090810190612aaf9190612b5a565b5b50565b828054612abf906132b6565b90600052602060002090601f016020900481019282612ae15760008555612b28565b82601f10612afa57805160ff1916838001178555612b28565b82800160010185558215612b28579182015b82811115612b27578251825591602001919060010190612b0c565b5b509050612b359190612b5a565b5090565b5080546000825590600052602060002090810190612b579190612b5a565b50565b5b80821115612b73576000816000905550600101612b5b565b5090565b600081519050919050565b600082825260208201905092915050565b6000819050602082019050919050565b600073ffffffffffffffffffffffffffffffffffffffff82169050919050565b6000612bce82612ba3565b9050919050565b612bde81612bc3565b82525050565b600081519050919050565b600082825260208201905092915050565b60005b83811015612c1e578082015181840152602081019050612c03565b83811115612c2d576000848401525b50505050565b6000601f19601f8301169050919050565b6000612c4f82612be4565b612c598185612bef565b9350612c69818560208601612c00565b612c7281612c33565b840191505092915050565b60008115159050919050565b612c9281612c7d565b82525050565b6000819050919050565b612cab81612c98565b82525050565b600060a083016000830151612cc96000860182612bd5565b5060208301518482036020860152612ce18282612c44565b91505060408301518482036040860152612cfb8282612c44565b9150506060830151612d106060860182612c89565b506080830151612d236080860182612ca2565b508091505092915050565b6000612d3a8383612cb1565b905092915050565b6000602082019050919050565b6000612d5a82612b77565b612d648185612b82565b935083602082028501612d7685612b93565b8060005b85811015612db25784840389528151612d938582612d2e565b9450612d9e83612d42565b925060208a01995050600181019050612d7a565b50829750879550505050505092915050565b60006020820190508181036000830152612dde8184612d4f565b905092915050565b6000604051905090565b600080fd5b600080fd5b612e0381612bc3565b8114612e0e57600080fd5b50565b600081359050612e2081612dfa565b92915050565b600060208284031215612e3c57612e3b612df0565b5b6000612e4a84828501612e11565b91505092915050565b612e5c81612c98565b8114612e6757600080fd5b50565b600081359050612e7981612e53565b92915050565b600060208284031215612e9557612e94612df0565b5b6000612ea384828501612e6a565b91505092915050565b612eb581612bc3565b82525050565b6000602082019050612ed06000830184612eac565b92915050565b600082825260208201905092915050565b6000612ef282612be4565b612efc8185612ed6565b9350612f0c818560208601612c00565b612f1581612c33565b840191505092915050565b612f2981612c98565b82525050565b60006060820190508181036000830152612f498186612ee7565b90508181036020830152612f5d8185612ee7565b9050612f6c6040830184612f20565b949350505050565b60008060408385031215612f8b57612f8a612df0565b5b6000612f9985828601612e11565b9250506020612faa85828601612e6a565b9150509250929050565b612fbd81612c7d565b82525050565b6000602082019050612fd86000830184612fb4565b92915050565b600080fd5b600080fd5b7f4e487b7100000000000000000000000000000000000000000000000000000000600052604160045260246000fd5b61302082612c33565b810181811067ffffffffffffffff8211171561303f5761303e612fe8565b5b80604052505050565b6000613052612de6565b905061305e8282613017565b919050565b600067ffffffffffffffff82111561307e5761307d612fe8565b5b61308782612c33565b9050602081019050919050565b82818337600083830152505050565b60006130b66130b184613063565b613048565b9050828152602081018484840111156130d2576130d1612fe3565b5b6130dd848285613094565b509392505050565b600082601f8301126130fa576130f9612fde565b5b813561310a8482602086016130a3565b91505092915050565b60008060006060848603121561312c5761312b612df0565b5b600061313a86828701612e11565b935050602084013567ffffffffffffffff81111561315b5761315a612df5565b5b613167868287016130e5565b925050604084013567ffffffffffffffff81111561318857613187612df5565b5b613194868287016130e5565b9150509250925092565b60006020820190506131b36000830184612f20565b92915050565b600060a0820190506131ce6000830188612eac565b81810360208301526131e08187612ee7565b905081810360408301526131f48186612ee7565b90506132036060830185612fb4565b6132106080830184612f20565b9695505050505050565b600060608201905081810360008301526132348186612ee7565b90506132436020830185612fb4565b6132506040830184612f20565b949350505050565b7f4e487b7100000000000000000000000000000000000000000000000000000000600052603260045260246000fd5b7f4e487b7100000000000000000000000000000000000000000000000000000000600052602260045260246000fd5b600060028204905060018216806132ce57607f821691505b6020821081036132e1576132e0613287565b5b50919050565b7f4e487b7100000000000000000000000000000000000000000000000000000000600052601160045260246000fd5b600061332182612c98565b91507fffffffffffffffffffffffffffffffffffffffffffffffffffffffffffffffff8203613353576133526132e7565b5b600182019050919050565b7f566f74696e67207068617365206973206e6f74206163746976652e0000000000600082015250565b6000613394601b83612ed6565b915061339f8261335e565b602082019050919050565b600060208201905081810360008301526133c381613387565b9050919050565b7f4e6f2061646d696e2070726f706f736564000000000000000000000000000000600082015250565b6000613400601183612ed6565b915061340b826133ca565b602082019050919050565b6000602082019050818103600083015261342f816133f3565b9050919050565b7f4f6e6c7920726567697374657265642075736572732063616e20766f74652e00600082015250565b600061346c601f83612ed6565b915061347782613436565b602082019050919050565b6000602082019050818103600083015261349b8161345f565b9050919050565b7f416c726561647920766f7465642e000000000000000000000000000000000000600082015250565b60006134d8600e83612ed6565b91506134e3826134a2565b602082019050919050565b60006020820190508181036000830152613507816134cb565b9050919050565b7f4e6f7420436f6e74726163742041646d696e0000000000000000000000000000600082015250565b6000613544601283612ed6565b915061354f8261350e565b602082019050919050565b6000602082019050818103600083015261357381613537565b9050919050565b7f4163636f756e7420646f65736e27742065786973740000000000000000000000600082015250565b60006135b0601583612ed6565b91506135bb8261357a565b602082019050919050565b600060208201905081810360008301526135df816135a3565b9050919050565b60006135f182612c98565b915060008203613604576136036132e7565b5b600182039050919050565b600061361a82612c98565b915061362583612c98565b925082821015613638576136376132e7565b5b828203905092915050565b7f4e487b7100000000000000000000000000000000000000000000000000000000600052603160045260246000fd5b7f50726f706f73616c2070686173652068617320656e6465642e00000000000000600082015250565b60006136a8601983612ed6565b91506136b382613672565b602082019050919050565b600060208201905081810360008301526136d78161369b565b9050919050565b7f50726f706f7365642041646d696e2046756c6c00000000000000000000000000600082015250565b6000613714601383612ed6565b915061371f826136de565b602082019050919050565b6000602082019050818103600083015261374381613707565b9050919050565b7f41646472657373206973206e6f7420696e20746865204163636f756e7420636f60008201527f6e74726163740000000000000000000000000000000000000000000000000000602082015250565b60006137a6602683612ed6565b91506137b18261374a565b604082019050919050565b600060208201905081810360008301526137d581613799565b9050919050565b7f41646d696e20697320616c72656164792070726f706f7365642e000000000000600082015250565b6000613812601a83612ed6565b915061381d826137dc565b602082019050919050565b6000602082019050818103600083015261384181613805565b9050919050565b7f566f74696e6720697320616c7265616479206163746976652e00000000000000600082015250565b600061387e601983612ed6565b915061388982613848565b602082019050919050565b600060208201905081810360008301526138ad81613871565b9050919050565b60006138bf82612c98565b91506138ca83612c98565b9250827fffffffffffffffffffffffffffffffffffffffffffffffffffffffffffffffff038211156138ff576138fe6132e7565b5b828201905092915050565b7f576974686472617720616d6f756e74206d75737420626520677265617465722060008201527f7468616e207a65726f0000000000000000000000000000000000000000000000602082015250565b6000613966602983612ed6565b91506139718261390a565b604082019050919050565b6000602082019050818103600083015261399581613959565b9050919050565b7f496e73756666696369656e742062616c616e6365000000000000000000000000600082015250565b60006139d2601483612ed6565b91506139dd8261399c565b602082019050919050565b60006020820190508181036000830152613a01816139c5565b9050919050565b600081905092915050565b50565b6000613a23600083613a08565b9150613a2e82613a13565b600082019050919050565b6000613a4482613a16565b9150819050919050565b7f5769746864726177616c206661696c6564000000000000000000000000000000600082015250565b6000613a84601183612ed6565b9150613a8f82613a4e565b602082019050919050565b60006020820190508181036000830152613ab381613a77565b9050919050565b7f566f74696e67207068617365206973206163746976652e000000000000000000600082015250565b6000613af0601783612ed6565b9150613afb82613aba565b602082019050919050565b60006020820190508181036000830152613b1f81613ae3565b9050919050565b7f4163636f756e7420616c72656164792065786973747300000000000000000000600082015250565b6000613b5c601683612ed6565b9150613b6782613b26565b602082019050919050565b60006020820190508181036000830152613b8b81613b4f565b9050919050565b6000819050919050565b6000819050919050565b6000613bc1613bbc613bb784613b92565b613b9c565b612c98565b9050919050565b613bd181613ba6565b82525050565b60006060820190508181036000830152613bf18186612ee7565b90508181036020830152613c058185612ee7565b9050613c146040830184613bc8565b949350505050565b7f596f75206e65656420746f206465706f73697420736f6d652045746865720000600082015250565b6000613c52601e83612ed6565b9150613c5d82613c1c565b602082019050919050565b60006020820190508181036000830152613c8181613c45565b9050919050565b7f566f74696e6720706572696f6420686173206e6f7420656e6465642e00000000600082015250565b6000613cbe601c83612ed6565b9150613cc982613c88565b602082019050919050565b60006020820190508181036000830152613ced81613cb1565b9050919050565b7f4e6f2076616c69642061646d696e20666f756e642e0000000000000000000000600082015250565b6000613d2a601583612ed6565b9150613d3582613cf4565b602082019050919050565b60006020820190508181036000830152613d5981613d1d565b9050919050565b6000613d6b82612c98565b9150613d7683612c98565b9250817fffffffffffffffffffffffffffffffffffffffffffffffffffffffffffffffff0483118215151615613daf57613dae6132e7565b5b828202905092915050565b7f4e487b7100000000000000000000000000000000000000000000000000000000600052601260045260246000fd5b6000613df482612c98565b9150613dff83612c98565b925082613e0f57613e0e613dba565b5b82820490509291505056fea2646970667358221220312fc6fe4730779bdd799ea46fb426f4497a7e409345b1d3633b109f57bca9a264736f6c634300080d0033",
  "immutableReferences": {},
  "source": "// SPDX-License-Identifier: MIT\r\npragma solidity ^0.8.0;\r\n\r\ncontract AccountManager {\r\n    //Account Manager----------------------------------------\r\n\r\n    struct Account {\r\n        address userAddress;\r\n        string name;\r\n        string email;\r\n        bool exist;\r\n        uint256 value;\r\n    }\r\n\r\n    uint256 public totalAccounts = 0;\r\n    address private admin;\r\n\r\n    mapping(address => Account) public accounts;\r\n\r\n    address[] public accountAddresses;\r\n\r\n    event AccountCreated(\r\n        address indexed user,\r\n        string name,\r\n        string email,\r\n        uint256 value\r\n    );\r\n    event AccountPurged(address indexed user);\r\n    event DepositMade(address indexed user, uint256 amount);\r\n    event WithdrawalMade(address indexed user, uint256 amount);\r\n    event DepositUpdated(address indexed user, uint256 newAmount);\r\n    // Modifiers\r\n    modifier onlyAdmin() {\r\n        require(msg.sender == admin, \"Not Contract Admin\");\r\n        _;\r\n    }\r\n\r\n    constructor() {\r\n        admin = msg.sender;\r\n    }\r\n\r\n    function getAdmin() public view returns (address) {\r\n        return admin;\r\n    }\r\n\r\n    function getAllAccounts() public view returns (Account[] memory) {\r\n        Account[] memory allAccounts = new Account[](totalAccounts);\r\n        uint256 count = 0;\r\n\r\n        for (uint256 i = 0; i < accountAddresses.length; i++) {\r\n            if (accounts[accountAddresses[i]].exist) {\r\n                allAccounts[count] = accounts[accountAddresses[i]];\r\n                count++;\r\n            }\r\n        }\r\n\r\n        return allAccounts;\r\n    }\r\n\r\n    function getAccountCount() public view returns (uint256) {\r\n        return totalAccounts;\r\n    }\r\n\r\n    function accountExists(address _account) public view returns (bool) {\r\n        return accounts[_account].exist;\r\n    }\r\n\r\n    function createAccount(\r\n        address _user,\r\n        string memory _name,\r\n        string memory _email\r\n    ) public onlyAdmin notDuringVotingPhase {\r\n        require(!accounts[_user].exist, \"Account already exists\");\r\n\r\n        accounts[_user] = Account({\r\n            userAddress: _user,\r\n            name: _name,\r\n            email: _email,\r\n            exist: true,\r\n            value: 0\r\n        });\r\n        accountAddresses.push(_user); // Add the user's address to the array\r\n        totalAccounts++;\r\n\r\n        emit AccountCreated(_user, _name, _email, 0);\r\n    }\r\n\r\n    function purgeAccount(address _user) public onlyAdmin {\r\n        require(accounts[_user].exist, \"Account doesn't exist\");\r\n\r\n        totalAccounts--;\r\n        delete accounts[_user];\r\n\r\n        for (uint256 i = 0; i < accountAddresses.length; i++) {\r\n            if (accountAddresses[i] == _user) {\r\n                accountAddresses[i] = accountAddresses[\r\n                    accountAddresses.length - 1\r\n                ];\r\n                accountAddresses.pop(); // Remove last element\r\n                break;\r\n            }\r\n        }\r\n\r\n        emit AccountPurged(_user);\r\n    }\r\n\r\n    function getAccountDetails(address _user)\r\n        public\r\n        view\r\n        \r\n        returns (\r\n            string memory name,\r\n            string memory email,\r\n            uint256 value\r\n        )\r\n    {\r\n        require(accounts[_user].exist, \"Account doesn't exist\");\r\n        Account memory account = accounts[_user];\r\n        return (account.name, account.email, account.value);\r\n    }\r\n\r\n    function deposit() public payable {\r\n        require(accounts[msg.sender].exist, \"Account doesn't exist\");\r\n        require(msg.value > 0, \"You need to deposit some Ether\");\r\n\r\n        // Update the user's balance\r\n        accounts[msg.sender].value += msg.value;\r\n\r\n        // Emit the DepositMade event\r\n        emit DepositMade(msg.sender, msg.value);\r\n    }\r\n\r\n    function withdraw(uint256 _amount) public {\r\n        require(accounts[msg.sender].exist, \"Account doesn't exist\");\r\n        require(_amount > 0, \"Withdraw amount must be greater than zero\");\r\n        require(accounts[msg.sender].value >= _amount, \"Insufficient balance\");\r\n\r\n        // Deduct the withdrawn amount from the user's balance\r\n        accounts[msg.sender].value -= _amount;\r\n\r\n        // Transfer the Ether back to the user\r\n        (bool success, ) = msg.sender.call{value: _amount}(\"\");\r\n        require(success, \"Withdrawal failed\");\r\n\r\n        // Emit the WithdrawalMade event\r\n        emit WithdrawalMade(msg.sender, _amount);\r\n    }\r\n\r\n    function depositUpdate(address _user, uint256 _newAmount) public  returns (bool success) {\r\n        require(accounts[_user].exist, \"Account doesn't exist\");\r\n\r\n        // Update the user's value to the new amount\r\n        accounts[_user].value = _newAmount;\r\n\r\n        // Emit the DepositUpdated event\r\n        emit DepositUpdated(_user, _newAmount);\r\n        return true;\r\n    }\r\n\r\n    function getContractBalance() public view returns (uint256) {\r\n        return address(this).balance;\r\n    }\r\n\r\n    function getAccountDeposit(address _target)\r\n        public\r\n        view\r\n        returns (uint256 value)\r\n    {\r\n        require(accounts[_target].exist, \"Account doesn't exist\");\r\n        Account memory account = accounts[_target];\r\n        return account.value;\r\n    }\r\n\r\n    //Vote Admin---------------------------------------------------\r\n    struct proposedAdmin {\r\n        string name;\r\n        bool exist;\r\n        uint256 votes;\r\n    }\r\n    mapping(address => proposedAdmin) public proposedAdmins;\r\n    uint256 private voteThreshold;\r\n    address[] public proposedAdminAddresses;\r\n    uint256 private votingStartTime;\r\n    uint256 private votingEndTime;\r\n    uint256 private proposalDeadline;\r\n    bool private votingActive;\r\n    uint256 proposedAdminsCounts;\r\n    address[] public voted;\r\n    event StartVoting();\r\n    event AdminChanged(address indexed newAdmin);\r\n    modifier duringProposalPhase() {\r\n        require(\r\n            block.timestamp <= proposalDeadline,\r\n            \"Proposal phase has ended.\"\r\n        );\r\n        _;\r\n    }\r\n\r\n    modifier duringVotingPhase() {\r\n        require(\r\n            block.timestamp >= proposalDeadline &&\r\n                block.timestamp <= votingEndTime,\r\n            \"Voting phase is not active.\"\r\n        );\r\n        _;\r\n    }\r\n\r\n    modifier notDuringVotingPhase() {\r\n        require(\r\n            block.timestamp < proposalDeadline ||\r\n                block.timestamp > votingEndTime,\r\n            \"Voting phase is active.\"\r\n        );\r\n        _;\r\n    }\r\n\r\n    modifier afterVotingPhase() {\r\n        require(\r\n            block.timestamp > votingEndTime,\r\n            \"Voting period has not ended.\"\r\n        );\r\n        _;\r\n    }\r\n\r\n    modifier adminProposedRestrict() {\r\n        require(proposedAdminsCounts < 3, \"Proposed Admin Full\");\r\n        _;\r\n    }\r\n\r\n    modifier checkAdminProposed() {\r\n        require(proposedAdminsCounts != 0, \"No admin proposed\");\r\n        _;\r\n    }\r\n\r\n    function startVoting() public onlyAdmin {\r\n        require(!votingActive, \"Voting is already active.\");\r\n        votingStartTime = block.timestamp;\r\n        proposalDeadline = block.timestamp + 60; // First 1 minutes for proposing\r\n        votingEndTime = block.timestamp + 120; // Total of 2 minutes\r\n\r\n        votingActive = true;\r\n        updateVoteThreshold();\r\n        emit StartVoting();\r\n    }\r\n\r\n    function updateVoteThreshold() internal {\r\n        uint256 totalRegisteredUsers = getAccountCount();\r\n        voteThreshold = (totalRegisteredUsers * 51 + 99) / 100; // Equivalent to rounding up (51% rule)\r\n    }\r\n\r\n    function proposeAdmin(address _admin)\r\n        public\r\n        duringProposalPhase\r\n        adminProposedRestrict\r\n    {\r\n        require(\r\n            accounts[_admin].exist,\r\n            \"Address is not in the Account contract\"\r\n        );\r\n        require(!proposedAdmins[_admin].exist, \"Admin is already proposed.\");\r\n        proposedAdmins[_admin] = proposedAdmin(accounts[_admin].name, true, 0);\r\n        proposedAdminAddresses.push(_admin);\r\n        proposedAdminsCounts++;\r\n    }\r\n\r\n    function voteForAdmin(address _admin)\r\n        public\r\n        duringVotingPhase\r\n        checkAdminProposed\r\n    {\r\n        require(accountExists(msg.sender), \"Only registered users can vote.\");\r\n        require(!voterHasVoted(msg.sender), \"Already voted.\");\r\n        voted.push(msg.sender);\r\n        proposedAdmins[_admin].votes++; //Increment the voted proposed admin votes\r\n\r\n        if (proposedAdmins[_admin].votes >= voteThreshold) {\r\n            finalizeAdminByThresHold(_admin);\r\n        }\r\n    }\r\n\r\n    function finalizeAdminByThresHold(address _admin) internal {\r\n        admin = _admin;\r\n\r\n        emit AdminChanged(_admin);\r\n        resetVoting();\r\n    }\r\n\r\n    function finalizeAdmin() public afterVotingPhase checkAdminProposed {\r\n        address mostVotedAdmin;\r\n        uint256 highestVotes = 0;\r\n\r\n        for (uint256 i = 0; i < proposedAdminAddresses.length; i++) {\r\n            address proposedAddress = proposedAdminAddresses[i];\r\n            uint256 votes = proposedAdmins[proposedAddress].votes;\r\n\r\n            // Check if the current admin has more votes than the current highest\r\n            if (votes > highestVotes) {\r\n                highestVotes = votes;\r\n                mostVotedAdmin = proposedAddress;\r\n            }\r\n        }\r\n\r\n        require(mostVotedAdmin != address(0), \"No valid admin found.\");\r\n\r\n        // Set the new admin\r\n        admin = mostVotedAdmin;\r\n\r\n        emit AdminChanged(mostVotedAdmin); // Emit an event for admin change\r\n\r\n        resetVoting();\r\n    }\r\n\r\n    function resetVoting() internal {\r\n        for (uint256 i = 0; i < voted.length; i++) {\r\n            delete proposedAdmins[voted[i]]; // Reset the proposed admin votes\r\n        }\r\n        votingActive = false;\r\n        proposedAdminsCounts = 0;\r\n        delete proposedAdminAddresses;\r\n        delete voted;\r\n    }\r\n\r\n    function voterHasVoted(address _address) public view returns (bool) {\r\n        for (uint256 i = 0; i < voted.length; i++) {\r\n            if (voted[i] == _address) {\r\n                return true;\r\n            }\r\n        }\r\n        return false;\r\n    }\r\n}\r\n",
  "sourcePath": "C:\\Users\\quint\\vscode\\My Projects\\Timelock\\contracts\\AccountManager.sol",
  "compiler": {
    "name": "solc",
    "version": "0.8.13+commit.abaa5c0e.Emscripten.clang"
  },
  "schemaVersion": "3.4.16",
  "updatedAt": "2024-09-21T01:11:37.405Z",
  "networkType": "ethereum",
  "devdoc": {
    "kind": "dev",
    "methods": {},
    "version": 1
  },
  "userdoc": {
    "kind": "user",
    "methods": {},
    "version": 1
  }
}