{
  "contractName": "Timelock",
  "abi": [
    {
      "inputs": [
        {
          "internalType": "address",
          "name": "_accountsContractAddress",
          "type": "address"
        },
        {
          "internalType": "uint256",
          "name": "_minGracePeriod",
          "type": "uint256"
        },
        {
          "internalType": "uint256",
          "name": "_maxGracePeriod",
          "type": "uint256"
        },
        {
          "internalType": "uint256",
          "name": "_defaultGracePeriod",
          "type": "uint256"
        }
      ],
      "stateMutability": "nonpayable",
      "type": "constructor"
    },
    {
      "inputs": [
        {
          "internalType": "bytes32",
          "name": "txId",
          "type": "bytes32"
        }
      ],
      "name": "AlreadyQueuedError",
      "type": "error"
    },
    {
      "inputs": [],
      "name": "NotAdminError",
      "type": "error"
    },
    {
      "inputs": [
        {
          "internalType": "bytes32",
          "name": "txId",
          "type": "bytes32"
        }
      ],
      "name": "NotQueuedError",
      "type": "error"
    },
    {
      "inputs": [
        {
          "internalType": "uint256",
          "name": "blockTimestamp",
          "type": "uint256"
        },
        {
          "internalType": "uint256",
          "name": "expiresAt",
          "type": "uint256"
        }
      ],
      "name": "TimestampExpiredError",
      "type": "error"
    },
    {
      "inputs": [
        {
          "internalType": "uint256",
          "name": "blockTimestamp",
          "type": "uint256"
        },
        {
          "internalType": "uint256",
          "name": "expiresAt",
          "type": "uint256"
        }
      ],
      "name": "TimestampNotMatureError",
      "type": "error"
    },
    {
      "inputs": [
        {
          "internalType": "uint256",
          "name": "blockTimestamp",
          "type": "uint256"
        },
        {
          "internalType": "uint256",
          "name": "timestamp",
          "type": "uint256"
        }
      ],
      "name": "TimestampNotPassedError",
      "type": "error"
    },
    {
      "inputs": [],
      "name": "TxFailedError",
      "type": "error"
    },
    {
      "anonymous": false,
      "inputs": [
        {
          "indexed": true,
          "internalType": "bytes32",
          "name": "txId",
          "type": "bytes32"
        }
      ],
      "name": "Cancel",
      "type": "event"
    },
    {
      "anonymous": false,
      "inputs": [
        {
          "indexed": true,
          "internalType": "address",
          "name": "user",
          "type": "address"
        },
        {
          "indexed": false,
          "internalType": "uint256",
          "name": "amount",
          "type": "uint256"
        }
      ],
      "name": "Deposited",
      "type": "event"
    },
    {
      "anonymous": false,
      "inputs": [
        {
          "indexed": true,
          "internalType": "bytes32",
          "name": "txId",
          "type": "bytes32"
        },
        {
          "indexed": true,
          "internalType": "address",
          "name": "target",
          "type": "address"
        },
        {
          "indexed": false,
          "internalType": "uint256",
          "name": "value",
          "type": "uint256"
        },
        {
          "indexed": false,
          "internalType": "uint256",
          "name": "timestamp",
          "type": "uint256"
        }
      ],
      "name": "Execute",
      "type": "event"
    },
    {
      "anonymous": false,
      "inputs": [
        {
          "indexed": false,
          "internalType": "uint256",
          "name": "gracePeriod",
          "type": "uint256"
        }
      ],
      "name": "GracePeriodChanged",
      "type": "event"
    },
    {
      "anonymous": false,
      "inputs": [
        {
          "indexed": false,
          "internalType": "uint256",
          "name": "newGracePeriod",
          "type": "uint256"
        }
      ],
      "name": "NewGracePeriodProposed",
      "type": "event"
    },
    {
      "anonymous": false,
      "inputs": [
        {
          "indexed": true,
          "internalType": "bytes32",
          "name": "txId",
          "type": "bytes32"
        },
        {
          "indexed": true,
          "internalType": "address",
          "name": "target",
          "type": "address"
        },
        {
          "indexed": false,
          "internalType": "uint256",
          "name": "value",
          "type": "uint256"
        },
        {
          "indexed": false,
          "internalType": "uint256",
          "name": "timestamp",
          "type": "uint256"
        }
      ],
      "name": "Queue",
      "type": "event"
    },
    {
      "anonymous": false,
      "inputs": [
        {
          "indexed": false,
          "internalType": "uint256",
          "name": "newGracePeriod",
          "type": "uint256"
        }
      ],
      "name": "VotingFinalized",
      "type": "event"
    },
    {
      "inputs": [],
      "name": "accountBalance",
      "outputs": [
        {
          "internalType": "uint256",
          "name": "",
          "type": "uint256"
        }
      ],
      "stateMutability": "view",
      "type": "function",
      "constant": true
    },
    {
      "inputs": [],
      "name": "accountsContract",
      "outputs": [
        {
          "internalType": "contract AccountManager",
          "name": "",
          "type": "address"
        }
      ],
      "stateMutability": "view",
      "type": "function",
      "constant": true
    },
    {
      "inputs": [],
      "name": "admin",
      "outputs": [
        {
          "internalType": "address",
          "name": "",
          "type": "address"
        }
      ],
      "stateMutability": "view",
      "type": "function",
      "constant": true
    },
    {
      "inputs": [],
      "name": "depositAmt",
      "outputs": [
        {
          "internalType": "uint256",
          "name": "",
          "type": "uint256"
        }
      ],
      "stateMutability": "view",
      "type": "function",
      "constant": true
    },
    {
      "inputs": [],
      "name": "maxGracePeriod",
      "outputs": [
        {
          "internalType": "uint256",
          "name": "",
          "type": "uint256"
        }
      ],
      "stateMutability": "view",
      "type": "function",
      "constant": true
    },
    {
      "inputs": [],
      "name": "minGracePeriod",
      "outputs": [
        {
          "internalType": "uint256",
          "name": "",
          "type": "uint256"
        }
      ],
      "stateMutability": "view",
      "type": "function",
      "constant": true
    },
    {
      "inputs": [],
      "name": "owner",
      "outputs": [
        {
          "internalType": "address",
          "name": "",
          "type": "address"
        }
      ],
      "stateMutability": "view",
      "type": "function",
      "constant": true
    },
    {
      "inputs": [
        {
          "internalType": "uint256",
          "name": "",
          "type": "uint256"
        }
      ],
      "name": "voted",
      "outputs": [
        {
          "internalType": "address",
          "name": "",
          "type": "address"
        }
      ],
      "stateMutability": "view",
      "type": "function",
      "constant": true
    },
    {
      "inputs": [],
      "name": "whoDeposited",
      "outputs": [
        {
          "internalType": "address",
          "name": "",
          "type": "address"
        }
      ],
      "stateMutability": "view",
      "type": "function",
      "constant": true
    },
    {
      "inputs": [],
      "name": "getGracePeriod",
      "outputs": [
        {
          "internalType": "uint256",
          "name": "",
          "type": "uint256"
        }
      ],
      "stateMutability": "view",
      "type": "function",
      "constant": true
    },
    {
      "inputs": [
        {
          "internalType": "address",
          "name": "_target",
          "type": "address"
        },
        {
          "internalType": "uint256",
          "name": "_value",
          "type": "uint256"
        }
      ],
      "name": "getTxId",
      "outputs": [
        {
          "internalType": "bytes32",
          "name": "",
          "type": "bytes32"
        }
      ],
      "stateMutability": "pure",
      "type": "function",
      "constant": true
    },
    {
      "inputs": [
        {
          "internalType": "address",
          "name": "_target",
          "type": "address"
        },
        {
          "internalType": "uint256",
          "name": "_value",
          "type": "uint256"
        }
      ],
      "name": "queue",
      "outputs": [
        {
          "internalType": "bytes32",
          "name": "",
          "type": "bytes32"
        }
      ],
      "stateMutability": "nonpayable",
      "type": "function"
    },
    {
      "inputs": [
        {
          "internalType": "bytes32",
          "name": "_txId",
          "type": "bytes32"
        }
      ],
      "name": "execute",
      "outputs": [
        {
          "internalType": "address",
          "name": "target",
          "type": "address"
        },
        {
          "internalType": "uint256",
          "name": "value",
          "type": "uint256"
        }
      ],
      "stateMutability": "nonpayable",
      "type": "function"
    },
    {
      "inputs": [
        {
          "internalType": "bytes32",
          "name": "_txId",
          "type": "bytes32"
        }
      ],
      "name": "cancel",
      "outputs": [
        {
          "internalType": "address",
          "name": "sender",
          "type": "address"
        },
        {
          "internalType": "uint256",
          "name": "value",
          "type": "uint256"
        }
      ],
      "stateMutability": "nonpayable",
      "type": "function"
    },
    {
      "inputs": [
        {
          "internalType": "bytes32",
          "name": "_txId",
          "type": "bytes32"
        }
      ],
      "name": "getTx",
      "outputs": [
        {
          "components": [
            {
              "internalType": "bytes32",
              "name": "txId",
              "type": "bytes32"
            },
            {
              "internalType": "address",
              "name": "target",
              "type": "address"
            },
            {
              "internalType": "uint256",
              "name": "value",
              "type": "uint256"
            },
            {
              "internalType": "uint256",
              "name": "timestamp",
              "type": "uint256"
            },
            {
              "internalType": "bool",
              "name": "queued",
              "type": "bool"
            },
            {
              "internalType": "address",
              "name": "depositor",
              "type": "address"
            }
          ],
          "internalType": "struct Timelock.Tx",
          "name": "transaction",
          "type": "tuple"
        }
      ],
      "stateMutability": "view",
      "type": "function",
      "constant": true
    },
    {
      "inputs": [
        {
          "internalType": "uint256",
          "name": "_proposedGracePeriod",
          "type": "uint256"
        }
      ],
      "name": "startVoting",
      "outputs": [],
      "stateMutability": "nonpayable",
      "type": "function"
    },
    {
      "inputs": [],
      "name": "voteGracePeriod",
      "outputs": [],
      "stateMutability": "nonpayable",
      "type": "function"
    },
    {
      "inputs": [
        {
          "internalType": "address",
          "name": "_address",
          "type": "address"
        }
      ],
      "name": "voterHasVoted",
      "outputs": [
        {
          "internalType": "bool",
          "name": "",
          "type": "bool"
        }
      ],
      "stateMutability": "view",
      "type": "function",
      "constant": true
    },
    {
      "inputs": [],
      "name": "finalizeVote",
      "outputs": [],
      "stateMutability": "nonpayable",
      "type": "function"
    },
    {
      "inputs": [],
      "name": "getCurrentGracePeriod",
      "outputs": [
        {
          "internalType": "uint256",
          "name": "",
          "type": "uint256"
        }
      ],
      "stateMutability": "view",
      "type": "function",
      "constant": true
    },
    {
      "inputs": [],
      "name": "getProposedGracePeriod",
      "outputs": [
        {
          "internalType": "uint256",
          "name": "",
          "type": "uint256"
        }
      ],
      "stateMutability": "view",
      "type": "function",
      "constant": true
    }
  ],
  "bytecode": "0x60806040523480156200001157600080fd5b50604051620029bc380380620029bc83398181016040528101906200003791906200013c565b83600660006101000a81548173ffffffffffffffffffffffffffffffffffffffff021916908373ffffffffffffffffffffffffffffffffffffffff16021790555082600881905550816009819055508060028190555050505050620001ae565b600080fd5b600073ffffffffffffffffffffffffffffffffffffffff82169050919050565b6000620000c9826200009c565b9050919050565b620000db81620000bc565b8114620000e757600080fd5b50565b600081519050620000fb81620000d0565b92915050565b6000819050919050565b620001168162000101565b81146200012257600080fd5b50565b60008151905062000136816200010b565b92915050565b6000806000806080858703121562000159576200015862000097565b5b60006200016987828801620000ea565b94505060206200017c8782880162000125565b93505060406200018f8782880162000125565b9250506060620001a28782880162000125565b91505092959194509250565b6127fe80620001be6000396000f3fe608060405234801561001057600080fd5b50600436106101375760003560e01c8063a1761664116100b8578063ba4090de1161007c578063ba4090de1461031c578063c4d252f51461033a578063dbd183881461036b578063e751f27114610389578063f851a440146103ba578063f9628d94146103d857610137565b8063a176166414610262578063ada6e9f214610280578063b0a1c1c4146102b0578063b5677b42146102ce578063b915cb6c146102ec57610137565b806354ef7f2d116100ff57806354ef7f2d146101ce57806367db86a5146101d857806384f2f0c4146101f65780638da5cb5b146102145780638fbb38ff1461023257610137565b80631a7cd1971461013c5780632916f2b4146101465780633d2f5bda146101645780634428711314610180578063446f201e146101b0575b600080fd5b610144610408565b005b61014e610645565b60405161015b9190611b8c565b60405180910390f35b61017e60048036038101906101799190611bd8565b61064b565b005b61019a60048036038101906101959190611c63565b6107ba565b6040516101a79190611cbc565b60405180910390f35b6101b8610c39565b6040516101c59190611d36565b60405180910390f35b6101d6610c5f565b005b6101e0610d85565b6040516101ed9190611b8c565b60405180910390f35b6101fe610d8f565b60405161020b9190611b8c565b60405180910390f35b61021c610d95565b6040516102299190611d60565b60405180910390f35b61024c60048036038101906102479190611bd8565b610dbb565b6040516102599190611d60565b60405180910390f35b61026a610dfa565b6040516102779190611d60565b60405180910390f35b61029a60048036038101906102959190611d7b565b610e20565b6040516102a79190611dc3565b60405180910390f35b6102b8610ece565b6040516102c59190611b8c565b60405180910390f35b6102d6610ed4565b6040516102e39190611b8c565b60405180910390f35b61030660048036038101906103019190611e0a565b610eda565b6040516103139190611eee565b60405180910390f35b610324610feb565b6040516103319190611b8c565b60405180910390f35b610354600480360381019061034f9190611e0a565b610ff5565b604051610362929190611f09565b60405180910390f35b6103736113d6565b6040516103809190611b8c565b60405180910390f35b6103a3600480360381019061039e9190611e0a565b6113e0565b6040516103b1929190611f09565b60405180910390f35b6103c2611838565b6040516103cf9190611d60565b60405180910390f35b6103f260048036038101906103ed9190611c63565b61185e565b6040516103ff9190611cbc565b60405180910390f35b600a54421015801561041c5750600b544211155b61045b576040517f08c379a000000000000000000000000000000000000000000000000000000000815260040161045290611f8f565b60405180910390fd5b6000601054036104a0576040517f08c379a000000000000000000000000000000000000000000000000000000000815260040161049790611ffb565b60405180910390fd5b600660009054906101000a900473ffffffffffffffffffffffffffffffffffffffff1673ffffffffffffffffffffffffffffffffffffffff166375cd51ed336040518263ffffffff1660e01b81526004016104fb9190611d60565b602060405180830381865afa158015610518573d6000803e3d6000fd5b505050506040513d601f19601f8201168201806040525081019061053c9190612047565b61057b576040517f08c379a0000000000000000000000000000000000000000000000000000000008152600401610572906120c0565b60405180910390fd5b61058433610e20565b156105c4576040517f08c379a00000000000000000000000000000000000000000000000000000000081526004016105bb9061212c565b60405180910390fd5b600f339080600181540180825580915050600190039060005260206000200160009091909190916101000a81548173ffffffffffffffffffffffffffffffffffffffff021916908373ffffffffffffffffffffffffffffffffffffffff160217905550600e54610632611891565b10610643576106426010546118cc565b5b565b60085481565b600854811015801561065f57506009548111155b61069e576040517f08c379a0000000000000000000000000000000000000000000000000000000008152600401610695906121be565b60405180910390fd5b60025481036106e2576040517f08c379a00000000000000000000000000000000000000000000000000000000081526004016106d990612250565b60405180910390fd5b600d60009054906101000a900460ff1615610732576040517f08c379a0000000000000000000000000000000000000000000000000000000008152600401610729906122bc565b60405180910390fd5b61073a611915565b42600a8190555060784261074e919061230b565b600b819055506001600d60006101000a81548160ff0219169083151502179055506107776119a2565b806010819055507fcae3278bf7174c45bcf59eaee8f153db11a04c8f14eef657b88ba3f0cde06d5d6010546040516107af9190611b8c565b60405180910390a150565b60008082116107fe576040517f08c379a00000000000000000000000000000000000000000000000000000000081526004016107f5906123d3565b60405180910390fd5b81600660009054906101000a900473ffffffffffffffffffffffffffffffffffffffff1673ffffffffffffffffffffffffffffffffffffffff1663b6aa680c336040518263ffffffff1660e01b815260040161085a9190611d60565b602060405180830381865afa158015610877573d6000803e3d6000fd5b505050506040513d601f19601f8201168201806040525081019061089b9190612408565b116108db576040517f08c379a00000000000000000000000000000000000000000000000000000000081526004016108d290612481565b60405180910390fd5b60006108e7848461185e565b905060008082815260200190815260200160002060040160009054906101000a900460ff161561094e57806040517f995042be0000000000000000000000000000000000000000000000000000000081526004016109459190611cbc565b60405180910390fd5b60006040518060c001604052808381526020018673ffffffffffffffffffffffffffffffffffffffff1681526020018581526020014281526020016001151581526020013373ffffffffffffffffffffffffffffffffffffffff168152509050806000808481526020019081526020016000206000820151816000015560208201518160010160006101000a81548173ffffffffffffffffffffffffffffffffffffffff021916908373ffffffffffffffffffffffffffffffffffffffff160217905550604082015181600201556060820151816003015560808201518160040160006101000a81548160ff02191690831515021790555060a08201518160040160016101000a81548173ffffffffffffffffffffffffffffffffffffffff021916908373ffffffffffffffffffffffffffffffffffffffff160217905550905050600084600660009054906101000a900473ffffffffffffffffffffffffffffffffffffffff1673ffffffffffffffffffffffffffffffffffffffff1663b6aa680c336040518263ffffffff1660e01b8152600401610aee9190611d60565b602060405180830381865afa158015610b0b573d6000803e3d6000fd5b505050506040513d601f19601f82011682018060405250810190610b2f9190612408565b610b3991906124a1565b90508573ffffffffffffffffffffffffffffffffffffffff16837f29829d31c3b36d4a4d8cba00b41f628ae184b474a5a3a12296efe0e31da83ddd8742604051610b849291906124d5565b60405180910390a3600660009054906101000a900473ffffffffffffffffffffffffffffffffffffffff1673ffffffffffffffffffffffffffffffffffffffff166333d07dc933836040518363ffffffff1660e01b8152600401610be9929190611f09565b6020604051808303816000875af1158015610c08573d6000803e3d6000fd5b505050506040513d601f19601f82011682018060405250810190610c2c9190612047565b5082935050505092915050565b600660009054906101000a900473ffffffffffffffffffffffffffffffffffffffff1681565b600b544211610ca3576040517f08c379a0000000000000000000000000000000000000000000000000000000008152600401610c9a9061254a565b60405180910390fd5b600060105403610ce8576040517f08c379a0000000000000000000000000000000000000000000000000000000008152600401610cdf906125b6565b60405180910390fd5b600e54610cf3611891565b10610d7a57610d036010546118cc565b7fcc2c34a1adf0911114053f75b51b2b1f8fc9ef9e25f0a5f12f210032b5b0a1b2601054604051610d349190611b8c565b60405180910390a17f886c75dbb46b8e34257da373ac60898ecebd9682c7dfeb9c4d65383b92d5ff2d601054604051610d6d9190611b8c565b60405180910390a1610d7b565b5b610d83611915565b565b6000600254905090565b60095481565b600760009054906101000a900473ffffffffffffffffffffffffffffffffffffffff1681565b600f8181548110610dcb57600080fd5b906000526020600020016000915054906101000a900473ffffffffffffffffffffffffffffffffffffffff1681565b600360009054906101000a900473ffffffffffffffffffffffffffffffffffffffff1681565b600080600090505b600f80549050811015610ec3578273ffffffffffffffffffffffffffffffffffffffff16600f8281548110610e6057610e5f6125d6565b5b9060005260206000200160009054906101000a900473ffffffffffffffffffffffffffffffffffffffff1673ffffffffffffffffffffffffffffffffffffffff1603610eb0576001915050610ec9565b8080610ebb90612605565b915050610e28565b50600090505b919050565b60055481565b60045481565b610ee2611a65565b6000808381526020019081526020016000206040518060c0016040529081600082015481526020016001820160009054906101000a900473ffffffffffffffffffffffffffffffffffffffff1673ffffffffffffffffffffffffffffffffffffffff1673ffffffffffffffffffffffffffffffffffffffff16815260200160028201548152602001600382015481526020016004820160009054906101000a900460ff161515151581526020016004820160019054906101000a900473ffffffffffffffffffffffffffffffffffffffff1673ffffffffffffffffffffffffffffffffffffffff1673ffffffffffffffffffffffffffffffffffffffff16815250509050919050565b6000601054905090565b60008060008084815260200190815260200160002060040160009054906101000a900460ff1661105c57826040517f0995c9d50000000000000000000000000000000000000000000000000000000081526004016110539190611cbc565b60405180910390fd5b60008060008581526020019081526020016000206040518060c0016040529081600082015481526020016001820160009054906101000a900473ffffffffffffffffffffffffffffffffffffffff1673ffffffffffffffffffffffffffffffffffffffff1673ffffffffffffffffffffffffffffffffffffffff16815260200160028201548152602001600382015481526020016004820160009054906101000a900460ff161515151581526020016004820160019054906101000a900473ffffffffffffffffffffffffffffffffffffffff1673ffffffffffffffffffffffffffffffffffffffff1673ffffffffffffffffffffffffffffffffffffffff168152505090506002548160600151611174919061230b565b42106111ca5742600254826060015161118d919061230b565b6040517f92ae26d10000000000000000000000000000000000000000000000000000000081526004016111c19291906124d5565b60405180910390fd5b600080600086815260200190815260200160002060040160006101000a81548160ff02191690831515021790555060008160400151600660009054906101000a900473ffffffffffffffffffffffffffffffffffffffff1673ffffffffffffffffffffffffffffffffffffffff1663b6aa680c8460a001516040518263ffffffff1660e01b815260040161125e9190611d60565b602060405180830381865afa15801561127b573d6000803e3d6000fd5b505050506040513d601f19601f8201168201806040525081019061129f9190612408565b6112a9919061230b565b90506000600660009054906101000a900473ffffffffffffffffffffffffffffffffffffffff1673ffffffffffffffffffffffffffffffffffffffff166333d07dc98460a00151846040518363ffffffff1660e01b815260040161130e929190611f09565b6020604051808303816000875af115801561132d573d6000803e3d6000fd5b505050506040513d601f19601f820116820180604052508101906113519190612047565b9050857fe8d9861dbc9c663ed3accd261bbe2fe01e0d3d9e5f51fa38523b265c7757a93a60405160405180910390a2806113c0576040517f08c379a00000000000000000000000000000000000000000000000000000000081526004016113b7906126bf565b60405180910390fd5b8260a00151836040015194509450505050915091565b6000600254905090565b60008060008084815260200190815260200160002060040160009054906101000a900460ff1661144757826040517f0995c9d500000000000000000000000000000000000000000000000000000000815260040161143e9190611cbc565b60405180910390fd5b60008060008581526020019081526020016000206040518060c0016040529081600082015481526020016001820160009054906101000a900473ffffffffffffffffffffffffffffffffffffffff1673ffffffffffffffffffffffffffffffffffffffff1673ffffffffffffffffffffffffffffffffffffffff16815260200160028201548152602001600382015481526020016004820160009054906101000a900460ff161515151581526020016004820160019054906101000a900473ffffffffffffffffffffffffffffffffffffffff1673ffffffffffffffffffffffffffffffffffffffff1673ffffffffffffffffffffffffffffffffffffffff16815250509050806060015142101561159c574281606001516040517f035fce5b0000000000000000000000000000000000000000000000000000000081526004016115939291906124d5565b60405180910390fd5b60025481606001516115ae919061230b565b421015611605574260025482606001516115c8919061230b565b6040517f7dc4f9e00000000000000000000000000000000000000000000000000000000081526004016115fc9291906124d5565b60405180910390fd5b600080600086815260200190815260200160002060040160006101000a81548160ff02191690831515021790555060008160400151600660009054906101000a900473ffffffffffffffffffffffffffffffffffffffff1673ffffffffffffffffffffffffffffffffffffffff1663b6aa680c84602001516040518263ffffffff1660e01b81526004016116999190611d60565b602060405180830381865afa1580156116b6573d6000803e3d6000fd5b505050506040513d601f19601f820116820180604052508101906116da9190612408565b6116e4919061230b565b90506000600660009054906101000a900473ffffffffffffffffffffffffffffffffffffffff1673ffffffffffffffffffffffffffffffffffffffff166333d07dc98460200151846040518363ffffffff1660e01b8152600401611749929190611f09565b6020604051808303816000875af1158015611768573d6000803e3d6000fd5b505050506040513d601f19601f8201168201806040525081019061178c9190612047565b9050806117c5576040517fd9b4f81e00000000000000000000000000000000000000000000000000000000815260040160405180910390fd5b826020015173ffffffffffffffffffffffffffffffffffffffff16867f12c1a2c49028795b0ce8a17c5a4476dd1224c3ab775a1eed866d7ff04de03e218560400151866060015160405161181a9291906124d5565b60405180910390a38260200151836040015194509450505050915091565b600160009054906101000a900473ffffffffffffffffffffffffffffffffffffffff1681565b60008282604051602001611873929190611f09565b60405160208183030381529060405280519060200120905092915050565b6000805b600f805490508110156118c857600f80549050826118b3919061230b565b915080806118c090612605565b915050611895565b5090565b806002819055507f886c75dbb46b8e34257da373ac60898ecebd9682c7dfeb9c4d65383b92d5ff2d816040516119029190611b8c565b60405180910390a1611912611915565b50565b60006010819055506000600d60006101000a81548160ff0219169083151502179055506000600b81905550600067ffffffffffffffff81111561195b5761195a6126df565b5b6040519080825280602002602001820160405280156119895781602001602082028036833780820191505090505b50600f908051906020019061199f929190611acc565b50565b6000600660009054906101000a900473ffffffffffffffffffffffffffffffffffffffff1673ffffffffffffffffffffffffffffffffffffffff1663a98e4e776040518163ffffffff1660e01b8152600401602060405180830381865afa158015611a11573d6000803e3d6000fd5b505050506040513d601f19601f82011682018060405250810190611a359190612408565b905060646063603383611a48919061270e565b611a52919061230b565b611a5c9190612797565b600e8190555050565b6040518060c0016040528060008019168152602001600073ffffffffffffffffffffffffffffffffffffffff1681526020016000815260200160008152602001600015158152602001600073ffffffffffffffffffffffffffffffffffffffff1681525090565b828054828255906000526020600020908101928215611b45579160200282015b82811115611b445782518260006101000a81548173ffffffffffffffffffffffffffffffffffffffff021916908373ffffffffffffffffffffffffffffffffffffffff16021790555091602001919060010190611aec565b5b509050611b529190611b56565b5090565b5b80821115611b6f576000816000905550600101611b57565b5090565b6000819050919050565b611b8681611b73565b82525050565b6000602082019050611ba16000830184611b7d565b92915050565b600080fd5b611bb581611b73565b8114611bc057600080fd5b50565b600081359050611bd281611bac565b92915050565b600060208284031215611bee57611bed611ba7565b5b6000611bfc84828501611bc3565b91505092915050565b600073ffffffffffffffffffffffffffffffffffffffff82169050919050565b6000611c3082611c05565b9050919050565b611c4081611c25565b8114611c4b57600080fd5b50565b600081359050611c5d81611c37565b92915050565b60008060408385031215611c7a57611c79611ba7565b5b6000611c8885828601611c4e565b9250506020611c9985828601611bc3565b9150509250929050565b6000819050919050565b611cb681611ca3565b82525050565b6000602082019050611cd16000830184611cad565b92915050565b6000819050919050565b6000611cfc611cf7611cf284611c05565b611cd7565b611c05565b9050919050565b6000611d0e82611ce1565b9050919050565b6000611d2082611d03565b9050919050565b611d3081611d15565b82525050565b6000602082019050611d4b6000830184611d27565b92915050565b611d5a81611c25565b82525050565b6000602082019050611d756000830184611d51565b92915050565b600060208284031215611d9157611d90611ba7565b5b6000611d9f84828501611c4e565b91505092915050565b60008115159050919050565b611dbd81611da8565b82525050565b6000602082019050611dd86000830184611db4565b92915050565b611de781611ca3565b8114611df257600080fd5b50565b600081359050611e0481611dde565b92915050565b600060208284031215611e2057611e1f611ba7565b5b6000611e2e84828501611df5565b91505092915050565b611e4081611ca3565b82525050565b611e4f81611c25565b82525050565b611e5e81611b73565b82525050565b611e6d81611da8565b82525050565b60c082016000820151611e896000850182611e37565b506020820151611e9c6020850182611e46565b506040820151611eaf6040850182611e55565b506060820151611ec26060850182611e55565b506080820151611ed56080850182611e64565b5060a0820151611ee860a0850182611e46565b50505050565b600060c082019050611f036000830184611e73565b92915050565b6000604082019050611f1e6000830185611d51565b611f2b6020830184611b7d565b9392505050565b600082825260208201905092915050565b7f566f74696e67207068617365206973206e6f74206163746976652e0000000000600082015250565b6000611f79601b83611f32565b9150611f8482611f43565b602082019050919050565b60006020820190508181036000830152611fa881611f6c565b9050919050565b7f4e6f20477261636520506572696f642070726f706f7365642e00000000000000600082015250565b6000611fe5601983611f32565b9150611ff082611faf565b602082019050919050565b6000602082019050818103600083015261201481611fd8565b9050919050565b61202481611da8565b811461202f57600080fd5b50565b6000815190506120418161201b565b92915050565b60006020828403121561205d5761205c611ba7565b5b600061206b84828501612032565b91505092915050565b7f4f6e6c7920726567697374657265642075736572732063616e20766f74652e00600082015250565b60006120aa601f83611f32565b91506120b582612074565b602082019050919050565b600060208201905081810360008301526120d98161209d565b9050919050565b7f416c726561647920766f7465642e000000000000000000000000000000000000600082015250565b6000612116600e83611f32565b9150612121826120e0565b602082019050919050565b6000602082019050818103600083015261214581612109565b9050919050565b7f50726f706f73656420677261636520506572696f64204f7574206f662072616e60008201527f6765000000000000000000000000000000000000000000000000000000000000602082015250565b60006121a8602283611f32565b91506121b38261214c565b604082019050919050565b600060208201905081810360008301526121d78161219b565b9050919050565b7f50726f706f73656420677261636520706572696f642073616d6520776974682060008201527f63757272656e7420677261636520706572696f64000000000000000000000000602082015250565b600061223a603483611f32565b9150612245826121de565b604082019050919050565b600060208201905081810360008301526122698161222d565b9050919050565b7f566f74696e6720697320616c7265616479206163746976652e00000000000000600082015250565b60006122a6601983611f32565b91506122b182612270565b602082019050919050565b600060208201905081810360008301526122d581612299565b9050919050565b7f4e487b7100000000000000000000000000000000000000000000000000000000600052601160045260246000fd5b600061231682611b73565b915061232183611b73565b9250827fffffffffffffffffffffffffffffffffffffffffffffffffffffffffffffffff03821115612356576123556122dc565b5b828201905092915050565b7f45746865722076616c7565206d7573742062652067726561746572207468616e60008201527f20302e0000000000000000000000000000000000000000000000000000000000602082015250565b60006123bd602383611f32565b91506123c882612361565b604082019050919050565b600060208201905081810360008301526123ec816123b0565b9050919050565b60008151905061240281611bac565b92915050565b60006020828403121561241e5761241d611ba7565b5b600061242c848285016123f3565b91505092915050565b7f496e73756666696369656e742042616c616e6365000000000000000000000000600082015250565b600061246b601483611f32565b915061247682612435565b602082019050919050565b6000602082019050818103600083015261249a8161245e565b9050919050565b60006124ac82611b73565b91506124b783611b73565b9250828210156124ca576124c96122dc565b5b828203905092915050565b60006040820190506124ea6000830185611b7d565b6124f76020830184611b7d565b9392505050565b7f566f74696e6720706572696f6420686173206e6f7420656e6465642e00000000600082015250565b6000612534601c83611f32565b915061253f826124fe565b602082019050919050565b6000602082019050818103600083015261256381612527565b9050919050565b7f4e6f2070726f706f73656420677261636520706572696f642e00000000000000600082015250565b60006125a0601983611f32565b91506125ab8261256a565b602082019050919050565b600060208201905081810360008301526125cf81612593565b9050919050565b7f4e487b7100000000000000000000000000000000000000000000000000000000600052603260045260246000fd5b600061261082611b73565b91507fffffffffffffffffffffffffffffffffffffffffffffffffffffffffffffffff8203612642576126416122dc565b5b600182019050919050565b7f4661696c656420746f2072657475726e20457468657220746f206465706f736960008201527f746f720000000000000000000000000000000000000000000000000000000000602082015250565b60006126a9602383611f32565b91506126b48261264d565b604082019050919050565b600060208201905081810360008301526126d88161269c565b9050919050565b7f4e487b7100000000000000000000000000000000000000000000000000000000600052604160045260246000fd5b600061271982611b73565b915061272483611b73565b9250817fffffffffffffffffffffffffffffffffffffffffffffffffffffffffffffffff048311821515161561275d5761275c6122dc565b5b828202905092915050565b7f4e487b7100000000000000000000000000000000000000000000000000000000600052601260045260246000fd5b60006127a282611b73565b91506127ad83611b73565b9250826127bd576127bc612768565b5b82820490509291505056fea26469706673582212203b3eb1577cee0870ed968f5f1926afa081a476c40929d68b3449cab30a97fcea64736f6c634300080d0033",
  "immutableReferences": {},
  "source": "// SPDX-License-Identifier: MIT\r\npragma solidity ^0.8.0;\r\nimport \"./AccountManager.sol\";\r\n\r\ncontract Timelock {\r\n    constructor(\r\n        address _accountsContractAddress,\r\n        uint256 _minGracePeriod,\r\n        uint256 _maxGracePeriod,\r\n        uint256 _defaultGracePeriod\r\n    ) {\r\n        // admin = msg.sender;\r\n        accountsContract = AccountManager(_accountsContractAddress);\r\n        minGracePeriod = _minGracePeriod;\r\n        maxGracePeriod = _maxGracePeriod;\r\n        gracePeriod = _defaultGracePeriod;\r\n    }\r\n\r\n    //Transaction--------------------------------------------------------------\r\n    error AlreadyQueuedError(bytes32 txId);\r\n    error NotQueuedError(bytes32 txId);\r\n    error TimestampNotPassedError(uint256 blockTimestamp, uint256 timestamp);\r\n    error TimestampNotMatureError(uint256 blockTimestamp, uint256 expiresAt);\r\n    error TimestampExpiredError(uint256 blockTimestamp, uint256 expiresAt);\r\n    error TxFailedError();\r\n    error NotAdminError();\r\n\r\n    event Queue(\r\n        bytes32 indexed txId,\r\n        address indexed target,\r\n        uint256 value,\r\n        uint256 timestamp\r\n    );\r\n    event Execute(\r\n        bytes32 indexed txId,\r\n        address indexed target,\r\n        uint256 value,\r\n        uint256 timestamp\r\n    );\r\n    event Cancel(bytes32 indexed txId);\r\n    event Deposited(address indexed user, uint256 amount);\r\n\r\n    // Struct to store transaction details\r\n    struct Tx {\r\n        bytes32 txId;\r\n        address target;\r\n        uint256 value;\r\n        uint256 timestamp;\r\n        bool queued;\r\n        address depositor;\r\n    }\r\n\r\n    // Mapping of transaction IDs to transaction data\r\n    mapping(bytes32 => Tx) private txs;\r\n\r\n    address public admin;\r\n\r\n    uint256 private gracePeriod;\r\n\r\n    address public whoDeposited;\r\n    uint256 public depositAmt;\r\n    uint256 public accountBalance;\r\n\r\n    function getGracePeriod() public view returns (uint256) {\r\n        return gracePeriod;\r\n    }\r\n\r\n    function getTxId(\r\n        address _target,\r\n        uint256 _value\r\n    ) public pure returns (bytes32) {\r\n        return keccak256(abi.encode(_target, _value));\r\n    }\r\n\r\n    function queue(address _target, uint256 _value) external returns (bytes32) {\r\n        require(_value > 0, \"Ether value must be greater than 0.\");\r\n        require(\r\n            accountsContract.getAccountDeposit(msg.sender) > _value,\r\n            \"Insufficient Balance\"\r\n        );\r\n        // Generate the transaction ID based on the target and value\r\n        bytes32 txId = getTxId(_target, _value);\r\n\r\n        // Ensure the transaction is not already queued\r\n        if (txs[txId].queued) {\r\n            revert AlreadyQueuedError(txId);\r\n        }\r\n\r\n        // Store the new transaction\r\n        Tx memory currentTx = Tx(\r\n            txId,\r\n            _target,\r\n            _value,\r\n            block.timestamp,\r\n            true,\r\n            msg.sender\r\n        );\r\n        txs[txId] = currentTx;\r\n        uint256 newAmount = accountsContract.getAccountDeposit(msg.sender) -\r\n            _value;\r\n        // Emit the Queue event\r\n        emit Queue(txId, _target, _value, block.timestamp);\r\n        accountsContract.depositUpdate(msg.sender, newAmount);\r\n        return txId;\r\n    }\r\n\r\n    function execute(\r\n        bytes32 _txId\r\n    ) external returns (address target, uint256 value) {\r\n        // Ensure the transaction is actually queued\r\n        if (!txs[_txId].queued) {\r\n            revert NotQueuedError(_txId);\r\n        }\r\n\r\n        Tx memory currentTx = txs[_txId];\r\n\r\n        // Ensure the timestamp has passed for execution\r\n        if (block.timestamp < currentTx.timestamp) {\r\n            revert TimestampNotPassedError(\r\n                block.timestamp,\r\n                currentTx.timestamp\r\n            );\r\n        }\r\n\r\n        // Ensure the transaction is executed after the grace period\r\n        if (block.timestamp < currentTx.timestamp + gracePeriod) {\r\n            revert TimestampNotMatureError(\r\n                block.timestamp,\r\n                currentTx.timestamp + gracePeriod\r\n            );\r\n        }\r\n\r\n        // Mark the transaction as executed\r\n        txs[_txId].queued = false;\r\n        // Execute the transaction using the .call function\r\n\r\n        uint256 newAmount = accountsContract.getAccountDeposit(\r\n            currentTx.target\r\n        ) + currentTx.value;\r\n        bool success = accountsContract.depositUpdate(\r\n            currentTx.target,\r\n            newAmount\r\n        );\r\n        if (!success) {\r\n            revert TxFailedError();\r\n        }\r\n\r\n        // Emit the Execute event\r\n        emit Execute(\r\n            _txId,\r\n            currentTx.target,\r\n            currentTx.value,\r\n            currentTx.timestamp\r\n        );\r\n\r\n        return (currentTx.target, currentTx.value);\r\n    }\r\n\r\n    function cancel(\r\n        bytes32 _txId\r\n    ) external returns (address sender, uint256 value) {\r\n        // Ensure the transaction is queued\r\n        if (!txs[_txId].queued) {\r\n            revert NotQueuedError(_txId);\r\n        }\r\n\r\n        Tx memory currentTx = txs[_txId];\r\n        // Ensure the transaction is executed in the grace period\r\n        if (block.timestamp >= currentTx.timestamp + gracePeriod) {\r\n            revert TimestampExpiredError(\r\n                block.timestamp,\r\n                currentTx.timestamp + gracePeriod\r\n            );\r\n        }\r\n        // Mark the transaction as canceled\r\n\r\n        txs[_txId].queued = false;\r\n\r\n        uint256 newAmount = accountsContract.getAccountDeposit(\r\n            currentTx.depositor\r\n        ) + currentTx.value;\r\n        bool success = accountsContract.depositUpdate(\r\n            currentTx.depositor,\r\n            newAmount\r\n        );\r\n        // Emit the Cancel event\r\n        emit Cancel(_txId);\r\n        require(success, \"Failed to return Ether to depositor\");\r\n        return (currentTx.depositor, currentTx.value);\r\n    }\r\n\r\n    function getTx(\r\n        bytes32 _txId\r\n    ) external view returns (Tx memory transaction) {\r\n        return txs[_txId];\r\n    }\r\n\r\n    //Grace Period Voting-------------------------------------------------\r\n    AccountManager public accountsContract;\r\n    event NewGracePeriodProposed(uint256 newGracePeriod);\r\n    event GracePeriodChanged(uint256 gracePeriod);\r\n    event VotingFinalized(uint256 newGracePeriod);\r\n    address public owner;\r\n    uint256 public minGracePeriod;\r\n    uint256 public maxGracePeriod;\r\n\r\n    uint256 private votingStartTime;\r\n    uint256 private votingEndTime;\r\n    uint256 private proposalDeadline;\r\n    bool private votingActive;\r\n    uint256 private voteThreshold;\r\n    address[] public voted;\r\n    uint256 private proposedGracePeriod;\r\n    modifier onlyAdmin() {\r\n        require(\r\n            msg.sender == accountsContract.getAdmin(),\r\n            \"Not Contract Admin\"\r\n        );\r\n        _;\r\n    }\r\n\r\n    modifier duringVotingPhase() {\r\n        require(\r\n            block.timestamp >= votingStartTime &&\r\n                block.timestamp <= votingEndTime,\r\n            \"Voting phase is not active.\"\r\n        );\r\n        _;\r\n    }\r\n\r\n    modifier afterVotingPhase() {\r\n        require(\r\n            block.timestamp > votingEndTime,\r\n            \"Voting period has not ended.\"\r\n        );\r\n        _;\r\n    }\r\n\r\n    function startVoting(uint256 _proposedGracePeriod) public {\r\n        require(\r\n            (_proposedGracePeriod >= minGracePeriod &&\r\n                _proposedGracePeriod <= maxGracePeriod),\r\n            \"Proposed grace Period Out of range\"\r\n        );\r\n        require(\r\n            _proposedGracePeriod != gracePeriod,\r\n            \"Proposed grace period same with current grace period\"\r\n        );\r\n        require(!votingActive, \"Voting is already active.\");\r\n        resetVoting();\r\n        votingStartTime = block.timestamp;\r\n        votingEndTime = block.timestamp + 120; // Total of 2 minutes\r\n\r\n        votingActive = true;\r\n\r\n        updateVoteThreshold();\r\n        proposedGracePeriod = _proposedGracePeriod;\r\n        emit NewGracePeriodProposed(proposedGracePeriod);\r\n    }\r\n\r\n    function updateVoteThreshold() internal {\r\n        uint256 totalRegisteredUsers = accountsContract.getAccountCount();\r\n        voteThreshold = (totalRegisteredUsers * 51 + 99) / 100; // Equivalent to rounding up (51% rule)\r\n    }\r\n\r\n    function voteGracePeriod() public duringVotingPhase {\r\n        require(proposedGracePeriod != 0, \"No Grace Period proposed.\");\r\n        require(\r\n            accountsContract.accountExists(msg.sender),\r\n            \"Only registered users can vote.\"\r\n        );\r\n        require(!voterHasVoted(msg.sender), \"Already voted.\");\r\n\r\n        voted.push(msg.sender);\r\n\r\n        // Check if vote threshold has been met\r\n        if (getTotalVotes() >= voteThreshold) {\r\n            finalizeGPByThresHold(proposedGracePeriod);\r\n        }\r\n    }\r\n\r\n    function voterHasVoted(address _address) public view returns (bool) {\r\n        for (uint256 i = 0; i < voted.length; i++) {\r\n            if (voted[i] == _address) {\r\n                return true;\r\n            }\r\n        }\r\n\r\n        return false;\r\n    }\r\n\r\n    function finalizeGPByThresHold(uint256 _proposedGracePeriod) internal {\r\n        gracePeriod = _proposedGracePeriod;\r\n\r\n        emit VotingFinalized(_proposedGracePeriod);\r\n        resetVoting();\r\n    }\r\n\r\n    // FINALIZE the voting process after 2 minutes\r\n    function finalizeVote() public afterVotingPhase {\r\n        require(proposedGracePeriod != 0, \"No proposed grace period.\");\r\n        if (getTotalVotes() >= voteThreshold) {\r\n            finalizeGPByThresHold(proposedGracePeriod);\r\n            emit GracePeriodChanged(proposedGracePeriod);\r\n            emit VotingFinalized(proposedGracePeriod);\r\n        } else {\r\n            // require(false, \"Total Votes is not reached the threshold\");\r\n        }\r\n\r\n        resetVoting();\r\n    }\r\n\r\n    function getCurrentGracePeriod() public view returns (uint256) {\r\n        return gracePeriod;\r\n    }\r\n\r\n    function getProposedGracePeriod() public view returns (uint256) {\r\n        return proposedGracePeriod;\r\n    }\r\n\r\n    function resetVoting() internal {\r\n        proposedGracePeriod = 0;\r\n        votingActive = false;\r\n    votingEndTime = 0;\r\n        voted = new address[](0);\r\n    }\r\n\r\n    function getTotalVotes() internal view returns (uint256 totalVotes) {\r\n        totalVotes = 0;\r\n        for (uint256 i = 0; i < voted.length; i++) {\r\n            totalVotes += voted.length;\r\n        }\r\n\r\n        return totalVotes;\r\n    }\r\n}\r\n",
  "sourcePath": "C:\\Users\\quint\\vscode\\My Projects\\Timelock\\contracts\\Timelock.sol",
  "compiler": {
    "name": "solc",
    "version": "0.8.13+commit.abaa5c0e.Emscripten.clang"
  },
  "schemaVersion": "3.4.16",
  "updatedAt": "2024-09-22T06:59:51.807Z",
  "networkType": "ethereum",
  "devdoc": {
    "kind": "dev",
    "methods": {},
    "version": 1
  },
  "userdoc": {
    "kind": "user",
    "methods": {},
    "version": 1
  }
}