{
  "contractName": "Timelock",
  "abi": [
    {
      "inputs": [
        {
          "internalType": "address",
          "name": "_accountsContractAddress",
          "type": "address"
        }
      ],
      "stateMutability": "nonpayable",
      "type": "constructor"
    },
    {
      "inputs": [
        {
          "internalType": "bytes32",
          "name": "txId",
          "type": "bytes32"
        }
      ],
      "name": "AlreadyQueuedError",
      "type": "error"
    },
    {
      "inputs": [],
      "name": "AlreadyVotedError",
      "type": "error"
    },
    {
      "inputs": [],
      "name": "InvalidGracePeriodError",
      "type": "error"
    },
    {
      "inputs": [],
      "name": "NoProposalError",
      "type": "error"
    },
    {
      "inputs": [],
      "name": "NotOwnerError",
      "type": "error"
    },
    {
      "inputs": [
        {
          "internalType": "bytes32",
          "name": "txId",
          "type": "bytes32"
        }
      ],
      "name": "NotQueuedError",
      "type": "error"
    },
    {
      "inputs": [
        {
          "internalType": "uint256",
          "name": "blockTimestamp",
          "type": "uint256"
        },
        {
          "internalType": "uint256",
          "name": "expiresAt",
          "type": "uint256"
        }
      ],
      "name": "TimestampExpiredError",
      "type": "error"
    },
    {
      "inputs": [
        {
          "internalType": "uint256",
          "name": "blockTimestamp",
          "type": "uint256"
        },
        {
          "internalType": "uint256",
          "name": "timestamp",
          "type": "uint256"
        }
      ],
      "name": "TimestampNotInRangeError",
      "type": "error"
    },
    {
      "inputs": [
        {
          "internalType": "uint256",
          "name": "blockTimestmap",
          "type": "uint256"
        },
        {
          "internalType": "uint256",
          "name": "timestamp",
          "type": "uint256"
        }
      ],
      "name": "TimestampNotPassedError",
      "type": "error"
    },
    {
      "inputs": [],
      "name": "TxFailedError",
      "type": "error"
    },
    {
      "inputs": [],
      "name": "VotingNotAllowedError",
      "type": "error"
    },
    {
      "anonymous": false,
      "inputs": [
        {
          "indexed": true,
          "internalType": "bytes32",
          "name": "txId",
          "type": "bytes32"
        }
      ],
      "name": "Cancel",
      "type": "event"
    },
    {
      "anonymous": false,
      "inputs": [
        {
          "indexed": true,
          "internalType": "bytes32",
          "name": "txId",
          "type": "bytes32"
        },
        {
          "indexed": true,
          "internalType": "address",
          "name": "target",
          "type": "address"
        },
        {
          "indexed": false,
          "internalType": "uint256",
          "name": "value",
          "type": "uint256"
        },
        {
          "indexed": false,
          "internalType": "string",
          "name": "func",
          "type": "string"
        },
        {
          "indexed": false,
          "internalType": "bytes",
          "name": "data",
          "type": "bytes"
        },
        {
          "indexed": false,
          "internalType": "uint256",
          "name": "timestamp",
          "type": "uint256"
        }
      ],
      "name": "Execute",
      "type": "event"
    },
    {
      "anonymous": false,
      "inputs": [
        {
          "indexed": false,
          "internalType": "uint256",
          "name": "newGracePeriod",
          "type": "uint256"
        }
      ],
      "name": "GracePeriodUpdated",
      "type": "event"
    },
    {
      "anonymous": false,
      "inputs": [
        {
          "indexed": true,
          "internalType": "bytes32",
          "name": "txId",
          "type": "bytes32"
        },
        {
          "indexed": true,
          "internalType": "address",
          "name": "target",
          "type": "address"
        },
        {
          "indexed": false,
          "internalType": "uint256",
          "name": "value",
          "type": "uint256"
        },
        {
          "indexed": false,
          "internalType": "string",
          "name": "func",
          "type": "string"
        },
        {
          "indexed": false,
          "internalType": "bytes",
          "name": "data",
          "type": "bytes"
        },
        {
          "indexed": false,
          "internalType": "uint256",
          "name": "timestamp",
          "type": "uint256"
        }
      ],
      "name": "Queue",
      "type": "event"
    },
    {
      "anonymous": false,
      "inputs": [],
      "name": "VotingReset",
      "type": "event"
    },
    {
      "inputs": [],
      "name": "accountsContract",
      "outputs": [
        {
          "internalType": "contract AccountManager",
          "name": "",
          "type": "address"
        }
      ],
      "stateMutability": "view",
      "type": "function",
      "constant": true
    },
    {
      "stateMutability": "payable",
      "type": "receive",
      "payable": true
    },
    {
      "inputs": [
        {
          "internalType": "address",
          "name": "_target",
          "type": "address"
        },
        {
          "internalType": "uint256",
          "name": "_value",
          "type": "uint256"
        },
        {
          "internalType": "string",
          "name": "_func",
          "type": "string"
        },
        {
          "internalType": "bytes",
          "name": "_data",
          "type": "bytes"
        },
        {
          "internalType": "uint256",
          "name": "_timestamp",
          "type": "uint256"
        }
      ],
      "name": "getTxId",
      "outputs": [
        {
          "internalType": "bytes32",
          "name": "",
          "type": "bytes32"
        }
      ],
      "stateMutability": "pure",
      "type": "function",
      "constant": true
    },
    {
      "inputs": [
        {
          "internalType": "address",
          "name": "_target",
          "type": "address"
        },
        {
          "internalType": "uint256",
          "name": "_value",
          "type": "uint256"
        },
        {
          "internalType": "string",
          "name": "_func",
          "type": "string"
        },
        {
          "internalType": "bytes",
          "name": "_data",
          "type": "bytes"
        },
        {
          "internalType": "uint256",
          "name": "_timestamp",
          "type": "uint256"
        }
      ],
      "name": "queue",
      "outputs": [
        {
          "internalType": "bytes32",
          "name": "",
          "type": "bytes32"
        }
      ],
      "stateMutability": "nonpayable",
      "type": "function"
    },
    {
      "inputs": [
        {
          "internalType": "bytes32",
          "name": "_txId",
          "type": "bytes32"
        }
      ],
      "name": "execute",
      "outputs": [
        {
          "internalType": "bytes",
          "name": "",
          "type": "bytes"
        }
      ],
      "stateMutability": "payable",
      "type": "function",
      "payable": true
    },
    {
      "inputs": [
        {
          "internalType": "bytes32",
          "name": "_txId",
          "type": "bytes32"
        }
      ],
      "name": "cancel",
      "outputs": [],
      "stateMutability": "nonpayable",
      "type": "function"
    },
    {
      "inputs": [
        {
          "internalType": "bytes32",
          "name": "_txId",
          "type": "bytes32"
        }
      ],
      "name": "getTx",
      "outputs": [
        {
          "components": [
            {
              "internalType": "bytes32",
              "name": "txId",
              "type": "bytes32"
            },
            {
              "internalType": "address",
              "name": "target",
              "type": "address"
            },
            {
              "internalType": "uint256",
              "name": "value",
              "type": "uint256"
            },
            {
              "internalType": "string",
              "name": "func",
              "type": "string"
            },
            {
              "internalType": "bytes",
              "name": "data",
              "type": "bytes"
            },
            {
              "internalType": "uint256",
              "name": "timestamp",
              "type": "uint256"
            },
            {
              "internalType": "bool",
              "name": "queued",
              "type": "bool"
            }
          ],
          "internalType": "struct Timelock.Tx",
          "name": "transaction",
          "type": "tuple"
        }
      ],
      "stateMutability": "view",
      "type": "function",
      "constant": true
    },
    {
      "inputs": [
        {
          "internalType": "uint256",
          "name": "_newGracePeriod",
          "type": "uint256"
        }
      ],
      "name": "proposeGracePeriod",
      "outputs": [],
      "stateMutability": "nonpayable",
      "type": "function"
    },
    {
      "inputs": [],
      "name": "vote",
      "outputs": [],
      "stateMutability": "nonpayable",
      "type": "function"
    },
    {
      "inputs": [],
      "name": "resetVoting",
      "outputs": [],
      "stateMutability": "nonpayable",
      "type": "function"
    }
  ],
  "bytecode": "0x6080604052601e6004553480156200001657600080fd5b50604051620022373803806200223783398181016040528101906200003c91906200012f565b33600560006101000a81548173ffffffffffffffffffffffffffffffffffffffff021916908373ffffffffffffffffffffffffffffffffffffffff16021790555080600860006101000a81548173ffffffffffffffffffffffffffffffffffffffff021916908373ffffffffffffffffffffffffffffffffffffffff1602179055505062000161565b600080fd5b600073ffffffffffffffffffffffffffffffffffffffff82169050919050565b6000620000f782620000ca565b9050919050565b6200010981620000ea565b81146200011557600080fd5b50565b6000815190506200012981620000fe565b92915050565b600060208284031215620001485762000147620000c5565b5b6000620001588482850162000118565b91505092915050565b6120c680620001716000396000f3fe60806040526004361061008a5760003560e01c8063856e698c11610059578063856e698c1461013e5780638a1ce0b614610155578063b915cb6c14610192578063c4d252f5146101cf578063e751f271146101f857610091565b8063446f201e146100965780634b9915a5146100c1578063632a9a52146100fe578063720083851461011557610091565b3661009157005b600080fd5b3480156100a257600080fd5b506100ab610228565b6040516100b891906115b1565b60405180910390f35b3480156100cd57600080fd5b506100e860048036038101906100e39190611705565b61024e565b6040516100f591906117da565b60405180910390f35b34801561010a57600080fd5b506101136105d1565b005b34801561012157600080fd5b5061013c600480360381019061013791906117f5565b61074e565b005b34801561014a57600080fd5b50610153610925565b005b34801561016157600080fd5b5061017c60048036038101906101779190611705565b610981565b60405161018991906117da565b60405180910390f35b34801561019e57600080fd5b506101b960048036038101906101b4919061184e565b6109c3565b6040516101c69190611a54565b60405180910390f35b3480156101db57600080fd5b506101f660048036038101906101f1919061184e565b610ba3565b005b610212600480360381019061020d919061184e565b610cee565b60405161021f9190611ac0565b60405180910390f35b600860009054906101000a900473ffffffffffffffffffffffffffffffffffffffff1681565b6000600560009054906101000a900473ffffffffffffffffffffffffffffffffffffffff1673ffffffffffffffffffffffffffffffffffffffff163373ffffffffffffffffffffffffffffffffffffffff16146102d7576040517f74a2152700000000000000000000000000000000000000000000000000000000815260040160405180910390fd5b60006102e889898989898989610981565b90506007600082815260200190815260200160002060060160009054906101000a900460ff161561035057806040517f995042be00000000000000000000000000000000000000000000000000000000815260040161034791906117da565b60405180910390fd5b60006040518060e001604052808381526020018b73ffffffffffffffffffffffffffffffffffffffff1681526020018a815260200189898080601f016020809104026020016040519081016040528093929190818152602001838380828437600081840152601f19601f82011690508083019250505050505050815260200187878080601f016020809104026020016040519081016040528093929190818152602001838380828437600081840152601f19601f820116905080830192505050505050508152602001858152602001600115158152509050600a426104359190611b11565b84108061044e57506103e84261044b9190611b11565b84115b156104925742846040517f1a9616c2000000000000000000000000000000000000000000000000000000008152600401610489929190611b76565b60405180910390fd5b80600760008481526020019081526020016000206000820151816000015560208201518160010160006101000a81548173ffffffffffffffffffffffffffffffffffffffff021916908373ffffffffffffffffffffffffffffffffffffffff16021790555060408201518160020155606082015181600301908051906020019061051d9291906113b1565b50608082015181600401908051906020019061053a929190611437565b5060a0820151816005015560c08201518160060160006101000a81548160ff0219169083151502179055509050508973ffffffffffffffffffffffffffffffffffffffff16827f3c22f47140594040d205a5533cfedd86c9ab8622c39ead03affb2d97052c794c8b8b8b8b8b8b6040516105b996959493929190611c19565b60405180910390a38192505050979650505050505050565b600860009054906101000a900473ffffffffffffffffffffffffffffffffffffffff1673ffffffffffffffffffffffffffffffffffffffff166375cd51ed336040518263ffffffff1660e01b815260040161062c9190611c7f565b602060405180830381865afa158015610649573d6000803e3d6000fd5b505050506040513d601f19601f8201168201806040525081019061066d9190611cc6565b6106a3576040517fdd739d0d00000000000000000000000000000000000000000000000000000000815260040160405180910390fd5b600115156000803373ffffffffffffffffffffffffffffffffffffffff1673ffffffffffffffffffffffffffffffffffffffff16815260200190815260200160002060009054906101000a900460ff1615150361072c576040517f175be0a600000000000000000000000000000000000000000000000000000000815260040160405180910390fd5b6002600081548092919061073f90611cf3565b919050555061074c6111f7565b565b600860009054906101000a900473ffffffffffffffffffffffffffffffffffffffff1673ffffffffffffffffffffffffffffffffffffffff166375cd51ed336040518263ffffffff1660e01b81526004016107a99190611c7f565b602060405180830381865afa1580156107c6573d6000803e3d6000fd5b505050506040513d601f19601f820116820180604052508101906107ea9190611cc6565b610820576040517fdd739d0d00000000000000000000000000000000000000000000000000000000815260040160405180910390fd5b60006003541161085c576040517f5eb79fed00000000000000000000000000000000000000000000000000000000815260040160405180910390fd5b60008111610896576040517f41d117db00000000000000000000000000000000000000000000000000000000815260040160405180910390fd5b8060038190555060016000803373ffffffffffffffffffffffffffffffffffffffff1673ffffffffffffffffffffffffffffffffffffffff16815260200190815260200160002060006101000a81548160ff0219169083151502179055506002600081548092919061090790611cf3565b919050555061091461125b565b6001819055506109226111f7565b50565b610e106006546109359190611b11565b421015610977576040517f08c379a000000000000000000000000000000000000000000000000000000000815260040161096e90611dad565b60405180910390fd5b61097f6112f3565b565b6000878787878787876040516020016109a09796959493929190611dcd565b604051602081830303815290604052805190602001209050979650505050505050565b6109cb6114bd565b600760008381526020019081526020016000206040518060e0016040529081600082015481526020016001820160009054906101000a900473ffffffffffffffffffffffffffffffffffffffff1673ffffffffffffffffffffffffffffffffffffffff1673ffffffffffffffffffffffffffffffffffffffff16815260200160028201548152602001600382018054610a6390611e61565b80601f0160208091040260200160405190810160405280929190818152602001828054610a8f90611e61565b8015610adc5780601f10610ab157610100808354040283529160200191610adc565b820191906000526020600020905b815481529060010190602001808311610abf57829003601f168201915b50505050508152602001600482018054610af590611e61565b80601f0160208091040260200160405190810160405280929190818152602001828054610b2190611e61565b8015610b6e5780601f10610b4357610100808354040283529160200191610b6e565b820191906000526020600020905b815481529060010190602001808311610b5157829003601f168201915b50505050508152602001600582015481526020016006820160009054906101000a900460ff1615151515815250509050919050565b600560009054906101000a900473ffffffffffffffffffffffffffffffffffffffff1673ffffffffffffffffffffffffffffffffffffffff163373ffffffffffffffffffffffffffffffffffffffff1614610c2a576040517f74a2152700000000000000000000000000000000000000000000000000000000815260040160405180910390fd5b6007600082815260200190815260200160002060060160009054906101000a900460ff16610c8f57806040517f0995c9d5000000000000000000000000000000000000000000000000000000008152600401610c8691906117da565b60405180910390fd5b60006007600083815260200190815260200160002060060160006101000a81548160ff021916908315150217905550807fe8d9861dbc9c663ed3accd261bbe2fe01e0d3d9e5f51fa38523b265c7757a93a60405160405180910390a250565b6060600560009054906101000a900473ffffffffffffffffffffffffffffffffffffffff1673ffffffffffffffffffffffffffffffffffffffff163373ffffffffffffffffffffffffffffffffffffffff1614610d77576040517f74a2152700000000000000000000000000000000000000000000000000000000815260040160405180910390fd5b6007600083815260200190815260200160002060060160009054906101000a900460ff16610ddc57816040517f0995c9d5000000000000000000000000000000000000000000000000000000008152600401610dd391906117da565b60405180910390fd5b6000600760008481526020019081526020016000206040518060e0016040529081600082015481526020016001820160009054906101000a900473ffffffffffffffffffffffffffffffffffffffff1673ffffffffffffffffffffffffffffffffffffffff1673ffffffffffffffffffffffffffffffffffffffff16815260200160028201548152602001600382018054610e7690611e61565b80601f0160208091040260200160405190810160405280929190818152602001828054610ea290611e61565b8015610eef5780601f10610ec457610100808354040283529160200191610eef565b820191906000526020600020905b815481529060010190602001808311610ed257829003601f168201915b50505050508152602001600482018054610f0890611e61565b80601f0160208091040260200160405190810160405280929190818152602001828054610f3490611e61565b8015610f815780601f10610f5657610100808354040283529160200191610f81565b820191906000526020600020905b815481529060010190602001808311610f6457829003601f168201915b50505050508152602001600582015481526020016006820160009054906101000a900460ff16151515158152505090508060a0015142101561100057428160a001516040517f035fce5b000000000000000000000000000000000000000000000000000000008152600401610ff7929190611b76565b60405180910390fd5b6004548160a001516110129190611b11565b42111561105a57426004546040517f92ae26d1000000000000000000000000000000000000000000000000000000008152600401611051929190611b76565b60405180910390fd5b60006007600085815260200190815260200160002060060160006101000a81548160ff0219169083151502179055506060600082606001515111156110cb578160600151805190602001206040516020016110b59190611edf565b60405160208183030381529060405290506110d3565b816080015190505b600080836020015173ffffffffffffffffffffffffffffffffffffffff168460400151846040516111049190611f36565b60006040518083038185875af1925050503d8060008114611141576040519150601f19603f3d011682016040523d82523d6000602084013e611146565b606091505b509150915081611182576040517fd9b4f81e00000000000000000000000000000000000000000000000000000000815260040160405180910390fd5b836020015173ffffffffffffffffffffffffffffffffffffffff16867fd1d5c3c892c18716bd88852091d1b63dc6849e9d7c37f69d566884bf954d4bd98660400151876060015188608001518960a001516040516111e39493929190611f86565b60405180910390a380945050505050919050565b600154600280546112089190611fd9565b1115611259576003546004819055507f33d1191f5a3abfe19d468d51bb5ece97489f1277a912a5b5c65992fc279ad3d46004546040516112489190612033565b60405180910390a16112586112f3565b5b565b6000600860009054906101000a900473ffffffffffffffffffffffffffffffffffffffff1673ffffffffffffffffffffffffffffffffffffffff1663a98e4e776040518163ffffffff1660e01b8152600401602060405180830381865afa1580156112ca573d6000803e3d6000fd5b505050506040513d601f19601f820116820180604052508101906112ee9190612063565b905090565b60005b60015481101561136a5760008060003273ffffffffffffffffffffffffffffffffffffffff1673ffffffffffffffffffffffffffffffffffffffff16815260200190815260200160002060006101000a81548160ff021916908315150217905550808061136290611cf3565b9150506112f6565b506000600181905550600060028190555060006006819055507feb4b0a76799cb305ae86d5a0b30e0e77b1e23fa8cb85eb788ede212bd6b324a660405160405180910390a1565b8280546113bd90611e61565b90600052602060002090601f0160209004810192826113df5760008555611426565b82601f106113f857805160ff1916838001178555611426565b82800160010185558215611426579182015b8281111561142557825182559160200191906001019061140a565b5b5090506114339190611515565b5090565b82805461144390611e61565b90600052602060002090601f01602090048101928261146557600085556114ac565b82601f1061147e57805160ff19168380011785556114ac565b828001600101855582156114ac579182015b828111156114ab578251825591602001919060010190611490565b5b5090506114b99190611515565b5090565b6040518060e0016040528060008019168152602001600073ffffffffffffffffffffffffffffffffffffffff168152602001600081526020016060815260200160608152602001600081526020016000151581525090565b5b8082111561152e576000816000905550600101611516565b5090565b600073ffffffffffffffffffffffffffffffffffffffff82169050919050565b6000819050919050565b600061157761157261156d84611532565b611552565b611532565b9050919050565b60006115898261155c565b9050919050565b600061159b8261157e565b9050919050565b6115ab81611590565b82525050565b60006020820190506115c660008301846115a2565b92915050565b600080fd5b600080fd5b60006115e182611532565b9050919050565b6115f1816115d6565b81146115fc57600080fd5b50565b60008135905061160e816115e8565b92915050565b6000819050919050565b61162781611614565b811461163257600080fd5b50565b6000813590506116448161161e565b92915050565b600080fd5b600080fd5b600080fd5b60008083601f84011261166f5761166e61164a565b5b8235905067ffffffffffffffff81111561168c5761168b61164f565b5b6020830191508360018202830111156116a8576116a7611654565b5b9250929050565b60008083601f8401126116c5576116c461164a565b5b8235905067ffffffffffffffff8111156116e2576116e161164f565b5b6020830191508360018202830111156116fe576116fd611654565b5b9250929050565b600080600080600080600060a0888a031215611724576117236115cc565b5b60006117328a828b016115ff565b97505060206117438a828b01611635565b965050604088013567ffffffffffffffff811115611764576117636115d1565b5b6117708a828b01611659565b9550955050606088013567ffffffffffffffff811115611793576117926115d1565b5b61179f8a828b016116af565b935093505060806117b28a828b01611635565b91505092959891949750929550565b6000819050919050565b6117d4816117c1565b82525050565b60006020820190506117ef60008301846117cb565b92915050565b60006020828403121561180b5761180a6115cc565b5b600061181984828501611635565b91505092915050565b61182b816117c1565b811461183657600080fd5b50565b60008135905061184881611822565b92915050565b600060208284031215611864576118636115cc565b5b600061187284828501611839565b91505092915050565b611884816117c1565b82525050565b611893816115d6565b82525050565b6118a281611614565b82525050565b600081519050919050565b600082825260208201905092915050565b60005b838110156118e25780820151818401526020810190506118c7565b838111156118f1576000848401525b50505050565b6000601f19601f8301169050919050565b6000611913826118a8565b61191d81856118b3565b935061192d8185602086016118c4565b611936816118f7565b840191505092915050565b600081519050919050565b600082825260208201905092915050565b600061196882611941565b611972818561194c565b93506119828185602086016118c4565b61198b816118f7565b840191505092915050565b60008115159050919050565b6119ab81611996565b82525050565b600060e0830160008301516119c9600086018261187b565b5060208301516119dc602086018261188a565b5060408301516119ef6040860182611899565b5060608301518482036060860152611a078282611908565b91505060808301518482036080860152611a21828261195d565b91505060a0830151611a3660a0860182611899565b5060c0830151611a4960c08601826119a2565b508091505092915050565b60006020820190508181036000830152611a6e81846119b1565b905092915050565b600082825260208201905092915050565b6000611a9282611941565b611a9c8185611a76565b9350611aac8185602086016118c4565b611ab5816118f7565b840191505092915050565b60006020820190508181036000830152611ada8184611a87565b905092915050565b7f4e487b7100000000000000000000000000000000000000000000000000000000600052601160045260246000fd5b6000611b1c82611614565b9150611b2783611614565b9250827fffffffffffffffffffffffffffffffffffffffffffffffffffffffffffffffff03821115611b5c57611b5b611ae2565b5b828201905092915050565b611b7081611614565b82525050565b6000604082019050611b8b6000830185611b67565b611b986020830184611b67565b9392505050565b600082825260208201905092915050565b82818337600083830152505050565b6000611bcb8385611b9f565b9350611bd8838584611bb0565b611be1836118f7565b840190509392505050565b6000611bf88385611a76565b9350611c05838584611bb0565b611c0e836118f7565b840190509392505050565b6000608082019050611c2e6000830189611b67565b8181036020830152611c41818789611bbf565b90508181036040830152611c56818587611bec565b9050611c656060830184611b67565b979650505050505050565b611c79816115d6565b82525050565b6000602082019050611c946000830184611c70565b92915050565b611ca381611996565b8114611cae57600080fd5b50565b600081519050611cc081611c9a565b92915050565b600060208284031215611cdc57611cdb6115cc565b5b6000611cea84828501611cb1565b91505092915050565b6000611cfe82611614565b91507fffffffffffffffffffffffffffffffffffffffffffffffffffffffffffffffff8203611d3057611d2f611ae2565b5b600182019050919050565b7f566f74696e6720706572696f6420686173206e6f74206578706972656420796560008201527f742e000000000000000000000000000000000000000000000000000000000000602082015250565b6000611d97602283611b9f565b9150611da282611d3b565b604082019050919050565b60006020820190508181036000830152611dc681611d8a565b9050919050565b600060a082019050611de2600083018a611c70565b611def6020830189611b67565b8181036040830152611e02818789611bbf565b90508181036060830152611e17818587611bec565b9050611e266080830184611b67565b98975050505050505050565b7f4e487b7100000000000000000000000000000000000000000000000000000000600052602260045260246000fd5b60006002820490506001821680611e7957607f821691505b602082108103611e8c57611e8b611e32565b5b50919050565b60007fffffffff0000000000000000000000000000000000000000000000000000000082169050919050565b6000819050919050565b611ed9611ed482611e92565b611ebe565b82525050565b6000611eeb8284611ec8565b60048201915081905092915050565b600081905092915050565b6000611f1082611941565b611f1a8185611efa565b9350611f2a8185602086016118c4565b80840191505092915050565b6000611f428284611f05565b915081905092915050565b6000611f58826118a8565b611f628185611b9f565b9350611f728185602086016118c4565b611f7b816118f7565b840191505092915050565b6000608082019050611f9b6000830187611b67565b8181036020830152611fad8186611f4d565b90508181036040830152611fc18185611a87565b9050611fd06060830184611b67565b95945050505050565b6000611fe482611614565b9150611fef83611614565b9250817fffffffffffffffffffffffffffffffffffffffffffffffffffffffffffffffff048311821515161561202857612027611ae2565b5b828202905092915050565b60006020820190506120486000830184611b67565b92915050565b60008151905061205d8161161e565b92915050565b600060208284031215612079576120786115cc565b5b60006120878482850161204e565b9150509291505056fea26469706673582212202d124f30b04dd04471937419e06e9f559a331fc41c74f0dbc01b220dfb0d305064736f6c634300080d0033",
  "immutableReferences": {},
  "source": "// SPDX-License-Identifier: MIT\r\npragma solidity ^0.8.0;\r\nimport \"./Account.sol\";\r\n\r\ncontract Timelock {\r\n    error NotOwnerError();\r\n    error AlreadyQueuedError(bytes32 txId);\r\n    error TimestampNotInRangeError(uint256 blockTimestamp, uint256 timestamp);\r\n    error NotQueuedError(bytes32 txId);\r\n    error TimestampNotPassedError(uint256 blockTimestmap, uint256 timestamp);\r\n    error TimestampExpiredError(uint256 blockTimestamp, uint256 expiresAt);\r\n    error InvalidGracePeriodError();\r\n    error VotingNotAllowedError();\r\n    error AlreadyVotedError();\r\n    error NoProposalError();\r\n\r\n    event VotingReset();\r\n\r\n    event GracePeriodUpdated(uint256 newGracePeriod);\r\n    struct Tx {\r\n        bytes32 txId;\r\n        address target;\r\n        uint256 value;\r\n        string func;\r\n        bytes data;\r\n        uint256 timestamp;\r\n        bool queued;\r\n    }\r\n    error TxFailedError();\r\n    event Queue(\r\n        bytes32 indexed txId,\r\n        address indexed target,\r\n        uint256 value,\r\n        string func,\r\n        bytes data,\r\n        uint256 timestamp\r\n    );\r\n    event Execute(\r\n        bytes32 indexed txId,\r\n        address indexed target,\r\n        uint256 value,\r\n        string func,\r\n        bytes data,\r\n        uint256 timestamp\r\n    );\r\n    \r\n    event Cancel(bytes32 indexed txId);\r\n    modifier onlyVoter() {\r\n        if (!accountsContract.accountExists(msg.sender)) {\r\n            revert VotingNotAllowedError();\r\n        }\r\n        _;\r\n    }\r\n    mapping(address => bool) private hasVoted;\r\n    uint256 private totalVotes;\r\n    uint256 private votesForNewPeriod;\r\n    uint256 private proposedGracePeriod;\r\n    uint256 private constant MIN_DELAY = 10; // seconds\r\n    uint256 private constant MAX_DELAY = 1000; // seconds.\r\n    uint256 private gracePeriod = 30; // seconds\r\n    address private owner;\r\n    uint256 private votingStartTime;\r\n    uint256 private constant VOTING_DURATION = 1 hours; // Duration for voting\r\n\r\n    // tx id => tx\r\n    mapping(bytes32 => Tx) private txs;\r\n    // Declare a reference to the imported AccountsContract\r\n    AccountManager  public accountsContract;\r\n\r\n    // Constructor sets the address of the deployed AccountsContract\r\n\r\n    constructor(address _accountsContractAddress) {\r\n        owner = msg.sender;\r\n        accountsContract = AccountManager(_accountsContractAddress);\r\n    }\r\n\r\n    modifier onlyOwner() {\r\n        if (msg.sender != owner) {\r\n            revert NotOwnerError();\r\n        }\r\n        _;\r\n    }\r\n\r\n    receive() external payable {}\r\n\r\n    function getTxId(\r\n        address _target,\r\n        uint256 _value,\r\n        string calldata _func,\r\n        bytes calldata _data,\r\n        uint256 _timestamp\r\n    ) public pure returns (bytes32) {\r\n        return keccak256(abi.encode(_target, _value, _func, _data, _timestamp));\r\n    }\r\n\r\n    function queue(\r\n        address _target,\r\n        uint256 _value,\r\n        string calldata _func,\r\n        bytes calldata _data,\r\n        uint256 _timestamp\r\n    ) external onlyOwner returns (bytes32) {\r\n        bytes32 txId = getTxId(_target, _value, _func, _data, _timestamp);\r\n        if (txs[txId].queued) {\r\n            revert AlreadyQueuedError(txId);\r\n        }\r\n        Tx memory currentTx = Tx(\r\n            txId,\r\n            _target,\r\n            _value,\r\n            _func,\r\n            _data,\r\n            _timestamp,\r\n            true\r\n        );\r\n\r\n        if (\r\n            _timestamp < block.timestamp + MIN_DELAY ||\r\n            _timestamp > block.timestamp + MAX_DELAY\r\n        ) {\r\n            revert TimestampNotInRangeError(block.timestamp, _timestamp);\r\n        }\r\n        txs[txId] = currentTx;\r\n        emit Queue(txId, _target, _value, _func, _data, _timestamp);\r\n\r\n        return txId;\r\n    }\r\n\r\n    function execute(bytes32 _txId)\r\n        external\r\n        payable\r\n        onlyOwner\r\n        returns (bytes memory)\r\n    {\r\n        if (!txs[_txId].queued) {\r\n            revert NotQueuedError(_txId);\r\n        }\r\n        Tx memory currentTx = txs[_txId];\r\n        if (block.timestamp < currentTx.timestamp) {\r\n            revert TimestampNotPassedError(\r\n                block.timestamp,\r\n                currentTx.timestamp\r\n            );\r\n        }\r\n        if (block.timestamp > currentTx.timestamp + gracePeriod) {\r\n            revert TimestampExpiredError(block.timestamp, gracePeriod);\r\n        }\r\n\r\n        txs[_txId].queued = false;\r\n        // prepare data.\r\n        bytes memory data;\r\n        if (bytes(currentTx.func).length > 0) {\r\n            // data func selector + _data\r\n            data = abi.encodePacked(bytes4(keccak256(bytes(currentTx.func))));\r\n        } else {\r\n            // call fallback with data.\r\n            data = currentTx.data;\r\n        } // call target\r\n        (bool ok, bytes memory res) = currentTx.target.call{\r\n            value: currentTx.value\r\n        }(data);\r\n        if (!ok) {\r\n            revert TxFailedError();\r\n        }\r\n\r\n        emit Execute(\r\n            _txId,\r\n            currentTx.target,\r\n            currentTx.value,\r\n            currentTx.func,\r\n            currentTx.data,\r\n            currentTx.timestamp\r\n        );\r\n        return res;\r\n    }\r\n\r\n    function cancel(bytes32 _txId) external onlyOwner {\r\n        if (!txs[_txId].queued) {\r\n            revert NotQueuedError(_txId);\r\n        }\r\n        txs[_txId].queued = false;\r\n        emit Cancel(_txId);\r\n    }\r\n\r\n    function getTx(bytes32 _txId)\r\n        external\r\n        view\r\n        returns (Tx memory transaction)\r\n    {\r\n        return txs[_txId];\r\n    }\r\n\r\n    // VOTING SYSTEM\r\n    function proposeGracePeriod(uint256 _newGracePeriod) external onlyVoter {\r\n        if(proposedGracePeriod<=0) revert NoProposalError();\r\n        if (_newGracePeriod <= 0) {\r\n            revert InvalidGracePeriodError();\r\n        }\r\n        proposedGracePeriod = _newGracePeriod;\r\n        hasVoted[msg.sender] = true;\r\n        votesForNewPeriod++;\r\n        totalVotes = getTotalAccounts();\r\n        checkResult();\r\n    }\r\n\r\n    function vote() external onlyVoter {\r\n        if (hasVoted[msg.sender] == true) revert AlreadyVotedError();\r\n        votesForNewPeriod++;\r\n        checkResult();\r\n    }\r\n\r\n    function resetVoting() external {\r\n        require(\r\n            block.timestamp >= votingStartTime + VOTING_DURATION,\r\n            \"Voting period has not expired yet.\"\r\n        );\r\n        _resetVoting();\r\n    }\r\n\r\n    // Check if we have enough votes (simple majority)\r\n    function checkResult() internal {\r\n        if (votesForNewPeriod * 2 > totalVotes) {\r\n            gracePeriod = proposedGracePeriod;\r\n            emit GracePeriodUpdated(gracePeriod);\r\n            _resetVoting();\r\n        }\r\n    }\r\n\r\n    function _resetVoting() internal {\r\n        for (uint256 i = 0; i < totalVotes; i++) {\r\n            hasVoted[tx.origin] = false;\r\n        }\r\n        totalVotes = 0;\r\n        votesForNewPeriod = 0;\r\n        votingStartTime = 0;\r\n        emit VotingReset();\r\n    }\r\n\r\n   \r\n    // Example function to get the total number of accounts\r\n    function getTotalAccounts() internal view returns (uint256) {\r\n        return accountsContract.getAccountCount();\r\n    }\r\n\r\n\r\n    function getGracePeriod() internal view returns (uint256) {\r\n        return gracePeriod;\r\n    }\r\n}\r\n",
  "sourcePath": "C:\\Timelock\\contracts\\Timelock.sol",
  "compiler": {
    "name": "solc",
    "version": "0.8.13+commit.abaa5c0e.Emscripten.clang"
  },
  "schemaVersion": "3.4.16",
  "updatedAt": "2024-09-12T08:25:32.074Z",
  "networkType": "ethereum",
  "devdoc": {
    "kind": "dev",
    "methods": {},
    "version": 1
  },
  "userdoc": {
    "kind": "user",
    "methods": {},
    "version": 1
  }
}