{
  "contractName": "Timelock",
  "abi": [
    {
      "inputs": [
        {
          "internalType": "address",
          "name": "_accountsContractAddress",
          "type": "address"
        }
      ],
      "stateMutability": "nonpayable",
      "type": "constructor"
    },
    {
      "inputs": [
        {
          "internalType": "bytes32",
          "name": "txId",
          "type": "bytes32"
        }
      ],
      "name": "AlreadyQueuedError",
      "type": "error"
    },
    {
      "inputs": [
        {
          "internalType": "bytes32",
          "name": "txId",
          "type": "bytes32"
        }
      ],
      "name": "NotQueuedError",
      "type": "error"
    },
    {
      "inputs": [
        {
          "internalType": "uint256",
          "name": "blockTimestamp",
          "type": "uint256"
        },
        {
          "internalType": "uint256",
          "name": "expiresAt",
          "type": "uint256"
        }
      ],
      "name": "TimestampExpiredError",
      "type": "error"
    },
    {
      "inputs": [
        {
          "internalType": "uint256",
          "name": "blockTimestamp",
          "type": "uint256"
        },
        {
          "internalType": "uint256",
          "name": "expiresAt",
          "type": "uint256"
        }
      ],
      "name": "TimestampNotMatureError",
      "type": "error"
    },
    {
      "inputs": [
        {
          "internalType": "uint256",
          "name": "blockTimestamp",
          "type": "uint256"
        },
        {
          "internalType": "uint256",
          "name": "timestamp",
          "type": "uint256"
        }
      ],
      "name": "TimestampNotPassedError",
      "type": "error"
    },
    {
      "inputs": [],
      "name": "TxFailedError",
      "type": "error"
    },
    {
      "anonymous": false,
      "inputs": [
        {
          "indexed": true,
          "internalType": "bytes32",
          "name": "txId",
          "type": "bytes32"
        }
      ],
      "name": "Cancel",
      "type": "event"
    },
    {
      "anonymous": false,
      "inputs": [
        {
          "indexed": true,
          "internalType": "address",
          "name": "user",
          "type": "address"
        },
        {
          "indexed": false,
          "internalType": "uint256",
          "name": "amount",
          "type": "uint256"
        }
      ],
      "name": "Deposited",
      "type": "event"
    },
    {
      "anonymous": false,
      "inputs": [
        {
          "indexed": true,
          "internalType": "bytes32",
          "name": "txId",
          "type": "bytes32"
        },
        {
          "indexed": true,
          "internalType": "address",
          "name": "sender",
          "type": "address"
        },
        {
          "indexed": true,
          "internalType": "address",
          "name": "target",
          "type": "address"
        },
        {
          "indexed": false,
          "internalType": "uint256",
          "name": "value",
          "type": "uint256"
        },
        {
          "indexed": false,
          "internalType": "uint256",
          "name": "startTimestamp",
          "type": "uint256"
        },
        {
          "indexed": false,
          "internalType": "uint256",
          "name": "endTimestamp",
          "type": "uint256"
        }
      ],
      "name": "Execute",
      "type": "event"
    },
    {
      "anonymous": false,
      "inputs": [
        {
          "indexed": true,
          "internalType": "bytes32",
          "name": "txId",
          "type": "bytes32"
        },
        {
          "indexed": true,
          "internalType": "address",
          "name": "sender",
          "type": "address"
        },
        {
          "indexed": true,
          "internalType": "address",
          "name": "target",
          "type": "address"
        },
        {
          "indexed": false,
          "internalType": "uint256",
          "name": "value",
          "type": "uint256"
        },
        {
          "indexed": false,
          "internalType": "uint256",
          "name": "startTimestamp",
          "type": "uint256"
        },
        {
          "indexed": false,
          "internalType": "uint256",
          "name": "endTimestamp",
          "type": "uint256"
        }
      ],
      "name": "Queue",
      "type": "event"
    },
    {
      "inputs": [],
      "name": "accountBalance",
      "outputs": [
        {
          "internalType": "uint256",
          "name": "",
          "type": "uint256"
        }
      ],
      "stateMutability": "view",
      "type": "function"
    },
    {
      "inputs": [],
      "name": "accountsContract",
      "outputs": [
        {
          "internalType": "contract AccountManager",
          "name": "",
          "type": "address"
        }
      ],
      "stateMutability": "view",
      "type": "function"
    },
    {
      "inputs": [],
      "name": "depositAmt",
      "outputs": [
        {
          "internalType": "uint256",
          "name": "",
          "type": "uint256"
        }
      ],
      "stateMutability": "view",
      "type": "function"
    },
    {
      "inputs": [],
      "name": "whoDeposited",
      "outputs": [
        {
          "internalType": "address",
          "name": "",
          "type": "address"
        }
      ],
      "stateMutability": "view",
      "type": "function"
    },
    {
      "inputs": [
        {
          "internalType": "address",
          "name": "_sender",
          "type": "address"
        },
        {
          "internalType": "address",
          "name": "_target",
          "type": "address"
        },
        {
          "internalType": "uint256",
          "name": "_value",
          "type": "uint256"
        },
        {
          "internalType": "uint256",
          "name": "_startTimestamp",
          "type": "uint256"
        },
        {
          "internalType": "uint256",
          "name": "_endTimestamp",
          "type": "uint256"
        }
      ],
      "name": "getTxId",
      "outputs": [
        {
          "internalType": "bytes32",
          "name": "",
          "type": "bytes32"
        }
      ],
      "stateMutability": "pure",
      "type": "function"
    },
    {
      "inputs": [
        {
          "internalType": "address",
          "name": "_target",
          "type": "address"
        },
        {
          "internalType": "uint256",
          "name": "_value",
          "type": "uint256"
        },
        {
          "internalType": "uint256",
          "name": "_endTimestamp",
          "type": "uint256"
        }
      ],
      "name": "queue",
      "outputs": [
        {
          "internalType": "bytes32",
          "name": "",
          "type": "bytes32"
        }
      ],
      "stateMutability": "nonpayable",
      "type": "function"
    },
    {
      "inputs": [
        {
          "internalType": "bytes32",
          "name": "_txId",
          "type": "bytes32"
        }
      ],
      "name": "execute",
      "outputs": [],
      "stateMutability": "nonpayable",
      "type": "function"
    },
    {
      "inputs": [
        {
          "internalType": "bytes32",
          "name": "_txId",
          "type": "bytes32"
        }
      ],
      "name": "cancel",
      "outputs": [],
      "stateMutability": "nonpayable",
      "type": "function"
    },
    {
      "inputs": [
        {
          "internalType": "bytes32",
          "name": "_txId",
          "type": "bytes32"
        }
      ],
      "name": "getTx",
      "outputs": [
        {
          "components": [
            {
              "internalType": "bytes32",
              "name": "txId",
              "type": "bytes32"
            },
            {
              "internalType": "address",
              "name": "sender",
              "type": "address"
            },
            {
              "internalType": "address",
              "name": "target",
              "type": "address"
            },
            {
              "internalType": "uint256",
              "name": "value",
              "type": "uint256"
            },
            {
              "internalType": "uint256",
              "name": "startTimestamp",
              "type": "uint256"
            },
            {
              "internalType": "uint256",
              "name": "endTimestamp",
              "type": "uint256"
            },
            {
              "internalType": "enum Timelock.TxStatus",
              "name": "status",
              "type": "uint8"
            }
          ],
          "internalType": "struct Timelock.Tx",
          "name": "transaction",
          "type": "tuple"
        }
      ],
      "stateMutability": "view",
      "type": "function"
    },
    {
      "inputs": [],
      "name": "listLogs",
      "outputs": [
        {
          "components": [
            {
              "internalType": "bytes32",
              "name": "txId",
              "type": "bytes32"
            },
            {
              "internalType": "address",
              "name": "sender",
              "type": "address"
            },
            {
              "internalType": "address",
              "name": "target",
              "type": "address"
            },
            {
              "internalType": "uint256",
              "name": "value",
              "type": "uint256"
            },
            {
              "internalType": "uint256",
              "name": "startTimestamp",
              "type": "uint256"
            },
            {
              "internalType": "uint256",
              "name": "endTimestamp",
              "type": "uint256"
            },
            {
              "internalType": "enum Timelock.TxStatus",
              "name": "currentState",
              "type": "uint8"
            }
          ],
          "internalType": "struct Timelock.Log[]",
          "name": "",
          "type": "tuple[]"
        }
      ],
      "stateMutability": "view",
      "type": "function"
    },
    {
      "inputs": [],
      "name": "listQueued",
      "outputs": [
        {
          "components": [
            {
              "internalType": "bytes32",
              "name": "txId",
              "type": "bytes32"
            },
            {
              "internalType": "address",
              "name": "sender",
              "type": "address"
            },
            {
              "internalType": "address",
              "name": "target",
              "type": "address"
            },
            {
              "internalType": "uint256",
              "name": "value",
              "type": "uint256"
            },
            {
              "internalType": "uint256",
              "name": "startTimestamp",
              "type": "uint256"
            },
            {
              "internalType": "uint256",
              "name": "endTimestamp",
              "type": "uint256"
            },
            {
              "internalType": "enum Timelock.TxStatus",
              "name": "currentState",
              "type": "uint8"
            }
          ],
          "internalType": "struct Timelock.Log[]",
          "name": "",
          "type": "tuple[]"
        }
      ],
      "stateMutability": "view",
      "type": "function"
    },
    {
      "inputs": [],
      "name": "listCancelled",
      "outputs": [
        {
          "components": [
            {
              "internalType": "bytes32",
              "name": "txId",
              "type": "bytes32"
            },
            {
              "internalType": "address",
              "name": "sender",
              "type": "address"
            },
            {
              "internalType": "address",
              "name": "target",
              "type": "address"
            },
            {
              "internalType": "uint256",
              "name": "value",
              "type": "uint256"
            },
            {
              "internalType": "uint256",
              "name": "startTimestamp",
              "type": "uint256"
            },
            {
              "internalType": "uint256",
              "name": "endTimestamp",
              "type": "uint256"
            },
            {
              "internalType": "enum Timelock.TxStatus",
              "name": "currentState",
              "type": "uint8"
            }
          ],
          "internalType": "struct Timelock.Log[]",
          "name": "",
          "type": "tuple[]"
        }
      ],
      "stateMutability": "view",
      "type": "function"
    },
    {
      "inputs": [],
      "name": "listExecuted",
      "outputs": [
        {
          "components": [
            {
              "internalType": "bytes32",
              "name": "txId",
              "type": "bytes32"
            },
            {
              "internalType": "address",
              "name": "sender",
              "type": "address"
            },
            {
              "internalType": "address",
              "name": "target",
              "type": "address"
            },
            {
              "internalType": "uint256",
              "name": "value",
              "type": "uint256"
            },
            {
              "internalType": "uint256",
              "name": "startTimestamp",
              "type": "uint256"
            },
            {
              "internalType": "uint256",
              "name": "endTimestamp",
              "type": "uint256"
            },
            {
              "internalType": "enum Timelock.TxStatus",
              "name": "currentState",
              "type": "uint8"
            }
          ],
          "internalType": "struct Timelock.Log[]",
          "name": "",
          "type": "tuple[]"
        }
      ],
      "stateMutability": "view",
      "type": "function"
    }
  ],
  "bytecode": "0x60806040523480156200001157600080fd5b506040516200309e3803806200309e8339818101604052810190620000379190620000e8565b806000806101000a81548173ffffffffffffffffffffffffffffffffffffffff021916908373ffffffffffffffffffffffffffffffffffffffff160217905550506200011a565b600080fd5b600073ffffffffffffffffffffffffffffffffffffffff82169050919050565b6000620000b08262000083565b9050919050565b620000c281620000a3565b8114620000ce57600080fd5b50565b600081519050620000e281620000b7565b92915050565b6000602082840312156200010157620001006200007e565b5b60006200011184828501620000d1565b91505092915050565b612f74806200012a6000396000f3fe608060405234801561001057600080fd5b50600436106100cf5760003560e01c8063b915cb6c1161008c578063e1cf678d11610066578063e1cf678d146101f2578063e751f27114610222578063f3a6cc2b1461023e578063fa9884c71461026e576100cf565b8063b915cb6c14610188578063c396a4ee146101b8578063c4d252f5146101d6576100cf565b8063446f201e146100d45780638383ebb1146100f2578063a176166414610110578063ae2156861461012e578063b0a1c1c41461014c578063b5677b421461016a575b600080fd5b6100dc61028c565b6040516100e991906125cc565b60405180910390f35b6100fa6102b0565b60405161010791906127ee565b60405180910390f35b61011861068d565b604051610125919061281f565b60405180910390f35b6101366106b3565b60405161014391906127ee565b60405180910390f35b610154610a90565b6040516101619190612849565b60405180910390f35b610172610a96565b60405161017f9190612849565b60405180910390f35b6101a2600480360381019061019d9190612895565b610a9c565b6040516101af9190612950565b60405180910390f35b6101c0610bd8565b6040516101cd91906127ee565b60405180910390f35b6101f060048036038101906101eb9190612895565b610fb5565b005b61020c600480360381019061020791906129c3565b611389565b6040516102199190612a25565b60405180910390f35b61023c60048036038101906102379190612895565b6118b4565b005b61025860048036038101906102539190612a40565b611d55565b6040516102659190612a25565b60405180910390f35b610276611d91565b60405161028391906127ee565b60405180910390f35b60008054906101000a900473ffffffffffffffffffffffffffffffffffffffff1681565b60606000805b6007805490508110156103c0573373ffffffffffffffffffffffffffffffffffffffff16600782815481106102ee576102ed612abb565b5b906000526020600020906007020160010160009054906101000a900473ffffffffffffffffffffffffffffffffffffffff1673ffffffffffffffffffffffffffffffffffffffff1614801561039957506000600381111561035257610351612666565b5b6007828154811061036657610365612abb565b5b906000526020600020906007020160060160009054906101000a900460ff16600381111561039757610396612666565b5b145b156103ad5781806103a990612b19565b9250505b80806103b890612b19565b9150506102b6565b5060008167ffffffffffffffff8111156103dd576103dc612b61565b5b60405190808252806020026020018201604052801561041657816020015b610403612451565b8152602001906001900390816103fb5790505b5090506000915060005b600780549050811015610684573373ffffffffffffffffffffffffffffffffffffffff166007828154811061045857610457612abb565b5b906000526020600020906007020160010160009054906101000a900473ffffffffffffffffffffffffffffffffffffffff1673ffffffffffffffffffffffffffffffffffffffff161480156105035750600060038111156104bc576104bb612666565b5b600782815481106104d0576104cf612abb565b5b906000526020600020906007020160060160009054906101000a900460ff16600381111561050157610500612666565b5b145b15610671576007818154811061051c5761051b612abb565b5b90600052602060002090600702016040518060e0016040529081600082015481526020016001820160009054906101000a900473ffffffffffffffffffffffffffffffffffffffff1673ffffffffffffffffffffffffffffffffffffffff1673ffffffffffffffffffffffffffffffffffffffff1681526020016002820160009054906101000a900473ffffffffffffffffffffffffffffffffffffffff1673ffffffffffffffffffffffffffffffffffffffff1673ffffffffffffffffffffffffffffffffffffffff1681526020016003820154815260200160048201548152602001600582015481526020016006820160009054906101000a900460ff16600381111561062e5761062d612666565b5b60038111156106405761063f612666565b5b8152505082848151811061065757610656612abb565b5b6020026020010181905250828061066d90612b19565b9350505b808061067c90612b19565b915050610420565b50809250505090565b600460009054906101000a900473ffffffffffffffffffffffffffffffffffffffff1681565b60606000805b6007805490508110156107c3573373ffffffffffffffffffffffffffffffffffffffff16600782815481106106f1576106f0612abb565b5b906000526020600020906007020160010160009054906101000a900473ffffffffffffffffffffffffffffffffffffffff1673ffffffffffffffffffffffffffffffffffffffff1614801561079c57506001600381111561075557610754612666565b5b6007828154811061076957610768612abb565b5b906000526020600020906007020160060160009054906101000a900460ff16600381111561079a57610799612666565b5b145b156107b05781806107ac90612b19565b9250505b80806107bb90612b19565b9150506106b9565b5060008167ffffffffffffffff8111156107e0576107df612b61565b5b60405190808252806020026020018201604052801561081957816020015b610806612451565b8152602001906001900390816107fe5790505b5090506000915060005b600780549050811015610a87573373ffffffffffffffffffffffffffffffffffffffff166007828154811061085b5761085a612abb565b5b906000526020600020906007020160010160009054906101000a900473ffffffffffffffffffffffffffffffffffffffff1673ffffffffffffffffffffffffffffffffffffffff161480156109065750600160038111156108bf576108be612666565b5b600782815481106108d3576108d2612abb565b5b906000526020600020906007020160060160009054906101000a900460ff16600381111561090457610903612666565b5b145b15610a74576007818154811061091f5761091e612abb565b5b90600052602060002090600702016040518060e0016040529081600082015481526020016001820160009054906101000a900473ffffffffffffffffffffffffffffffffffffffff1673ffffffffffffffffffffffffffffffffffffffff1673ffffffffffffffffffffffffffffffffffffffff1681526020016002820160009054906101000a900473ffffffffffffffffffffffffffffffffffffffff1673ffffffffffffffffffffffffffffffffffffffff1673ffffffffffffffffffffffffffffffffffffffff1681526020016003820154815260200160048201548152602001600582015481526020016006820160009054906101000a900460ff166003811115610a3157610a30612666565b5b6003811115610a4357610a42612666565b5b81525050828481518110610a5a57610a59612abb565b5b60200260200101819052508280610a7090612b19565b9350505b8080610a7f90612b19565b915050610823565b50809250505090565b60065481565b60055481565b610aa46124cf565b600160008381526020019081526020016000206040518060e0016040529081600082015481526020016001820160009054906101000a900473ffffffffffffffffffffffffffffffffffffffff1673ffffffffffffffffffffffffffffffffffffffff1673ffffffffffffffffffffffffffffffffffffffff1681526020016002820160009054906101000a900473ffffffffffffffffffffffffffffffffffffffff1673ffffffffffffffffffffffffffffffffffffffff1673ffffffffffffffffffffffffffffffffffffffff1681526020016003820154815260200160048201548152602001600582015481526020016006820160009054906101000a900460ff166003811115610bbb57610bba612666565b5b6003811115610bcd57610bcc612666565b5b815250509050919050565b60606000805b600780549050811015610ce8573373ffffffffffffffffffffffffffffffffffffffff1660078281548110610c1657610c15612abb565b5b906000526020600020906007020160010160009054906101000a900473ffffffffffffffffffffffffffffffffffffffff1673ffffffffffffffffffffffffffffffffffffffff16148015610cc1575060026003811115610c7a57610c79612666565b5b60078281548110610c8e57610c8d612abb565b5b906000526020600020906007020160060160009054906101000a900460ff166003811115610cbf57610cbe612666565b5b145b15610cd5578180610cd190612b19565b9250505b8080610ce090612b19565b915050610bde565b5060008167ffffffffffffffff811115610d0557610d04612b61565b5b604051908082528060200260200182016040528015610d3e57816020015b610d2b612451565b815260200190600190039081610d235790505b5090506000915060005b600780549050811015610fac573373ffffffffffffffffffffffffffffffffffffffff1660078281548110610d8057610d7f612abb565b5b906000526020600020906007020160010160009054906101000a900473ffffffffffffffffffffffffffffffffffffffff1673ffffffffffffffffffffffffffffffffffffffff16148015610e2b575060026003811115610de457610de3612666565b5b60078281548110610df857610df7612abb565b5b906000526020600020906007020160060160009054906101000a900460ff166003811115610e2957610e28612666565b5b145b15610f995760078181548110610e4457610e43612abb565b5b90600052602060002090600702016040518060e0016040529081600082015481526020016001820160009054906101000a900473ffffffffffffffffffffffffffffffffffffffff1673ffffffffffffffffffffffffffffffffffffffff1673ffffffffffffffffffffffffffffffffffffffff1681526020016002820160009054906101000a900473ffffffffffffffffffffffffffffffffffffffff1673ffffffffffffffffffffffffffffffffffffffff1673ffffffffffffffffffffffffffffffffffffffff1681526020016003820154815260200160048201548152602001600582015481526020016006820160009054906101000a900460ff166003811115610f5657610f55612666565b5b6003811115610f6857610f67612666565b5b81525050828481518110610f7f57610f7e612abb565b5b60200260200101819052508280610f9590612b19565b9350505b8080610fa490612b19565b915050610d48565b50809250505090565b60006003811115610fc957610fc8612666565b5b6001600083815260200190815260200160002060060160009054906101000a900460ff166003811115610fff57610ffe612666565b5b1461104157806040517f0995c9d50000000000000000000000000000000000000000000000000000000081526004016110389190612a25565b60405180910390fd5b6000600160008381526020019081526020016000206040518060e0016040529081600082015481526020016001820160009054906101000a900473ffffffffffffffffffffffffffffffffffffffff1673ffffffffffffffffffffffffffffffffffffffff1673ffffffffffffffffffffffffffffffffffffffff1681526020016002820160009054906101000a900473ffffffffffffffffffffffffffffffffffffffff1673ffffffffffffffffffffffffffffffffffffffff1673ffffffffffffffffffffffffffffffffffffffff1681526020016003820154815260200160048201548152602001600582015481526020016006820160009054906101000a900460ff16600381111561115a57611159612666565b5b600381111561116c5761116b612666565b5b81525050905060026001600084815260200190815260200160002060060160006101000a81548160ff021916908360038111156111ac576111ab612666565b5b02179055506000816060015160008054906101000a900473ffffffffffffffffffffffffffffffffffffffff1673ffffffffffffffffffffffffffffffffffffffff1663b6aa680c84602001516040518263ffffffff1660e01b8152600401611215919061281f565b602060405180830381865afa158015611232573d6000803e3d6000fd5b505050506040513d601f19601f820116820180604052508101906112569190612ba5565b6112609190612bd2565b905060008060009054906101000a900473ffffffffffffffffffffffffffffffffffffffff1673ffffffffffffffffffffffffffffffffffffffff166333d07dc98460200151846040518363ffffffff1660e01b81526004016112c4929190612c28565b6020604051808303816000875af11580156112e3573d6000803e3d6000fd5b505050506040513d601f19601f820116820180604052508101906113079190612c89565b9050837fe8d9861dbc9c663ed3accd261bbe2fe01e0d3d9e5f51fa38523b265c7757a93a60405160405180910390a26113418460026120a8565b505080611383576040517f08c379a000000000000000000000000000000000000000000000000000000000815260040161137a90612d39565b60405180910390fd5b50505050565b60008083116113cd576040517f08c379a00000000000000000000000000000000000000000000000000000000081526004016113c490612dcb565b60405180910390fd5b8260008054906101000a900473ffffffffffffffffffffffffffffffffffffffff1673ffffffffffffffffffffffffffffffffffffffff1663b6aa680c336040518263ffffffff1660e01b8152600401611427919061281f565b602060405180830381865afa158015611444573d6000803e3d6000fd5b505050506040513d601f19601f820116820180604052508101906114689190612ba5565b116114a8576040517f08c379a000000000000000000000000000000000000000000000000000000000815260040161149f90612e37565b60405180910390fd5b60006114b73386864287611d55565b9050600060038111156114cd576114cc612666565b5b6001600083815260200190815260200160002060060160009054906101000a900460ff16600381111561150357611502612666565b5b0361154557806040517f995042be00000000000000000000000000000000000000000000000000000000815260040161153c9190612a25565b60405180910390fd5b60006040518060e001604052808381526020013373ffffffffffffffffffffffffffffffffffffffff1681526020018773ffffffffffffffffffffffffffffffffffffffff168152602001868152602001428152602001858152602001600060038111156115b6576115b5612666565b5b815250905080600160008481526020019081526020016000206000820151816000015560208201518160010160006101000a81548173ffffffffffffffffffffffffffffffffffffffff021916908373ffffffffffffffffffffffffffffffffffffffff16021790555060408201518160020160006101000a81548173ffffffffffffffffffffffffffffffffffffffff021916908373ffffffffffffffffffffffffffffffffffffffff160217905550606082015181600301556080820151816004015560a0820151816005015560c08201518160060160006101000a81548160ff021916908360038111156116b0576116af612666565b5b0217905550905050816002600060035481526020019081526020016000208190555060008560008054906101000a900473ffffffffffffffffffffffffffffffffffffffff1673ffffffffffffffffffffffffffffffffffffffff1663b6aa680c336040518263ffffffff1660e01b815260040161172e919061281f565b602060405180830381865afa15801561174b573d6000803e3d6000fd5b505050506040513d601f19601f8201168201806040525081019061176f9190612ba5565b6117799190612e57565b90508673ffffffffffffffffffffffffffffffffffffffff163373ffffffffffffffffffffffffffffffffffffffff16847f0f774f5df3f0259249dcfdfece489f89b9ae3366e90676da36f6dfe6b64b963b89428a6040516117dd93929190612e8b565b60405180910390a46117ee826121d8565b505060008054906101000a900473ffffffffffffffffffffffffffffffffffffffff1673ffffffffffffffffffffffffffffffffffffffff166333d07dc933836040518363ffffffff1660e01b815260040161184b929190612c28565b6020604051808303816000875af115801561186a573d6000803e3d6000fd5b505050506040513d601f19601f8201168201806040525081019061188e9190612c89565b50600360008154809291906118a290612b19565b91905055508293505050509392505050565b600060038111156118c8576118c7612666565b5b6001600083815260200190815260200160002060060160009054906101000a900460ff1660038111156118fe576118fd612666565b5b1461194057806040517f0995c9d50000000000000000000000000000000000000000000000000000000081526004016119379190612a25565b60405180910390fd5b6000600160008381526020019081526020016000206040518060e0016040529081600082015481526020016001820160009054906101000a900473ffffffffffffffffffffffffffffffffffffffff1673ffffffffffffffffffffffffffffffffffffffff1673ffffffffffffffffffffffffffffffffffffffff1681526020016002820160009054906101000a900473ffffffffffffffffffffffffffffffffffffffff1673ffffffffffffffffffffffffffffffffffffffff1673ffffffffffffffffffffffffffffffffffffffff1681526020016003820154815260200160048201548152602001600582015481526020016006820160009054906101000a900460ff166003811115611a5957611a58612666565b5b6003811115611a6b57611a6a612666565b5b8152505090508060a00151421015611ac057428160a001516040517f7dc4f9e0000000000000000000000000000000000000000000000000000000008152600401611ab7929190612ec2565b60405180910390fd5b6000816060015160008054906101000a900473ffffffffffffffffffffffffffffffffffffffff1673ffffffffffffffffffffffffffffffffffffffff1663b6aa680c84604001516040518263ffffffff1660e01b8152600401611b24919061281f565b602060405180830381865afa158015611b41573d6000803e3d6000fd5b505050506040513d601f19601f82011682018060405250810190611b659190612ba5565b611b6f9190612bd2565b905060008060009054906101000a900473ffffffffffffffffffffffffffffffffffffffff1673ffffffffffffffffffffffffffffffffffffffff166333d07dc98460400151846040518363ffffffff1660e01b8152600401611bd3929190612c28565b6020604051808303816000875af1158015611bf2573d6000803e3d6000fd5b505050506040513d601f19601f82011682018060405250810190611c169190612c89565b905080611c9b5760036001600086815260200190815260200160002060060160006101000a81548160ff02191690836003811115611c5757611c56612666565b5b0217905550611c678460036120a8565b50506040517fd9b4f81e00000000000000000000000000000000000000000000000000000000815260040160405180910390fd5b600180600086815260200190815260200160002060060160006101000a81548160ff02191690836003811115611cd457611cd3612666565b5b0217905550826040015173ffffffffffffffffffffffffffffffffffffffff163373ffffffffffffffffffffffffffffffffffffffff16857f7aba212e4c6518f986a09fb4bdb3791ef7573643aeec1b5ab1df7a9c64cf25ec8660600151428860a00151604051611d4793929190612e8b565b60405180910390a450505050565b60008585858585604051602001611d70959493929190612eeb565b60405160208183030381529060405280519060200120905095945050505050565b60606000805b600780549050811015611e3e573373ffffffffffffffffffffffffffffffffffffffff1660078281548110611dcf57611dce612abb565b5b906000526020600020906007020160010160009054906101000a900473ffffffffffffffffffffffffffffffffffffffff1673ffffffffffffffffffffffffffffffffffffffff1603611e2b578180611e2790612b19565b9250505b8080611e3690612b19565b915050611d97565b5060008167ffffffffffffffff811115611e5b57611e5a612b61565b5b604051908082528060200260200182016040528015611e9457816020015b611e81612451565b815260200190600190039081611e795790505b5090506000915060005b60078054905081101561209f573373ffffffffffffffffffffffffffffffffffffffff1660078281548110611ed657611ed5612abb565b5b906000526020600020906007020160010160009054906101000a900473ffffffffffffffffffffffffffffffffffffffff1673ffffffffffffffffffffffffffffffffffffffff160361208c5760078181548110611f3757611f36612abb565b5b90600052602060002090600702016040518060e0016040529081600082015481526020016001820160009054906101000a900473ffffffffffffffffffffffffffffffffffffffff1673ffffffffffffffffffffffffffffffffffffffff1673ffffffffffffffffffffffffffffffffffffffff1681526020016002820160009054906101000a900473ffffffffffffffffffffffffffffffffffffffff1673ffffffffffffffffffffffffffffffffffffffff1673ffffffffffffffffffffffffffffffffffffffff1681526020016003820154815260200160048201548152602001600582015481526020016006820160009054906101000a900460ff16600381111561204957612048612666565b5b600381111561205b5761205a612666565b5b8152505082848151811061207257612071612abb565b5b6020026020010181905250828061208890612b19565b9350505b808061209790612b19565b915050611e9e565b50809250505090565b600060606000805b6007805490508110156120fd5785600782815481106120d2576120d1612abb565b5b90600052602060002090600702016000015403156120fd5780806120f590612b19565b9150506120b0565b816121455760006040518060400160405280601881526020017f5472616e73616374696f6e204964206e6f7420666f756e6400000000000000008152509350935050506121d1565b846007828154811061215a57612159612abb565b5b906000526020600020906007020160060160006101000a81548160ff0219169083600381111561218d5761218c612666565b5b021790555060016040518060400160405280601781526020017f557064617465206c6f67207375636365737366756c6c790000000000000000008152509350935050505b9250929050565b6000606060005b6007805490508110156122715783600001516007828154811061220557612204612abb565b5b9060005260206000209060070201600001540361225e5760006040518060400160405280601d81526020017f5472616e73616374696f6e20494420616c726561647920657869737473000000815250925092505061244c565b808061226990612b19565b9150506121df565b5060076040518060e0016040528085600001518152602001856020015173ffffffffffffffffffffffffffffffffffffffff168152602001856040015173ffffffffffffffffffffffffffffffffffffffff16815260200185606001518152602001856080015181526020018560a001518152602001600060038111156122fb576122fa612666565b5b81525090806001815401808255809150506001900390600052602060002090600702016000909190919091506000820151816000015560208201518160010160006101000a81548173ffffffffffffffffffffffffffffffffffffffff021916908373ffffffffffffffffffffffffffffffffffffffff16021790555060408201518160020160006101000a81548173ffffffffffffffffffffffffffffffffffffffff021916908373ffffffffffffffffffffffffffffffffffffffff160217905550606082015181600301556080820151816004015560a0820151816005015560c08201518160060160006101000a81548160ff0219169083600381111561240857612407612666565b5b0217905550505060016040518060400160405280601681526020017f4c6f67206164646564207375636365737366756c6c7900000000000000000000815250915091505b915091565b6040518060e0016040528060008019168152602001600073ffffffffffffffffffffffffffffffffffffffff168152602001600073ffffffffffffffffffffffffffffffffffffffff168152602001600081526020016000815260200160008152602001600060038111156124c9576124c8612666565b5b81525090565b6040518060e0016040528060008019168152602001600073ffffffffffffffffffffffffffffffffffffffff168152602001600073ffffffffffffffffffffffffffffffffffffffff1681526020016000815260200160008152602001600081526020016000600381111561254757612546612666565b5b81525090565b600073ffffffffffffffffffffffffffffffffffffffff82169050919050565b6000819050919050565b600061259261258d6125888461254d565b61256d565b61254d565b9050919050565b60006125a482612577565b9050919050565b60006125b682612599565b9050919050565b6125c6816125ab565b82525050565b60006020820190506125e160008301846125bd565b92915050565b600081519050919050565b600082825260208201905092915050565b6000819050602082019050919050565b6000819050919050565b61262681612613565b82525050565b60006126378261254d565b9050919050565b6126478161262c565b82525050565b6000819050919050565b6126608161264d565b82525050565b7f4e487b7100000000000000000000000000000000000000000000000000000000600052602160045260246000fd5b600481106126a6576126a5612666565b5b50565b60008190506126b782612695565b919050565b60006126c7826126a9565b9050919050565b6126d7816126bc565b82525050565b60e0820160008201516126f3600085018261261d565b506020820151612706602085018261263e565b506040820151612719604085018261263e565b50606082015161272c6060850182612657565b50608082015161273f6080850182612657565b5060a082015161275260a0850182612657565b5060c082015161276560c08501826126ce565b50505050565b600061277783836126dd565b60e08301905092915050565b6000602082019050919050565b600061279b826125e7565b6127a581856125f2565b93506127b083612603565b8060005b838110156127e15781516127c8888261276b565b97506127d383612783565b9250506001810190506127b4565b5085935050505092915050565b600060208201905081810360008301526128088184612790565b905092915050565b6128198161262c565b82525050565b60006020820190506128346000830184612810565b92915050565b6128438161264d565b82525050565b600060208201905061285e600083018461283a565b92915050565b600080fd5b61287281612613565b811461287d57600080fd5b50565b60008135905061288f81612869565b92915050565b6000602082840312156128ab576128aa612864565b5b60006128b984828501612880565b91505092915050565b60e0820160008201516128d8600085018261261d565b5060208201516128eb602085018261263e565b5060408201516128fe604085018261263e565b5060608201516129116060850182612657565b5060808201516129246080850182612657565b5060a082015161293760a0850182612657565b5060c082015161294a60c08501826126ce565b50505050565b600060e08201905061296560008301846128c2565b92915050565b6129748161262c565b811461297f57600080fd5b50565b6000813590506129918161296b565b92915050565b6129a08161264d565b81146129ab57600080fd5b50565b6000813590506129bd81612997565b92915050565b6000806000606084860312156129dc576129db612864565b5b60006129ea86828701612982565b93505060206129fb868287016129ae565b9250506040612a0c868287016129ae565b9150509250925092565b612a1f81612613565b82525050565b6000602082019050612a3a6000830184612a16565b92915050565b600080600080600060a08688031215612a5c57612a5b612864565b5b6000612a6a88828901612982565b9550506020612a7b88828901612982565b9450506040612a8c888289016129ae565b9350506060612a9d888289016129ae565b9250506080612aae888289016129ae565b9150509295509295909350565b7f4e487b7100000000000000000000000000000000000000000000000000000000600052603260045260246000fd5b7f4e487b7100000000000000000000000000000000000000000000000000000000600052601160045260246000fd5b6000612b248261264d565b91507fffffffffffffffffffffffffffffffffffffffffffffffffffffffffffffffff8203612b5657612b55612aea565b5b600182019050919050565b7f4e487b7100000000000000000000000000000000000000000000000000000000600052604160045260246000fd5b600081519050612b9f81612997565b92915050565b600060208284031215612bbb57612bba612864565b5b6000612bc984828501612b90565b91505092915050565b6000612bdd8261264d565b9150612be88361264d565b9250827fffffffffffffffffffffffffffffffffffffffffffffffffffffffffffffffff03821115612c1d57612c1c612aea565b5b828201905092915050565b6000604082019050612c3d6000830185612810565b612c4a602083018461283a565b9392505050565b60008115159050919050565b612c6681612c51565b8114612c7157600080fd5b50565b600081519050612c8381612c5d565b92915050565b600060208284031215612c9f57612c9e612864565b5b6000612cad84828501612c74565b91505092915050565b600082825260208201905092915050565b7f4661696c656420746f2072657475726e20457468657220746f206465706f736960008201527f746f720000000000000000000000000000000000000000000000000000000000602082015250565b6000612d23602383612cb6565b9150612d2e82612cc7565b604082019050919050565b60006020820190508181036000830152612d5281612d16565b9050919050565b7f45746865722076616c7565206d7573742062652067726561746572207468616e60008201527f20302e0000000000000000000000000000000000000000000000000000000000602082015250565b6000612db5602383612cb6565b9150612dc082612d59565b604082019050919050565b60006020820190508181036000830152612de481612da8565b9050919050565b7f496e73756666696369656e742042616c616e6365000000000000000000000000600082015250565b6000612e21601483612cb6565b9150612e2c82612deb565b602082019050919050565b60006020820190508181036000830152612e5081612e14565b9050919050565b6000612e628261264d565b9150612e6d8361264d565b925082821015612e8057612e7f612aea565b5b828203905092915050565b6000606082019050612ea0600083018661283a565b612ead602083018561283a565b612eba604083018461283a565b949350505050565b6000604082019050612ed7600083018561283a565b612ee4602083018461283a565b9392505050565b600060a082019050612f006000830188612810565b612f0d6020830187612810565b612f1a604083018661283a565b612f27606083018561283a565b612f34608083018461283a565b969550505050505056fea2646970667358221220d9080a9c3294bedc0e52fdb6a11891d868a4d7bbbec7099f34e1db963e0e4d3c64736f6c634300080d0033",
  "immutableReferences": {},
  "source": "// SPDX-License-Identifier: MIT\r\npragma solidity ^0.8.0;\r\nimport \"./AccountManager.sol\";\r\n\r\ncontract Timelock {\r\n\r\n        AccountManager public accountsContract;\r\n\r\n    constructor(\r\n        address _accountsContractAddress\r\n    ) {\r\n        // admin = msg.sender;\r\n        accountsContract = AccountManager(_accountsContractAddress);\r\n     \r\n    }\r\n\r\n    //Transaction--------------------------------------------------------------\r\n    error AlreadyQueuedError(bytes32 txId);\r\n    error NotQueuedError(bytes32 txId);\r\n    error TimestampNotPassedError(uint256 blockTimestamp, uint256 timestamp);\r\n    error TimestampNotMatureError(uint256 blockTimestamp, uint256 expiresAt);\r\n    error TimestampExpiredError(uint256 blockTimestamp, uint256 expiresAt);\r\n    error TxFailedError();\r\n\r\n    event Queue(\r\n        bytes32 indexed txId,\r\n        address indexed sender,\r\n        address indexed target,\r\n        uint256 value,\r\n        uint256 startTimestamp,\r\n        uint256 endTimestamp\r\n    );\r\n    event Execute(\r\n        bytes32 indexed txId,\r\n        address indexed sender,\r\n        address indexed target,\r\n        uint256 value,\r\n        uint256 startTimestamp,\r\n        uint256 endTimestamp\r\n    );\r\n    event Cancel(bytes32 indexed txId);\r\n    event Deposited(address indexed user, uint256 amount);\r\n\r\nenum TxStatus{\r\n    Queued, \r\n    Completed,\r\n    Cancelled,\r\n    Failed\r\n}\r\n    // Struct to store transaction details\r\n    struct Tx {\r\n        bytes32 txId;\r\n        address sender;\r\n        address target;\r\n        uint256 value;\r\n        uint256 startTimestamp;\r\n        uint256 endTimestamp;\r\n        TxStatus status;\r\n    }\r\n\r\n    // Mapping of transaction IDs to transaction data\r\n    mapping(bytes32 => Tx) private txs;\r\n    mapping(uint => bytes32) private indexToTxMapping;\r\n    uint txCount;\r\n    address public whoDeposited;\r\n    uint256 public depositAmt;\r\n    uint256 public accountBalance;\r\n\r\n    function getTxId(\r\n        address _sender,\r\n        address _target,\r\n        uint256 _value,\r\n        uint256 _startTimestamp,\r\n        uint256 _endTimestamp\r\n    ) public pure returns (bytes32) {\r\n        return keccak256(abi.encode(_sender,_target, _value,_startTimestamp,_endTimestamp));\r\n    }\r\n\r\n    function queue(\r\n        address _target,\r\n        uint256 _value,\r\n               uint256 _endTimestamp\r\n        ) external returns (bytes32) {\r\n        require(_value > 0, \"Ether value must be greater than 0.\");\r\n        require(\r\n            accountsContract.getAccountDeposit(msg.sender) > _value,\r\n            \"Insufficient Balance\"\r\n        );\r\n        // Generate the transaction ID based on the target and value\r\n        bytes32 txId = getTxId(msg.sender,_target, _value, block.timestamp, _endTimestamp);\r\n\r\n        // Ensure the transaction is not already queued\r\n        if (txs[txId].status==TxStatus.Queued) {\r\n            revert AlreadyQueuedError(txId);\r\n        }\r\n\r\n        // Store the new transaction\r\n        Tx memory currentTx = Tx(\r\n            txId,\r\n            msg.sender,\r\n            _target,\r\n            _value,\r\n            block.timestamp,\r\n            _endTimestamp,\r\n            TxStatus.Queued\r\n        );\r\n        txs[txId] = currentTx;\r\n        indexToTxMapping[txCount] = txId;\r\n\r\n        uint256 newAmount = accountsContract.getAccountDeposit(msg.sender) -\r\n            _value;\r\n        // Emit the Queue event\r\n        emit Queue(txId,msg.sender, _target, _value, block.timestamp,             _endTimestamp);\r\n        addLog(currentTx);\r\n        accountsContract.depositUpdate(msg.sender, newAmount);\r\n        txCount++;\r\n        return txId;\r\n    }\r\n\r\n    // function getTxArr() public view returns (Tx[] memory) {\r\n    //     Tx[] memory arr = new Tx[](txCount);\r\n    //     for (uint i = 0; i < txCount; i++) {\r\n    //         if (txs[indexToTxMapping[i]].status == TxStatus.Queued) {\r\n    //             arr[i] = txs[indexToTxMapping[i]];\r\n    //         }\r\n    //     }\r\n    //     return arr;\r\n    // }\r\n\r\n    function execute(\r\n        bytes32 _txId\r\n    ) external  {\r\n        // Ensure the transaction is actually queued\r\n        if (txs[_txId].status!=TxStatus.Queued) {\r\n            revert NotQueuedError(_txId);\r\n        }\r\n\r\n        Tx memory currentTx = txs[_txId];\r\n\r\n        // // Ensure the timestamp has passed for execution\r\n        // if (block.timestamp < currentTx.timestamp) {\r\n        //     revert TimestampNotPassedError(\r\n        //         block.timestamp,\r\n        //         currentTx.timestamp\r\n        //     );\r\n        // }\r\n\r\n        // Ensure the transaction is executed after the grace period\r\n        if (block.timestamp < currentTx.endTimestamp ) {\r\n            revert TimestampNotMatureError(\r\n                block.timestamp,\r\n                currentTx.endTimestamp\r\n            );\r\n        }\r\n\r\n      \r\n        uint256 newAmount = accountsContract.getAccountDeposit(\r\n            currentTx.target\r\n        ) + currentTx.value;\r\n        bool success = accountsContract.depositUpdate(\r\n            currentTx.target,\r\n            newAmount\r\n        );\r\n        if (!success) {\r\n            txs[_txId].status = TxStatus.Failed;\r\n            updateStatus(_txId,TxStatus.Failed);\r\n            revert TxFailedError();\r\n        }\r\n        // Mark the transaction as executed\r\n        txs[_txId].status = TxStatus.Completed;\r\n\r\n        // Emit the Execute event\r\n        emit Execute(\r\n           _txId,msg.sender, currentTx.target, currentTx.value, block.timestamp,             currentTx.endTimestamp\r\n        );\r\n\r\n        // return (currentTx.target, currentTx.value);\r\n    }\r\n\r\n    function cancel(\r\n        bytes32 _txId\r\n    ) external{\r\n        // Ensure the transaction is queued\r\n        if (txs[_txId].status!=TxStatus.Queued) {\r\n            revert NotQueuedError(_txId);\r\n        }\r\n\r\n        Tx memory currentTx = txs[_txId];\r\n        // // Ensure the transaction is executed in the grace period\r\n        // if (block.timestamp >= currentTx.timestamp + gracePeriod) {\r\n        //     revert TimestampExpiredError(\r\n        //         block.timestamp,\r\n        //         currentTx.timestamp + gracePeriod\r\n        //     );\r\n        // }\r\n        // Mark the transaction as canceled\r\n\r\n        txs[_txId].status = TxStatus.Cancelled;\r\n\r\n        uint256 newAmount = accountsContract.getAccountDeposit(\r\n            currentTx.sender\r\n        ) + currentTx.value;\r\n        bool success = accountsContract.depositUpdate(\r\n            currentTx.sender,\r\n            newAmount\r\n        );\r\n        // Emit the Cancel event\r\n        emit Cancel(_txId);\r\n                    updateStatus(_txId,TxStatus.Cancelled);\r\n\r\n        require(success, \"Failed to return Ether to depositor\");\r\n        // return (currentTx.depositor, currentTx.value);\r\n    }\r\n\r\n    function getTx(\r\n        bytes32 _txId\r\n    ) external view returns (Tx memory transaction) {\r\n        return txs[_txId];\r\n    }\r\n\r\n    // ------------------- LISTING BY YEOH ZHE HENG ------------------\r\n     struct Log {\r\n        bytes32 txId;\r\n        address sender;\r\n        address target;\r\n        uint256 value;\r\n        uint256 startTimestamp; // Passed the scheduled for transaction date, in grace period form\r\n        uint256 endTimestamp; // Passed the scheduled for transaction date, in grace period form\r\n        TxStatus currentState;\r\n    }\r\n\r\n    Log[] internal logs;\r\n\r\n    function listLogs() public view returns (Log[] memory) {\r\n        uint256 count = 0;\r\n        for (uint256 i = 0; i < logs.length; i++) {\r\n            if (logs[i].sender == msg.sender) {\r\n                count++;\r\n            }\r\n        }\r\n\r\n        Log[] memory filterLog = new Log[](count);\r\n        count = 0;\r\n        for (uint256 i = 0; i < logs.length; i++) {\r\n            if (logs[i].sender == msg.sender) {\r\n                filterLog[count] = logs[i];\r\n                count++;\r\n            }\r\n        }\r\n\r\n        return filterLog;\r\n    }\r\n\r\n    function listQueued() public view returns (Log[] memory) {\r\n        uint256 count = 0;\r\n        for (uint256 i = 0; i < logs.length; i++) {\r\n            if (\r\n                logs[i].sender == msg.sender &&\r\n                logs[i].currentState == TxStatus.Queued\r\n            ) {\r\n                count++;\r\n            }\r\n        }\r\n\r\n        Log[] memory filterLog = new Log[](count);\r\n        count = 0;\r\n        for (uint256 i = 0; i < logs.length; i++) {\r\n            if (\r\n                logs[i].sender == msg.sender &&\r\n                logs[i].currentState == TxStatus.Queued\r\n            ) {\r\n                filterLog[count] = logs[i];\r\n                count++;\r\n            }\r\n        }\r\n\r\n        return filterLog;\r\n    }\r\n\r\n    function listCancelled() public view returns (Log[] memory) {\r\n        uint256 count = 0;\r\n        for (uint256 i = 0; i < logs.length; i++) {\r\n            if (\r\n                logs[i].sender == msg.sender &&\r\n                logs[i].currentState == TxStatus.Cancelled\r\n            ) {\r\n                count++;\r\n            }\r\n        }\r\n\r\n        Log[] memory filterLog = new Log[](count);\r\n        count = 0;\r\n        for (uint256 i = 0; i < logs.length; i++) {\r\n            if (\r\n                logs[i].sender == msg.sender &&\r\n                logs[i].currentState == TxStatus.Cancelled\r\n            ) {\r\n                filterLog[count] = logs[i];\r\n                count++;\r\n            }\r\n        }\r\n\r\n        return filterLog;\r\n    }\r\n\r\n     function listExecuted() public view returns (Log[] memory) {\r\n        uint256 count = 0;\r\n        for (uint256 i = 0; i < logs.length; i++) {\r\n            if (\r\n                logs[i].sender == msg.sender &&\r\n                logs[i].currentState == TxStatus.Completed\r\n            ) {\r\n                count++;\r\n            }\r\n        }\r\n\r\n        Log[] memory filterLog = new Log[](count);\r\n        count = 0;\r\n        for (uint256 i = 0; i < logs.length; i++) {\r\n            if (\r\n                logs[i].sender == msg.sender &&\r\n                logs[i].currentState == TxStatus.Completed\r\n            ) {\r\n                filterLog[count] = logs[i];\r\n                count++;\r\n            }\r\n        }\r\n\r\n        return filterLog;\r\n    }\r\n\r\n    function addLog(\r\n       Tx memory _tx\r\n    ) internal returns (bool, string memory) {\r\n        for (uint256 i = 0; i < logs.length; i++) {\r\n            if (logs[i].txId == _tx.txId) {\r\n                return (false, \"Transaction ID already exists\");\r\n            }\r\n        }\r\n\r\n        logs.push(\r\n            Log({\r\n                txId: _tx.txId,\r\n                sender: _tx.sender,\r\n                target: _tx.target,\r\n                value: _tx.value,\r\n                startTimestamp: _tx.startTimestamp,\r\n                endTimestamp: _tx.endTimestamp,\r\n                currentState: TxStatus.Queued\r\n            })\r\n        );\r\n\r\n        return (true, \"Log added successfully\");\r\n    }\r\n\r\n function updateStatus(bytes32 _txId, TxStatus _status)internal returns(bool, string memory){\r\n        bool found = false;\r\n        uint256 count;\r\n        while(count < logs.length){\r\n            if(logs[count].txId == _txId){\r\n                break;\r\n            }\r\n            count++;\r\n        }\r\n        if(!found){\r\n            return (false, \"Transaction Id not found\");\r\n        }\r\n\r\n        logs[count].currentState = _status;\r\n        return (true, \"Update log successfully\");\r\n       \r\n    }\r\n\r\n   \r\n\r\n\r\n}\r\n",
  "sourcePath": "C:\\Users\\quint\\vscode\\My Projects\\Timelock\\contracts\\Timelock.sol",
  "compiler": {
    "name": "solc",
    "version": "0.8.13+commit.abaa5c0e.Emscripten.clang"
  },
  "schemaVersion": "3.4.16",
  "updatedAt": "2024-09-24T06:43:18.416Z",
  "devdoc": {
    "kind": "dev",
    "methods": {},
    "version": 1
  },
  "userdoc": {
    "kind": "user",
    "methods": {},
    "version": 1
  }
}