{
  "contractName": "Timelock",
  "abi": [
    {
      "inputs": [
        {
          "internalType": "address",
          "name": "_accountsContractAddress",
          "type": "address"
        },
        {
          "internalType": "uint256",
          "name": "_minGracePeriod",
          "type": "uint256"
        },
        {
          "internalType": "uint256",
          "name": "_maxGracePeriod",
          "type": "uint256"
        },
        {
          "internalType": "uint256",
          "name": "_defaultGracePeriod",
          "type": "uint256"
        }
      ],
      "stateMutability": "nonpayable",
      "type": "constructor"
    },
    {
      "inputs": [
        {
          "internalType": "bytes32",
          "name": "txId",
          "type": "bytes32"
        }
      ],
      "name": "AlreadyQueuedError",
      "type": "error"
    },
    {
      "inputs": [],
      "name": "NotAdminError",
      "type": "error"
    },
    {
      "inputs": [
        {
          "internalType": "bytes32",
          "name": "txId",
          "type": "bytes32"
        }
      ],
      "name": "NotQueuedError",
      "type": "error"
    },
    {
      "inputs": [
        {
          "internalType": "uint256",
          "name": "blockTimestamp",
          "type": "uint256"
        },
        {
          "internalType": "uint256",
          "name": "expiresAt",
          "type": "uint256"
        }
      ],
      "name": "TimestampExpiredError",
      "type": "error"
    },
    {
      "inputs": [
        {
          "internalType": "uint256",
          "name": "blockTimestamp",
          "type": "uint256"
        },
        {
          "internalType": "uint256",
          "name": "expiresAt",
          "type": "uint256"
        }
      ],
      "name": "TimestampNotMatureError",
      "type": "error"
    },
    {
      "inputs": [
        {
          "internalType": "uint256",
          "name": "blockTimestamp",
          "type": "uint256"
        },
        {
          "internalType": "uint256",
          "name": "timestamp",
          "type": "uint256"
        }
      ],
      "name": "TimestampNotPassedError",
      "type": "error"
    },
    {
      "inputs": [],
      "name": "TxFailedError",
      "type": "error"
    },
    {
      "anonymous": false,
      "inputs": [
        {
          "indexed": true,
          "internalType": "bytes32",
          "name": "txId",
          "type": "bytes32"
        }
      ],
      "name": "Cancel",
      "type": "event"
    },
    {
      "anonymous": false,
      "inputs": [
        {
          "indexed": true,
          "internalType": "address",
          "name": "user",
          "type": "address"
        },
        {
          "indexed": false,
          "internalType": "uint256",
          "name": "amount",
          "type": "uint256"
        }
      ],
      "name": "Deposited",
      "type": "event"
    },
    {
      "anonymous": false,
      "inputs": [
        {
          "indexed": true,
          "internalType": "bytes32",
          "name": "txId",
          "type": "bytes32"
        },
        {
          "indexed": true,
          "internalType": "address",
          "name": "target",
          "type": "address"
        },
        {
          "indexed": false,
          "internalType": "uint256",
          "name": "value",
          "type": "uint256"
        },
        {
          "indexed": false,
          "internalType": "uint256",
          "name": "timestamp",
          "type": "uint256"
        }
      ],
      "name": "Execute",
      "type": "event"
    },
    {
      "anonymous": false,
      "inputs": [
        {
          "indexed": false,
          "internalType": "uint256",
          "name": "gracePeriod",
          "type": "uint256"
        }
      ],
      "name": "GracePeriodChanged",
      "type": "event"
    },
    {
      "anonymous": false,
      "inputs": [
        {
          "indexed": false,
          "internalType": "uint256",
          "name": "newGracePeriod",
          "type": "uint256"
        }
      ],
      "name": "NewGracePeriodProposed",
      "type": "event"
    },
    {
      "anonymous": false,
      "inputs": [
        {
          "indexed": true,
          "internalType": "bytes32",
          "name": "txId",
          "type": "bytes32"
        },
        {
          "indexed": true,
          "internalType": "address",
          "name": "target",
          "type": "address"
        },
        {
          "indexed": false,
          "internalType": "uint256",
          "name": "value",
          "type": "uint256"
        },
        {
          "indexed": false,
          "internalType": "uint256",
          "name": "timestamp",
          "type": "uint256"
        }
      ],
      "name": "Queue",
      "type": "event"
    },
    {
      "anonymous": false,
      "inputs": [
        {
          "indexed": false,
          "internalType": "uint256",
          "name": "newGracePeriod",
          "type": "uint256"
        }
      ],
      "name": "VotingFinalized",
      "type": "event"
    },
    {
      "inputs": [],
      "name": "accountBalance",
      "outputs": [
        {
          "internalType": "uint256",
          "name": "",
          "type": "uint256"
        }
      ],
      "stateMutability": "view",
      "type": "function",
      "constant": true
    },
    {
      "inputs": [],
      "name": "accountsContract",
      "outputs": [
        {
          "internalType": "contract AccountManager",
          "name": "",
          "type": "address"
        }
      ],
      "stateMutability": "view",
      "type": "function",
      "constant": true
    },
    {
      "inputs": [],
      "name": "admin",
      "outputs": [
        {
          "internalType": "address",
          "name": "",
          "type": "address"
        }
      ],
      "stateMutability": "view",
      "type": "function",
      "constant": true
    },
    {
      "inputs": [],
      "name": "depositAmt",
      "outputs": [
        {
          "internalType": "uint256",
          "name": "",
          "type": "uint256"
        }
      ],
      "stateMutability": "view",
      "type": "function",
      "constant": true
    },
    {
      "inputs": [],
      "name": "maxGracePeriod",
      "outputs": [
        {
          "internalType": "uint256",
          "name": "",
          "type": "uint256"
        }
      ],
      "stateMutability": "view",
      "type": "function",
      "constant": true
    },
    {
      "inputs": [],
      "name": "minGracePeriod",
      "outputs": [
        {
          "internalType": "uint256",
          "name": "",
          "type": "uint256"
        }
      ],
      "stateMutability": "view",
      "type": "function",
      "constant": true
    },
    {
      "inputs": [],
      "name": "owner",
      "outputs": [
        {
          "internalType": "address",
          "name": "",
          "type": "address"
        }
      ],
      "stateMutability": "view",
      "type": "function",
      "constant": true
    },
    {
      "inputs": [
        {
          "internalType": "uint256",
          "name": "",
          "type": "uint256"
        }
      ],
      "name": "voted",
      "outputs": [
        {
          "internalType": "address",
          "name": "",
          "type": "address"
        }
      ],
      "stateMutability": "view",
      "type": "function",
      "constant": true
    },
    {
      "inputs": [],
      "name": "whoDeposited",
      "outputs": [
        {
          "internalType": "address",
          "name": "",
          "type": "address"
        }
      ],
      "stateMutability": "view",
      "type": "function",
      "constant": true
    },
    {
      "inputs": [],
      "name": "getGracePeriod",
      "outputs": [
        {
          "internalType": "uint256",
          "name": "",
          "type": "uint256"
        }
      ],
      "stateMutability": "view",
      "type": "function",
      "constant": true
    },
    {
      "inputs": [
        {
          "internalType": "address",
          "name": "_target",
          "type": "address"
        },
        {
          "internalType": "uint256",
          "name": "_value",
          "type": "uint256"
        },
        {
          "internalType": "uint256",
          "name": "_timestamp",
          "type": "uint256"
        }
      ],
      "name": "getTxId",
      "outputs": [
        {
          "internalType": "bytes32",
          "name": "",
          "type": "bytes32"
        }
      ],
      "stateMutability": "pure",
      "type": "function",
      "constant": true
    },
    {
      "inputs": [
        {
          "internalType": "address",
          "name": "_target",
          "type": "address"
        },
        {
          "internalType": "uint256",
          "name": "_value",
          "type": "uint256"
        }
      ],
      "name": "queue",
      "outputs": [
        {
          "internalType": "bytes32",
          "name": "",
          "type": "bytes32"
        }
      ],
      "stateMutability": "nonpayable",
      "type": "function"
    },
    {
      "inputs": [],
      "name": "getTxArr",
      "outputs": [
        {
          "components": [
            {
              "internalType": "bytes32",
              "name": "txId",
              "type": "bytes32"
            },
            {
              "internalType": "address",
              "name": "target",
              "type": "address"
            },
            {
              "internalType": "uint256",
              "name": "value",
              "type": "uint256"
            },
            {
              "internalType": "uint256",
              "name": "timestamp",
              "type": "uint256"
            },
            {
              "internalType": "bool",
              "name": "queued",
              "type": "bool"
            },
            {
              "internalType": "address",
              "name": "depositor",
              "type": "address"
            }
          ],
          "internalType": "struct Timelock.Tx[]",
          "name": "",
          "type": "tuple[]"
        }
      ],
      "stateMutability": "view",
      "type": "function",
      "constant": true
    },
    {
      "inputs": [
        {
          "internalType": "bytes32",
          "name": "_txId",
          "type": "bytes32"
        }
      ],
      "name": "execute",
      "outputs": [
        {
          "internalType": "address",
          "name": "target",
          "type": "address"
        },
        {
          "internalType": "uint256",
          "name": "value",
          "type": "uint256"
        }
      ],
      "stateMutability": "nonpayable",
      "type": "function"
    },
    {
      "inputs": [
        {
          "internalType": "bytes32",
          "name": "_txId",
          "type": "bytes32"
        }
      ],
      "name": "cancel",
      "outputs": [
        {
          "internalType": "address",
          "name": "sender",
          "type": "address"
        },
        {
          "internalType": "uint256",
          "name": "value",
          "type": "uint256"
        }
      ],
      "stateMutability": "nonpayable",
      "type": "function"
    },
    {
      "inputs": [
        {
          "internalType": "bytes32",
          "name": "_txId",
          "type": "bytes32"
        }
      ],
      "name": "getTx",
      "outputs": [
        {
          "components": [
            {
              "internalType": "bytes32",
              "name": "txId",
              "type": "bytes32"
            },
            {
              "internalType": "address",
              "name": "target",
              "type": "address"
            },
            {
              "internalType": "uint256",
              "name": "value",
              "type": "uint256"
            },
            {
              "internalType": "uint256",
              "name": "timestamp",
              "type": "uint256"
            },
            {
              "internalType": "bool",
              "name": "queued",
              "type": "bool"
            },
            {
              "internalType": "address",
              "name": "depositor",
              "type": "address"
            }
          ],
          "internalType": "struct Timelock.Tx",
          "name": "transaction",
          "type": "tuple"
        }
      ],
      "stateMutability": "view",
      "type": "function",
      "constant": true
    },
    {
      "inputs": [
        {
          "internalType": "uint256",
          "name": "_proposedGracePeriod",
          "type": "uint256"
        }
      ],
      "name": "startVoting",
      "outputs": [],
      "stateMutability": "nonpayable",
      "type": "function"
    },
    {
      "inputs": [],
      "name": "voteGracePeriod",
      "outputs": [],
      "stateMutability": "nonpayable",
      "type": "function"
    },
    {
      "inputs": [
        {
          "internalType": "address",
          "name": "_address",
          "type": "address"
        }
      ],
      "name": "voterHasVoted",
      "outputs": [
        {
          "internalType": "bool",
          "name": "",
          "type": "bool"
        }
      ],
      "stateMutability": "view",
      "type": "function",
      "constant": true
    },
    {
      "inputs": [],
      "name": "finalizeVote",
      "outputs": [],
      "stateMutability": "nonpayable",
      "type": "function"
    },
    {
      "inputs": [],
      "name": "getCurrentGracePeriod",
      "outputs": [
        {
          "internalType": "uint256",
          "name": "",
          "type": "uint256"
        }
      ],
      "stateMutability": "view",
      "type": "function",
      "constant": true
    },
    {
      "inputs": [],
      "name": "getProposedGracePeriod",
      "outputs": [
        {
          "internalType": "uint256",
          "name": "",
          "type": "uint256"
        }
      ],
      "stateMutability": "view",
      "type": "function",
      "constant": true
    }
  ],
  "bytecode": "0x60806040523480156200001157600080fd5b5060405162002de438038062002de483398181016040528101906200003791906200013c565b83600860006101000a81548173ffffffffffffffffffffffffffffffffffffffff021916908373ffffffffffffffffffffffffffffffffffffffff16021790555082600a8190555081600b819055508060048190555050505050620001ae565b600080fd5b600073ffffffffffffffffffffffffffffffffffffffff82169050919050565b6000620000c9826200009c565b9050919050565b620000db81620000bc565b8114620000e757600080fd5b50565b600081519050620000fb81620000d0565b92915050565b6000819050919050565b620001168162000101565b81146200012257600080fd5b50565b60008151905062000136816200010b565b92915050565b6000806000806080858703121562000159576200015862000097565b5b60006200016987828801620000ea565b94505060206200017c8782880162000125565b93505060406200018f8782880162000125565b9250506060620001a28782880162000125565b91505092959194509250565b612c2680620001be6000396000f3fe608060405234801561001057600080fd5b50600436106101425760003560e01c80638fbb38ff116100b8578063b915cb6c1161007c578063b915cb6c14610345578063ba4090de14610375578063c4d252f514610393578063dbd18388146103c4578063e751f271146103e2578063f851a4401461041357610142565b80638fbb38ff1461028b578063a1761664146102bb578063ada6e9f2146102d9578063b0a1c1c414610309578063b5677b421461032757610142565b8063442871131161010a57806344287113146101d9578063446f201e1461020957806354ef7f2d1461022757806367db86a51461023157806384f2f0c41461024f5780638da5cb5b1461026d57610142565b80631a7cd197146101475780632916f2b4146101515780632e0cf27b1461016f5780632fe71b861461019f5780633d2f5bda146101bd575b600080fd5b61014f610431565b005b61015961066e565b6040516101669190611dde565b60405180910390f35b61018960048036038101906101849190611e88565b610674565b6040516101969190611ef4565b60405180910390f35b6101a76106aa565b6040516101b49190612081565b60405180910390f35b6101d760048036038101906101d291906120a3565b61089d565b005b6101f360048036038101906101ee91906120d0565b610a0c565b6040516102009190611ef4565b60405180910390f35b610211610ebe565b60405161021e919061216f565b60405180910390f35b61022f610ee4565b005b61023961100a565b6040516102469190611dde565b60405180910390f35b610257611014565b6040516102649190611dde565b60405180910390f35b61027561101a565b6040516102829190612199565b60405180910390f35b6102a560048036038101906102a091906120a3565b611040565b6040516102b29190612199565b60405180910390f35b6102c361107f565b6040516102d09190612199565b60405180910390f35b6102f360048036038101906102ee91906121b4565b6110a5565b60405161030091906121f0565b60405180910390f35b610311611153565b60405161031e9190611dde565b60405180910390f35b61032f611159565b60405161033c9190611dde565b60405180910390f35b61035f600480360381019061035a9190612237565b61115f565b60405161036c91906122df565b60405180910390f35b61037d611270565b60405161038a9190611dde565b60405180910390f35b6103ad60048036038101906103a89190612237565b61127a565b6040516103bb9291906122fa565b60405180910390f35b6103cc61165b565b6040516103d99190611dde565b60405180910390f35b6103fc60048036038101906103f79190612237565b611665565b60405161040a9291906122fa565b60405180910390f35b61041b611abd565b6040516104289190612199565b60405180910390f35b600c5442101580156104455750600d544211155b610484576040517f08c379a000000000000000000000000000000000000000000000000000000000815260040161047b90612380565b60405180910390fd5b6000601254036104c9576040517f08c379a00000000000000000000000000000000000000000000000000000000081526004016104c0906123ec565b60405180910390fd5b600860009054906101000a900473ffffffffffffffffffffffffffffffffffffffff1673ffffffffffffffffffffffffffffffffffffffff166375cd51ed336040518263ffffffff1660e01b81526004016105249190612199565b602060405180830381865afa158015610541573d6000803e3d6000fd5b505050506040513d601f19601f820116820180604052508101906105659190612438565b6105a4576040517f08c379a000000000000000000000000000000000000000000000000000000000815260040161059b906124b1565b60405180910390fd5b6105ad336110a5565b156105ed576040517f08c379a00000000000000000000000000000000000000000000000000000000081526004016105e49061251d565b60405180910390fd5b6011339080600181540180825580915050600190039060005260206000200160009091909190916101000a81548173ffffffffffffffffffffffffffffffffffffffff021916908373ffffffffffffffffffffffffffffffffffffffff16021790555060105461065b611ae3565b1061066c5761066b601254611b1e565b5b565b600a5481565b600083838360405160200161068b9392919061253d565b6040516020818303038152906040528051906020012090509392505050565b6060600060025467ffffffffffffffff8111156106ca576106c9612574565b5b60405190808252806020026020018201604052801561070357816020015b6106f0611cb7565b8152602001906001900390816106e85790505b50905060005b600254811015610895576000806001600084815260200190815260200160002054815260200190815260200160002060040160009054906101000a900460ff161561088257600080600160008481526020019081526020016000205481526020019081526020016000206040518060c0016040529081600082015481526020016001820160009054906101000a900473ffffffffffffffffffffffffffffffffffffffff1673ffffffffffffffffffffffffffffffffffffffff1673ffffffffffffffffffffffffffffffffffffffff16815260200160028201548152602001600382015481526020016004820160009054906101000a900460ff161515151581526020016004820160019054906101000a900473ffffffffffffffffffffffffffffffffffffffff1673ffffffffffffffffffffffffffffffffffffffff1673ffffffffffffffffffffffffffffffffffffffff1681525050828281518110610876576108756125a3565b5b60200260200101819052505b808061088d90612601565b915050610709565b508091505090565b600a5481101580156108b15750600b548111155b6108f0576040517f08c379a00000000000000000000000000000000000000000000000000000000081526004016108e7906126bb565b60405180910390fd5b6004548103610934576040517f08c379a000000000000000000000000000000000000000000000000000000000815260040161092b9061274d565b60405180910390fd5b600f60009054906101000a900460ff1615610984576040517f08c379a000000000000000000000000000000000000000000000000000000000815260040161097b906127b9565b60405180910390fd5b61098c611b67565b42600c819055506078426109a091906127d9565b600d819055506001600f60006101000a81548160ff0219169083151502179055506109c9611bf4565b806012819055507fcae3278bf7174c45bcf59eaee8f153db11a04c8f14eef657b88ba3f0cde06d5d601254604051610a019190611dde565b60405180910390a150565b6000808211610a50576040517f08c379a0000000000000000000000000000000000000000000000000000000008152600401610a47906128a1565b60405180910390fd5b81600860009054906101000a900473ffffffffffffffffffffffffffffffffffffffff1673ffffffffffffffffffffffffffffffffffffffff1663b6aa680c336040518263ffffffff1660e01b8152600401610aac9190612199565b602060405180830381865afa158015610ac9573d6000803e3d6000fd5b505050506040513d601f19601f82011682018060405250810190610aed91906128d6565b11610b2d576040517f08c379a0000000000000000000000000000000000000000000000000000000008152600401610b249061294f565b60405180910390fd5b6000610b3a848442610674565b905060008082815260200190815260200160002060040160009054906101000a900460ff1615610ba157806040517f995042be000000000000000000000000000000000000000000000000000000008152600401610b989190611ef4565b60405180910390fd5b60006040518060c001604052808381526020018673ffffffffffffffffffffffffffffffffffffffff1681526020018581526020014281526020016001151581526020013373ffffffffffffffffffffffffffffffffffffffff168152509050806000808481526020019081526020016000206000820151816000015560208201518160010160006101000a81548173ffffffffffffffffffffffffffffffffffffffff021916908373ffffffffffffffffffffffffffffffffffffffff160217905550604082015181600201556060820151816003015560808201518160040160006101000a81548160ff02191690831515021790555060a08201518160040160016101000a81548173ffffffffffffffffffffffffffffffffffffffff021916908373ffffffffffffffffffffffffffffffffffffffff1602179055509050508160016000600254815260200190815260200160002081905550600084600860009054906101000a900473ffffffffffffffffffffffffffffffffffffffff1673ffffffffffffffffffffffffffffffffffffffff1663b6aa680c336040518263ffffffff1660e01b8152600401610d5b9190612199565b602060405180830381865afa158015610d78573d6000803e3d6000fd5b505050506040513d601f19601f82011682018060405250810190610d9c91906128d6565b610da6919061296f565b90508573ffffffffffffffffffffffffffffffffffffffff16837f29829d31c3b36d4a4d8cba00b41f628ae184b474a5a3a12296efe0e31da83ddd8742604051610df19291906129a3565b60405180910390a3600860009054906101000a900473ffffffffffffffffffffffffffffffffffffffff1673ffffffffffffffffffffffffffffffffffffffff166333d07dc933836040518363ffffffff1660e01b8152600401610e569291906122fa565b6020604051808303816000875af1158015610e75573d6000803e3d6000fd5b505050506040513d601f19601f82011682018060405250810190610e999190612438565b5060026000815480929190610ead90612601565b919050555082935050505092915050565b600860009054906101000a900473ffffffffffffffffffffffffffffffffffffffff1681565b600d544211610f28576040517f08c379a0000000000000000000000000000000000000000000000000000000008152600401610f1f90612a18565b60405180910390fd5b600060125403610f6d576040517f08c379a0000000000000000000000000000000000000000000000000000000008152600401610f6490612a84565b60405180910390fd5b601054610f78611ae3565b10610fff57610f88601254611b1e565b7fcc2c34a1adf0911114053f75b51b2b1f8fc9ef9e25f0a5f12f210032b5b0a1b2601254604051610fb99190611dde565b60405180910390a17f886c75dbb46b8e34257da373ac60898ecebd9682c7dfeb9c4d65383b92d5ff2d601254604051610ff29190611dde565b60405180910390a1611000565b5b611008611b67565b565b6000600454905090565b600b5481565b600960009054906101000a900473ffffffffffffffffffffffffffffffffffffffff1681565b6011818154811061105057600080fd5b906000526020600020016000915054906101000a900473ffffffffffffffffffffffffffffffffffffffff1681565b600560009054906101000a900473ffffffffffffffffffffffffffffffffffffffff1681565b600080600090505b601180549050811015611148578273ffffffffffffffffffffffffffffffffffffffff16601182815481106110e5576110e46125a3565b5b9060005260206000200160009054906101000a900473ffffffffffffffffffffffffffffffffffffffff1673ffffffffffffffffffffffffffffffffffffffff160361113557600191505061114e565b808061114090612601565b9150506110ad565b50600090505b919050565b60075481565b60065481565b611167611cb7565b6000808381526020019081526020016000206040518060c0016040529081600082015481526020016001820160009054906101000a900473ffffffffffffffffffffffffffffffffffffffff1673ffffffffffffffffffffffffffffffffffffffff1673ffffffffffffffffffffffffffffffffffffffff16815260200160028201548152602001600382015481526020016004820160009054906101000a900460ff161515151581526020016004820160019054906101000a900473ffffffffffffffffffffffffffffffffffffffff1673ffffffffffffffffffffffffffffffffffffffff1673ffffffffffffffffffffffffffffffffffffffff16815250509050919050565b6000601254905090565b60008060008084815260200190815260200160002060040160009054906101000a900460ff166112e157826040517f0995c9d50000000000000000000000000000000000000000000000000000000081526004016112d89190611ef4565b60405180910390fd5b60008060008581526020019081526020016000206040518060c0016040529081600082015481526020016001820160009054906101000a900473ffffffffffffffffffffffffffffffffffffffff1673ffffffffffffffffffffffffffffffffffffffff1673ffffffffffffffffffffffffffffffffffffffff16815260200160028201548152602001600382015481526020016004820160009054906101000a900460ff161515151581526020016004820160019054906101000a900473ffffffffffffffffffffffffffffffffffffffff1673ffffffffffffffffffffffffffffffffffffffff1673ffffffffffffffffffffffffffffffffffffffff1681525050905060045481606001516113f991906127d9565b421061144f5742600454826060015161141291906127d9565b6040517f92ae26d10000000000000000000000000000000000000000000000000000000081526004016114469291906129a3565b60405180910390fd5b600080600086815260200190815260200160002060040160006101000a81548160ff02191690831515021790555060008160400151600860009054906101000a900473ffffffffffffffffffffffffffffffffffffffff1673ffffffffffffffffffffffffffffffffffffffff1663b6aa680c8460a001516040518263ffffffff1660e01b81526004016114e39190612199565b602060405180830381865afa158015611500573d6000803e3d6000fd5b505050506040513d601f19601f8201168201806040525081019061152491906128d6565b61152e91906127d9565b90506000600860009054906101000a900473ffffffffffffffffffffffffffffffffffffffff1673ffffffffffffffffffffffffffffffffffffffff166333d07dc98460a00151846040518363ffffffff1660e01b81526004016115939291906122fa565b6020604051808303816000875af11580156115b2573d6000803e3d6000fd5b505050506040513d601f19601f820116820180604052508101906115d69190612438565b9050857fe8d9861dbc9c663ed3accd261bbe2fe01e0d3d9e5f51fa38523b265c7757a93a60405160405180910390a280611645576040517f08c379a000000000000000000000000000000000000000000000000000000000815260040161163c90612b16565b60405180910390fd5b8260a00151836040015194509450505050915091565b6000600454905090565b60008060008084815260200190815260200160002060040160009054906101000a900460ff166116cc57826040517f0995c9d50000000000000000000000000000000000000000000000000000000081526004016116c39190611ef4565b60405180910390fd5b60008060008581526020019081526020016000206040518060c0016040529081600082015481526020016001820160009054906101000a900473ffffffffffffffffffffffffffffffffffffffff1673ffffffffffffffffffffffffffffffffffffffff1673ffffffffffffffffffffffffffffffffffffffff16815260200160028201548152602001600382015481526020016004820160009054906101000a900460ff161515151581526020016004820160019054906101000a900473ffffffffffffffffffffffffffffffffffffffff1673ffffffffffffffffffffffffffffffffffffffff1673ffffffffffffffffffffffffffffffffffffffff168152505090508060600151421015611821574281606001516040517f035fce5b0000000000000000000000000000000000000000000000000000000081526004016118189291906129a3565b60405180910390fd5b600454816060015161183391906127d9565b42101561188a5742600454826060015161184d91906127d9565b6040517f7dc4f9e00000000000000000000000000000000000000000000000000000000081526004016118819291906129a3565b60405180910390fd5b600080600086815260200190815260200160002060040160006101000a81548160ff02191690831515021790555060008160400151600860009054906101000a900473ffffffffffffffffffffffffffffffffffffffff1673ffffffffffffffffffffffffffffffffffffffff1663b6aa680c84602001516040518263ffffffff1660e01b815260040161191e9190612199565b602060405180830381865afa15801561193b573d6000803e3d6000fd5b505050506040513d601f19601f8201168201806040525081019061195f91906128d6565b61196991906127d9565b90506000600860009054906101000a900473ffffffffffffffffffffffffffffffffffffffff1673ffffffffffffffffffffffffffffffffffffffff166333d07dc98460200151846040518363ffffffff1660e01b81526004016119ce9291906122fa565b6020604051808303816000875af11580156119ed573d6000803e3d6000fd5b505050506040513d601f19601f82011682018060405250810190611a119190612438565b905080611a4a576040517fd9b4f81e00000000000000000000000000000000000000000000000000000000815260040160405180910390fd5b826020015173ffffffffffffffffffffffffffffffffffffffff16867f12c1a2c49028795b0ce8a17c5a4476dd1224c3ab775a1eed866d7ff04de03e2185604001518660600151604051611a9f9291906129a3565b60405180910390a38260200151836040015194509450505050915091565b600360009054906101000a900473ffffffffffffffffffffffffffffffffffffffff1681565b6000805b601180549050811015611b1a5760118054905082611b0591906127d9565b91508080611b1290612601565b915050611ae7565b5090565b806004819055507f886c75dbb46b8e34257da373ac60898ecebd9682c7dfeb9c4d65383b92d5ff2d81604051611b549190611dde565b60405180910390a1611b64611b67565b50565b60006012819055506000600f60006101000a81548160ff0219169083151502179055506000600d81905550600067ffffffffffffffff811115611bad57611bac612574565b5b604051908082528060200260200182016040528015611bdb5781602001602082028036833780820191505090505b5060119080519060200190611bf1929190611d1e565b50565b6000600860009054906101000a900473ffffffffffffffffffffffffffffffffffffffff1673ffffffffffffffffffffffffffffffffffffffff1663a98e4e776040518163ffffffff1660e01b8152600401602060405180830381865afa158015611c63573d6000803e3d6000fd5b505050506040513d601f19601f82011682018060405250810190611c8791906128d6565b905060646063603383611c9a9190612b36565b611ca491906127d9565b611cae9190612bbf565b60108190555050565b6040518060c0016040528060008019168152602001600073ffffffffffffffffffffffffffffffffffffffff1681526020016000815260200160008152602001600015158152602001600073ffffffffffffffffffffffffffffffffffffffff1681525090565b828054828255906000526020600020908101928215611d97579160200282015b82811115611d965782518260006101000a81548173ffffffffffffffffffffffffffffffffffffffff021916908373ffffffffffffffffffffffffffffffffffffffff16021790555091602001919060010190611d3e565b5b509050611da49190611da8565b5090565b5b80821115611dc1576000816000905550600101611da9565b5090565b6000819050919050565b611dd881611dc5565b82525050565b6000602082019050611df36000830184611dcf565b92915050565b600080fd5b600073ffffffffffffffffffffffffffffffffffffffff82169050919050565b6000611e2982611dfe565b9050919050565b611e3981611e1e565b8114611e4457600080fd5b50565b600081359050611e5681611e30565b92915050565b611e6581611dc5565b8114611e7057600080fd5b50565b600081359050611e8281611e5c565b92915050565b600080600060608486031215611ea157611ea0611df9565b5b6000611eaf86828701611e47565b9350506020611ec086828701611e73565b9250506040611ed186828701611e73565b9150509250925092565b6000819050919050565b611eee81611edb565b82525050565b6000602082019050611f096000830184611ee5565b92915050565b600081519050919050565b600082825260208201905092915050565b6000819050602082019050919050565b611f4481611edb565b82525050565b611f5381611e1e565b82525050565b611f6281611dc5565b82525050565b60008115159050919050565b611f7d81611f68565b82525050565b60c082016000820151611f996000850182611f3b565b506020820151611fac6020850182611f4a565b506040820151611fbf6040850182611f59565b506060820151611fd26060850182611f59565b506080820151611fe56080850182611f74565b5060a0820151611ff860a0850182611f4a565b50505050565b600061200a8383611f83565b60c08301905092915050565b6000602082019050919050565b600061202e82611f0f565b6120388185611f1a565b935061204383611f2b565b8060005b8381101561207457815161205b8882611ffe565b975061206683612016565b925050600181019050612047565b5085935050505092915050565b6000602082019050818103600083015261209b8184612023565b905092915050565b6000602082840312156120b9576120b8611df9565b5b60006120c784828501611e73565b91505092915050565b600080604083850312156120e7576120e6611df9565b5b60006120f585828601611e47565b925050602061210685828601611e73565b9150509250929050565b6000819050919050565b600061213561213061212b84611dfe565b612110565b611dfe565b9050919050565b60006121478261211a565b9050919050565b60006121598261213c565b9050919050565b6121698161214e565b82525050565b60006020820190506121846000830184612160565b92915050565b61219381611e1e565b82525050565b60006020820190506121ae600083018461218a565b92915050565b6000602082840312156121ca576121c9611df9565b5b60006121d884828501611e47565b91505092915050565b6121ea81611f68565b82525050565b600060208201905061220560008301846121e1565b92915050565b61221481611edb565b811461221f57600080fd5b50565b6000813590506122318161220b565b92915050565b60006020828403121561224d5761224c611df9565b5b600061225b84828501612222565b91505092915050565b60c08201600082015161227a6000850182611f3b565b50602082015161228d6020850182611f4a565b5060408201516122a06040850182611f59565b5060608201516122b36060850182611f59565b5060808201516122c66080850182611f74565b5060a08201516122d960a0850182611f4a565b50505050565b600060c0820190506122f46000830184612264565b92915050565b600060408201905061230f600083018561218a565b61231c6020830184611dcf565b9392505050565b600082825260208201905092915050565b7f566f74696e67207068617365206973206e6f74206163746976652e0000000000600082015250565b600061236a601b83612323565b915061237582612334565b602082019050919050565b600060208201905081810360008301526123998161235d565b9050919050565b7f4e6f20477261636520506572696f642070726f706f7365642e00000000000000600082015250565b60006123d6601983612323565b91506123e1826123a0565b602082019050919050565b60006020820190508181036000830152612405816123c9565b9050919050565b61241581611f68565b811461242057600080fd5b50565b6000815190506124328161240c565b92915050565b60006020828403121561244e5761244d611df9565b5b600061245c84828501612423565b91505092915050565b7f4f6e6c7920726567697374657265642075736572732063616e20766f74652e00600082015250565b600061249b601f83612323565b91506124a682612465565b602082019050919050565b600060208201905081810360008301526124ca8161248e565b9050919050565b7f416c726561647920766f7465642e000000000000000000000000000000000000600082015250565b6000612507600e83612323565b9150612512826124d1565b602082019050919050565b60006020820190508181036000830152612536816124fa565b9050919050565b6000606082019050612552600083018661218a565b61255f6020830185611dcf565b61256c6040830184611dcf565b949350505050565b7f4e487b7100000000000000000000000000000000000000000000000000000000600052604160045260246000fd5b7f4e487b7100000000000000000000000000000000000000000000000000000000600052603260045260246000fd5b7f4e487b7100000000000000000000000000000000000000000000000000000000600052601160045260246000fd5b600061260c82611dc5565b91507fffffffffffffffffffffffffffffffffffffffffffffffffffffffffffffffff820361263e5761263d6125d2565b5b600182019050919050565b7f50726f706f73656420677261636520506572696f64204f7574206f662072616e60008201527f6765000000000000000000000000000000000000000000000000000000000000602082015250565b60006126a5602283612323565b91506126b082612649565b604082019050919050565b600060208201905081810360008301526126d481612698565b9050919050565b7f50726f706f73656420677261636520706572696f642073616d6520776974682060008201527f63757272656e7420677261636520706572696f64000000000000000000000000602082015250565b6000612737603483612323565b9150612742826126db565b604082019050919050565b600060208201905081810360008301526127668161272a565b9050919050565b7f566f74696e6720697320616c7265616479206163746976652e00000000000000600082015250565b60006127a3601983612323565b91506127ae8261276d565b602082019050919050565b600060208201905081810360008301526127d281612796565b9050919050565b60006127e482611dc5565b91506127ef83611dc5565b9250827fffffffffffffffffffffffffffffffffffffffffffffffffffffffffffffffff03821115612824576128236125d2565b5b828201905092915050565b7f45746865722076616c7565206d7573742062652067726561746572207468616e60008201527f20302e0000000000000000000000000000000000000000000000000000000000602082015250565b600061288b602383612323565b91506128968261282f565b604082019050919050565b600060208201905081810360008301526128ba8161287e565b9050919050565b6000815190506128d081611e5c565b92915050565b6000602082840312156128ec576128eb611df9565b5b60006128fa848285016128c1565b91505092915050565b7f496e73756666696369656e742042616c616e6365000000000000000000000000600082015250565b6000612939601483612323565b915061294482612903565b602082019050919050565b600060208201905081810360008301526129688161292c565b9050919050565b600061297a82611dc5565b915061298583611dc5565b925082821015612998576129976125d2565b5b828203905092915050565b60006040820190506129b86000830185611dcf565b6129c56020830184611dcf565b9392505050565b7f566f74696e6720706572696f6420686173206e6f7420656e6465642e00000000600082015250565b6000612a02601c83612323565b9150612a0d826129cc565b602082019050919050565b60006020820190508181036000830152612a31816129f5565b9050919050565b7f4e6f2070726f706f73656420677261636520706572696f642e00000000000000600082015250565b6000612a6e601983612323565b9150612a7982612a38565b602082019050919050565b60006020820190508181036000830152612a9d81612a61565b9050919050565b7f4661696c656420746f2072657475726e20457468657220746f206465706f736960008201527f746f720000000000000000000000000000000000000000000000000000000000602082015250565b6000612b00602383612323565b9150612b0b82612aa4565b604082019050919050565b60006020820190508181036000830152612b2f81612af3565b9050919050565b6000612b4182611dc5565b9150612b4c83611dc5565b9250817fffffffffffffffffffffffffffffffffffffffffffffffffffffffffffffffff0483118215151615612b8557612b846125d2565b5b828202905092915050565b7f4e487b7100000000000000000000000000000000000000000000000000000000600052601260045260246000fd5b6000612bca82611dc5565b9150612bd583611dc5565b925082612be557612be4612b90565b5b82820490509291505056fea2646970667358221220c745ed9658cf376536b1cdb5b5d688ff00583f38030745434351eba4b5031a1764736f6c634300080d0033",
  "immutableReferences": {},
  "source": "// SPDX-License-Identifier: MIT\r\npragma solidity ^0.8.0;\r\nimport \"./AccountManager.sol\";\r\n\r\ncontract Timelock {\r\n    constructor(\r\n        address _accountsContractAddress,\r\n        uint256 _minGracePeriod,\r\n        uint256 _maxGracePeriod,\r\n        uint256 _defaultGracePeriod\r\n    ) {\r\n        // admin = msg.sender;\r\n        accountsContract = AccountManager(_accountsContractAddress);\r\n        minGracePeriod = _minGracePeriod;\r\n        maxGracePeriod = _maxGracePeriod;\r\n        gracePeriod = _defaultGracePeriod;\r\n    }\r\n\r\n    //Transaction--------------------------------------------------------------\r\n    error AlreadyQueuedError(bytes32 txId);\r\n    error NotQueuedError(bytes32 txId);\r\n    error TimestampNotPassedError(uint256 blockTimestamp, uint256 timestamp);\r\n    error TimestampNotMatureError(uint256 blockTimestamp, uint256 expiresAt);\r\n    error TimestampExpiredError(uint256 blockTimestamp, uint256 expiresAt);\r\n    error TxFailedError();\r\n    error NotAdminError();\r\n\r\n    event Queue(\r\n        bytes32 indexed txId,\r\n        address indexed target,\r\n        uint256 value,\r\n        uint256 timestamp\r\n    );\r\n    event Execute(\r\n        bytes32 indexed txId,\r\n        address indexed target,\r\n        uint256 value,\r\n        uint256 timestamp\r\n    );\r\n    event Cancel(bytes32 indexed txId);\r\n    event Deposited(address indexed user, uint256 amount);\r\n\r\n    // Struct to store transaction details\r\n    struct Tx {\r\n        bytes32 txId;\r\n        address target;\r\n        uint256 value;\r\n        uint256 timestamp;\r\n        bool queued;\r\n        address depositor;\r\n    }\r\n\r\n    // Mapping of transaction IDs to transaction data\r\n    mapping(bytes32 => Tx) private txs;\r\n    mapping(uint => bytes32) private indexToTxMapping;\r\n    uint txCount;\r\n    address public admin;\r\n\r\n    uint256 private gracePeriod;\r\n\r\n    address public whoDeposited;\r\n    uint256 public depositAmt;\r\n    uint256 public accountBalance;\r\n\r\n    function getGracePeriod() public view returns (uint256) {\r\n        return gracePeriod;\r\n    }\r\n\r\n    function getTxId(\r\n        address _target,\r\n        uint256 _value,\r\n        uint256 _timestamp\r\n    ) public pure returns (bytes32) {\r\n        return keccak256(abi.encode(_target, _value,_timestamp));\r\n    }\r\n\r\n    function queue(address _target, uint256 _value) external returns (bytes32) {\r\n        require(_value > 0, \"Ether value must be greater than 0.\");\r\n        require(\r\n            accountsContract.getAccountDeposit(msg.sender) > _value,\r\n            \"Insufficient Balance\"\r\n        );\r\n        // Generate the transaction ID based on the target and value\r\n        bytes32 txId = getTxId(_target, _value, block.timestamp);\r\n\r\n        // Ensure the transaction is not already queued\r\n        if (txs[txId].queued) {\r\n            revert AlreadyQueuedError(txId);\r\n        }\r\n\r\n        // Store the new transaction\r\n        Tx memory currentTx = Tx(\r\n            txId,\r\n            _target,\r\n            _value,\r\n            block.timestamp,\r\n            true,\r\n            msg.sender\r\n        );\r\n        txs[txId] = currentTx;\r\n        indexToTxMapping[txCount] = txId;\r\n\r\n        uint256 newAmount = accountsContract.getAccountDeposit(msg.sender) -\r\n            _value;\r\n        // Emit the Queue event\r\n        emit Queue(txId, _target, _value, block.timestamp);\r\n        accountsContract.depositUpdate(msg.sender, newAmount);\r\n        txCount++;\r\n        return txId;\r\n    }\r\n\r\n    function getTxArr() public view returns (Tx[] memory) {\r\n        Tx[] memory arr = new Tx[](txCount);\r\n        for (uint i = 0; i < txCount; i++) {\r\n            if (txs[indexToTxMapping[i]].queued) {\r\n                arr[i] = txs[indexToTxMapping[i]];\r\n            }\r\n        }\r\n        return arr;\r\n    }\r\n\r\n    function execute(\r\n        bytes32 _txId\r\n    ) external returns (address target, uint256 value) {\r\n        // Ensure the transaction is actually queued\r\n        if (!txs[_txId].queued) {\r\n            revert NotQueuedError(_txId);\r\n        }\r\n\r\n        Tx memory currentTx = txs[_txId];\r\n\r\n        // Ensure the timestamp has passed for execution\r\n        if (block.timestamp < currentTx.timestamp) {\r\n            revert TimestampNotPassedError(\r\n                block.timestamp,\r\n                currentTx.timestamp\r\n            );\r\n        }\r\n\r\n        // Ensure the transaction is executed after the grace period\r\n        if (block.timestamp < currentTx.timestamp + gracePeriod) {\r\n            revert TimestampNotMatureError(\r\n                block.timestamp,\r\n                currentTx.timestamp + gracePeriod\r\n            );\r\n        }\r\n\r\n        // Mark the transaction as executed\r\n        txs[_txId].queued = false;\r\n        // Execute the transaction using the .call function\r\n\r\n        uint256 newAmount = accountsContract.getAccountDeposit(\r\n            currentTx.target\r\n        ) + currentTx.value;\r\n        bool success = accountsContract.depositUpdate(\r\n            currentTx.target,\r\n            newAmount\r\n        );\r\n        if (!success) {\r\n            revert TxFailedError();\r\n        }\r\n\r\n        // Emit the Execute event\r\n        emit Execute(\r\n            _txId,\r\n            currentTx.target,\r\n            currentTx.value,\r\n            currentTx.timestamp\r\n        );\r\n\r\n        return (currentTx.target, currentTx.value);\r\n    }\r\n\r\n    function cancel(\r\n        bytes32 _txId\r\n    ) external returns (address sender, uint256 value) {\r\n        // Ensure the transaction is queued\r\n        if (!txs[_txId].queued) {\r\n            revert NotQueuedError(_txId);\r\n        }\r\n\r\n        Tx memory currentTx = txs[_txId];\r\n        // Ensure the transaction is executed in the grace period\r\n        if (block.timestamp >= currentTx.timestamp + gracePeriod) {\r\n            revert TimestampExpiredError(\r\n                block.timestamp,\r\n                currentTx.timestamp + gracePeriod\r\n            );\r\n        }\r\n        // Mark the transaction as canceled\r\n\r\n        txs[_txId].queued = false;\r\n\r\n        uint256 newAmount = accountsContract.getAccountDeposit(\r\n            currentTx.depositor\r\n        ) + currentTx.value;\r\n        bool success = accountsContract.depositUpdate(\r\n            currentTx.depositor,\r\n            newAmount\r\n        );\r\n        // Emit the Cancel event\r\n        emit Cancel(_txId);\r\n        require(success, \"Failed to return Ether to depositor\");\r\n        return (currentTx.depositor, currentTx.value);\r\n    }\r\n\r\n    function getTx(\r\n        bytes32 _txId\r\n    ) external view returns (Tx memory transaction) {\r\n        return txs[_txId];\r\n    }\r\n\r\n    //Grace Period Voting-------------------------------------------------\r\n    AccountManager public accountsContract;\r\n    event NewGracePeriodProposed(uint256 newGracePeriod);\r\n    event GracePeriodChanged(uint256 gracePeriod);\r\n    event VotingFinalized(uint256 newGracePeriod);\r\n    address public owner;\r\n    uint256 public minGracePeriod;\r\n    uint256 public maxGracePeriod;\r\n\r\n    uint256 private votingStartTime;\r\n    uint256 private votingEndTime;\r\n    uint256 private proposalDeadline;\r\n    bool private votingActive;\r\n    uint256 private voteThreshold;\r\n    address[] public voted;\r\n    uint256 private proposedGracePeriod;\r\n    modifier onlyAdmin() {\r\n        require(\r\n            msg.sender == accountsContract.getAdmin(),\r\n            \"Not Contract Admin\"\r\n        );\r\n        _;\r\n    }\r\n\r\n    modifier duringVotingPhase() {\r\n        require(\r\n            block.timestamp >= votingStartTime &&\r\n                block.timestamp <= votingEndTime,\r\n            \"Voting phase is not active.\"\r\n        );\r\n        _;\r\n    }\r\n\r\n    modifier afterVotingPhase() {\r\n        require(\r\n            block.timestamp > votingEndTime,\r\n            \"Voting period has not ended.\"\r\n        );\r\n        _;\r\n    }\r\n\r\n    function startVoting(uint256 _proposedGracePeriod) public {\r\n        require(\r\n            (_proposedGracePeriod >= minGracePeriod &&\r\n                _proposedGracePeriod <= maxGracePeriod),\r\n            \"Proposed grace Period Out of range\"\r\n        );\r\n        require(\r\n            _proposedGracePeriod != gracePeriod,\r\n            \"Proposed grace period same with current grace period\"\r\n        );\r\n        require(!votingActive, \"Voting is already active.\");\r\n        resetVoting();\r\n        votingStartTime = block.timestamp;\r\n        votingEndTime = block.timestamp + 120; // Total of 2 minutes\r\n\r\n        votingActive = true;\r\n\r\n        updateVoteThreshold();\r\n        proposedGracePeriod = _proposedGracePeriod;\r\n        emit NewGracePeriodProposed(proposedGracePeriod);\r\n    }\r\n\r\n    function updateVoteThreshold() internal {\r\n        uint256 totalRegisteredUsers = accountsContract.getAccountCount();\r\n        voteThreshold = (totalRegisteredUsers * 51 + 99) / 100; // Equivalent to rounding up (51% rule)\r\n    }\r\n\r\n    function voteGracePeriod() public duringVotingPhase {\r\n        require(proposedGracePeriod != 0, \"No Grace Period proposed.\");\r\n        require(\r\n            accountsContract.accountExists(msg.sender),\r\n            \"Only registered users can vote.\"\r\n        );\r\n        require(!voterHasVoted(msg.sender), \"Already voted.\");\r\n\r\n        voted.push(msg.sender);\r\n\r\n        // Check if vote threshold has been met\r\n        if (getTotalVotes() >= voteThreshold) {\r\n            finalizeGPByThresHold(proposedGracePeriod);\r\n        }\r\n    }\r\n\r\n    function voterHasVoted(address _address) public view returns (bool) {\r\n        for (uint256 i = 0; i < voted.length; i++) {\r\n            if (voted[i] == _address) {\r\n                return true;\r\n            }\r\n        }\r\n\r\n        return false;\r\n    }\r\n\r\n    function finalizeGPByThresHold(uint256 _proposedGracePeriod) internal {\r\n        gracePeriod = _proposedGracePeriod;\r\n\r\n        emit VotingFinalized(_proposedGracePeriod);\r\n        resetVoting();\r\n    }\r\n\r\n    // FINALIZE the voting process after 2 minutes\r\n    function finalizeVote() public afterVotingPhase {\r\n        require(proposedGracePeriod != 0, \"No proposed grace period.\");\r\n        if (getTotalVotes() >= voteThreshold) {\r\n            finalizeGPByThresHold(proposedGracePeriod);\r\n            emit GracePeriodChanged(proposedGracePeriod);\r\n            emit VotingFinalized(proposedGracePeriod);\r\n        } else {\r\n            // require(false, \"Total Votes is not reached the threshold\");\r\n        }\r\n\r\n        resetVoting();\r\n    }\r\n\r\n    function getCurrentGracePeriod() public view returns (uint256) {\r\n        return gracePeriod;\r\n    }\r\n\r\n    function getProposedGracePeriod() public view returns (uint256) {\r\n        return proposedGracePeriod;\r\n    }\r\n\r\n    function resetVoting() internal {\r\n        proposedGracePeriod = 0;\r\n        votingActive = false;\r\n        votingEndTime = 0;\r\n        voted = new address[](0);\r\n    }\r\n\r\n    function getTotalVotes() internal view returns (uint256 totalVotes) {\r\n        totalVotes = 0;\r\n        for (uint256 i = 0; i < voted.length; i++) {\r\n            totalVotes += voted.length;\r\n        }\r\n\r\n        return totalVotes;\r\n    }\r\n}\r\n",
  "sourcePath": "C:\\Users\\quint\\vscode\\My Projects\\Timelock\\contracts\\Timelock.sol",
  "compiler": {
    "name": "solc",
    "version": "0.8.13+commit.abaa5c0e.Emscripten.clang"
  },
  "schemaVersion": "3.4.16",
  "updatedAt": "2024-09-22T16:01:19.692Z",
  "networkType": "ethereum",
  "devdoc": {
    "kind": "dev",
    "methods": {},
    "version": 1
  },
  "userdoc": {
    "kind": "user",
    "methods": {},
    "version": 1
  }
}