{
  "contractName": "Timelock",
  "abi": [
    {
      "inputs": [
        {
          "internalType": "address",
          "name": "_accountsContractAddress",
          "type": "address"
        },
        {
          "internalType": "uint256",
          "name": "_minGracePeriod",
          "type": "uint256"
        },
        {
          "internalType": "uint256",
          "name": "_maxGracePeriod",
          "type": "uint256"
        },
        {
          "internalType": "uint256",
          "name": "_defaultGracePeriod",
          "type": "uint256"
        }
      ],
      "stateMutability": "nonpayable",
      "type": "constructor"
    },
    {
      "inputs": [
        {
          "internalType": "bytes32",
          "name": "txId",
          "type": "bytes32"
        }
      ],
      "name": "AlreadyQueuedError",
      "type": "error"
    },
    {
      "inputs": [],
      "name": "NotAdminError",
      "type": "error"
    },
    {
      "inputs": [
        {
          "internalType": "bytes32",
          "name": "txId",
          "type": "bytes32"
        }
      ],
      "name": "NotQueuedError",
      "type": "error"
    },
    {
      "inputs": [
        {
          "internalType": "uint256",
          "name": "blockTimestamp",
          "type": "uint256"
        },
        {
          "internalType": "uint256",
          "name": "expiresAt",
          "type": "uint256"
        }
      ],
      "name": "TimestampExpiredError",
      "type": "error"
    },
    {
      "inputs": [
        {
          "internalType": "uint256",
          "name": "blockTimestamp",
          "type": "uint256"
        },
        {
          "internalType": "uint256",
          "name": "expiresAt",
          "type": "uint256"
        }
      ],
      "name": "TimestampNotMatureError",
      "type": "error"
    },
    {
      "inputs": [
        {
          "internalType": "uint256",
          "name": "blockTimestamp",
          "type": "uint256"
        },
        {
          "internalType": "uint256",
          "name": "timestamp",
          "type": "uint256"
        }
      ],
      "name": "TimestampNotPassedError",
      "type": "error"
    },
    {
      "inputs": [],
      "name": "TxFailedError",
      "type": "error"
    },
    {
      "anonymous": false,
      "inputs": [
        {
          "indexed": true,
          "internalType": "bytes32",
          "name": "txId",
          "type": "bytes32"
        }
      ],
      "name": "Cancel",
      "type": "event"
    },
    {
      "anonymous": false,
      "inputs": [
        {
          "indexed": true,
          "internalType": "address",
          "name": "user",
          "type": "address"
        },
        {
          "indexed": false,
          "internalType": "uint256",
          "name": "amount",
          "type": "uint256"
        }
      ],
      "name": "Deposited",
      "type": "event"
    },
    {
      "anonymous": false,
      "inputs": [
        {
          "indexed": true,
          "internalType": "bytes32",
          "name": "txId",
          "type": "bytes32"
        },
        {
          "indexed": true,
          "internalType": "address",
          "name": "target",
          "type": "address"
        },
        {
          "indexed": false,
          "internalType": "uint256",
          "name": "value",
          "type": "uint256"
        },
        {
          "indexed": false,
          "internalType": "uint256",
          "name": "timestamp",
          "type": "uint256"
        }
      ],
      "name": "Execute",
      "type": "event"
    },
    {
      "anonymous": false,
      "inputs": [
        {
          "indexed": false,
          "internalType": "uint256",
          "name": "gracePeriod",
          "type": "uint256"
        }
      ],
      "name": "GracePeriodChanged",
      "type": "event"
    },
    {
      "anonymous": false,
      "inputs": [
        {
          "indexed": false,
          "internalType": "uint256",
          "name": "newGracePeriod",
          "type": "uint256"
        }
      ],
      "name": "NewGracePeriodProposed",
      "type": "event"
    },
    {
      "anonymous": false,
      "inputs": [
        {
          "indexed": true,
          "internalType": "bytes32",
          "name": "txId",
          "type": "bytes32"
        },
        {
          "indexed": true,
          "internalType": "address",
          "name": "target",
          "type": "address"
        },
        {
          "indexed": false,
          "internalType": "uint256",
          "name": "value",
          "type": "uint256"
        },
        {
          "indexed": false,
          "internalType": "uint256",
          "name": "timestamp",
          "type": "uint256"
        }
      ],
      "name": "Queue",
      "type": "event"
    },
    {
      "anonymous": false,
      "inputs": [
        {
          "indexed": false,
          "internalType": "uint256",
          "name": "newGracePeriod",
          "type": "uint256"
        }
      ],
      "name": "VotingFinalized",
      "type": "event"
    },
    {
      "inputs": [],
      "name": "accountBalance",
      "outputs": [
        {
          "internalType": "uint256",
          "name": "",
          "type": "uint256"
        }
      ],
      "stateMutability": "view",
      "type": "function",
      "constant": true
    },
    {
      "inputs": [],
      "name": "accountsContract",
      "outputs": [
        {
          "internalType": "contract AccountManager",
          "name": "",
          "type": "address"
        }
      ],
      "stateMutability": "view",
      "type": "function",
      "constant": true
    },
    {
      "inputs": [],
      "name": "admin",
      "outputs": [
        {
          "internalType": "address",
          "name": "",
          "type": "address"
        }
      ],
      "stateMutability": "view",
      "type": "function",
      "constant": true
    },
    {
      "inputs": [],
      "name": "depositAmt",
      "outputs": [
        {
          "internalType": "uint256",
          "name": "",
          "type": "uint256"
        }
      ],
      "stateMutability": "view",
      "type": "function",
      "constant": true
    },
    {
      "inputs": [],
      "name": "maxGracePeriod",
      "outputs": [
        {
          "internalType": "uint256",
          "name": "",
          "type": "uint256"
        }
      ],
      "stateMutability": "view",
      "type": "function",
      "constant": true
    },
    {
      "inputs": [],
      "name": "minGracePeriod",
      "outputs": [
        {
          "internalType": "uint256",
          "name": "",
          "type": "uint256"
        }
      ],
      "stateMutability": "view",
      "type": "function",
      "constant": true
    },
    {
      "inputs": [],
      "name": "owner",
      "outputs": [
        {
          "internalType": "address",
          "name": "",
          "type": "address"
        }
      ],
      "stateMutability": "view",
      "type": "function",
      "constant": true
    },
    {
      "inputs": [
        {
          "internalType": "uint256",
          "name": "",
          "type": "uint256"
        }
      ],
      "name": "voted",
      "outputs": [
        {
          "internalType": "address",
          "name": "",
          "type": "address"
        }
      ],
      "stateMutability": "view",
      "type": "function",
      "constant": true
    },
    {
      "inputs": [],
      "name": "whoDeposited",
      "outputs": [
        {
          "internalType": "address",
          "name": "",
          "type": "address"
        }
      ],
      "stateMutability": "view",
      "type": "function",
      "constant": true
    },
    {
      "inputs": [],
      "name": "getGracePeriod",
      "outputs": [
        {
          "internalType": "uint256",
          "name": "",
          "type": "uint256"
        }
      ],
      "stateMutability": "view",
      "type": "function",
      "constant": true
    },
    {
      "inputs": [
        {
          "internalType": "address",
          "name": "_target",
          "type": "address"
        },
        {
          "internalType": "uint256",
          "name": "_value",
          "type": "uint256"
        },
        {
          "internalType": "uint256",
          "name": "_timestamp",
          "type": "uint256"
        }
      ],
      "name": "getTxId",
      "outputs": [
        {
          "internalType": "bytes32",
          "name": "",
          "type": "bytes32"
        }
      ],
      "stateMutability": "pure",
      "type": "function",
      "constant": true
    },
    {
      "inputs": [
        {
          "internalType": "address",
          "name": "_target",
          "type": "address"
        },
        {
          "internalType": "uint256",
          "name": "_value",
          "type": "uint256"
        }
      ],
      "name": "queue",
      "outputs": [
        {
          "internalType": "bytes32",
          "name": "",
          "type": "bytes32"
        }
      ],
      "stateMutability": "nonpayable",
      "type": "function"
    },
    {
      "inputs": [],
      "name": "getTxArr",
      "outputs": [
        {
          "components": [
            {
              "internalType": "bytes32",
              "name": "txId",
              "type": "bytes32"
            },
            {
              "internalType": "address",
              "name": "target",
              "type": "address"
            },
            {
              "internalType": "uint256",
              "name": "value",
              "type": "uint256"
            },
            {
              "internalType": "uint256",
              "name": "timestamp",
              "type": "uint256"
            },
            {
              "internalType": "bool",
              "name": "queued",
              "type": "bool"
            },
            {
              "internalType": "address",
              "name": "depositor",
              "type": "address"
            }
          ],
          "internalType": "struct Timelock.Tx[]",
          "name": "",
          "type": "tuple[]"
        }
      ],
      "stateMutability": "view",
      "type": "function",
      "constant": true
    },
    {
      "inputs": [
        {
          "internalType": "bytes32",
          "name": "_txId",
          "type": "bytes32"
        }
      ],
      "name": "execute",
      "outputs": [
        {
          "internalType": "address",
          "name": "target",
          "type": "address"
        },
        {
          "internalType": "uint256",
          "name": "value",
          "type": "uint256"
        }
      ],
      "stateMutability": "nonpayable",
      "type": "function"
    },
    {
      "inputs": [
        {
          "internalType": "bytes32",
          "name": "_txId",
          "type": "bytes32"
        }
      ],
      "name": "cancel",
      "outputs": [
        {
          "internalType": "address",
          "name": "sender",
          "type": "address"
        },
        {
          "internalType": "uint256",
          "name": "value",
          "type": "uint256"
        }
      ],
      "stateMutability": "nonpayable",
      "type": "function"
    },
    {
      "inputs": [
        {
          "internalType": "bytes32",
          "name": "_txId",
          "type": "bytes32"
        }
      ],
      "name": "getTx",
      "outputs": [
        {
          "components": [
            {
              "internalType": "bytes32",
              "name": "txId",
              "type": "bytes32"
            },
            {
              "internalType": "address",
              "name": "target",
              "type": "address"
            },
            {
              "internalType": "uint256",
              "name": "value",
              "type": "uint256"
            },
            {
              "internalType": "uint256",
              "name": "timestamp",
              "type": "uint256"
            },
            {
              "internalType": "bool",
              "name": "queued",
              "type": "bool"
            },
            {
              "internalType": "address",
              "name": "depositor",
              "type": "address"
            }
          ],
          "internalType": "struct Timelock.Tx",
          "name": "transaction",
          "type": "tuple"
        }
      ],
      "stateMutability": "view",
      "type": "function",
      "constant": true
    },
    {
      "inputs": [
        {
          "internalType": "uint256",
          "name": "_proposedGracePeriod",
          "type": "uint256"
        }
      ],
      "name": "startVoting",
      "outputs": [],
      "stateMutability": "nonpayable",
      "type": "function"
    },
    {
      "inputs": [],
      "name": "voteGracePeriod",
      "outputs": [],
      "stateMutability": "nonpayable",
      "type": "function"
    },
    {
      "inputs": [
        {
          "internalType": "address",
          "name": "_address",
          "type": "address"
        }
      ],
      "name": "voterHasVoted",
      "outputs": [
        {
          "internalType": "bool",
          "name": "",
          "type": "bool"
        }
      ],
      "stateMutability": "view",
      "type": "function",
      "constant": true
    },
    {
      "inputs": [],
      "name": "finalizeVote",
      "outputs": [],
      "stateMutability": "nonpayable",
      "type": "function"
    },
    {
      "inputs": [],
      "name": "getCurrentGracePeriod",
      "outputs": [
        {
          "internalType": "uint256",
          "name": "",
          "type": "uint256"
        }
      ],
      "stateMutability": "view",
      "type": "function",
      "constant": true
    },
    {
      "inputs": [],
      "name": "getProposedGracePeriod",
      "outputs": [
        {
          "internalType": "uint256",
          "name": "",
          "type": "uint256"
        }
      ],
      "stateMutability": "view",
      "type": "function",
      "constant": true
    }
  ],
  "bytecode": "0x60806040523480156200001157600080fd5b506040516200308e3803806200308e83398181016040528101906200003791906200013c565b83600860006101000a81548173ffffffffffffffffffffffffffffffffffffffff021916908373ffffffffffffffffffffffffffffffffffffffff16021790555082600a8190555081600b819055508060048190555050505050620001ae565b600080fd5b600073ffffffffffffffffffffffffffffffffffffffff82169050919050565b6000620000c9826200009c565b9050919050565b620000db81620000bc565b8114620000e757600080fd5b50565b600081519050620000fb81620000d0565b92915050565b6000819050919050565b620001168162000101565b81146200012257600080fd5b50565b60008151905062000136816200010b565b92915050565b6000806000806080858703121562000159576200015862000097565b5b60006200016987828801620000ea565b94505060206200017c8782880162000125565b93505060406200018f8782880162000125565b9250506060620001a28782880162000125565b91505092959194509250565b612ed080620001be6000396000f3fe608060405234801561001057600080fd5b50600436106101425760003560e01c80638fbb38ff116100b8578063b915cb6c1161007c578063b915cb6c14610345578063ba4090de14610375578063c4d252f514610393578063dbd18388146103c4578063e751f271146103e2578063f851a4401461041357610142565b80638fbb38ff1461028b578063a1761664146102bb578063ada6e9f2146102d9578063b0a1c1c414610309578063b5677b421461032757610142565b8063442871131161010a57806344287113146101d9578063446f201e1461020957806354ef7f2d1461022757806367db86a51461023157806384f2f0c41461024f5780638da5cb5b1461026d57610142565b80631a7cd197146101475780632916f2b4146101515780632e0cf27b1461016f5780632fe71b861461019f5780633d2f5bda146101bd575b600080fd5b61014f610431565b005b61015961066e565b6040516101669190611fda565b60405180910390f35b61018960048036038101906101849190612084565b610674565b60405161019691906120f0565b60405180910390f35b6101a76106aa565b6040516101b4919061227d565b60405180910390f35b6101d760048036038101906101d2919061229f565b61089d565b005b6101f360048036038101906101ee91906122cc565b610b0a565b60405161020091906120f0565b60405180910390f35b610211610fbc565b60405161021e919061236b565b60405180910390f35b61022f610fe2565b005b610239611206565b6040516102469190611fda565b60405180910390f35b610257611210565b6040516102649190611fda565b60405180910390f35b610275611216565b6040516102829190612395565b60405180910390f35b6102a560048036038101906102a0919061229f565b61123c565b6040516102b29190612395565b60405180910390f35b6102c361127b565b6040516102d09190612395565b60405180910390f35b6102f360048036038101906102ee91906123b0565b6112a1565b60405161030091906123ec565b60405180910390f35b61031161134f565b60405161031e9190611fda565b60405180910390f35b61032f611355565b60405161033c9190611fda565b60405180910390f35b61035f600480360381019061035a9190612433565b61135b565b60405161036c91906124db565b60405180910390f35b61037d61146c565b60405161038a9190611fda565b60405180910390f35b6103ad60048036038101906103a89190612433565b611476565b6040516103bb9291906124f6565b60405180910390f35b6103cc611857565b6040516103d99190611fda565b60405180910390f35b6103fc60048036038101906103f79190612433565b611861565b60405161040a9291906124f6565b60405180910390f35b61041b611cb9565b6040516104289190612395565b60405180910390f35b600c5442101580156104455750600d544211155b610484576040517f08c379a000000000000000000000000000000000000000000000000000000000815260040161047b9061257c565b60405180910390fd5b6000601254036104c9576040517f08c379a00000000000000000000000000000000000000000000000000000000081526004016104c0906125e8565b60405180910390fd5b600860009054906101000a900473ffffffffffffffffffffffffffffffffffffffff1673ffffffffffffffffffffffffffffffffffffffff166375cd51ed336040518263ffffffff1660e01b81526004016105249190612395565b602060405180830381865afa158015610541573d6000803e3d6000fd5b505050506040513d601f19601f820116820180604052508101906105659190612634565b6105a4576040517f08c379a000000000000000000000000000000000000000000000000000000000815260040161059b906126ad565b60405180910390fd5b6105ad336112a1565b156105ed576040517f08c379a00000000000000000000000000000000000000000000000000000000081526004016105e490612719565b60405180910390fd5b6011339080600181540180825580915050600190039060005260206000200160009091909190916101000a81548173ffffffffffffffffffffffffffffffffffffffff021916908373ffffffffffffffffffffffffffffffffffffffff16021790555060105461065b611cdf565b1061066c5761066b601254611d1a565b5b565b600a5481565b600083838360405160200161068b93929190612739565b6040516020818303038152906040528051906020012090509392505050565b6060600060025467ffffffffffffffff8111156106ca576106c9612770565b5b60405190808252806020026020018201604052801561070357816020015b6106f0611eb3565b8152602001906001900390816106e85790505b50905060005b600254811015610895576000806001600084815260200190815260200160002054815260200190815260200160002060040160009054906101000a900460ff161561088257600080600160008481526020019081526020016000205481526020019081526020016000206040518060c0016040529081600082015481526020016001820160009054906101000a900473ffffffffffffffffffffffffffffffffffffffff1673ffffffffffffffffffffffffffffffffffffffff1673ffffffffffffffffffffffffffffffffffffffff16815260200160028201548152602001600382015481526020016004820160009054906101000a900460ff161515151581526020016004820160019054906101000a900473ffffffffffffffffffffffffffffffffffffffff1673ffffffffffffffffffffffffffffffffffffffff1673ffffffffffffffffffffffffffffffffffffffff16815250508282815181106108765761087561279f565b5b60200260200101819052505b808061088d906127fd565b915050610709565b508091505090565b600860009054906101000a900473ffffffffffffffffffffffffffffffffffffffff1673ffffffffffffffffffffffffffffffffffffffff16636e9960c36040518163ffffffff1660e01b8152600401602060405180830381865afa15801561090a573d6000803e3d6000fd5b505050506040513d601f19601f8201168201806040525081019061092e919061285a565b73ffffffffffffffffffffffffffffffffffffffff163373ffffffffffffffffffffffffffffffffffffffff161461099b576040517f08c379a0000000000000000000000000000000000000000000000000000000008152600401610992906128d3565b60405180910390fd5b600a5481101580156109af5750600b548111155b6109ee576040517f08c379a00000000000000000000000000000000000000000000000000000000081526004016109e590612965565b60405180910390fd5b6004548103610a32576040517f08c379a0000000000000000000000000000000000000000000000000000000008152600401610a29906129f7565b60405180910390fd5b600f60009054906101000a900460ff1615610a82576040517f08c379a0000000000000000000000000000000000000000000000000000000008152600401610a7990612a63565b60405180910390fd5b610a8a611d63565b42600c81905550607842610a9e9190612a83565b600d819055506001600f60006101000a81548160ff021916908315150217905550610ac7611df0565b806012819055507fcae3278bf7174c45bcf59eaee8f153db11a04c8f14eef657b88ba3f0cde06d5d601254604051610aff9190611fda565b60405180910390a150565b6000808211610b4e576040517f08c379a0000000000000000000000000000000000000000000000000000000008152600401610b4590612b4b565b60405180910390fd5b81600860009054906101000a900473ffffffffffffffffffffffffffffffffffffffff1673ffffffffffffffffffffffffffffffffffffffff1663b6aa680c336040518263ffffffff1660e01b8152600401610baa9190612395565b602060405180830381865afa158015610bc7573d6000803e3d6000fd5b505050506040513d601f19601f82011682018060405250810190610beb9190612b80565b11610c2b576040517f08c379a0000000000000000000000000000000000000000000000000000000008152600401610c2290612bf9565b60405180910390fd5b6000610c38848442610674565b905060008082815260200190815260200160002060040160009054906101000a900460ff1615610c9f57806040517f995042be000000000000000000000000000000000000000000000000000000008152600401610c9691906120f0565b60405180910390fd5b60006040518060c001604052808381526020018673ffffffffffffffffffffffffffffffffffffffff1681526020018581526020014281526020016001151581526020013373ffffffffffffffffffffffffffffffffffffffff168152509050806000808481526020019081526020016000206000820151816000015560208201518160010160006101000a81548173ffffffffffffffffffffffffffffffffffffffff021916908373ffffffffffffffffffffffffffffffffffffffff160217905550604082015181600201556060820151816003015560808201518160040160006101000a81548160ff02191690831515021790555060a08201518160040160016101000a81548173ffffffffffffffffffffffffffffffffffffffff021916908373ffffffffffffffffffffffffffffffffffffffff1602179055509050508160016000600254815260200190815260200160002081905550600084600860009054906101000a900473ffffffffffffffffffffffffffffffffffffffff1673ffffffffffffffffffffffffffffffffffffffff1663b6aa680c336040518263ffffffff1660e01b8152600401610e599190612395565b602060405180830381865afa158015610e76573d6000803e3d6000fd5b505050506040513d601f19601f82011682018060405250810190610e9a9190612b80565b610ea49190612c19565b90508573ffffffffffffffffffffffffffffffffffffffff16837f29829d31c3b36d4a4d8cba00b41f628ae184b474a5a3a12296efe0e31da83ddd8742604051610eef929190612c4d565b60405180910390a3600860009054906101000a900473ffffffffffffffffffffffffffffffffffffffff1673ffffffffffffffffffffffffffffffffffffffff166333d07dc933836040518363ffffffff1660e01b8152600401610f549291906124f6565b6020604051808303816000875af1158015610f73573d6000803e3d6000fd5b505050506040513d601f19601f82011682018060405250810190610f979190612634565b5060026000815480929190610fab906127fd565b919050555082935050505092915050565b600860009054906101000a900473ffffffffffffffffffffffffffffffffffffffff1681565b600d544211611026576040517f08c379a000000000000000000000000000000000000000000000000000000000815260040161101d90612cc2565b60405180910390fd5b600860009054906101000a900473ffffffffffffffffffffffffffffffffffffffff1673ffffffffffffffffffffffffffffffffffffffff16636e9960c36040518163ffffffff1660e01b8152600401602060405180830381865afa158015611093573d6000803e3d6000fd5b505050506040513d601f19601f820116820180604052508101906110b7919061285a565b73ffffffffffffffffffffffffffffffffffffffff163373ffffffffffffffffffffffffffffffffffffffff1614611124576040517f08c379a000000000000000000000000000000000000000000000000000000000815260040161111b906128d3565b60405180910390fd5b600060125403611169576040517f08c379a000000000000000000000000000000000000000000000000000000000815260040161116090612d2e565b60405180910390fd5b601054611174611cdf565b106111fb57611184601254611d1a565b7fcc2c34a1adf0911114053f75b51b2b1f8fc9ef9e25f0a5f12f210032b5b0a1b26012546040516111b59190611fda565b60405180910390a17f886c75dbb46b8e34257da373ac60898ecebd9682c7dfeb9c4d65383b92d5ff2d6012546040516111ee9190611fda565b60405180910390a16111fc565b5b611204611d63565b565b6000600454905090565b600b5481565b600960009054906101000a900473ffffffffffffffffffffffffffffffffffffffff1681565b6011818154811061124c57600080fd5b906000526020600020016000915054906101000a900473ffffffffffffffffffffffffffffffffffffffff1681565b600560009054906101000a900473ffffffffffffffffffffffffffffffffffffffff1681565b600080600090505b601180549050811015611344578273ffffffffffffffffffffffffffffffffffffffff16601182815481106112e1576112e061279f565b5b9060005260206000200160009054906101000a900473ffffffffffffffffffffffffffffffffffffffff1673ffffffffffffffffffffffffffffffffffffffff160361133157600191505061134a565b808061133c906127fd565b9150506112a9565b50600090505b919050565b60075481565b60065481565b611363611eb3565b6000808381526020019081526020016000206040518060c0016040529081600082015481526020016001820160009054906101000a900473ffffffffffffffffffffffffffffffffffffffff1673ffffffffffffffffffffffffffffffffffffffff1673ffffffffffffffffffffffffffffffffffffffff16815260200160028201548152602001600382015481526020016004820160009054906101000a900460ff161515151581526020016004820160019054906101000a900473ffffffffffffffffffffffffffffffffffffffff1673ffffffffffffffffffffffffffffffffffffffff1673ffffffffffffffffffffffffffffffffffffffff16815250509050919050565b6000601254905090565b60008060008084815260200190815260200160002060040160009054906101000a900460ff166114dd57826040517f0995c9d50000000000000000000000000000000000000000000000000000000081526004016114d491906120f0565b60405180910390fd5b60008060008581526020019081526020016000206040518060c0016040529081600082015481526020016001820160009054906101000a900473ffffffffffffffffffffffffffffffffffffffff1673ffffffffffffffffffffffffffffffffffffffff1673ffffffffffffffffffffffffffffffffffffffff16815260200160028201548152602001600382015481526020016004820160009054906101000a900460ff161515151581526020016004820160019054906101000a900473ffffffffffffffffffffffffffffffffffffffff1673ffffffffffffffffffffffffffffffffffffffff1673ffffffffffffffffffffffffffffffffffffffff1681525050905060045481606001516115f59190612a83565b421061164b5742600454826060015161160e9190612a83565b6040517f92ae26d1000000000000000000000000000000000000000000000000000000008152600401611642929190612c4d565b60405180910390fd5b600080600086815260200190815260200160002060040160006101000a81548160ff02191690831515021790555060008160400151600860009054906101000a900473ffffffffffffffffffffffffffffffffffffffff1673ffffffffffffffffffffffffffffffffffffffff1663b6aa680c8460a001516040518263ffffffff1660e01b81526004016116df9190612395565b602060405180830381865afa1580156116fc573d6000803e3d6000fd5b505050506040513d601f19601f820116820180604052508101906117209190612b80565b61172a9190612a83565b90506000600860009054906101000a900473ffffffffffffffffffffffffffffffffffffffff1673ffffffffffffffffffffffffffffffffffffffff166333d07dc98460a00151846040518363ffffffff1660e01b815260040161178f9291906124f6565b6020604051808303816000875af11580156117ae573d6000803e3d6000fd5b505050506040513d601f19601f820116820180604052508101906117d29190612634565b9050857fe8d9861dbc9c663ed3accd261bbe2fe01e0d3d9e5f51fa38523b265c7757a93a60405160405180910390a280611841576040517f08c379a000000000000000000000000000000000000000000000000000000000815260040161183890612dc0565b60405180910390fd5b8260a00151836040015194509450505050915091565b6000600454905090565b60008060008084815260200190815260200160002060040160009054906101000a900460ff166118c857826040517f0995c9d50000000000000000000000000000000000000000000000000000000081526004016118bf91906120f0565b60405180910390fd5b60008060008581526020019081526020016000206040518060c0016040529081600082015481526020016001820160009054906101000a900473ffffffffffffffffffffffffffffffffffffffff1673ffffffffffffffffffffffffffffffffffffffff1673ffffffffffffffffffffffffffffffffffffffff16815260200160028201548152602001600382015481526020016004820160009054906101000a900460ff161515151581526020016004820160019054906101000a900473ffffffffffffffffffffffffffffffffffffffff1673ffffffffffffffffffffffffffffffffffffffff1673ffffffffffffffffffffffffffffffffffffffff168152505090508060600151421015611a1d574281606001516040517f035fce5b000000000000000000000000000000000000000000000000000000008152600401611a14929190612c4d565b60405180910390fd5b6004548160600151611a2f9190612a83565b421015611a8657426004548260600151611a499190612a83565b6040517f7dc4f9e0000000000000000000000000000000000000000000000000000000008152600401611a7d929190612c4d565b60405180910390fd5b600080600086815260200190815260200160002060040160006101000a81548160ff02191690831515021790555060008160400151600860009054906101000a900473ffffffffffffffffffffffffffffffffffffffff1673ffffffffffffffffffffffffffffffffffffffff1663b6aa680c84602001516040518263ffffffff1660e01b8152600401611b1a9190612395565b602060405180830381865afa158015611b37573d6000803e3d6000fd5b505050506040513d601f19601f82011682018060405250810190611b5b9190612b80565b611b659190612a83565b90506000600860009054906101000a900473ffffffffffffffffffffffffffffffffffffffff1673ffffffffffffffffffffffffffffffffffffffff166333d07dc98460200151846040518363ffffffff1660e01b8152600401611bca9291906124f6565b6020604051808303816000875af1158015611be9573d6000803e3d6000fd5b505050506040513d601f19601f82011682018060405250810190611c0d9190612634565b905080611c46576040517fd9b4f81e00000000000000000000000000000000000000000000000000000000815260040160405180910390fd5b826020015173ffffffffffffffffffffffffffffffffffffffff16867f12c1a2c49028795b0ce8a17c5a4476dd1224c3ab775a1eed866d7ff04de03e2185604001518660600151604051611c9b929190612c4d565b60405180910390a38260200151836040015194509450505050915091565b600360009054906101000a900473ffffffffffffffffffffffffffffffffffffffff1681565b6000805b601180549050811015611d165760118054905082611d019190612a83565b91508080611d0e906127fd565b915050611ce3565b5090565b806004819055507f886c75dbb46b8e34257da373ac60898ecebd9682c7dfeb9c4d65383b92d5ff2d81604051611d509190611fda565b60405180910390a1611d60611d63565b50565b60006012819055506000600f60006101000a81548160ff0219169083151502179055506000600d81905550600067ffffffffffffffff811115611da957611da8612770565b5b604051908082528060200260200182016040528015611dd75781602001602082028036833780820191505090505b5060119080519060200190611ded929190611f1a565b50565b6000600860009054906101000a900473ffffffffffffffffffffffffffffffffffffffff1673ffffffffffffffffffffffffffffffffffffffff1663a98e4e776040518163ffffffff1660e01b8152600401602060405180830381865afa158015611e5f573d6000803e3d6000fd5b505050506040513d601f19601f82011682018060405250810190611e839190612b80565b905060646063603383611e969190612de0565b611ea09190612a83565b611eaa9190612e69565b60108190555050565b6040518060c0016040528060008019168152602001600073ffffffffffffffffffffffffffffffffffffffff1681526020016000815260200160008152602001600015158152602001600073ffffffffffffffffffffffffffffffffffffffff1681525090565b828054828255906000526020600020908101928215611f93579160200282015b82811115611f925782518260006101000a81548173ffffffffffffffffffffffffffffffffffffffff021916908373ffffffffffffffffffffffffffffffffffffffff16021790555091602001919060010190611f3a565b5b509050611fa09190611fa4565b5090565b5b80821115611fbd576000816000905550600101611fa5565b5090565b6000819050919050565b611fd481611fc1565b82525050565b6000602082019050611fef6000830184611fcb565b92915050565b600080fd5b600073ffffffffffffffffffffffffffffffffffffffff82169050919050565b600061202582611ffa565b9050919050565b6120358161201a565b811461204057600080fd5b50565b6000813590506120528161202c565b92915050565b61206181611fc1565b811461206c57600080fd5b50565b60008135905061207e81612058565b92915050565b60008060006060848603121561209d5761209c611ff5565b5b60006120ab86828701612043565b93505060206120bc8682870161206f565b92505060406120cd8682870161206f565b9150509250925092565b6000819050919050565b6120ea816120d7565b82525050565b600060208201905061210560008301846120e1565b92915050565b600081519050919050565b600082825260208201905092915050565b6000819050602082019050919050565b612140816120d7565b82525050565b61214f8161201a565b82525050565b61215e81611fc1565b82525050565b60008115159050919050565b61217981612164565b82525050565b60c0820160008201516121956000850182612137565b5060208201516121a86020850182612146565b5060408201516121bb6040850182612155565b5060608201516121ce6060850182612155565b5060808201516121e16080850182612170565b5060a08201516121f460a0850182612146565b50505050565b6000612206838361217f565b60c08301905092915050565b6000602082019050919050565b600061222a8261210b565b6122348185612116565b935061223f83612127565b8060005b8381101561227057815161225788826121fa565b975061226283612212565b925050600181019050612243565b5085935050505092915050565b60006020820190508181036000830152612297818461221f565b905092915050565b6000602082840312156122b5576122b4611ff5565b5b60006122c38482850161206f565b91505092915050565b600080604083850312156122e3576122e2611ff5565b5b60006122f185828601612043565b92505060206123028582860161206f565b9150509250929050565b6000819050919050565b600061233161232c61232784611ffa565b61230c565b611ffa565b9050919050565b600061234382612316565b9050919050565b600061235582612338565b9050919050565b6123658161234a565b82525050565b6000602082019050612380600083018461235c565b92915050565b61238f8161201a565b82525050565b60006020820190506123aa6000830184612386565b92915050565b6000602082840312156123c6576123c5611ff5565b5b60006123d484828501612043565b91505092915050565b6123e681612164565b82525050565b600060208201905061240160008301846123dd565b92915050565b612410816120d7565b811461241b57600080fd5b50565b60008135905061242d81612407565b92915050565b60006020828403121561244957612448611ff5565b5b60006124578482850161241e565b91505092915050565b60c0820160008201516124766000850182612137565b5060208201516124896020850182612146565b50604082015161249c6040850182612155565b5060608201516124af6060850182612155565b5060808201516124c26080850182612170565b5060a08201516124d560a0850182612146565b50505050565b600060c0820190506124f06000830184612460565b92915050565b600060408201905061250b6000830185612386565b6125186020830184611fcb565b9392505050565b600082825260208201905092915050565b7f566f74696e67207068617365206973206e6f74206163746976652e0000000000600082015250565b6000612566601b8361251f565b915061257182612530565b602082019050919050565b6000602082019050818103600083015261259581612559565b9050919050565b7f4e6f20477261636520506572696f642070726f706f7365642e00000000000000600082015250565b60006125d260198361251f565b91506125dd8261259c565b602082019050919050565b60006020820190508181036000830152612601816125c5565b9050919050565b61261181612164565b811461261c57600080fd5b50565b60008151905061262e81612608565b92915050565b60006020828403121561264a57612649611ff5565b5b60006126588482850161261f565b91505092915050565b7f4f6e6c7920726567697374657265642075736572732063616e20766f74652e00600082015250565b6000612697601f8361251f565b91506126a282612661565b602082019050919050565b600060208201905081810360008301526126c68161268a565b9050919050565b7f416c726561647920766f7465642e000000000000000000000000000000000000600082015250565b6000612703600e8361251f565b915061270e826126cd565b602082019050919050565b60006020820190508181036000830152612732816126f6565b9050919050565b600060608201905061274e6000830186612386565b61275b6020830185611fcb565b6127686040830184611fcb565b949350505050565b7f4e487b7100000000000000000000000000000000000000000000000000000000600052604160045260246000fd5b7f4e487b7100000000000000000000000000000000000000000000000000000000600052603260045260246000fd5b7f4e487b7100000000000000000000000000000000000000000000000000000000600052601160045260246000fd5b600061280882611fc1565b91507fffffffffffffffffffffffffffffffffffffffffffffffffffffffffffffffff820361283a576128396127ce565b5b600182019050919050565b6000815190506128548161202c565b92915050565b6000602082840312156128705761286f611ff5565b5b600061287e84828501612845565b91505092915050565b7f4e6f7420436f6e74726163742041646d696e0000000000000000000000000000600082015250565b60006128bd60128361251f565b91506128c882612887565b602082019050919050565b600060208201905081810360008301526128ec816128b0565b9050919050565b7f50726f706f73656420677261636520506572696f64204f7574206f662072616e60008201527f6765000000000000000000000000000000000000000000000000000000000000602082015250565b600061294f60228361251f565b915061295a826128f3565b604082019050919050565b6000602082019050818103600083015261297e81612942565b9050919050565b7f50726f706f73656420677261636520706572696f642073616d6520776974682060008201527f63757272656e7420677261636520706572696f64000000000000000000000000602082015250565b60006129e160348361251f565b91506129ec82612985565b604082019050919050565b60006020820190508181036000830152612a10816129d4565b9050919050565b7f566f74696e6720697320616c7265616479206163746976652e00000000000000600082015250565b6000612a4d60198361251f565b9150612a5882612a17565b602082019050919050565b60006020820190508181036000830152612a7c81612a40565b9050919050565b6000612a8e82611fc1565b9150612a9983611fc1565b9250827fffffffffffffffffffffffffffffffffffffffffffffffffffffffffffffffff03821115612ace57612acd6127ce565b5b828201905092915050565b7f45746865722076616c7565206d7573742062652067726561746572207468616e60008201527f20302e0000000000000000000000000000000000000000000000000000000000602082015250565b6000612b3560238361251f565b9150612b4082612ad9565b604082019050919050565b60006020820190508181036000830152612b6481612b28565b9050919050565b600081519050612b7a81612058565b92915050565b600060208284031215612b9657612b95611ff5565b5b6000612ba484828501612b6b565b91505092915050565b7f496e73756666696369656e742042616c616e6365000000000000000000000000600082015250565b6000612be360148361251f565b9150612bee82612bad565b602082019050919050565b60006020820190508181036000830152612c1281612bd6565b9050919050565b6000612c2482611fc1565b9150612c2f83611fc1565b925082821015612c4257612c416127ce565b5b828203905092915050565b6000604082019050612c626000830185611fcb565b612c6f6020830184611fcb565b9392505050565b7f566f74696e6720706572696f6420686173206e6f7420656e6465642e00000000600082015250565b6000612cac601c8361251f565b9150612cb782612c76565b602082019050919050565b60006020820190508181036000830152612cdb81612c9f565b9050919050565b7f4e6f2070726f706f73656420677261636520706572696f642e00000000000000600082015250565b6000612d1860198361251f565b9150612d2382612ce2565b602082019050919050565b60006020820190508181036000830152612d4781612d0b565b9050919050565b7f4661696c656420746f2072657475726e20457468657220746f206465706f736960008201527f746f720000000000000000000000000000000000000000000000000000000000602082015250565b6000612daa60238361251f565b9150612db582612d4e565b604082019050919050565b60006020820190508181036000830152612dd981612d9d565b9050919050565b6000612deb82611fc1565b9150612df683611fc1565b9250817fffffffffffffffffffffffffffffffffffffffffffffffffffffffffffffffff0483118215151615612e2f57612e2e6127ce565b5b828202905092915050565b7f4e487b7100000000000000000000000000000000000000000000000000000000600052601260045260246000fd5b6000612e7482611fc1565b9150612e7f83611fc1565b925082612e8f57612e8e612e3a565b5b82820490509291505056fea26469706673582212209e874376359f1993044faa15c189dcd59ff1199960963b93827bd295dfb0ae0d64736f6c634300080d0033",
  "immutableReferences": {},
  "source": "// SPDX-License-Identifier: MIT\r\npragma solidity ^0.8.0;\r\nimport \"./AccountManager.sol\";\r\n\r\ncontract Timelock {\r\n    constructor(\r\n        address _accountsContractAddress,\r\n        uint256 _minGracePeriod,\r\n        uint256 _maxGracePeriod,\r\n        uint256 _defaultGracePeriod\r\n    ) {\r\n        // admin = msg.sender;\r\n        accountsContract = AccountManager(_accountsContractAddress);\r\n        minGracePeriod = _minGracePeriod;\r\n        maxGracePeriod = _maxGracePeriod;\r\n        gracePeriod = _defaultGracePeriod;\r\n    }\r\n\r\n    //Transaction--------------------------------------------------------------\r\n    error AlreadyQueuedError(bytes32 txId);\r\n    error NotQueuedError(bytes32 txId);\r\n    error TimestampNotPassedError(uint256 blockTimestamp, uint256 timestamp);\r\n    error TimestampNotMatureError(uint256 blockTimestamp, uint256 expiresAt);\r\n    error TimestampExpiredError(uint256 blockTimestamp, uint256 expiresAt);\r\n    error TxFailedError();\r\n    error NotAdminError();\r\n\r\n    event Queue(\r\n        bytes32 indexed txId,\r\n        address indexed target,\r\n        uint256 value,\r\n        uint256 timestamp\r\n    );\r\n    event Execute(\r\n        bytes32 indexed txId,\r\n        address indexed target,\r\n        uint256 value,\r\n        uint256 timestamp\r\n    );\r\n    event Cancel(bytes32 indexed txId);\r\n    event Deposited(address indexed user, uint256 amount);\r\n\r\n    // Struct to store transaction details\r\n    struct Tx {\r\n        bytes32 txId;\r\n        address target;\r\n        uint256 value;\r\n        uint256 timestamp;\r\n        bool queued;\r\n        address depositor;\r\n    }\r\n\r\n    // Mapping of transaction IDs to transaction data\r\n    mapping(bytes32 => Tx) private txs;\r\n    mapping(uint => bytes32) private indexToTxMapping;\r\n    uint txCount;\r\n    address public admin;\r\n\r\n    uint256 private gracePeriod;\r\n\r\n    address public whoDeposited;\r\n    uint256 public depositAmt;\r\n    uint256 public accountBalance;\r\n\r\n    function getGracePeriod() public view returns (uint256) {\r\n        return gracePeriod;\r\n    }\r\n\r\n    function getTxId(\r\n        address _target,\r\n        uint256 _value,\r\n        uint256 _timestamp\r\n    ) public pure returns (bytes32) {\r\n        return keccak256(abi.encode(_target, _value,_timestamp));\r\n    }\r\n\r\n    function queue(address _target, uint256 _value) external returns (bytes32) {\r\n        require(_value > 0, \"Ether value must be greater than 0.\");\r\n        require(\r\n            accountsContract.getAccountDeposit(msg.sender) > _value,\r\n            \"Insufficient Balance\"\r\n        );\r\n        // Generate the transaction ID based on the target and value\r\n        bytes32 txId = getTxId(_target, _value, block.timestamp);\r\n\r\n        // Ensure the transaction is not already queued\r\n        if (txs[txId].queued) {\r\n            revert AlreadyQueuedError(txId);\r\n        }\r\n\r\n        // Store the new transaction\r\n        Tx memory currentTx = Tx(\r\n            txId,\r\n            _target,\r\n            _value,\r\n            block.timestamp,\r\n            true,\r\n            msg.sender\r\n        );\r\n        txs[txId] = currentTx;\r\n        indexToTxMapping[txCount] = txId;\r\n\r\n        uint256 newAmount = accountsContract.getAccountDeposit(msg.sender) -\r\n            _value;\r\n        // Emit the Queue event\r\n        emit Queue(txId, _target, _value, block.timestamp);\r\n        accountsContract.depositUpdate(msg.sender, newAmount);\r\n        txCount++;\r\n        return txId;\r\n    }\r\n\r\n    function getTxArr() public view returns (Tx[] memory) {\r\n        Tx[] memory arr = new Tx[](txCount);\r\n        for (uint i = 0; i < txCount; i++) {\r\n            if (txs[indexToTxMapping[i]].queued) {\r\n                arr[i] = txs[indexToTxMapping[i]];\r\n            }\r\n        }\r\n        return arr;\r\n    }\r\n\r\n    function execute(\r\n        bytes32 _txId\r\n    ) external returns (address target, uint256 value) {\r\n        // Ensure the transaction is actually queued\r\n        if (!txs[_txId].queued) {\r\n            revert NotQueuedError(_txId);\r\n        }\r\n\r\n        Tx memory currentTx = txs[_txId];\r\n\r\n        // Ensure the timestamp has passed for execution\r\n        if (block.timestamp < currentTx.timestamp) {\r\n            revert TimestampNotPassedError(\r\n                block.timestamp,\r\n                currentTx.timestamp\r\n            );\r\n        }\r\n\r\n        // Ensure the transaction is executed after the grace period\r\n        if (block.timestamp < currentTx.timestamp + gracePeriod) {\r\n            revert TimestampNotMatureError(\r\n                block.timestamp,\r\n                currentTx.timestamp + gracePeriod\r\n            );\r\n        }\r\n\r\n        // Mark the transaction as executed\r\n        txs[_txId].queued = false;\r\n        // Execute the transaction using the .call function\r\n\r\n        uint256 newAmount = accountsContract.getAccountDeposit(\r\n            currentTx.target\r\n        ) + currentTx.value;\r\n        bool success = accountsContract.depositUpdate(\r\n            currentTx.target,\r\n            newAmount\r\n        );\r\n        if (!success) {\r\n            revert TxFailedError();\r\n        }\r\n\r\n        // Emit the Execute event\r\n        emit Execute(\r\n            _txId,\r\n            currentTx.target,\r\n            currentTx.value,\r\n            currentTx.timestamp\r\n        );\r\n\r\n        return (currentTx.target, currentTx.value);\r\n    }\r\n\r\n    function cancel(\r\n        bytes32 _txId\r\n    ) external returns (address sender, uint256 value) {\r\n        // Ensure the transaction is queued\r\n        if (!txs[_txId].queued) {\r\n            revert NotQueuedError(_txId);\r\n        }\r\n\r\n        Tx memory currentTx = txs[_txId];\r\n        // Ensure the transaction is executed in the grace period\r\n        if (block.timestamp >= currentTx.timestamp + gracePeriod) {\r\n            revert TimestampExpiredError(\r\n                block.timestamp,\r\n                currentTx.timestamp + gracePeriod\r\n            );\r\n        }\r\n        // Mark the transaction as canceled\r\n\r\n        txs[_txId].queued = false;\r\n\r\n        uint256 newAmount = accountsContract.getAccountDeposit(\r\n            currentTx.depositor\r\n        ) + currentTx.value;\r\n        bool success = accountsContract.depositUpdate(\r\n            currentTx.depositor,\r\n            newAmount\r\n        );\r\n        // Emit the Cancel event\r\n        emit Cancel(_txId);\r\n        require(success, \"Failed to return Ether to depositor\");\r\n        return (currentTx.depositor, currentTx.value);\r\n    }\r\n\r\n    function getTx(\r\n        bytes32 _txId\r\n    ) external view returns (Tx memory transaction) {\r\n        return txs[_txId];\r\n    }\r\n\r\n    //Grace Period Voting-------------------------------------------------\r\n    AccountManager public accountsContract;\r\n    event NewGracePeriodProposed(uint256 newGracePeriod);\r\n    event GracePeriodChanged(uint256 gracePeriod);\r\n    event VotingFinalized(uint256 newGracePeriod);\r\n    address public owner;\r\n    uint256 public minGracePeriod;\r\n    uint256 public maxGracePeriod;\r\n\r\n    uint256 private votingStartTime;\r\n    uint256 private votingEndTime;\r\n    uint256 private proposalDeadline;\r\n    bool private votingActive;\r\n    uint256 private voteThreshold;\r\n    address[] public voted;\r\n    uint256 private proposedGracePeriod;\r\n    modifier onlyAdmin() {\r\n        require(\r\n            msg.sender == accountsContract.getAdmin(),\r\n            \"Not Contract Admin\"\r\n        );\r\n        _;\r\n    }\r\n\r\n    modifier duringVotingPhase() {\r\n        require(\r\n            block.timestamp >= votingStartTime &&\r\n                block.timestamp <= votingEndTime,\r\n            \"Voting phase is not active.\"\r\n        );\r\n        _;\r\n    }\r\n\r\n    modifier afterVotingPhase() {\r\n        require(\r\n            block.timestamp > votingEndTime,\r\n            \"Voting period has not ended.\"\r\n        );\r\n        _;\r\n    }\r\n\r\n    function startVoting(uint256 _proposedGracePeriod) public onlyAdmin {\r\n        require(\r\n            (_proposedGracePeriod >= minGracePeriod &&\r\n                _proposedGracePeriod <= maxGracePeriod),\r\n            \"Proposed grace Period Out of range\"\r\n        );\r\n        require(\r\n            _proposedGracePeriod != gracePeriod,\r\n            \"Proposed grace period same with current grace period\"\r\n        );\r\n        require(!votingActive, \"Voting is already active.\");\r\n        resetVoting();\r\n        votingStartTime = block.timestamp;\r\n        votingEndTime = block.timestamp + 120; // Total of 2 minutes\r\n\r\n        votingActive = true;\r\n\r\n        updateVoteThreshold();\r\n        proposedGracePeriod = _proposedGracePeriod;\r\n        emit NewGracePeriodProposed(proposedGracePeriod);\r\n    }\r\n\r\n    function updateVoteThreshold() internal {\r\n        uint256 totalRegisteredUsers = accountsContract.getAccountCount();\r\n        voteThreshold = (totalRegisteredUsers * 51 + 99) / 100; // Equivalent to rounding up (51% rule)\r\n    }\r\n\r\n    function voteGracePeriod() public duringVotingPhase {\r\n        require(proposedGracePeriod != 0, \"No Grace Period proposed.\");\r\n        require(\r\n            accountsContract.accountExists(msg.sender),\r\n            \"Only registered users can vote.\"\r\n        );\r\n        require(!voterHasVoted(msg.sender), \"Already voted.\");\r\n\r\n        voted.push(msg.sender);\r\n\r\n        // Check if vote threshold has been met\r\n        if (getTotalVotes() >= voteThreshold) {\r\n            finalizeGPByThresHold(proposedGracePeriod);\r\n        }\r\n    }\r\n\r\n    function voterHasVoted(address _address) public view returns (bool) {\r\n        for (uint256 i = 0; i < voted.length; i++) {\r\n            if (voted[i] == _address) {\r\n                return true;\r\n            }\r\n        }\r\n\r\n        return false;\r\n    }\r\n\r\n    function finalizeGPByThresHold(uint256 _proposedGracePeriod) internal {\r\n        gracePeriod = _proposedGracePeriod;\r\n\r\n        emit VotingFinalized(_proposedGracePeriod);\r\n        resetVoting();\r\n    }\r\n\r\n    // FINALIZE the voting process after 2 minutes\r\n    function finalizeVote() public afterVotingPhase onlyAdmin {\r\n        require(proposedGracePeriod != 0, \"No proposed grace period.\");\r\n        if (getTotalVotes() >= voteThreshold) {\r\n            finalizeGPByThresHold(proposedGracePeriod);\r\n            emit GracePeriodChanged(proposedGracePeriod);\r\n            emit VotingFinalized(proposedGracePeriod);\r\n        } else {\r\n            // require(false, \"Total Votes is not reached the threshold\");\r\n        }\r\n\r\n        resetVoting();\r\n    }\r\n\r\n    function getCurrentGracePeriod() public view returns (uint256) {\r\n        return gracePeriod;\r\n    }\r\n\r\n    function getProposedGracePeriod() public view returns (uint256) {\r\n        return proposedGracePeriod;\r\n    }\r\n\r\n    function resetVoting() internal {\r\n        proposedGracePeriod = 0;\r\n        votingActive = false;\r\n        votingEndTime = 0;\r\n        voted = new address[](0);\r\n    }\r\n\r\n    function getTotalVotes() internal view returns (uint256 totalVotes) {\r\n        totalVotes = 0;\r\n        for (uint256 i = 0; i < voted.length; i++) {\r\n            totalVotes += voted.length;\r\n        }\r\n\r\n        return totalVotes;\r\n    }\r\n}\r\n",
  "sourcePath": "c:\\Timelock\\contracts\\Timelock.sol",
  "compiler": {
    "name": "solc",
    "version": "0.8.13+commit.abaa5c0e.Emscripten.clang"
  },
  "schemaVersion": "3.4.16",
  "updatedAt": "2024-09-23T04:30:47.585Z",
  "networkType": "ethereum",
  "devdoc": {
    "kind": "dev",
    "methods": {},
    "version": 1
  },
  "userdoc": {
    "kind": "user",
    "methods": {},
    "version": 1
  }
}