{
  "contractName": "Timelock",
  "abi": [
    {
      "inputs": [
        {
          "internalType": "address",
          "name": "_accountsContractAddress",
          "type": "address"
        }
      ],
      "stateMutability": "nonpayable",
      "type": "constructor"
    },
    {
      "inputs": [
        {
          "internalType": "bytes32",
          "name": "txId",
          "type": "bytes32"
        }
      ],
      "name": "AlreadyQueuedError",
      "type": "error"
    },
    {
      "inputs": [
        {
          "internalType": "bytes32",
          "name": "txId",
          "type": "bytes32"
        }
      ],
      "name": "NotQueuedError",
      "type": "error"
    },
    {
      "inputs": [
        {
          "internalType": "uint256",
          "name": "blockTimestamp",
          "type": "uint256"
        },
        {
          "internalType": "uint256",
          "name": "expiresAt",
          "type": "uint256"
        }
      ],
      "name": "TimestampExpiredError",
      "type": "error"
    },
    {
      "inputs": [
        {
          "internalType": "uint256",
          "name": "blockTimestamp",
          "type": "uint256"
        },
        {
          "internalType": "uint256",
          "name": "expiresAt",
          "type": "uint256"
        }
      ],
      "name": "TimestampNotMatureError",
      "type": "error"
    },
    {
      "inputs": [
        {
          "internalType": "uint256",
          "name": "blockTimestamp",
          "type": "uint256"
        },
        {
          "internalType": "uint256",
          "name": "timestamp",
          "type": "uint256"
        }
      ],
      "name": "TimestampNotPassedError",
      "type": "error"
    },
    {
      "inputs": [],
      "name": "TxFailedError",
      "type": "error"
    },
    {
      "anonymous": false,
      "inputs": [
        {
          "indexed": true,
          "internalType": "bytes32",
          "name": "txId",
          "type": "bytes32"
        }
      ],
      "name": "Cancel",
      "type": "event"
    },
    {
      "anonymous": false,
      "inputs": [
        {
          "indexed": true,
          "internalType": "address",
          "name": "user",
          "type": "address"
        },
        {
          "indexed": false,
          "internalType": "uint256",
          "name": "amount",
          "type": "uint256"
        }
      ],
      "name": "Deposited",
      "type": "event"
    },
    {
      "anonymous": false,
      "inputs": [
        {
          "indexed": true,
          "internalType": "bytes32",
          "name": "txId",
          "type": "bytes32"
        },
        {
          "indexed": true,
          "internalType": "address",
          "name": "sender",
          "type": "address"
        },
        {
          "indexed": true,
          "internalType": "address",
          "name": "target",
          "type": "address"
        },
        {
          "indexed": false,
          "internalType": "uint256",
          "name": "value",
          "type": "uint256"
        },
        {
          "indexed": false,
          "internalType": "uint256",
          "name": "startTimestamp",
          "type": "uint256"
        },
        {
          "indexed": false,
          "internalType": "uint256",
          "name": "endTimestamp",
          "type": "uint256"
        }
      ],
      "name": "Execute",
      "type": "event"
    },
    {
      "anonymous": false,
      "inputs": [
        {
          "indexed": true,
          "internalType": "bytes32",
          "name": "txId",
          "type": "bytes32"
        },
        {
          "indexed": true,
          "internalType": "address",
          "name": "sender",
          "type": "address"
        },
        {
          "indexed": true,
          "internalType": "address",
          "name": "target",
          "type": "address"
        },
        {
          "indexed": false,
          "internalType": "uint256",
          "name": "value",
          "type": "uint256"
        },
        {
          "indexed": false,
          "internalType": "uint256",
          "name": "startTimestamp",
          "type": "uint256"
        },
        {
          "indexed": false,
          "internalType": "uint256",
          "name": "endTimestamp",
          "type": "uint256"
        }
      ],
      "name": "Queue",
      "type": "event"
    },
    {
      "inputs": [],
      "name": "accountBalance",
      "outputs": [
        {
          "internalType": "uint256",
          "name": "",
          "type": "uint256"
        }
      ],
      "stateMutability": "view",
      "type": "function",
      "constant": true
    },
    {
      "inputs": [],
      "name": "accountsContract",
      "outputs": [
        {
          "internalType": "contract AccountManager",
          "name": "",
          "type": "address"
        }
      ],
      "stateMutability": "view",
      "type": "function",
      "constant": true
    },
    {
      "inputs": [],
      "name": "depositAmt",
      "outputs": [
        {
          "internalType": "uint256",
          "name": "",
          "type": "uint256"
        }
      ],
      "stateMutability": "view",
      "type": "function",
      "constant": true
    },
    {
      "inputs": [],
      "name": "whoDeposited",
      "outputs": [
        {
          "internalType": "address",
          "name": "",
          "type": "address"
        }
      ],
      "stateMutability": "view",
      "type": "function",
      "constant": true
    },
    {
      "inputs": [
        {
          "internalType": "address",
          "name": "_sender",
          "type": "address"
        },
        {
          "internalType": "address",
          "name": "_target",
          "type": "address"
        },
        {
          "internalType": "uint256",
          "name": "_value",
          "type": "uint256"
        },
        {
          "internalType": "uint256",
          "name": "_startTimestamp",
          "type": "uint256"
        },
        {
          "internalType": "uint256",
          "name": "_endTimestamp",
          "type": "uint256"
        }
      ],
      "name": "getTxId",
      "outputs": [
        {
          "internalType": "bytes32",
          "name": "",
          "type": "bytes32"
        }
      ],
      "stateMutability": "pure",
      "type": "function",
      "constant": true
    },
    {
      "inputs": [
        {
          "internalType": "address",
          "name": "_target",
          "type": "address"
        },
        {
          "internalType": "uint256",
          "name": "_value",
          "type": "uint256"
        },
        {
          "internalType": "uint256",
          "name": "_endTimestamp",
          "type": "uint256"
        }
      ],
      "name": "queue",
      "outputs": [
        {
          "internalType": "bytes32",
          "name": "",
          "type": "bytes32"
        }
      ],
      "stateMutability": "nonpayable",
      "type": "function"
    },
    {
      "inputs": [],
      "name": "getTxArr",
      "outputs": [
        {
          "components": [
            {
              "internalType": "bytes32",
              "name": "txId",
              "type": "bytes32"
            },
            {
              "internalType": "address",
              "name": "sender",
              "type": "address"
            },
            {
              "internalType": "address",
              "name": "target",
              "type": "address"
            },
            {
              "internalType": "uint256",
              "name": "value",
              "type": "uint256"
            },
            {
              "internalType": "uint256",
              "name": "startTimestamp",
              "type": "uint256"
            },
            {
              "internalType": "uint256",
              "name": "endTimestamp",
              "type": "uint256"
            },
            {
              "internalType": "enum Timelock.TxStatus",
              "name": "status",
              "type": "uint8"
            }
          ],
          "internalType": "struct Timelock.Tx[]",
          "name": "",
          "type": "tuple[]"
        }
      ],
      "stateMutability": "view",
      "type": "function",
      "constant": true
    },
    {
      "inputs": [
        {
          "internalType": "bytes32",
          "name": "_txId",
          "type": "bytes32"
        }
      ],
      "name": "execute",
      "outputs": [],
      "stateMutability": "nonpayable",
      "type": "function"
    },
    {
      "inputs": [
        {
          "internalType": "bytes32",
          "name": "_txId",
          "type": "bytes32"
        }
      ],
      "name": "cancel",
      "outputs": [],
      "stateMutability": "nonpayable",
      "type": "function"
    },
    {
      "inputs": [
        {
          "internalType": "bytes32",
          "name": "_txId",
          "type": "bytes32"
        }
      ],
      "name": "getTx",
      "outputs": [
        {
          "components": [
            {
              "internalType": "bytes32",
              "name": "txId",
              "type": "bytes32"
            },
            {
              "internalType": "address",
              "name": "sender",
              "type": "address"
            },
            {
              "internalType": "address",
              "name": "target",
              "type": "address"
            },
            {
              "internalType": "uint256",
              "name": "value",
              "type": "uint256"
            },
            {
              "internalType": "uint256",
              "name": "startTimestamp",
              "type": "uint256"
            },
            {
              "internalType": "uint256",
              "name": "endTimestamp",
              "type": "uint256"
            },
            {
              "internalType": "enum Timelock.TxStatus",
              "name": "status",
              "type": "uint8"
            }
          ],
          "internalType": "struct Timelock.Tx",
          "name": "transaction",
          "type": "tuple"
        }
      ],
      "stateMutability": "view",
      "type": "function",
      "constant": true
    },
    {
      "inputs": [],
      "name": "listLogs",
      "outputs": [
        {
          "components": [
            {
              "internalType": "bytes32",
              "name": "txId",
              "type": "bytes32"
            },
            {
              "internalType": "address",
              "name": "sender",
              "type": "address"
            },
            {
              "internalType": "address",
              "name": "target",
              "type": "address"
            },
            {
              "internalType": "uint256",
              "name": "value",
              "type": "uint256"
            },
            {
              "internalType": "uint256",
              "name": "startTimestamp",
              "type": "uint256"
            },
            {
              "internalType": "uint256",
              "name": "endTimestamp",
              "type": "uint256"
            },
            {
              "internalType": "enum Timelock.TxStatus",
              "name": "currentState",
              "type": "uint8"
            }
          ],
          "internalType": "struct Timelock.Log[]",
          "name": "",
          "type": "tuple[]"
        }
      ],
      "stateMutability": "view",
      "type": "function",
      "constant": true
    },
    {
      "inputs": [],
      "name": "listQueued",
      "outputs": [
        {
          "components": [
            {
              "internalType": "bytes32",
              "name": "txId",
              "type": "bytes32"
            },
            {
              "internalType": "address",
              "name": "sender",
              "type": "address"
            },
            {
              "internalType": "address",
              "name": "target",
              "type": "address"
            },
            {
              "internalType": "uint256",
              "name": "value",
              "type": "uint256"
            },
            {
              "internalType": "uint256",
              "name": "startTimestamp",
              "type": "uint256"
            },
            {
              "internalType": "uint256",
              "name": "endTimestamp",
              "type": "uint256"
            },
            {
              "internalType": "enum Timelock.TxStatus",
              "name": "currentState",
              "type": "uint8"
            }
          ],
          "internalType": "struct Timelock.Log[]",
          "name": "",
          "type": "tuple[]"
        }
      ],
      "stateMutability": "view",
      "type": "function",
      "constant": true
    },
    {
      "inputs": [],
      "name": "listCancelled",
      "outputs": [
        {
          "components": [
            {
              "internalType": "bytes32",
              "name": "txId",
              "type": "bytes32"
            },
            {
              "internalType": "address",
              "name": "sender",
              "type": "address"
            },
            {
              "internalType": "address",
              "name": "target",
              "type": "address"
            },
            {
              "internalType": "uint256",
              "name": "value",
              "type": "uint256"
            },
            {
              "internalType": "uint256",
              "name": "startTimestamp",
              "type": "uint256"
            },
            {
              "internalType": "uint256",
              "name": "endTimestamp",
              "type": "uint256"
            },
            {
              "internalType": "enum Timelock.TxStatus",
              "name": "currentState",
              "type": "uint8"
            }
          ],
          "internalType": "struct Timelock.Log[]",
          "name": "",
          "type": "tuple[]"
        }
      ],
      "stateMutability": "view",
      "type": "function",
      "constant": true
    },
    {
      "inputs": [],
      "name": "listExecuted",
      "outputs": [
        {
          "components": [
            {
              "internalType": "bytes32",
              "name": "txId",
              "type": "bytes32"
            },
            {
              "internalType": "address",
              "name": "sender",
              "type": "address"
            },
            {
              "internalType": "address",
              "name": "target",
              "type": "address"
            },
            {
              "internalType": "uint256",
              "name": "value",
              "type": "uint256"
            },
            {
              "internalType": "uint256",
              "name": "startTimestamp",
              "type": "uint256"
            },
            {
              "internalType": "uint256",
              "name": "endTimestamp",
              "type": "uint256"
            },
            {
              "internalType": "enum Timelock.TxStatus",
              "name": "currentState",
              "type": "uint8"
            }
          ],
          "internalType": "struct Timelock.Log[]",
          "name": "",
          "type": "tuple[]"
        }
      ],
      "stateMutability": "view",
      "type": "function",
      "constant": true
    },
    {
      "inputs": [],
      "name": "listFailed",
      "outputs": [
        {
          "components": [
            {
              "internalType": "bytes32",
              "name": "txId",
              "type": "bytes32"
            },
            {
              "internalType": "address",
              "name": "sender",
              "type": "address"
            },
            {
              "internalType": "address",
              "name": "target",
              "type": "address"
            },
            {
              "internalType": "uint256",
              "name": "value",
              "type": "uint256"
            },
            {
              "internalType": "uint256",
              "name": "startTimestamp",
              "type": "uint256"
            },
            {
              "internalType": "uint256",
              "name": "endTimestamp",
              "type": "uint256"
            },
            {
              "internalType": "enum Timelock.TxStatus",
              "name": "currentState",
              "type": "uint8"
            }
          ],
          "internalType": "struct Timelock.Log[]",
          "name": "",
          "type": "tuple[]"
        }
      ],
      "stateMutability": "view",
      "type": "function",
      "constant": true
    }
  ],
  "bytecode": "0x60806040523480156200001157600080fd5b50604051620037f4380380620037f48339818101604052810190620000379190620000e8565b806000806101000a81548173ffffffffffffffffffffffffffffffffffffffff021916908373ffffffffffffffffffffffffffffffffffffffff160217905550506200011a565b600080fd5b600073ffffffffffffffffffffffffffffffffffffffff82169050919050565b6000620000b08262000083565b9050919050565b620000c281620000a3565b8114620000ce57600080fd5b50565b600081519050620000e281620000b7565b92915050565b6000602082840312156200010157620001006200007e565b5b60006200011184828501620000d1565b91505092915050565b6136ca806200012a6000396000f3fe608060405234801561001057600080fd5b50600436106100f55760003560e01c8063b5677b4211610097578063e1cf678d11610066578063e1cf678d14610254578063e751f27114610284578063f3a6cc2b146102a0578063fa9884c7146102d0576100f5565b8063b5677b42146101cc578063b915cb6c146101ea578063c396a4ee1461021a578063c4d252f514610238576100f5565b80638383ebb1116100d35780638383ebb114610154578063a176166414610172578063ae21568614610190578063b0a1c1c4146101ae576100f5565b80632fcc36db146100fa5780632fe71b8614610118578063446f201e14610136575b600080fd5b6101026102ee565b60405161010f9190612d6b565b60405180910390f35b6101206106ca565b60405161012d9190612eca565b60405180910390f35b61013e61090f565b60405161014b9190612f4b565b60405180910390f35b61015c610933565b6040516101699190612d6b565b60405180910390f35b61017a610d10565b6040516101879190612f75565b60405180910390f35b610198610d36565b6040516101a59190612d6b565b60405180910390f35b6101b6611113565b6040516101c39190612f9f565b60405180910390f35b6101d4611119565b6040516101e19190612f9f565b60405180910390f35b61020460048036038101906101ff9190612feb565b61111f565b60405161021191906130a6565b60405180910390f35b61022261125b565b60405161022f9190612d6b565b60405180910390f35b610252600480360381019061024d9190612feb565b611638565b005b61026e60048036038101906102699190613119565b611a0c565b60405161027b919061317b565b60405180910390f35b61029e60048036038101906102999190612feb565b611eab565b005b6102ba60048036038101906102b59190613196565b61234c565b6040516102c7919061317b565b60405180910390f35b6102d8612388565b6040516102e59190612d6b565b60405180910390f35b60606000805b6007805490508110156103fe573373ffffffffffffffffffffffffffffffffffffffff166007828154811061032c5761032b613211565b5b906000526020600020906007020160010160009054906101000a900473ffffffffffffffffffffffffffffffffffffffff1673ffffffffffffffffffffffffffffffffffffffff161480156103d75750600160038111156103905761038f612be3565b5b600782815481106103a4576103a3613211565b5b906000526020600020906007020160060160009054906101000a900460ff1660038111156103d5576103d4612be3565b5b145b156103eb5781806103e79061326f565b9250505b80806103f69061326f565b9150506102f4565b5060008167ffffffffffffffff81111561041b5761041a6132b7565b5b60405190808252806020026020018201604052801561045457816020015b610441612a48565b8152602001906001900390816104395790505b5090506000915060005b6007805490508110156106c1573373ffffffffffffffffffffffffffffffffffffffff166007828154811061049657610495613211565b5b906000526020600020906007020160010160009054906101000a900473ffffffffffffffffffffffffffffffffffffffff1673ffffffffffffffffffffffffffffffffffffffff1614801561054057506003808111156104f9576104f8612be3565b5b6007828154811061050d5761050c613211565b5b906000526020600020906007020160060160009054906101000a900460ff16600381111561053e5761053d612be3565b5b145b156106ae576007818154811061055957610558613211565b5b90600052602060002090600702016040518060e0016040529081600082015481526020016001820160009054906101000a900473ffffffffffffffffffffffffffffffffffffffff1673ffffffffffffffffffffffffffffffffffffffff1673ffffffffffffffffffffffffffffffffffffffff1681526020016002820160009054906101000a900473ffffffffffffffffffffffffffffffffffffffff1673ffffffffffffffffffffffffffffffffffffffff1673ffffffffffffffffffffffffffffffffffffffff1681526020016003820154815260200160048201548152602001600582015481526020016006820160009054906101000a900460ff16600381111561066b5761066a612be3565b5b600381111561067d5761067c612be3565b5b8152505082848151811061069457610693613211565b5b602002602001018190525082806106aa9061326f565b9350505b80806106b99061326f565b91505061045e565b50809250505090565b6060600060035467ffffffffffffffff8111156106ea576106e96132b7565b5b60405190808252806020026020018201604052801561072357816020015b610710612ac6565b8152602001906001900390816107085790505b50905060005b600354811015610907576000600381111561074757610746612be3565b5b600160006002600085815260200190815260200160002054815260200190815260200160002060060160009054906101000a900460ff1660038111156107905761078f612be3565b5b036108f45760016000600260008481526020019081526020016000205481526020019081526020016000206040518060e0016040529081600082015481526020016001820160009054906101000a900473ffffffffffffffffffffffffffffffffffffffff1673ffffffffffffffffffffffffffffffffffffffff1673ffffffffffffffffffffffffffffffffffffffff1681526020016002820160009054906101000a900473ffffffffffffffffffffffffffffffffffffffff1673ffffffffffffffffffffffffffffffffffffffff1673ffffffffffffffffffffffffffffffffffffffff1681526020016003820154815260200160048201548152602001600582015481526020016006820160009054906101000a900460ff1660038111156108bf576108be612be3565b5b60038111156108d1576108d0612be3565b5b815250508282815181106108e8576108e7613211565b5b60200260200101819052505b80806108ff9061326f565b915050610729565b508091505090565b60008054906101000a900473ffffffffffffffffffffffffffffffffffffffff1681565b60606000805b600780549050811015610a43573373ffffffffffffffffffffffffffffffffffffffff166007828154811061097157610970613211565b5b906000526020600020906007020160010160009054906101000a900473ffffffffffffffffffffffffffffffffffffffff1673ffffffffffffffffffffffffffffffffffffffff16148015610a1c5750600060038111156109d5576109d4612be3565b5b600782815481106109e9576109e8613211565b5b906000526020600020906007020160060160009054906101000a900460ff166003811115610a1a57610a19612be3565b5b145b15610a30578180610a2c9061326f565b9250505b8080610a3b9061326f565b915050610939565b5060008167ffffffffffffffff811115610a6057610a5f6132b7565b5b604051908082528060200260200182016040528015610a9957816020015b610a86612a48565b815260200190600190039081610a7e5790505b5090506000915060005b600780549050811015610d07573373ffffffffffffffffffffffffffffffffffffffff1660078281548110610adb57610ada613211565b5b906000526020600020906007020160010160009054906101000a900473ffffffffffffffffffffffffffffffffffffffff1673ffffffffffffffffffffffffffffffffffffffff16148015610b86575060006003811115610b3f57610b3e612be3565b5b60078281548110610b5357610b52613211565b5b906000526020600020906007020160060160009054906101000a900460ff166003811115610b8457610b83612be3565b5b145b15610cf45760078181548110610b9f57610b9e613211565b5b90600052602060002090600702016040518060e0016040529081600082015481526020016001820160009054906101000a900473ffffffffffffffffffffffffffffffffffffffff1673ffffffffffffffffffffffffffffffffffffffff1673ffffffffffffffffffffffffffffffffffffffff1681526020016002820160009054906101000a900473ffffffffffffffffffffffffffffffffffffffff1673ffffffffffffffffffffffffffffffffffffffff1673ffffffffffffffffffffffffffffffffffffffff1681526020016003820154815260200160048201548152602001600582015481526020016006820160009054906101000a900460ff166003811115610cb157610cb0612be3565b5b6003811115610cc357610cc2612be3565b5b81525050828481518110610cda57610cd9613211565b5b60200260200101819052508280610cf09061326f565b9350505b8080610cff9061326f565b915050610aa3565b50809250505090565b600460009054906101000a900473ffffffffffffffffffffffffffffffffffffffff1681565b60606000805b600780549050811015610e46573373ffffffffffffffffffffffffffffffffffffffff1660078281548110610d7457610d73613211565b5b906000526020600020906007020160010160009054906101000a900473ffffffffffffffffffffffffffffffffffffffff1673ffffffffffffffffffffffffffffffffffffffff16148015610e1f575060016003811115610dd857610dd7612be3565b5b60078281548110610dec57610deb613211565b5b906000526020600020906007020160060160009054906101000a900460ff166003811115610e1d57610e1c612be3565b5b145b15610e33578180610e2f9061326f565b9250505b8080610e3e9061326f565b915050610d3c565b5060008167ffffffffffffffff811115610e6357610e626132b7565b5b604051908082528060200260200182016040528015610e9c57816020015b610e89612a48565b815260200190600190039081610e815790505b5090506000915060005b60078054905081101561110a573373ffffffffffffffffffffffffffffffffffffffff1660078281548110610ede57610edd613211565b5b906000526020600020906007020160010160009054906101000a900473ffffffffffffffffffffffffffffffffffffffff1673ffffffffffffffffffffffffffffffffffffffff16148015610f89575060016003811115610f4257610f41612be3565b5b60078281548110610f5657610f55613211565b5b906000526020600020906007020160060160009054906101000a900460ff166003811115610f8757610f86612be3565b5b145b156110f75760078181548110610fa257610fa1613211565b5b90600052602060002090600702016040518060e0016040529081600082015481526020016001820160009054906101000a900473ffffffffffffffffffffffffffffffffffffffff1673ffffffffffffffffffffffffffffffffffffffff1673ffffffffffffffffffffffffffffffffffffffff1681526020016002820160009054906101000a900473ffffffffffffffffffffffffffffffffffffffff1673ffffffffffffffffffffffffffffffffffffffff1673ffffffffffffffffffffffffffffffffffffffff1681526020016003820154815260200160048201548152602001600582015481526020016006820160009054906101000a900460ff1660038111156110b4576110b3612be3565b5b60038111156110c6576110c5612be3565b5b815250508284815181106110dd576110dc613211565b5b602002602001018190525082806110f39061326f565b9350505b80806111029061326f565b915050610ea6565b50809250505090565b60065481565b60055481565b611127612ac6565b600160008381526020019081526020016000206040518060e0016040529081600082015481526020016001820160009054906101000a900473ffffffffffffffffffffffffffffffffffffffff1673ffffffffffffffffffffffffffffffffffffffff1673ffffffffffffffffffffffffffffffffffffffff1681526020016002820160009054906101000a900473ffffffffffffffffffffffffffffffffffffffff1673ffffffffffffffffffffffffffffffffffffffff1673ffffffffffffffffffffffffffffffffffffffff1681526020016003820154815260200160048201548152602001600582015481526020016006820160009054906101000a900460ff16600381111561123e5761123d612be3565b5b60038111156112505761124f612be3565b5b815250509050919050565b60606000805b60078054905081101561136b573373ffffffffffffffffffffffffffffffffffffffff166007828154811061129957611298613211565b5b906000526020600020906007020160010160009054906101000a900473ffffffffffffffffffffffffffffffffffffffff1673ffffffffffffffffffffffffffffffffffffffff161480156113445750600260038111156112fd576112fc612be3565b5b6007828154811061131157611310613211565b5b906000526020600020906007020160060160009054906101000a900460ff16600381111561134257611341612be3565b5b145b156113585781806113549061326f565b9250505b80806113639061326f565b915050611261565b5060008167ffffffffffffffff811115611388576113876132b7565b5b6040519080825280602002602001820160405280156113c157816020015b6113ae612a48565b8152602001906001900390816113a65790505b5090506000915060005b60078054905081101561162f573373ffffffffffffffffffffffffffffffffffffffff166007828154811061140357611402613211565b5b906000526020600020906007020160010160009054906101000a900473ffffffffffffffffffffffffffffffffffffffff1673ffffffffffffffffffffffffffffffffffffffff161480156114ae57506002600381111561146757611466612be3565b5b6007828154811061147b5761147a613211565b5b906000526020600020906007020160060160009054906101000a900460ff1660038111156114ac576114ab612be3565b5b145b1561161c57600781815481106114c7576114c6613211565b5b90600052602060002090600702016040518060e0016040529081600082015481526020016001820160009054906101000a900473ffffffffffffffffffffffffffffffffffffffff1673ffffffffffffffffffffffffffffffffffffffff1673ffffffffffffffffffffffffffffffffffffffff1681526020016002820160009054906101000a900473ffffffffffffffffffffffffffffffffffffffff1673ffffffffffffffffffffffffffffffffffffffff1673ffffffffffffffffffffffffffffffffffffffff1681526020016003820154815260200160048201548152602001600582015481526020016006820160009054906101000a900460ff1660038111156115d9576115d8612be3565b5b60038111156115eb576115ea612be3565b5b8152505082848151811061160257611601613211565b5b602002602001018190525082806116189061326f565b9350505b80806116279061326f565b9150506113cb565b50809250505090565b6000600381111561164c5761164b612be3565b5b6001600083815260200190815260200160002060060160009054906101000a900460ff16600381111561168257611681612be3565b5b146116c457806040517f0995c9d50000000000000000000000000000000000000000000000000000000081526004016116bb919061317b565b60405180910390fd5b6000600160008381526020019081526020016000206040518060e0016040529081600082015481526020016001820160009054906101000a900473ffffffffffffffffffffffffffffffffffffffff1673ffffffffffffffffffffffffffffffffffffffff1673ffffffffffffffffffffffffffffffffffffffff1681526020016002820160009054906101000a900473ffffffffffffffffffffffffffffffffffffffff1673ffffffffffffffffffffffffffffffffffffffff1673ffffffffffffffffffffffffffffffffffffffff1681526020016003820154815260200160048201548152602001600582015481526020016006820160009054906101000a900460ff1660038111156117dd576117dc612be3565b5b60038111156117ef576117ee612be3565b5b81525050905060026001600084815260200190815260200160002060060160006101000a81548160ff0219169083600381111561182f5761182e612be3565b5b02179055506000816060015160008054906101000a900473ffffffffffffffffffffffffffffffffffffffff1673ffffffffffffffffffffffffffffffffffffffff1663b6aa680c84602001516040518263ffffffff1660e01b81526004016118989190612f75565b602060405180830381865afa1580156118b5573d6000803e3d6000fd5b505050506040513d601f19601f820116820180604052508101906118d991906132fb565b6118e39190613328565b905060008060009054906101000a900473ffffffffffffffffffffffffffffffffffffffff1673ffffffffffffffffffffffffffffffffffffffff166333d07dc98460200151846040518363ffffffff1660e01b815260040161194792919061337e565b6020604051808303816000875af1158015611966573d6000803e3d6000fd5b505050506040513d601f19601f8201168201806040525081019061198a91906133df565b9050837fe8d9861dbc9c663ed3accd261bbe2fe01e0d3d9e5f51fa38523b265c7757a93a60405160405180910390a26119c484600261269f565b505080611a06576040517f08c379a00000000000000000000000000000000000000000000000000000000081526004016119fd9061348f565b60405180910390fd5b50505050565b6000808311611a50576040517f08c379a0000000000000000000000000000000000000000000000000000000008152600401611a4790613521565b60405180910390fd5b8260008054906101000a900473ffffffffffffffffffffffffffffffffffffffff1673ffffffffffffffffffffffffffffffffffffffff1663b6aa680c336040518263ffffffff1660e01b8152600401611aaa9190612f75565b602060405180830381865afa158015611ac7573d6000803e3d6000fd5b505050506040513d601f19601f82011682018060405250810190611aeb91906132fb565b11611b2b576040517f08c379a0000000000000000000000000000000000000000000000000000000008152600401611b229061358d565b60405180910390fd5b6000611b3a338686428761234c565b905060006040518060e001604052808381526020013373ffffffffffffffffffffffffffffffffffffffff1681526020018773ffffffffffffffffffffffffffffffffffffffff16815260200186815260200142815260200185815260200160006003811115611bad57611bac612be3565b5b815250905080600160008481526020019081526020016000206000820151816000015560208201518160010160006101000a81548173ffffffffffffffffffffffffffffffffffffffff021916908373ffffffffffffffffffffffffffffffffffffffff16021790555060408201518160020160006101000a81548173ffffffffffffffffffffffffffffffffffffffff021916908373ffffffffffffffffffffffffffffffffffffffff160217905550606082015181600301556080820151816004015560a0820151816005015560c08201518160060160006101000a81548160ff02191690836003811115611ca757611ca6612be3565b5b0217905550905050816002600060035481526020019081526020016000208190555060008560008054906101000a900473ffffffffffffffffffffffffffffffffffffffff1673ffffffffffffffffffffffffffffffffffffffff1663b6aa680c336040518263ffffffff1660e01b8152600401611d259190612f75565b602060405180830381865afa158015611d42573d6000803e3d6000fd5b505050506040513d601f19601f82011682018060405250810190611d6691906132fb565b611d7091906135ad565b90508673ffffffffffffffffffffffffffffffffffffffff163373ffffffffffffffffffffffffffffffffffffffff16847f0f774f5df3f0259249dcfdfece489f89b9ae3366e90676da36f6dfe6b64b963b89428a604051611dd4939291906135e1565b60405180910390a4611de5826127cf565b505060008054906101000a900473ffffffffffffffffffffffffffffffffffffffff1673ffffffffffffffffffffffffffffffffffffffff166333d07dc933836040518363ffffffff1660e01b8152600401611e4292919061337e565b6020604051808303816000875af1158015611e61573d6000803e3d6000fd5b505050506040513d601f19601f82011682018060405250810190611e8591906133df565b5060036000815480929190611e999061326f565b91905055508293505050509392505050565b60006003811115611ebf57611ebe612be3565b5b6001600083815260200190815260200160002060060160009054906101000a900460ff166003811115611ef557611ef4612be3565b5b14611f3757806040517f0995c9d5000000000000000000000000000000000000000000000000000000008152600401611f2e919061317b565b60405180910390fd5b6000600160008381526020019081526020016000206040518060e0016040529081600082015481526020016001820160009054906101000a900473ffffffffffffffffffffffffffffffffffffffff1673ffffffffffffffffffffffffffffffffffffffff1673ffffffffffffffffffffffffffffffffffffffff1681526020016002820160009054906101000a900473ffffffffffffffffffffffffffffffffffffffff1673ffffffffffffffffffffffffffffffffffffffff1673ffffffffffffffffffffffffffffffffffffffff1681526020016003820154815260200160048201548152602001600582015481526020016006820160009054906101000a900460ff1660038111156120505761204f612be3565b5b600381111561206257612061612be3565b5b8152505090508060a001514210156120b757428160a001516040517f7dc4f9e00000000000000000000000000000000000000000000000000000000081526004016120ae929190613618565b60405180910390fd5b6000816060015160008054906101000a900473ffffffffffffffffffffffffffffffffffffffff1673ffffffffffffffffffffffffffffffffffffffff1663b6aa680c84604001516040518263ffffffff1660e01b815260040161211b9190612f75565b602060405180830381865afa158015612138573d6000803e3d6000fd5b505050506040513d601f19601f8201168201806040525081019061215c91906132fb565b6121669190613328565b905060008060009054906101000a900473ffffffffffffffffffffffffffffffffffffffff1673ffffffffffffffffffffffffffffffffffffffff166333d07dc98460400151846040518363ffffffff1660e01b81526004016121ca92919061337e565b6020604051808303816000875af11580156121e9573d6000803e3d6000fd5b505050506040513d601f19601f8201168201806040525081019061220d91906133df565b9050806122925760036001600086815260200190815260200160002060060160006101000a81548160ff0219169083600381111561224e5761224d612be3565b5b021790555061225e84600361269f565b50506040517fd9b4f81e00000000000000000000000000000000000000000000000000000000815260040160405180910390fd5b600180600086815260200190815260200160002060060160006101000a81548160ff021916908360038111156122cb576122ca612be3565b5b0217905550826040015173ffffffffffffffffffffffffffffffffffffffff163373ffffffffffffffffffffffffffffffffffffffff16857f7aba212e4c6518f986a09fb4bdb3791ef7573643aeec1b5ab1df7a9c64cf25ec8660600151428860a0015160405161233e939291906135e1565b60405180910390a450505050565b60008585858585604051602001612367959493929190613641565b60405160208183030381529060405280519060200120905095945050505050565b60606000805b600780549050811015612435573373ffffffffffffffffffffffffffffffffffffffff16600782815481106123c6576123c5613211565b5b906000526020600020906007020160010160009054906101000a900473ffffffffffffffffffffffffffffffffffffffff1673ffffffffffffffffffffffffffffffffffffffff160361242257818061241e9061326f565b9250505b808061242d9061326f565b91505061238e565b5060008167ffffffffffffffff811115612452576124516132b7565b5b60405190808252806020026020018201604052801561248b57816020015b612478612a48565b8152602001906001900390816124705790505b5090506000915060005b600780549050811015612696573373ffffffffffffffffffffffffffffffffffffffff16600782815481106124cd576124cc613211565b5b906000526020600020906007020160010160009054906101000a900473ffffffffffffffffffffffffffffffffffffffff1673ffffffffffffffffffffffffffffffffffffffff1603612683576007818154811061252e5761252d613211565b5b90600052602060002090600702016040518060e0016040529081600082015481526020016001820160009054906101000a900473ffffffffffffffffffffffffffffffffffffffff1673ffffffffffffffffffffffffffffffffffffffff1673ffffffffffffffffffffffffffffffffffffffff1681526020016002820160009054906101000a900473ffffffffffffffffffffffffffffffffffffffff1673ffffffffffffffffffffffffffffffffffffffff1673ffffffffffffffffffffffffffffffffffffffff1681526020016003820154815260200160048201548152602001600582015481526020016006820160009054906101000a900460ff1660038111156126405761263f612be3565b5b600381111561265257612651612be3565b5b8152505082848151811061266957612668613211565b5b6020026020010181905250828061267f9061326f565b9350505b808061268e9061326f565b915050612495565b50809250505090565b600060606000805b6007805490508110156126f45785600782815481106126c9576126c8613211565b5b90600052602060002090600702016000015403156126f45780806126ec9061326f565b9150506126a7565b8161273c5760006040518060400160405280601881526020017f5472616e73616374696f6e204964206e6f7420666f756e6400000000000000008152509350935050506127c8565b846007828154811061275157612750613211565b5b906000526020600020906007020160060160006101000a81548160ff0219169083600381111561278457612783612be3565b5b021790555060016040518060400160405280601781526020017f557064617465206c6f67207375636365737366756c6c790000000000000000008152509350935050505b9250929050565b6000606060005b600780549050811015612868578360000151600782815481106127fc576127fb613211565b5b906000526020600020906007020160000154036128555760006040518060400160405280601d81526020017f5472616e73616374696f6e20494420616c7265616479206578697374730000008152509250925050612a43565b80806128609061326f565b9150506127d6565b5060076040518060e0016040528085600001518152602001856020015173ffffffffffffffffffffffffffffffffffffffff168152602001856040015173ffffffffffffffffffffffffffffffffffffffff16815260200185606001518152602001856080015181526020018560a001518152602001600060038111156128f2576128f1612be3565b5b81525090806001815401808255809150506001900390600052602060002090600702016000909190919091506000820151816000015560208201518160010160006101000a81548173ffffffffffffffffffffffffffffffffffffffff021916908373ffffffffffffffffffffffffffffffffffffffff16021790555060408201518160020160006101000a81548173ffffffffffffffffffffffffffffffffffffffff021916908373ffffffffffffffffffffffffffffffffffffffff160217905550606082015181600301556080820151816004015560a0820151816005015560c08201518160060160006101000a81548160ff021916908360038111156129ff576129fe612be3565b5b0217905550505060016040518060400160405280601681526020017f4c6f67206164646564207375636365737366756c6c7900000000000000000000815250915091505b915091565b6040518060e0016040528060008019168152602001600073ffffffffffffffffffffffffffffffffffffffff168152602001600073ffffffffffffffffffffffffffffffffffffffff16815260200160008152602001600081526020016000815260200160006003811115612ac057612abf612be3565b5b81525090565b6040518060e0016040528060008019168152602001600073ffffffffffffffffffffffffffffffffffffffff168152602001600073ffffffffffffffffffffffffffffffffffffffff16815260200160008152602001600081526020016000815260200160006003811115612b3e57612b3d612be3565b5b81525090565b600081519050919050565b600082825260208201905092915050565b6000819050602082019050919050565b6000819050919050565b612b8381612b70565b82525050565b600073ffffffffffffffffffffffffffffffffffffffff82169050919050565b6000612bb482612b89565b9050919050565b612bc481612ba9565b82525050565b6000819050919050565b612bdd81612bca565b82525050565b7f4e487b7100000000000000000000000000000000000000000000000000000000600052602160045260246000fd5b60048110612c2357612c22612be3565b5b50565b6000819050612c3482612c12565b919050565b6000612c4482612c26565b9050919050565b612c5481612c39565b82525050565b60e082016000820151612c706000850182612b7a565b506020820151612c836020850182612bbb565b506040820151612c966040850182612bbb565b506060820151612ca96060850182612bd4565b506080820151612cbc6080850182612bd4565b5060a0820151612ccf60a0850182612bd4565b5060c0820151612ce260c0850182612c4b565b50505050565b6000612cf48383612c5a565b60e08301905092915050565b6000602082019050919050565b6000612d1882612b44565b612d228185612b4f565b9350612d2d83612b60565b8060005b83811015612d5e578151612d458882612ce8565b9750612d5083612d00565b925050600181019050612d31565b5085935050505092915050565b60006020820190508181036000830152612d858184612d0d565b905092915050565b600081519050919050565b600082825260208201905092915050565b6000819050602082019050919050565b60e082016000820151612dcf6000850182612b7a565b506020820151612de26020850182612bbb565b506040820151612df56040850182612bbb565b506060820151612e086060850182612bd4565b506080820151612e1b6080850182612bd4565b5060a0820151612e2e60a0850182612bd4565b5060c0820151612e4160c0850182612c4b565b50505050565b6000612e538383612db9565b60e08301905092915050565b6000602082019050919050565b6000612e7782612d8d565b612e818185612d98565b9350612e8c83612da9565b8060005b83811015612ebd578151612ea48882612e47565b9750612eaf83612e5f565b925050600181019050612e90565b5085935050505092915050565b60006020820190508181036000830152612ee48184612e6c565b905092915050565b6000819050919050565b6000612f11612f0c612f0784612b89565b612eec565b612b89565b9050919050565b6000612f2382612ef6565b9050919050565b6000612f3582612f18565b9050919050565b612f4581612f2a565b82525050565b6000602082019050612f606000830184612f3c565b92915050565b612f6f81612ba9565b82525050565b6000602082019050612f8a6000830184612f66565b92915050565b612f9981612bca565b82525050565b6000602082019050612fb46000830184612f90565b92915050565b600080fd5b612fc881612b70565b8114612fd357600080fd5b50565b600081359050612fe581612fbf565b92915050565b60006020828403121561300157613000612fba565b5b600061300f84828501612fd6565b91505092915050565b60e08201600082015161302e6000850182612b7a565b5060208201516130416020850182612bbb565b5060408201516130546040850182612bbb565b5060608201516130676060850182612bd4565b50608082015161307a6080850182612bd4565b5060a082015161308d60a0850182612bd4565b5060c08201516130a060c0850182612c4b565b50505050565b600060e0820190506130bb6000830184613018565b92915050565b6130ca81612ba9565b81146130d557600080fd5b50565b6000813590506130e7816130c1565b92915050565b6130f681612bca565b811461310157600080fd5b50565b600081359050613113816130ed565b92915050565b60008060006060848603121561313257613131612fba565b5b6000613140868287016130d8565b935050602061315186828701613104565b925050604061316286828701613104565b9150509250925092565b61317581612b70565b82525050565b6000602082019050613190600083018461316c565b92915050565b600080600080600060a086880312156131b2576131b1612fba565b5b60006131c0888289016130d8565b95505060206131d1888289016130d8565b94505060406131e288828901613104565b93505060606131f388828901613104565b925050608061320488828901613104565b9150509295509295909350565b7f4e487b7100000000000000000000000000000000000000000000000000000000600052603260045260246000fd5b7f4e487b7100000000000000000000000000000000000000000000000000000000600052601160045260246000fd5b600061327a82612bca565b91507fffffffffffffffffffffffffffffffffffffffffffffffffffffffffffffffff82036132ac576132ab613240565b5b600182019050919050565b7f4e487b7100000000000000000000000000000000000000000000000000000000600052604160045260246000fd5b6000815190506132f5816130ed565b92915050565b60006020828403121561331157613310612fba565b5b600061331f848285016132e6565b91505092915050565b600061333382612bca565b915061333e83612bca565b9250827fffffffffffffffffffffffffffffffffffffffffffffffffffffffffffffffff0382111561337357613372613240565b5b828201905092915050565b60006040820190506133936000830185612f66565b6133a06020830184612f90565b9392505050565b60008115159050919050565b6133bc816133a7565b81146133c757600080fd5b50565b6000815190506133d9816133b3565b92915050565b6000602082840312156133f5576133f4612fba565b5b6000613403848285016133ca565b91505092915050565b600082825260208201905092915050565b7f4661696c656420746f2072657475726e20457468657220746f206465706f736960008201527f746f720000000000000000000000000000000000000000000000000000000000602082015250565b600061347960238361340c565b91506134848261341d565b604082019050919050565b600060208201905081810360008301526134a88161346c565b9050919050565b7f45746865722076616c7565206d7573742062652067726561746572207468616e60008201527f20302e0000000000000000000000000000000000000000000000000000000000602082015250565b600061350b60238361340c565b9150613516826134af565b604082019050919050565b6000602082019050818103600083015261353a816134fe565b9050919050565b7f496e73756666696369656e742042616c616e6365000000000000000000000000600082015250565b600061357760148361340c565b915061358282613541565b602082019050919050565b600060208201905081810360008301526135a68161356a565b9050919050565b60006135b882612bca565b91506135c383612bca565b9250828210156135d6576135d5613240565b5b828203905092915050565b60006060820190506135f66000830186612f90565b6136036020830185612f90565b6136106040830184612f90565b949350505050565b600060408201905061362d6000830185612f90565b61363a6020830184612f90565b9392505050565b600060a0820190506136566000830188612f66565b6136636020830187612f66565b6136706040830186612f90565b61367d6060830185612f90565b61368a6080830184612f90565b969550505050505056fea2646970667358221220aae0586d90db1c5d9707c3863e2d037073f0c79aafe83c36a6bcdbdf18e5862664736f6c634300080d0033",
  "immutableReferences": {},
  "source": "// SPDX-License-Identifier: MIT\r\npragma solidity ^0.8.0;\r\nimport \"./AccountManager.sol\";\r\n\r\ncontract Timelock {\r\n\r\n        AccountManager public accountsContract;\r\n\r\n    constructor(\r\n        address _accountsContractAddress\r\n    ) {\r\n        // admin = msg.sender;\r\n        accountsContract = AccountManager(_accountsContractAddress);\r\n     \r\n    }\r\n\r\n    //Transaction--------------------------------------------------------------\r\n    error AlreadyQueuedError(bytes32 txId);\r\n    error NotQueuedError(bytes32 txId);\r\n    error TimestampNotPassedError(uint256 blockTimestamp, uint256 timestamp);\r\n    error TimestampNotMatureError(uint256 blockTimestamp, uint256 expiresAt);\r\n    error TimestampExpiredError(uint256 blockTimestamp, uint256 expiresAt);\r\n    error TxFailedError();\r\n\r\n    event Queue(\r\n        bytes32 indexed txId,\r\n        address indexed sender,\r\n        address indexed target,\r\n        uint256 value,\r\n        uint256 startTimestamp,\r\n        uint256 endTimestamp\r\n    );\r\n    event Execute(\r\n        bytes32 indexed txId,\r\n        address indexed sender,\r\n        address indexed target,\r\n        uint256 value,\r\n        uint256 startTimestamp,\r\n        uint256 endTimestamp\r\n    );\r\n    event Cancel(bytes32 indexed txId);\r\n    event Deposited(address indexed user, uint256 amount);\r\n\r\nenum TxStatus{\r\n    Queued, \r\n    Completed,\r\n    Cancelled,\r\n    Failed\r\n}\r\n    // Struct to store transaction details\r\n    struct Tx {\r\n        bytes32 txId;\r\n        address sender;\r\n        address target;\r\n        uint256 value;\r\n        uint256 startTimestamp;\r\n        uint256 endTimestamp;\r\n        TxStatus status;\r\n    }\r\n\r\n    // Mapping of transaction IDs to transaction data\r\n    mapping(bytes32 => Tx) private txs;\r\n    mapping(uint => bytes32) private indexToTxMapping;\r\n    uint txCount;\r\n    address public whoDeposited;\r\n    uint256 public depositAmt;\r\n    uint256 public accountBalance;\r\n\r\n    function getTxId(\r\n        address _sender,\r\n        address _target,\r\n        uint256 _value,\r\n        uint256 _startTimestamp,\r\n        uint256 _endTimestamp\r\n    ) public pure returns (bytes32) {\r\n        return keccak256(abi.encode(_sender,_target, _value,_startTimestamp,_endTimestamp));\r\n    }\r\n\r\n    function queue(\r\n        address _target,\r\n        uint256 _value,\r\n               uint256 _endTimestamp\r\n        ) external returns (bytes32) {\r\n        require(_value > 0, \"Ether value must be greater than 0.\");\r\n        require(\r\n            accountsContract.getAccountDeposit(msg.sender) > _value,\r\n            \"Insufficient Balance\"\r\n        );\r\n        // Generate the transaction ID based on the target and value\r\n        bytes32 txId = getTxId(msg.sender,_target, _value, block.timestamp, _endTimestamp);\r\n\r\n        // Ensure the transaction is not already queued\r\n        // if (txs[txId].status==TxStatus.Queued) {\r\n        //     revert AlreadyQueuedError(txId);\r\n        // }\r\n\r\n        // Store the new transaction\r\n        Tx memory currentTx = Tx(\r\n            txId,\r\n            msg.sender,\r\n            _target,\r\n            _value,\r\n            block.timestamp,\r\n            _endTimestamp,\r\n            TxStatus.Queued\r\n        );\r\n        txs[txId] = currentTx;\r\n        indexToTxMapping[txCount] = txId;\r\n\r\n        uint256 newAmount = accountsContract.getAccountDeposit(msg.sender) -\r\n            _value;\r\n        // Emit the Queue event\r\n        emit Queue(txId,msg.sender, _target, _value, block.timestamp,             _endTimestamp);\r\n        addLog(currentTx);\r\n        accountsContract.depositUpdate(msg.sender, newAmount);\r\n        txCount++;\r\n        return txId;\r\n    }\r\n\r\n    function getTxArr() public view returns (Tx[] memory) {\r\n        Tx[] memory arr = new Tx[](txCount);\r\n        for (uint i = 0; i < txCount; i++) {\r\n            if (txs[indexToTxMapping[i]].status == TxStatus.Queued) {\r\n                arr[i] = txs[indexToTxMapping[i]];\r\n            }\r\n        }\r\n        return arr;\r\n    }\r\n\r\n    function execute(\r\n        bytes32 _txId\r\n    ) external  {\r\n        // Ensure the transaction is actually queued\r\n        if (txs[_txId].status!=TxStatus.Queued) {\r\n            revert NotQueuedError(_txId);\r\n        }\r\n\r\n        Tx memory currentTx = txs[_txId];\r\n\r\n        // // Ensure the timestamp has passed for execution\r\n        // if (block.timestamp < currentTx.timestamp) {\r\n        //     revert TimestampNotPassedError(\r\n        //         block.timestamp,\r\n        //         currentTx.timestamp\r\n        //     );\r\n        // }\r\n\r\n        // Ensure the transaction is executed after the grace period\r\n        if (block.timestamp < currentTx.endTimestamp ) {\r\n            revert TimestampNotMatureError(\r\n                block.timestamp,\r\n                currentTx.endTimestamp\r\n            );\r\n        }\r\n\r\n      \r\n        uint256 newAmount = accountsContract.getAccountDeposit(\r\n            currentTx.target\r\n        ) + currentTx.value;\r\n        bool success = accountsContract.depositUpdate(\r\n            currentTx.target,\r\n            newAmount\r\n        );\r\n        if (!success) {\r\n            txs[_txId].status = TxStatus.Failed;\r\n            updateStatus(_txId,TxStatus.Failed);\r\n            revert TxFailedError();\r\n        }\r\n        // Mark the transaction as executed\r\n        txs[_txId].status = TxStatus.Completed;\r\n\r\n        // Emit the Execute event\r\n        emit Execute(\r\n           _txId,msg.sender, currentTx.target, currentTx.value, block.timestamp,             currentTx.endTimestamp\r\n        );\r\n\r\n        // return (currentTx.target, currentTx.value);\r\n    }\r\n\r\n    function cancel(\r\n        bytes32 _txId\r\n    ) external{\r\n        // Ensure the transaction is queued\r\n        if (txs[_txId].status!=TxStatus.Queued) {\r\n            revert NotQueuedError(_txId);\r\n        }\r\n\r\n        Tx memory currentTx = txs[_txId];\r\n        // // Ensure the transaction is executed in the grace period\r\n        // if (block.timestamp >= currentTx.timestamp + gracePeriod) {\r\n        //     revert TimestampExpiredError(\r\n        //         block.timestamp,\r\n        //         currentTx.timestamp + gracePeriod\r\n        //     );\r\n        // }\r\n        // Mark the transaction as canceled\r\n\r\n        txs[_txId].status = TxStatus.Cancelled;\r\n\r\n        uint256 newAmount = accountsContract.getAccountDeposit(\r\n            currentTx.sender\r\n        ) + currentTx.value;\r\n        bool success = accountsContract.depositUpdate(\r\n            currentTx.sender,\r\n            newAmount\r\n        );\r\n        // Emit the Cancel event\r\n        emit Cancel(_txId);\r\n                    updateStatus(_txId,TxStatus.Cancelled);\r\n\r\n        require(success, \"Failed to return Ether to depositor\");\r\n        // return (currentTx.depositor, currentTx.value);\r\n    }\r\n\r\n    function getTx(\r\n        bytes32 _txId\r\n    ) external view returns (Tx memory transaction) {\r\n        return txs[_txId];\r\n    }\r\n\r\n    // ------------------- LISTING BY YEOH ZHE HENG ------------------\r\n     struct Log {\r\n        bytes32 txId;\r\n        address sender;\r\n        address target;\r\n        uint256 value;\r\n        uint256 startTimestamp; // Passed the scheduled for transaction date, in grace period form\r\n        uint256 endTimestamp; // Passed the scheduled for transaction date, in grace period form\r\n        TxStatus currentState;\r\n    }\r\n\r\n    Log[] internal logs;\r\n\r\n    function listLogs() public view returns (Log[] memory) {\r\n        uint256 count = 0;\r\n        for (uint256 i = 0; i < logs.length; i++) {\r\n            if (logs[i].sender == msg.sender) {\r\n                count++;\r\n            }\r\n        }\r\n\r\n        Log[] memory filterLog = new Log[](count);\r\n        count = 0;\r\n        for (uint256 i = 0; i < logs.length; i++) {\r\n            if (logs[i].sender == msg.sender) {\r\n                filterLog[count] = logs[i];\r\n                count++;\r\n            }\r\n        }\r\n\r\n        return filterLog;\r\n    }\r\n\r\n    function listQueued() public view returns (Log[] memory) {\r\n        uint256 count = 0;\r\n        for (uint256 i = 0; i < logs.length; i++) {\r\n            if (\r\n                logs[i].sender == msg.sender &&\r\n                logs[i].currentState == TxStatus.Queued\r\n            ) {\r\n                count++;\r\n            }\r\n        }\r\n\r\n        Log[] memory filterLog = new Log[](count);\r\n        count = 0;\r\n        for (uint256 i = 0; i < logs.length; i++) {\r\n            if (\r\n                logs[i].sender == msg.sender &&\r\n                logs[i].currentState == TxStatus.Queued\r\n            ) {\r\n                filterLog[count] = logs[i];\r\n                count++;\r\n            }\r\n        }\r\n\r\n        return filterLog;\r\n    }\r\n\r\n    function listCancelled() public view returns (Log[] memory) {\r\n        uint256 count = 0;\r\n        for (uint256 i = 0; i < logs.length; i++) {\r\n            if (\r\n                logs[i].sender == msg.sender &&\r\n                logs[i].currentState == TxStatus.Cancelled\r\n            ) {\r\n                count++;\r\n            }\r\n        }\r\n\r\n        Log[] memory filterLog = new Log[](count);\r\n        count = 0;\r\n        for (uint256 i = 0; i < logs.length; i++) {\r\n            if (\r\n                logs[i].sender == msg.sender &&\r\n                logs[i].currentState == TxStatus.Cancelled\r\n            ) {\r\n                filterLog[count] = logs[i];\r\n                count++;\r\n            }\r\n        }\r\n\r\n        return filterLog;\r\n    }\r\n\r\n     function listExecuted() public view returns (Log[] memory) {\r\n        uint256 count = 0;\r\n        for (uint256 i = 0; i < logs.length; i++) {\r\n            if (\r\n                logs[i].sender == msg.sender &&\r\n                logs[i].currentState == TxStatus.Completed\r\n            ) {\r\n                count++;\r\n            }\r\n        }\r\n\r\n        Log[] memory filterLog = new Log[](count);\r\n        count = 0;\r\n        for (uint256 i = 0; i < logs.length; i++) {\r\n            if (\r\n                logs[i].sender == msg.sender &&\r\n                logs[i].currentState == TxStatus.Completed\r\n            ) {\r\n                filterLog[count] = logs[i];\r\n                count++;\r\n            }\r\n        }\r\n\r\n        return filterLog;\r\n    }\r\n     function listFailed() public view returns (Log[] memory) {\r\n        uint256 count = 0;\r\n        for (uint256 i = 0; i < logs.length; i++) {\r\n            if (\r\n                logs[i].sender == msg.sender &&\r\n                logs[i].currentState == TxStatus.Completed\r\n            ) {\r\n                count++;\r\n            }\r\n        }\r\n\r\n        Log[] memory filterLog = new Log[](count);\r\n        count = 0;\r\n        for (uint256 i = 0; i < logs.length; i++) {\r\n            if (\r\n                logs[i].sender == msg.sender &&\r\n                logs[i].currentState == TxStatus.Failed\r\n            ) {\r\n                filterLog[count] = logs[i];\r\n                count++;\r\n            }\r\n        }\r\n\r\n        return filterLog;\r\n    }\r\n\r\n    function addLog(\r\n       Tx memory _tx\r\n    ) internal returns (bool, string memory) {\r\n        for (uint256 i = 0; i < logs.length; i++) {\r\n            if (logs[i].txId == _tx.txId) {\r\n                return (false, \"Transaction ID already exists\");\r\n            }\r\n        }\r\n\r\n        logs.push(\r\n            Log({\r\n                txId: _tx.txId,\r\n                sender: _tx.sender,\r\n                target: _tx.target,\r\n                value: _tx.value,\r\n                startTimestamp: _tx.startTimestamp,\r\n                endTimestamp: _tx.endTimestamp,\r\n                currentState: TxStatus.Queued\r\n            })\r\n        );\r\n\r\n        return (true, \"Log added successfully\");\r\n    }\r\n\r\n function updateStatus(bytes32 _txId, TxStatus _status)internal returns(bool, string memory){\r\n        bool found = false;\r\n        uint256 count;\r\n        while(count < logs.length){\r\n            if(logs[count].txId == _txId){\r\n                break;\r\n            }\r\n            count++;\r\n        }\r\n        if(!found){\r\n            return (false, \"Transaction Id not found\");\r\n        }\r\n\r\n        logs[count].currentState = _status;\r\n        return (true, \"Update log successfully\");\r\n       \r\n    }\r\n\r\n   \r\n\r\n\r\n}\r\n",
  "sourcePath": "C:\\Users\\quint\\vscode\\My Projects\\Timelock\\contracts\\Timelock.sol",
  "compiler": {
    "name": "solc",
    "version": "0.8.13+commit.abaa5c0e.Emscripten.clang"
  },
  "schemaVersion": "3.4.16",
  "updatedAt": "2024-09-24T08:18:17.835Z",
  "networkType": "ethereum",
  "devdoc": {
    "kind": "dev",
    "methods": {},
    "version": 1
  },
  "userdoc": {
    "kind": "user",
    "methods": {},
    "version": 1
  }
}