{
  "contractName": "Timelock",
  "abi": [
    {
      "inputs": [
        {
          "internalType": "address",
          "name": "_accountsContractAddress",
          "type": "address"
        }
      ],
      "stateMutability": "nonpayable",
      "type": "constructor"
    },
    {
      "inputs": [
        {
          "internalType": "bytes32",
          "name": "txId",
          "type": "bytes32"
        }
      ],
      "name": "AlreadyQueuedError",
      "type": "error"
    },
    {
      "inputs": [
        {
          "internalType": "bytes32",
          "name": "txId",
          "type": "bytes32"
        }
      ],
      "name": "NotQueuedError",
      "type": "error"
    },
    {
      "inputs": [
        {
          "internalType": "uint256",
          "name": "blockTimestamp",
          "type": "uint256"
        },
        {
          "internalType": "uint256",
          "name": "expiresAt",
          "type": "uint256"
        }
      ],
      "name": "TimestampExpiredError",
      "type": "error"
    },
    {
      "inputs": [
        {
          "internalType": "uint256",
          "name": "blockTimestamp",
          "type": "uint256"
        },
        {
          "internalType": "uint256",
          "name": "expiresAt",
          "type": "uint256"
        }
      ],
      "name": "TimestampNotMatureError",
      "type": "error"
    },
    {
      "inputs": [
        {
          "internalType": "uint256",
          "name": "blockTimestamp",
          "type": "uint256"
        },
        {
          "internalType": "uint256",
          "name": "timestamp",
          "type": "uint256"
        }
      ],
      "name": "TimestampNotPassedError",
      "type": "error"
    },
    {
      "inputs": [],
      "name": "TxFailedError",
      "type": "error"
    },
    {
      "anonymous": false,
      "inputs": [
        {
          "indexed": true,
          "internalType": "bytes32",
          "name": "txId",
          "type": "bytes32"
        }
      ],
      "name": "Cancel",
      "type": "event"
    },
    {
      "anonymous": false,
      "inputs": [
        {
          "indexed": true,
          "internalType": "address",
          "name": "user",
          "type": "address"
        },
        {
          "indexed": false,
          "internalType": "uint256",
          "name": "amount",
          "type": "uint256"
        }
      ],
      "name": "Deposited",
      "type": "event"
    },
    {
      "anonymous": false,
      "inputs": [
        {
          "indexed": true,
          "internalType": "bytes32",
          "name": "txId",
          "type": "bytes32"
        },
        {
          "indexed": true,
          "internalType": "address",
          "name": "sender",
          "type": "address"
        },
        {
          "indexed": true,
          "internalType": "address",
          "name": "target",
          "type": "address"
        },
        {
          "indexed": false,
          "internalType": "uint256",
          "name": "value",
          "type": "uint256"
        },
        {
          "indexed": false,
          "internalType": "uint256",
          "name": "startTimestamp",
          "type": "uint256"
        },
        {
          "indexed": false,
          "internalType": "uint256",
          "name": "endTimestamp",
          "type": "uint256"
        }
      ],
      "name": "Execute",
      "type": "event"
    },
    {
      "anonymous": false,
      "inputs": [
        {
          "indexed": true,
          "internalType": "bytes32",
          "name": "txId",
          "type": "bytes32"
        },
        {
          "indexed": true,
          "internalType": "address",
          "name": "sender",
          "type": "address"
        },
        {
          "indexed": true,
          "internalType": "address",
          "name": "target",
          "type": "address"
        },
        {
          "indexed": false,
          "internalType": "uint256",
          "name": "value",
          "type": "uint256"
        },
        {
          "indexed": false,
          "internalType": "uint256",
          "name": "startTimestamp",
          "type": "uint256"
        },
        {
          "indexed": false,
          "internalType": "uint256",
          "name": "endTimestamp",
          "type": "uint256"
        }
      ],
      "name": "Queue",
      "type": "event"
    },
    {
      "inputs": [],
      "name": "accountBalance",
      "outputs": [
        {
          "internalType": "uint256",
          "name": "",
          "type": "uint256"
        }
      ],
      "stateMutability": "view",
      "type": "function",
      "constant": true
    },
    {
      "inputs": [],
      "name": "accountsContract",
      "outputs": [
        {
          "internalType": "contract AccountManager",
          "name": "",
          "type": "address"
        }
      ],
      "stateMutability": "view",
      "type": "function",
      "constant": true
    },
    {
      "inputs": [],
      "name": "depositAmt",
      "outputs": [
        {
          "internalType": "uint256",
          "name": "",
          "type": "uint256"
        }
      ],
      "stateMutability": "view",
      "type": "function",
      "constant": true
    },
    {
      "inputs": [],
      "name": "whoDeposited",
      "outputs": [
        {
          "internalType": "address",
          "name": "",
          "type": "address"
        }
      ],
      "stateMutability": "view",
      "type": "function",
      "constant": true
    },
    {
      "inputs": [
        {
          "internalType": "address",
          "name": "_sender",
          "type": "address"
        },
        {
          "internalType": "address",
          "name": "_target",
          "type": "address"
        },
        {
          "internalType": "uint256",
          "name": "_value",
          "type": "uint256"
        },
        {
          "internalType": "uint256",
          "name": "_startTimestamp",
          "type": "uint256"
        },
        {
          "internalType": "uint256",
          "name": "_endTimestamp",
          "type": "uint256"
        }
      ],
      "name": "getTxId",
      "outputs": [
        {
          "internalType": "bytes32",
          "name": "",
          "type": "bytes32"
        }
      ],
      "stateMutability": "pure",
      "type": "function",
      "constant": true
    },
    {
      "inputs": [
        {
          "internalType": "address",
          "name": "_target",
          "type": "address"
        },
        {
          "internalType": "uint256",
          "name": "_value",
          "type": "uint256"
        },
        {
          "internalType": "uint256",
          "name": "_endTimestamp",
          "type": "uint256"
        }
      ],
      "name": "queue",
      "outputs": [
        {
          "internalType": "bytes32",
          "name": "",
          "type": "bytes32"
        }
      ],
      "stateMutability": "nonpayable",
      "type": "function"
    },
    {
      "inputs": [],
      "name": "getTxArr",
      "outputs": [
        {
          "components": [
            {
              "internalType": "bytes32",
              "name": "txId",
              "type": "bytes32"
            },
            {
              "internalType": "address",
              "name": "sender",
              "type": "address"
            },
            {
              "internalType": "address",
              "name": "target",
              "type": "address"
            },
            {
              "internalType": "uint256",
              "name": "value",
              "type": "uint256"
            },
            {
              "internalType": "uint256",
              "name": "startTimestamp",
              "type": "uint256"
            },
            {
              "internalType": "uint256",
              "name": "endTimestamp",
              "type": "uint256"
            },
            {
              "internalType": "enum Timelock.TxStatus",
              "name": "status",
              "type": "uint8"
            }
          ],
          "internalType": "struct Timelock.Tx[]",
          "name": "",
          "type": "tuple[]"
        }
      ],
      "stateMutability": "view",
      "type": "function",
      "constant": true
    },
    {
      "inputs": [
        {
          "internalType": "bytes32",
          "name": "_txId",
          "type": "bytes32"
        }
      ],
      "name": "execute",
      "outputs": [],
      "stateMutability": "nonpayable",
      "type": "function"
    },
    {
      "inputs": [
        {
          "internalType": "bytes32",
          "name": "_txId",
          "type": "bytes32"
        }
      ],
      "name": "cancel",
      "outputs": [],
      "stateMutability": "nonpayable",
      "type": "function"
    },
    {
      "inputs": [
        {
          "internalType": "bytes32",
          "name": "_txId",
          "type": "bytes32"
        }
      ],
      "name": "getTx",
      "outputs": [
        {
          "components": [
            {
              "internalType": "bytes32",
              "name": "txId",
              "type": "bytes32"
            },
            {
              "internalType": "address",
              "name": "sender",
              "type": "address"
            },
            {
              "internalType": "address",
              "name": "target",
              "type": "address"
            },
            {
              "internalType": "uint256",
              "name": "value",
              "type": "uint256"
            },
            {
              "internalType": "uint256",
              "name": "startTimestamp",
              "type": "uint256"
            },
            {
              "internalType": "uint256",
              "name": "endTimestamp",
              "type": "uint256"
            },
            {
              "internalType": "enum Timelock.TxStatus",
              "name": "status",
              "type": "uint8"
            }
          ],
          "internalType": "struct Timelock.Tx",
          "name": "transaction",
          "type": "tuple"
        }
      ],
      "stateMutability": "view",
      "type": "function",
      "constant": true
    },
    {
      "inputs": [],
      "name": "listLogs",
      "outputs": [
        {
          "components": [
            {
              "internalType": "bytes32",
              "name": "txId",
              "type": "bytes32"
            },
            {
              "internalType": "address",
              "name": "sender",
              "type": "address"
            },
            {
              "internalType": "address",
              "name": "target",
              "type": "address"
            },
            {
              "internalType": "uint256",
              "name": "value",
              "type": "uint256"
            },
            {
              "internalType": "uint256",
              "name": "startTimestamp",
              "type": "uint256"
            },
            {
              "internalType": "uint256",
              "name": "endTimestamp",
              "type": "uint256"
            },
            {
              "internalType": "enum Timelock.TxStatus",
              "name": "currentState",
              "type": "uint8"
            }
          ],
          "internalType": "struct Timelock.Log[]",
          "name": "",
          "type": "tuple[]"
        }
      ],
      "stateMutability": "view",
      "type": "function",
      "constant": true
    },
    {
      "inputs": [],
      "name": "listQueued",
      "outputs": [
        {
          "components": [
            {
              "internalType": "bytes32",
              "name": "txId",
              "type": "bytes32"
            },
            {
              "internalType": "address",
              "name": "sender",
              "type": "address"
            },
            {
              "internalType": "address",
              "name": "target",
              "type": "address"
            },
            {
              "internalType": "uint256",
              "name": "value",
              "type": "uint256"
            },
            {
              "internalType": "uint256",
              "name": "startTimestamp",
              "type": "uint256"
            },
            {
              "internalType": "uint256",
              "name": "endTimestamp",
              "type": "uint256"
            },
            {
              "internalType": "enum Timelock.TxStatus",
              "name": "currentState",
              "type": "uint8"
            }
          ],
          "internalType": "struct Timelock.Log[]",
          "name": "",
          "type": "tuple[]"
        }
      ],
      "stateMutability": "view",
      "type": "function",
      "constant": true
    },
    {
      "inputs": [],
      "name": "listCancelled",
      "outputs": [
        {
          "components": [
            {
              "internalType": "bytes32",
              "name": "txId",
              "type": "bytes32"
            },
            {
              "internalType": "address",
              "name": "sender",
              "type": "address"
            },
            {
              "internalType": "address",
              "name": "target",
              "type": "address"
            },
            {
              "internalType": "uint256",
              "name": "value",
              "type": "uint256"
            },
            {
              "internalType": "uint256",
              "name": "startTimestamp",
              "type": "uint256"
            },
            {
              "internalType": "uint256",
              "name": "endTimestamp",
              "type": "uint256"
            },
            {
              "internalType": "enum Timelock.TxStatus",
              "name": "currentState",
              "type": "uint8"
            }
          ],
          "internalType": "struct Timelock.Log[]",
          "name": "",
          "type": "tuple[]"
        }
      ],
      "stateMutability": "view",
      "type": "function",
      "constant": true
    },
    {
      "inputs": [],
      "name": "listExecuted",
      "outputs": [
        {
          "components": [
            {
              "internalType": "bytes32",
              "name": "txId",
              "type": "bytes32"
            },
            {
              "internalType": "address",
              "name": "sender",
              "type": "address"
            },
            {
              "internalType": "address",
              "name": "target",
              "type": "address"
            },
            {
              "internalType": "uint256",
              "name": "value",
              "type": "uint256"
            },
            {
              "internalType": "uint256",
              "name": "startTimestamp",
              "type": "uint256"
            },
            {
              "internalType": "uint256",
              "name": "endTimestamp",
              "type": "uint256"
            },
            {
              "internalType": "enum Timelock.TxStatus",
              "name": "currentState",
              "type": "uint8"
            }
          ],
          "internalType": "struct Timelock.Log[]",
          "name": "",
          "type": "tuple[]"
        }
      ],
      "stateMutability": "view",
      "type": "function",
      "constant": true
    },
    {
      "inputs": [],
      "name": "listFailed",
      "outputs": [
        {
          "components": [
            {
              "internalType": "bytes32",
              "name": "txId",
              "type": "bytes32"
            },
            {
              "internalType": "address",
              "name": "sender",
              "type": "address"
            },
            {
              "internalType": "address",
              "name": "target",
              "type": "address"
            },
            {
              "internalType": "uint256",
              "name": "value",
              "type": "uint256"
            },
            {
              "internalType": "uint256",
              "name": "startTimestamp",
              "type": "uint256"
            },
            {
              "internalType": "uint256",
              "name": "endTimestamp",
              "type": "uint256"
            },
            {
              "internalType": "enum Timelock.TxStatus",
              "name": "currentState",
              "type": "uint8"
            }
          ],
          "internalType": "struct Timelock.Log[]",
          "name": "",
          "type": "tuple[]"
        }
      ],
      "stateMutability": "view",
      "type": "function",
      "constant": true
    }
  ],
  "bytecode": "0x60806040523480156200001157600080fd5b5060405162003ca438038062003ca48339818101604052810190620000379190620000e8565b806000806101000a81548173ffffffffffffffffffffffffffffffffffffffff021916908373ffffffffffffffffffffffffffffffffffffffff160217905550506200011a565b600080fd5b600073ffffffffffffffffffffffffffffffffffffffff82169050919050565b6000620000b08262000083565b9050919050565b620000c281620000a3565b8114620000ce57600080fd5b50565b600081519050620000e281620000b7565b92915050565b6000602082840312156200010157620001006200007e565b5b60006200011184828501620000d1565b91505092915050565b613b7a806200012a6000396000f3fe608060405234801561001057600080fd5b50600436106100f55760003560e01c8063b5677b4211610097578063e1cf678d11610066578063e1cf678d14610254578063e751f27114610284578063f3a6cc2b146102a0578063fa9884c7146102d0576100f5565b8063b5677b42146101cc578063b915cb6c146101ea578063c396a4ee1461021a578063c4d252f514610238576100f5565b80638383ebb1116100d35780638383ebb114610154578063a176166414610172578063ae21568614610190578063b0a1c1c4146101ae576100f5565b80632fcc36db146100fa5780632fe71b8614610118578063446f201e14610136575b600080fd5b6101026102ee565b60405161010f9190612fe1565b60405180910390f35b6101206106c9565b60405161012d9190613140565b60405180910390f35b61013e61090e565b60405161014b91906131c1565b60405180910390f35b61015c610932565b6040516101699190612fe1565b60405180910390f35b61017a610d0f565b60405161018791906131eb565b60405180910390f35b610198610d35565b6040516101a59190612fe1565b60405180910390f35b6101b6611112565b6040516101c39190613215565b60405180910390f35b6101d4611118565b6040516101e19190613215565b60405180910390f35b61020460048036038101906101ff9190613261565b61111e565b604051610211919061331c565b60405180910390f35b61022261125a565b60405161022f9190612fe1565b60405180910390f35b610252600480360381019061024d9190613261565b611637565b005b61026e6004803603810190610269919061338f565b611afa565b60405161027b91906133f1565b60405180910390f35b61029e60048036038101906102999190613261565b6120b4565b005b6102ba60048036038101906102b5919061340c565b6125ba565b6040516102c791906133f1565b60405180910390f35b6102d86125f6565b6040516102e59190612fe1565b60405180910390f35b60606000805b6007805490508110156103fd573373ffffffffffffffffffffffffffffffffffffffff166007828154811061032c5761032b613487565b5b906000526020600020906007020160010160009054906101000a900473ffffffffffffffffffffffffffffffffffffffff1673ffffffffffffffffffffffffffffffffffffffff161480156103d6575060038081111561038f5761038e612e59565b5b600782815481106103a3576103a2613487565b5b906000526020600020906007020160060160009054906101000a900460ff1660038111156103d4576103d3612e59565b5b145b156103ea5781806103e6906134e5565b9250505b80806103f5906134e5565b9150506102f4565b5060008167ffffffffffffffff81111561041a5761041961352d565b5b60405190808252806020026020018201604052801561045357816020015b610440612cbe565b8152602001906001900390816104385790505b5090506000915060005b6007805490508110156106c0573373ffffffffffffffffffffffffffffffffffffffff166007828154811061049557610494613487565b5b906000526020600020906007020160010160009054906101000a900473ffffffffffffffffffffffffffffffffffffffff1673ffffffffffffffffffffffffffffffffffffffff1614801561053f57506003808111156104f8576104f7612e59565b5b6007828154811061050c5761050b613487565b5b906000526020600020906007020160060160009054906101000a900460ff16600381111561053d5761053c612e59565b5b145b156106ad576007818154811061055857610557613487565b5b90600052602060002090600702016040518060e0016040529081600082015481526020016001820160009054906101000a900473ffffffffffffffffffffffffffffffffffffffff1673ffffffffffffffffffffffffffffffffffffffff1673ffffffffffffffffffffffffffffffffffffffff1681526020016002820160009054906101000a900473ffffffffffffffffffffffffffffffffffffffff1673ffffffffffffffffffffffffffffffffffffffff1673ffffffffffffffffffffffffffffffffffffffff1681526020016003820154815260200160048201548152602001600582015481526020016006820160009054906101000a900460ff16600381111561066a57610669612e59565b5b600381111561067c5761067b612e59565b5b8152505082848151811061069357610692613487565b5b602002602001018190525082806106a9906134e5565b9350505b80806106b8906134e5565b91505061045d565b50809250505090565b6060600060035467ffffffffffffffff8111156106e9576106e861352d565b5b60405190808252806020026020018201604052801561072257816020015b61070f612d3c565b8152602001906001900390816107075790505b50905060005b600354811015610906576000600381111561074657610745612e59565b5b600160006002600085815260200190815260200160002054815260200190815260200160002060060160009054906101000a900460ff16600381111561078f5761078e612e59565b5b036108f35760016000600260008481526020019081526020016000205481526020019081526020016000206040518060e0016040529081600082015481526020016001820160009054906101000a900473ffffffffffffffffffffffffffffffffffffffff1673ffffffffffffffffffffffffffffffffffffffff1673ffffffffffffffffffffffffffffffffffffffff1681526020016002820160009054906101000a900473ffffffffffffffffffffffffffffffffffffffff1673ffffffffffffffffffffffffffffffffffffffff1673ffffffffffffffffffffffffffffffffffffffff1681526020016003820154815260200160048201548152602001600582015481526020016006820160009054906101000a900460ff1660038111156108be576108bd612e59565b5b60038111156108d0576108cf612e59565b5b815250508282815181106108e7576108e6613487565b5b60200260200101819052505b80806108fe906134e5565b915050610728565b508091505090565b60008054906101000a900473ffffffffffffffffffffffffffffffffffffffff1681565b60606000805b600780549050811015610a42573373ffffffffffffffffffffffffffffffffffffffff16600782815481106109705761096f613487565b5b906000526020600020906007020160010160009054906101000a900473ffffffffffffffffffffffffffffffffffffffff1673ffffffffffffffffffffffffffffffffffffffff16148015610a1b5750600060038111156109d4576109d3612e59565b5b600782815481106109e8576109e7613487565b5b906000526020600020906007020160060160009054906101000a900460ff166003811115610a1957610a18612e59565b5b145b15610a2f578180610a2b906134e5565b9250505b8080610a3a906134e5565b915050610938565b5060008167ffffffffffffffff811115610a5f57610a5e61352d565b5b604051908082528060200260200182016040528015610a9857816020015b610a85612cbe565b815260200190600190039081610a7d5790505b5090506000915060005b600780549050811015610d06573373ffffffffffffffffffffffffffffffffffffffff1660078281548110610ada57610ad9613487565b5b906000526020600020906007020160010160009054906101000a900473ffffffffffffffffffffffffffffffffffffffff1673ffffffffffffffffffffffffffffffffffffffff16148015610b85575060006003811115610b3e57610b3d612e59565b5b60078281548110610b5257610b51613487565b5b906000526020600020906007020160060160009054906101000a900460ff166003811115610b8357610b82612e59565b5b145b15610cf35760078181548110610b9e57610b9d613487565b5b90600052602060002090600702016040518060e0016040529081600082015481526020016001820160009054906101000a900473ffffffffffffffffffffffffffffffffffffffff1673ffffffffffffffffffffffffffffffffffffffff1673ffffffffffffffffffffffffffffffffffffffff1681526020016002820160009054906101000a900473ffffffffffffffffffffffffffffffffffffffff1673ffffffffffffffffffffffffffffffffffffffff1673ffffffffffffffffffffffffffffffffffffffff1681526020016003820154815260200160048201548152602001600582015481526020016006820160009054906101000a900460ff166003811115610cb057610caf612e59565b5b6003811115610cc257610cc1612e59565b5b81525050828481518110610cd957610cd8613487565b5b60200260200101819052508280610cef906134e5565b9350505b8080610cfe906134e5565b915050610aa2565b50809250505090565b600460009054906101000a900473ffffffffffffffffffffffffffffffffffffffff1681565b60606000805b600780549050811015610e45573373ffffffffffffffffffffffffffffffffffffffff1660078281548110610d7357610d72613487565b5b906000526020600020906007020160010160009054906101000a900473ffffffffffffffffffffffffffffffffffffffff1673ffffffffffffffffffffffffffffffffffffffff16148015610e1e575060016003811115610dd757610dd6612e59565b5b60078281548110610deb57610dea613487565b5b906000526020600020906007020160060160009054906101000a900460ff166003811115610e1c57610e1b612e59565b5b145b15610e32578180610e2e906134e5565b9250505b8080610e3d906134e5565b915050610d3b565b5060008167ffffffffffffffff811115610e6257610e6161352d565b5b604051908082528060200260200182016040528015610e9b57816020015b610e88612cbe565b815260200190600190039081610e805790505b5090506000915060005b600780549050811015611109573373ffffffffffffffffffffffffffffffffffffffff1660078281548110610edd57610edc613487565b5b906000526020600020906007020160010160009054906101000a900473ffffffffffffffffffffffffffffffffffffffff1673ffffffffffffffffffffffffffffffffffffffff16148015610f88575060016003811115610f4157610f40612e59565b5b60078281548110610f5557610f54613487565b5b906000526020600020906007020160060160009054906101000a900460ff166003811115610f8657610f85612e59565b5b145b156110f65760078181548110610fa157610fa0613487565b5b90600052602060002090600702016040518060e0016040529081600082015481526020016001820160009054906101000a900473ffffffffffffffffffffffffffffffffffffffff1673ffffffffffffffffffffffffffffffffffffffff1673ffffffffffffffffffffffffffffffffffffffff1681526020016002820160009054906101000a900473ffffffffffffffffffffffffffffffffffffffff1673ffffffffffffffffffffffffffffffffffffffff1673ffffffffffffffffffffffffffffffffffffffff1681526020016003820154815260200160048201548152602001600582015481526020016006820160009054906101000a900460ff1660038111156110b3576110b2612e59565b5b60038111156110c5576110c4612e59565b5b815250508284815181106110dc576110db613487565b5b602002602001018190525082806110f2906134e5565b9350505b8080611101906134e5565b915050610ea5565b50809250505090565b60065481565b60055481565b611126612d3c565b600160008381526020019081526020016000206040518060e0016040529081600082015481526020016001820160009054906101000a900473ffffffffffffffffffffffffffffffffffffffff1673ffffffffffffffffffffffffffffffffffffffff1673ffffffffffffffffffffffffffffffffffffffff1681526020016002820160009054906101000a900473ffffffffffffffffffffffffffffffffffffffff1673ffffffffffffffffffffffffffffffffffffffff1673ffffffffffffffffffffffffffffffffffffffff1681526020016003820154815260200160048201548152602001600582015481526020016006820160009054906101000a900460ff16600381111561123d5761123c612e59565b5b600381111561124f5761124e612e59565b5b815250509050919050565b60606000805b60078054905081101561136a573373ffffffffffffffffffffffffffffffffffffffff166007828154811061129857611297613487565b5b906000526020600020906007020160010160009054906101000a900473ffffffffffffffffffffffffffffffffffffffff1673ffffffffffffffffffffffffffffffffffffffff161480156113435750600260038111156112fc576112fb612e59565b5b600782815481106113105761130f613487565b5b906000526020600020906007020160060160009054906101000a900460ff16600381111561134157611340612e59565b5b145b15611357578180611353906134e5565b9250505b8080611362906134e5565b915050611260565b5060008167ffffffffffffffff8111156113875761138661352d565b5b6040519080825280602002602001820160405280156113c057816020015b6113ad612cbe565b8152602001906001900390816113a55790505b5090506000915060005b60078054905081101561162e573373ffffffffffffffffffffffffffffffffffffffff166007828154811061140257611401613487565b5b906000526020600020906007020160010160009054906101000a900473ffffffffffffffffffffffffffffffffffffffff1673ffffffffffffffffffffffffffffffffffffffff161480156114ad57506002600381111561146657611465612e59565b5b6007828154811061147a57611479613487565b5b906000526020600020906007020160060160009054906101000a900460ff1660038111156114ab576114aa612e59565b5b145b1561161b57600781815481106114c6576114c5613487565b5b90600052602060002090600702016040518060e0016040529081600082015481526020016001820160009054906101000a900473ffffffffffffffffffffffffffffffffffffffff1673ffffffffffffffffffffffffffffffffffffffff1673ffffffffffffffffffffffffffffffffffffffff1681526020016002820160009054906101000a900473ffffffffffffffffffffffffffffffffffffffff1673ffffffffffffffffffffffffffffffffffffffff1673ffffffffffffffffffffffffffffffffffffffff1681526020016003820154815260200160048201548152602001600582015481526020016006820160009054906101000a900460ff1660038111156115d8576115d7612e59565b5b60038111156115ea576115e9612e59565b5b8152505082848151811061160157611600613487565b5b60200260200101819052508280611617906134e5565b9350505b8080611626906134e5565b9150506113ca565b50809250505090565b6000600381111561164b5761164a612e59565b5b6001600083815260200190815260200160002060060160009054906101000a900460ff16600381111561168157611680612e59565b5b146116c357806040517f0995c9d50000000000000000000000000000000000000000000000000000000081526004016116ba91906133f1565b60405180910390fd5b3373ffffffffffffffffffffffffffffffffffffffff166001600083815260200190815260200160002060010160009054906101000a900473ffffffffffffffffffffffffffffffffffffffff1673ffffffffffffffffffffffffffffffffffffffff1614611767576040517f08c379a000000000000000000000000000000000000000000000000000000000815260040161175e906135df565b60405180910390fd5b6000600160008381526020019081526020016000206040518060e0016040529081600082015481526020016001820160009054906101000a900473ffffffffffffffffffffffffffffffffffffffff1673ffffffffffffffffffffffffffffffffffffffff1673ffffffffffffffffffffffffffffffffffffffff1681526020016002820160009054906101000a900473ffffffffffffffffffffffffffffffffffffffff1673ffffffffffffffffffffffffffffffffffffffff1673ffffffffffffffffffffffffffffffffffffffff1681526020016003820154815260200160048201548152602001600582015481526020016006820160009054906101000a900460ff1660038111156118805761187f612e59565b5b600381111561189257611891612e59565b5b81525050905060026001600084815260200190815260200160002060060160006101000a81548160ff021916908360038111156118d2576118d1612e59565b5b02179055506000816060015160008054906101000a900473ffffffffffffffffffffffffffffffffffffffff1673ffffffffffffffffffffffffffffffffffffffff1663b6aa680c84602001516040518263ffffffff1660e01b815260040161193b91906131eb565b602060405180830381865afa158015611958573d6000803e3d6000fd5b505050506040513d601f19601f8201168201806040525081019061197c9190613614565b6119869190613641565b905060008060009054906101000a900473ffffffffffffffffffffffffffffffffffffffff1673ffffffffffffffffffffffffffffffffffffffff166333d07dc98460200151846040518363ffffffff1660e01b81526004016119ea929190613697565b6020604051808303816000875af1158015611a09573d6000803e3d6000fd5b505050506040513d601f19601f82011682018060405250810190611a2d91906136f8565b9050600080611a3d86600261290d565b91509150818190611a84576040517f08c379a0000000000000000000000000000000000000000000000000000000008152600401611a7b91906137ad565b60405180910390fd5b5082611ac5576040517f08c379a0000000000000000000000000000000000000000000000000000000008152600401611abc90613841565b60405180910390fd5b857fe8d9861dbc9c663ed3accd261bbe2fe01e0d3d9e5f51fa38523b265c7757a93a60405160405180910390a2505050505050565b6000808311611b3e576040517f08c379a0000000000000000000000000000000000000000000000000000000008152600401611b35906138d3565b60405180910390fd5b428211611b80576040517f08c379a0000000000000000000000000000000000000000000000000000000008152600401611b7790613965565b60405180910390fd5b8260008054906101000a900473ffffffffffffffffffffffffffffffffffffffff1673ffffffffffffffffffffffffffffffffffffffff1663b6aa680c336040518263ffffffff1660e01b8152600401611bda91906131eb565b602060405180830381865afa158015611bf7573d6000803e3d6000fd5b505050506040513d601f19601f82011682018060405250810190611c1b9190613614565b11611c5b576040517f08c379a0000000000000000000000000000000000000000000000000000000008152600401611c52906139d1565b60405180910390fd5b60008054906101000a900473ffffffffffffffffffffffffffffffffffffffff1673ffffffffffffffffffffffffffffffffffffffff1663aaad0c84856040518263ffffffff1660e01b8152600401611cb491906131eb565b602060405180830381865afa158015611cd1573d6000803e3d6000fd5b505050506040513d601f19601f82011682018060405250810190611cf591906136f8565b611d34576040517f08c379a0000000000000000000000000000000000000000000000000000000008152600401611d2b90613a3d565b60405180910390fd5b6000611d4333868642876125ba565b905060006040518060e001604052808381526020013373ffffffffffffffffffffffffffffffffffffffff1681526020018773ffffffffffffffffffffffffffffffffffffffff16815260200186815260200142815260200185815260200160006003811115611db657611db5612e59565b5b815250905080600160008481526020019081526020016000206000820151816000015560208201518160010160006101000a81548173ffffffffffffffffffffffffffffffffffffffff021916908373ffffffffffffffffffffffffffffffffffffffff16021790555060408201518160020160006101000a81548173ffffffffffffffffffffffffffffffffffffffff021916908373ffffffffffffffffffffffffffffffffffffffff160217905550606082015181600301556080820151816004015560a0820151816005015560c08201518160060160006101000a81548160ff02191690836003811115611eb057611eaf612e59565b5b0217905550905050816002600060035481526020019081526020016000208190555060008560008054906101000a900473ffffffffffffffffffffffffffffffffffffffff1673ffffffffffffffffffffffffffffffffffffffff1663b6aa680c336040518263ffffffff1660e01b8152600401611f2e91906131eb565b602060405180830381865afa158015611f4b573d6000803e3d6000fd5b505050506040513d601f19601f82011682018060405250810190611f6f9190613614565b611f799190613a5d565b90508673ffffffffffffffffffffffffffffffffffffffff163373ffffffffffffffffffffffffffffffffffffffff16847f0f774f5df3f0259249dcfdfece489f89b9ae3366e90676da36f6dfe6b64b963b89428a604051611fdd93929190613a91565b60405180910390a4611fee82612a45565b505060008054906101000a900473ffffffffffffffffffffffffffffffffffffffff1673ffffffffffffffffffffffffffffffffffffffff166333d07dc933836040518363ffffffff1660e01b815260040161204b929190613697565b6020604051808303816000875af115801561206a573d6000803e3d6000fd5b505050506040513d601f19601f8201168201806040525081019061208e91906136f8565b50600360008154809291906120a2906134e5565b91905055508293505050509392505050565b600060038111156120c8576120c7612e59565b5b6001600083815260200190815260200160002060060160009054906101000a900460ff1660038111156120fe576120fd612e59565b5b1461214057806040517f0995c9d500000000000000000000000000000000000000000000000000000000815260040161213791906133f1565b60405180910390fd5b6000600160008381526020019081526020016000206040518060e0016040529081600082015481526020016001820160009054906101000a900473ffffffffffffffffffffffffffffffffffffffff1673ffffffffffffffffffffffffffffffffffffffff1673ffffffffffffffffffffffffffffffffffffffff1681526020016002820160009054906101000a900473ffffffffffffffffffffffffffffffffffffffff1673ffffffffffffffffffffffffffffffffffffffff1673ffffffffffffffffffffffffffffffffffffffff1681526020016003820154815260200160048201548152602001600582015481526020016006820160009054906101000a900460ff16600381111561225957612258612e59565b5b600381111561226b5761226a612e59565b5b8152505090508060a001514210156122c057428160a001516040517f7dc4f9e00000000000000000000000000000000000000000000000000000000081526004016122b7929190613ac8565b60405180910390fd5b6000816060015160008054906101000a900473ffffffffffffffffffffffffffffffffffffffff1673ffffffffffffffffffffffffffffffffffffffff1663b6aa680c84604001516040518263ffffffff1660e01b815260040161232491906131eb565b602060405180830381865afa158015612341573d6000803e3d6000fd5b505050506040513d601f19601f820116820180604052508101906123659190613614565b61236f9190613641565b905060008060009054906101000a900473ffffffffffffffffffffffffffffffffffffffff1673ffffffffffffffffffffffffffffffffffffffff166333d07dc98460400151846040518363ffffffff1660e01b81526004016123d3929190613697565b6020604051808303816000875af11580156123f2573d6000803e3d6000fd5b505050506040513d601f19601f8201168201806040525081019061241691906136f8565b90508061249b5760036001600086815260200190815260200160002060060160006101000a81548160ff0219169083600381111561245757612456612e59565b5b021790555061246784600361290d565b50506040517fd9b4f81e00000000000000000000000000000000000000000000000000000000815260040160405180910390fd5b600180600086815260200190815260200160002060060160006101000a81548160ff021916908360038111156124d4576124d3612e59565b5b02179055506124e484600161290d565b50506000806124f486600161290d565b9150915081819061253b576040517f08c379a000000000000000000000000000000000000000000000000000000000815260040161253291906137ad565b60405180910390fd5b50846040015173ffffffffffffffffffffffffffffffffffffffff163373ffffffffffffffffffffffffffffffffffffffff16877f7aba212e4c6518f986a09fb4bdb3791ef7573643aeec1b5ab1df7a9c64cf25ec8860600151428a60a001516040516125aa93929190613a91565b60405180910390a4505050505050565b600085858585856040516020016125d5959493929190613af1565b60405160208183030381529060405280519060200120905095945050505050565b60606000805b6007805490508110156126a3573373ffffffffffffffffffffffffffffffffffffffff166007828154811061263457612633613487565b5b906000526020600020906007020160010160009054906101000a900473ffffffffffffffffffffffffffffffffffffffff1673ffffffffffffffffffffffffffffffffffffffff160361269057818061268c906134e5565b9250505b808061269b906134e5565b9150506125fc565b5060008167ffffffffffffffff8111156126c0576126bf61352d565b5b6040519080825280602002602001820160405280156126f957816020015b6126e6612cbe565b8152602001906001900390816126de5790505b5090506000915060005b600780549050811015612904573373ffffffffffffffffffffffffffffffffffffffff166007828154811061273b5761273a613487565b5b906000526020600020906007020160010160009054906101000a900473ffffffffffffffffffffffffffffffffffffffff1673ffffffffffffffffffffffffffffffffffffffff16036128f1576007818154811061279c5761279b613487565b5b90600052602060002090600702016040518060e0016040529081600082015481526020016001820160009054906101000a900473ffffffffffffffffffffffffffffffffffffffff1673ffffffffffffffffffffffffffffffffffffffff1673ffffffffffffffffffffffffffffffffffffffff1681526020016002820160009054906101000a900473ffffffffffffffffffffffffffffffffffffffff1673ffffffffffffffffffffffffffffffffffffffff1673ffffffffffffffffffffffffffffffffffffffff1681526020016003820154815260200160048201548152602001600582015481526020016006820160009054906101000a900460ff1660038111156128ae576128ad612e59565b5b60038111156128c0576128bf612e59565b5b815250508284815181106128d7576128d6613487565b5b602002602001018190525082806128ed906134e5565b9350505b80806128fc906134e5565b915050612703565b50809250505090565b600060606000805b60078054905081101561296a57856007828154811061293757612936613487565b5b90600052602060002090600702016000015403612957576001915061296a565b8080612962906134e5565b915050612915565b816129b25760006040518060400160405280601881526020017f5472616e73616374696f6e204964206e6f7420666f756e640000000000000000815250935093505050612a3e565b84600782815481106129c7576129c6613487565b5b906000526020600020906007020160060160006101000a81548160ff021916908360038111156129fa576129f9612e59565b5b021790555060016040518060400160405280601781526020017f557064617465206c6f67207375636365737366756c6c790000000000000000008152509350935050505b9250929050565b6000606060005b600780549050811015612ade57836000015160078281548110612a7257612a71613487565b5b90600052602060002090600702016000015403612acb5760006040518060400160405280601d81526020017f5472616e73616374696f6e20494420616c7265616479206578697374730000008152509250925050612cb9565b8080612ad6906134e5565b915050612a4c565b5060076040518060e0016040528085600001518152602001856020015173ffffffffffffffffffffffffffffffffffffffff168152602001856040015173ffffffffffffffffffffffffffffffffffffffff16815260200185606001518152602001856080015181526020018560a00151815260200160006003811115612b6857612b67612e59565b5b81525090806001815401808255809150506001900390600052602060002090600702016000909190919091506000820151816000015560208201518160010160006101000a81548173ffffffffffffffffffffffffffffffffffffffff021916908373ffffffffffffffffffffffffffffffffffffffff16021790555060408201518160020160006101000a81548173ffffffffffffffffffffffffffffffffffffffff021916908373ffffffffffffffffffffffffffffffffffffffff160217905550606082015181600301556080820151816004015560a0820151816005015560c08201518160060160006101000a81548160ff02191690836003811115612c7557612c74612e59565b5b0217905550505060016040518060400160405280601681526020017f4c6f67206164646564207375636365737366756c6c7900000000000000000000815250915091505b915091565b6040518060e0016040528060008019168152602001600073ffffffffffffffffffffffffffffffffffffffff168152602001600073ffffffffffffffffffffffffffffffffffffffff16815260200160008152602001600081526020016000815260200160006003811115612d3657612d35612e59565b5b81525090565b6040518060e0016040528060008019168152602001600073ffffffffffffffffffffffffffffffffffffffff168152602001600073ffffffffffffffffffffffffffffffffffffffff16815260200160008152602001600081526020016000815260200160006003811115612db457612db3612e59565b5b81525090565b600081519050919050565b600082825260208201905092915050565b6000819050602082019050919050565b6000819050919050565b612df981612de6565b82525050565b600073ffffffffffffffffffffffffffffffffffffffff82169050919050565b6000612e2a82612dff565b9050919050565b612e3a81612e1f565b82525050565b6000819050919050565b612e5381612e40565b82525050565b7f4e487b7100000000000000000000000000000000000000000000000000000000600052602160045260246000fd5b60048110612e9957612e98612e59565b5b50565b6000819050612eaa82612e88565b919050565b6000612eba82612e9c565b9050919050565b612eca81612eaf565b82525050565b60e082016000820151612ee66000850182612df0565b506020820151612ef96020850182612e31565b506040820151612f0c6040850182612e31565b506060820151612f1f6060850182612e4a565b506080820151612f326080850182612e4a565b5060a0820151612f4560a0850182612e4a565b5060c0820151612f5860c0850182612ec1565b50505050565b6000612f6a8383612ed0565b60e08301905092915050565b6000602082019050919050565b6000612f8e82612dba565b612f988185612dc5565b9350612fa383612dd6565b8060005b83811015612fd4578151612fbb8882612f5e565b9750612fc683612f76565b925050600181019050612fa7565b5085935050505092915050565b60006020820190508181036000830152612ffb8184612f83565b905092915050565b600081519050919050565b600082825260208201905092915050565b6000819050602082019050919050565b60e0820160008201516130456000850182612df0565b5060208201516130586020850182612e31565b50604082015161306b6040850182612e31565b50606082015161307e6060850182612e4a565b5060808201516130916080850182612e4a565b5060a08201516130a460a0850182612e4a565b5060c08201516130b760c0850182612ec1565b50505050565b60006130c9838361302f565b60e08301905092915050565b6000602082019050919050565b60006130ed82613003565b6130f7818561300e565b93506131028361301f565b8060005b8381101561313357815161311a88826130bd565b9750613125836130d5565b925050600181019050613106565b5085935050505092915050565b6000602082019050818103600083015261315a81846130e2565b905092915050565b6000819050919050565b600061318761318261317d84612dff565b613162565b612dff565b9050919050565b60006131998261316c565b9050919050565b60006131ab8261318e565b9050919050565b6131bb816131a0565b82525050565b60006020820190506131d660008301846131b2565b92915050565b6131e581612e1f565b82525050565b600060208201905061320060008301846131dc565b92915050565b61320f81612e40565b82525050565b600060208201905061322a6000830184613206565b92915050565b600080fd5b61323e81612de6565b811461324957600080fd5b50565b60008135905061325b81613235565b92915050565b60006020828403121561327757613276613230565b5b60006132858482850161324c565b91505092915050565b60e0820160008201516132a46000850182612df0565b5060208201516132b76020850182612e31565b5060408201516132ca6040850182612e31565b5060608201516132dd6060850182612e4a565b5060808201516132f06080850182612e4a565b5060a082015161330360a0850182612e4a565b5060c082015161331660c0850182612ec1565b50505050565b600060e082019050613331600083018461328e565b92915050565b61334081612e1f565b811461334b57600080fd5b50565b60008135905061335d81613337565b92915050565b61336c81612e40565b811461337757600080fd5b50565b60008135905061338981613363565b92915050565b6000806000606084860312156133a8576133a7613230565b5b60006133b68682870161334e565b93505060206133c78682870161337a565b92505060406133d88682870161337a565b9150509250925092565b6133eb81612de6565b82525050565b600060208201905061340660008301846133e2565b92915050565b600080600080600060a0868803121561342857613427613230565b5b60006134368882890161334e565b95505060206134478882890161334e565b94505060406134588882890161337a565b93505060606134698882890161337a565b925050608061347a8882890161337a565b9150509295509295909350565b7f4e487b7100000000000000000000000000000000000000000000000000000000600052603260045260246000fd5b7f4e487b7100000000000000000000000000000000000000000000000000000000600052601160045260246000fd5b60006134f082612e40565b91507fffffffffffffffffffffffffffffffffffffffffffffffffffffffffffffffff8203613522576135216134b6565b5b600182019050919050565b7f4e487b7100000000000000000000000000000000000000000000000000000000600052604160045260246000fd5b600082825260208201905092915050565b7f4f6e6c79207472616e73616374696f6e2073656e6465722063616e2063616e6360008201527f656c2e0000000000000000000000000000000000000000000000000000000000602082015250565b60006135c960238361355c565b91506135d48261356d565b604082019050919050565b600060208201905081810360008301526135f8816135bc565b9050919050565b60008151905061360e81613363565b92915050565b60006020828403121561362a57613629613230565b5b6000613638848285016135ff565b91505092915050565b600061364c82612e40565b915061365783612e40565b9250827fffffffffffffffffffffffffffffffffffffffffffffffffffffffffffffffff0382111561368c5761368b6134b6565b5b828201905092915050565b60006040820190506136ac60008301856131dc565b6136b96020830184613206565b9392505050565b60008115159050919050565b6136d5816136c0565b81146136e057600080fd5b50565b6000815190506136f2816136cc565b92915050565b60006020828403121561370e5761370d613230565b5b600061371c848285016136e3565b91505092915050565b600081519050919050565b60005b8381101561374e578082015181840152602081019050613733565b8381111561375d576000848401525b50505050565b6000601f19601f8301169050919050565b600061377f82613725565b613789818561355c565b9350613799818560208601613730565b6137a281613763565b840191505092915050565b600060208201905081810360008301526137c78184613774565b905092915050565b7f4661696c656420746f2072657475726e20457468657220746f206465706f736960008201527f746f720000000000000000000000000000000000000000000000000000000000602082015250565b600061382b60238361355c565b9150613836826137cf565b604082019050919050565b6000602082019050818103600083015261385a8161381e565b9050919050565b7f45746865722076616c7565206d7573742062652067726561746572207468616e60008201527f20302e0000000000000000000000000000000000000000000000000000000000602082015250565b60006138bd60238361355c565b91506138c882613861565b604082019050919050565b600060208201905081810360008301526138ec816138b0565b9050919050565b7f456e64206461746520616e642074696d65206d75737420626520696e2066757460008201527f7572652e00000000000000000000000000000000000000000000000000000000602082015250565b600061394f60248361355c565b915061395a826138f3565b604082019050919050565b6000602082019050818103600083015261397e81613942565b9050919050565b7f496e73756666696369656e742042616c616e6365000000000000000000000000600082015250565b60006139bb60148361355c565b91506139c682613985565b602082019050919050565b600060208201905081810360008301526139ea816139ae565b9050919050565b7f5265636569766572204e6f742045786973740000000000000000000000000000600082015250565b6000613a2760128361355c565b9150613a32826139f1565b602082019050919050565b60006020820190508181036000830152613a5681613a1a565b9050919050565b6000613a6882612e40565b9150613a7383612e40565b925082821015613a8657613a856134b6565b5b828203905092915050565b6000606082019050613aa66000830186613206565b613ab36020830185613206565b613ac06040830184613206565b949350505050565b6000604082019050613add6000830185613206565b613aea6020830184613206565b9392505050565b600060a082019050613b0660008301886131dc565b613b1360208301876131dc565b613b206040830186613206565b613b2d6060830185613206565b613b3a6080830184613206565b969550505050505056fea2646970667358221220d3e1c533b6ab1325647ea0460aa6cfb68a186c75ebdf39417d3a9ed3e18adde864736f6c634300080d0033",
  "immutableReferences": {},
  "source": "// SPDX-License-Identifier: MIT\r\npragma solidity ^0.8.0;\r\nimport \"./AccountManager.sol\";\r\n\r\ncontract Timelock {\r\n    AccountManager public accountsContract;\r\n\r\n    constructor(address _accountsContractAddress) {\r\n        // admin = msg.sender;\r\n        accountsContract = AccountManager(_accountsContractAddress);\r\n    }\r\n\r\n    //Transaction--------------------------------------------------------------\r\n    error AlreadyQueuedError(bytes32 txId);\r\n    error NotQueuedError(bytes32 txId);\r\n    error TimestampNotPassedError(uint256 blockTimestamp, uint256 timestamp);\r\n    error TimestampNotMatureError(uint256 blockTimestamp, uint256 expiresAt);\r\n    error TimestampExpiredError(uint256 blockTimestamp, uint256 expiresAt);\r\n    error TxFailedError();\r\n\r\n    event Queue(\r\n        bytes32 indexed txId,\r\n        address indexed sender,\r\n        address indexed target,\r\n        uint256 value,\r\n        uint256 startTimestamp,\r\n        uint256 endTimestamp\r\n    );\r\n    event Execute(\r\n        bytes32 indexed txId,\r\n        address indexed sender,\r\n        address indexed target,\r\n        uint256 value,\r\n        uint256 startTimestamp,\r\n        uint256 endTimestamp\r\n    );\r\n    event Cancel(bytes32 indexed txId);\r\n    event Deposited(address indexed user, uint256 amount);\r\n\r\n    enum TxStatus {\r\n        Queued,\r\n        Completed,\r\n        Cancelled,\r\n        Failed\r\n    }\r\n    // Struct to store transaction details\r\n    struct Tx {\r\n        bytes32 txId;\r\n        address sender;\r\n        address target;\r\n        uint256 value;\r\n        uint256 startTimestamp;\r\n        uint256 endTimestamp;\r\n        TxStatus status;\r\n    }\r\n\r\n    // Mapping of transaction IDs to transaction data\r\n    mapping(bytes32 => Tx) private txs;\r\n    mapping(uint256 => bytes32) private indexToTxMapping;\r\n    uint256 txCount;\r\n    address public whoDeposited;\r\n    uint256 public depositAmt;\r\n    uint256 public accountBalance;\r\n\r\n    function getTxId(\r\n        address _sender,\r\n        address _target,\r\n        uint256 _value,\r\n        uint256 _startTimestamp,\r\n        uint256 _endTimestamp\r\n    ) public pure returns (bytes32) {\r\n        return\r\n            keccak256(\r\n                abi.encode(\r\n                    _sender,\r\n                    _target,\r\n                    _value,\r\n                    _startTimestamp,\r\n                    _endTimestamp\r\n                )\r\n            );\r\n    }\r\n\r\n    function queue(\r\n        address _target,\r\n        uint256 _value,\r\n        uint256 _endTimestamp\r\n    ) external returns (bytes32) {\r\n        require(_value > 0, \"Ether value must be greater than 0.\");\r\n        require(\r\n            _endTimestamp > block.timestamp,\r\n            \"End date and time must be in future.\"\r\n        );\r\n        require(\r\n            accountsContract.getAccountDeposit(msg.sender) > _value,\r\n            \"Insufficient Balance\"\r\n        );\r\n        require(accountsContract.isExisted(_target), \"Receiver Not Exist\");\r\n        // Generate the transaction ID based on the target and value\r\n        bytes32 txId = getTxId(\r\n            msg.sender,\r\n            _target,\r\n            _value,\r\n            block.timestamp,\r\n            _endTimestamp\r\n        );\r\n\r\n        // Ensure the transaction is not already queued\r\n        // if (txs[txId].status==TxStatus.Queued) {\r\n        //     revert AlreadyQueuedError(txId);\r\n        // }\r\n\r\n        // Store the new transaction\r\n        Tx memory currentTx = Tx(\r\n            txId,\r\n            msg.sender,\r\n            _target,\r\n            _value,\r\n            block.timestamp,\r\n            _endTimestamp,\r\n            TxStatus.Queued\r\n        );\r\n        txs[txId] = currentTx;\r\n        indexToTxMapping[txCount] = txId;\r\n\r\n        uint256 newAmount = accountsContract.getAccountDeposit(msg.sender) -\r\n            _value;\r\n        // Emit the Queue event\r\n        emit Queue(\r\n            txId,\r\n            msg.sender,\r\n            _target,\r\n            _value,\r\n            block.timestamp,\r\n            _endTimestamp\r\n        );\r\n        addLog(currentTx);\r\n        accountsContract.depositUpdate(msg.sender, newAmount);\r\n        txCount++;\r\n        return txId;\r\n    }\r\n\r\n    function getTxArr() public view returns (Tx[] memory) {\r\n        Tx[] memory arr = new Tx[](txCount);\r\n        for (uint256 i = 0; i < txCount; i++) {\r\n            if (txs[indexToTxMapping[i]].status == TxStatus.Queued) {\r\n                arr[i] = txs[indexToTxMapping[i]];\r\n            }\r\n        }\r\n        return arr;\r\n    }\r\n\r\n    function execute(bytes32 _txId) external {\r\n        // Ensure the transaction is actually queued\r\n        if (txs[_txId].status != TxStatus.Queued) {\r\n            revert NotQueuedError(_txId);\r\n        }\r\n\r\n        Tx memory currentTx = txs[_txId];\r\n\r\n        // // Ensure the timestamp has passed for execution\r\n        // if (block.timestamp < currentTx.timestamp) {\r\n        //     revert TimestampNotPassedError(\r\n        //         block.timestamp,\r\n        //         currentTx.timestamp\r\n        //     );\r\n        // }\r\n\r\n        // Ensure the transaction is executed after the grace period\r\n        if (block.timestamp < currentTx.endTimestamp) {\r\n            revert TimestampNotMatureError(\r\n                block.timestamp,\r\n                currentTx.endTimestamp\r\n            );\r\n        }\r\n\r\n        uint256 newAmount = accountsContract.getAccountDeposit(\r\n            currentTx.target\r\n        ) + currentTx.value;\r\n        bool success = accountsContract.depositUpdate(\r\n            currentTx.target,\r\n            newAmount\r\n        );\r\n        if (!success) {\r\n            txs[_txId].status = TxStatus.Failed;\r\n            updateStatus(_txId, TxStatus.Failed);\r\n            revert TxFailedError();\r\n        }\r\n        // Mark the transaction as executed\r\n        txs[_txId].status = TxStatus.Completed;\r\n\r\n        updateStatus(_txId, TxStatus.Completed);\r\n        // Emit the Execute event\r\n        (bool c, string memory message) = updateStatus(\r\n            _txId,\r\n            TxStatus.Completed\r\n        );\r\n        require(c, message);\r\n\r\n        emit Execute(\r\n            _txId,\r\n            msg.sender,\r\n            currentTx.target,\r\n            currentTx.value,\r\n            block.timestamp,\r\n            currentTx.endTimestamp\r\n        );\r\n\r\n        // return (currentTx.target, currentTx.value);\r\n    }\r\n\r\n    function cancel(bytes32 _txId) external {\r\n        // Ensure the transaction is queued\r\n        if (txs[_txId].status != TxStatus.Queued) {\r\n            revert NotQueuedError(_txId);\r\n        }\r\n        require(\r\n            txs[_txId].sender == msg.sender,\r\n            \"Only transaction sender can cancel.\"\r\n        );\r\n\r\n        Tx memory currentTx = txs[_txId];\r\n        // // Ensure the transaction is executed in the grace period\r\n        // if (block.timestamp >= currentTx.timestamp + gracePeriod) {\r\n        //     revert TimestampExpiredError(\r\n        //         block.timestamp,\r\n        //         currentTx.timestamp + gracePeriod\r\n        //     );\r\n        // }\r\n        // Mark the transaction as canceled\r\n\r\n        txs[_txId].status = TxStatus.Cancelled;\r\n\r\n        uint256 newAmount = accountsContract.getAccountDeposit(\r\n            currentTx.sender\r\n        ) + currentTx.value;\r\n        bool success = accountsContract.depositUpdate(\r\n            currentTx.sender,\r\n            newAmount\r\n        );\r\n        // Emit the Cancel event\r\n        (bool c, string memory message) = updateStatus(\r\n            _txId,\r\n            TxStatus.Cancelled\r\n        );\r\n        require(c, message);\r\n\r\n        require(success, \"Failed to return Ether to depositor\");\r\n        emit Cancel(_txId);\r\n\r\n        // return (currentTx.depositor, currentTx.value);\r\n    }\r\n\r\n    function getTx(bytes32 _txId)\r\n        external\r\n        view\r\n        returns (Tx memory transaction)\r\n    {\r\n        return txs[_txId];\r\n    }\r\n\r\n    // ------------------- LISTING BY YEOH ZHE HENG ------------------\r\n    struct Log {\r\n        bytes32 txId;\r\n        address sender;\r\n        address target;\r\n        uint256 value;\r\n        uint256 startTimestamp; // Passed the scheduled for transaction date, in grace period form\r\n        uint256 endTimestamp; // Passed the scheduled for transaction date, in grace period form\r\n        TxStatus currentState;\r\n    }\r\n\r\n    Log[] internal logs;\r\n\r\n    function listLogs() public view returns (Log[] memory) {\r\n        uint256 count = 0;\r\n        for (uint256 i = 0; i < logs.length; i++) {\r\n            if (logs[i].sender == msg.sender) {\r\n                count++;\r\n            }\r\n        }\r\n\r\n        Log[] memory filterLog = new Log[](count);\r\n        count = 0;\r\n        for (uint256 i = 0; i < logs.length; i++) {\r\n            if (logs[i].sender == msg.sender) {\r\n                filterLog[count] = logs[i];\r\n                count++;\r\n            }\r\n        }\r\n\r\n        return filterLog;\r\n    }\r\n\r\n    function listQueued() public view returns (Log[] memory) {\r\n        uint256 count = 0;\r\n        for (uint256 i = 0; i < logs.length; i++) {\r\n            if (\r\n                logs[i].sender == msg.sender &&\r\n                logs[i].currentState == TxStatus.Queued\r\n            ) {\r\n                count++;\r\n            }\r\n        }\r\n\r\n        Log[] memory filterLog = new Log[](count);\r\n        count = 0;\r\n        for (uint256 i = 0; i < logs.length; i++) {\r\n            if (\r\n                logs[i].sender == msg.sender &&\r\n                logs[i].currentState == TxStatus.Queued\r\n            ) {\r\n                filterLog[count] = logs[i];\r\n                count++;\r\n            }\r\n        }\r\n\r\n        return filterLog;\r\n    }\r\n\r\n    function listCancelled() public view returns (Log[] memory) {\r\n        uint256 count = 0;\r\n        for (uint256 i = 0; i < logs.length; i++) {\r\n            if (\r\n                logs[i].sender == msg.sender &&\r\n                logs[i].currentState == TxStatus.Cancelled\r\n            ) {\r\n                count++;\r\n            }\r\n        }\r\n\r\n        Log[] memory filterLog = new Log[](count);\r\n        count = 0;\r\n        for (uint256 i = 0; i < logs.length; i++) {\r\n            if (\r\n                logs[i].sender == msg.sender &&\r\n                logs[i].currentState == TxStatus.Cancelled\r\n            ) {\r\n                filterLog[count] = logs[i];\r\n                count++;\r\n            }\r\n        }\r\n\r\n        return filterLog;\r\n    }\r\n\r\n    function listExecuted() public view returns (Log[] memory) {\r\n        uint256 count = 0;\r\n        for (uint256 i = 0; i < logs.length; i++) {\r\n            if (\r\n                logs[i].sender == msg.sender &&\r\n                logs[i].currentState == TxStatus.Completed\r\n            ) {\r\n                count++;\r\n            }\r\n        }\r\n\r\n        Log[] memory filterLog = new Log[](count);\r\n        count = 0;\r\n        for (uint256 i = 0; i < logs.length; i++) {\r\n            if (\r\n                logs[i].sender == msg.sender &&\r\n                logs[i].currentState == TxStatus.Completed\r\n            ) {\r\n                filterLog[count] = logs[i];\r\n                count++;\r\n            }\r\n        }\r\n\r\n        return filterLog;\r\n    }\r\n\r\n    function listFailed() public view returns (Log[] memory) {\r\n        uint256 count = 0;\r\n        for (uint256 i = 0; i < logs.length; i++) {\r\n            if (\r\n                logs[i].sender == msg.sender &&\r\n                logs[i].currentState == TxStatus.Failed\r\n            ) {\r\n                count++;\r\n            }\r\n        }\r\n\r\n        Log[] memory filterLog = new Log[](count);\r\n        count = 0;\r\n        for (uint256 i = 0; i < logs.length; i++) {\r\n            if (\r\n                logs[i].sender == msg.sender &&\r\n                logs[i].currentState == TxStatus.Failed\r\n            ) {\r\n                filterLog[count] = logs[i];\r\n                count++;\r\n            }\r\n        }\r\n\r\n        return filterLog;\r\n    }\r\n\r\n    function addLog(Tx memory _tx) internal returns (bool, string memory) {\r\n        for (uint256 i = 0; i < logs.length; i++) {\r\n            if (logs[i].txId == _tx.txId) {\r\n                return (false, \"Transaction ID already exists\");\r\n            }\r\n        }\r\n\r\n        logs.push(\r\n            Log({\r\n                txId: _tx.txId,\r\n                sender: _tx.sender,\r\n                target: _tx.target,\r\n                value: _tx.value,\r\n                startTimestamp: _tx.startTimestamp,\r\n                endTimestamp: _tx.endTimestamp,\r\n                currentState: TxStatus.Queued\r\n            })\r\n        );\r\n\r\n        return (true, \"Log added successfully\");\r\n    }\r\n\r\n    function updateStatus(bytes32 _txId, TxStatus _status)\r\n        internal\r\n        returns (bool, string memory)\r\n    {\r\n        bool found = false;\r\n        uint256 count;\r\n        while (count < logs.length) {\r\n            if (logs[count].txId == _txId) {\r\n                found = true;\r\n                break;\r\n            }\r\n            count++;\r\n        }\r\n        if (!found) {\r\n            return (false, \"Transaction Id not found\");\r\n        }\r\n\r\n        logs[count].currentState = _status;\r\n        return (true, \"Update log successfully\");\r\n    }\r\n}\r\n",
  "sourcePath": "c:\\Timelock\\contracts\\Timelock.sol",
  "compiler": {
    "name": "solc",
    "version": "0.8.13+commit.abaa5c0e.Emscripten.clang"
  },
  "schemaVersion": "3.4.16",
  "updatedAt": "2024-09-26T07:53:32.907Z",
  "networkType": "ethereum",
  "devdoc": {
    "kind": "dev",
    "methods": {},
    "version": 1
  },
  "userdoc": {
    "kind": "user",
    "methods": {},
    "version": 1
  }
}