{
  "contractName": "Timelock",
  "abi": [
    {
      "inputs": [
        {
          "internalType": "address",
          "name": "_accountsContractAddress",
          "type": "address"
        },
        {
          "internalType": "uint256",
          "name": "_minGracePeriod",
          "type": "uint256"
        },
        {
          "internalType": "uint256",
          "name": "_maxGracePeriod",
          "type": "uint256"
        },
        {
          "internalType": "uint256",
          "name": "_defaultGracePeriod",
          "type": "uint256"
        }
      ],
      "stateMutability": "nonpayable",
      "type": "constructor"
    },
    {
      "inputs": [
        {
          "internalType": "bytes32",
          "name": "txId",
          "type": "bytes32"
        }
      ],
      "name": "AlreadyQueuedError",
      "type": "error"
    },
    {
      "inputs": [],
      "name": "NotAdminError",
      "type": "error"
    },
    {
      "inputs": [
        {
          "internalType": "bytes32",
          "name": "txId",
          "type": "bytes32"
        }
      ],
      "name": "NotQueuedError",
      "type": "error"
    },
    {
      "inputs": [
        {
          "internalType": "uint256",
          "name": "blockTimestamp",
          "type": "uint256"
        },
        {
          "internalType": "uint256",
          "name": "expiresAt",
          "type": "uint256"
        }
      ],
      "name": "TimestampExpiredError",
      "type": "error"
    },
    {
      "inputs": [
        {
          "internalType": "uint256",
          "name": "blockTimestamp",
          "type": "uint256"
        },
        {
          "internalType": "uint256",
          "name": "expiresAt",
          "type": "uint256"
        }
      ],
      "name": "TimestampNotMatureError",
      "type": "error"
    },
    {
      "inputs": [
        {
          "internalType": "uint256",
          "name": "blockTimestamp",
          "type": "uint256"
        },
        {
          "internalType": "uint256",
          "name": "timestamp",
          "type": "uint256"
        }
      ],
      "name": "TimestampNotPassedError",
      "type": "error"
    },
    {
      "inputs": [],
      "name": "TxFailedError",
      "type": "error"
    },
    {
      "anonymous": false,
      "inputs": [
        {
          "indexed": true,
          "internalType": "bytes32",
          "name": "txId",
          "type": "bytes32"
        }
      ],
      "name": "Cancel",
      "type": "event"
    },
    {
      "anonymous": false,
      "inputs": [
        {
          "indexed": true,
          "internalType": "address",
          "name": "user",
          "type": "address"
        },
        {
          "indexed": false,
          "internalType": "uint256",
          "name": "amount",
          "type": "uint256"
        }
      ],
      "name": "Deposited",
      "type": "event"
    },
    {
      "anonymous": false,
      "inputs": [
        {
          "indexed": true,
          "internalType": "bytes32",
          "name": "txId",
          "type": "bytes32"
        },
        {
          "indexed": true,
          "internalType": "address",
          "name": "target",
          "type": "address"
        },
        {
          "indexed": false,
          "internalType": "uint256",
          "name": "value",
          "type": "uint256"
        },
        {
          "indexed": false,
          "internalType": "uint256",
          "name": "timestamp",
          "type": "uint256"
        }
      ],
      "name": "Execute",
      "type": "event"
    },
    {
      "anonymous": false,
      "inputs": [
        {
          "indexed": false,
          "internalType": "uint256",
          "name": "gracePeriod",
          "type": "uint256"
        }
      ],
      "name": "GracePeriodChanged",
      "type": "event"
    },
    {
      "anonymous": false,
      "inputs": [
        {
          "indexed": false,
          "internalType": "uint256",
          "name": "newGracePeriod",
          "type": "uint256"
        }
      ],
      "name": "NewGracePeriodProposed",
      "type": "event"
    },
    {
      "anonymous": false,
      "inputs": [
        {
          "indexed": true,
          "internalType": "bytes32",
          "name": "txId",
          "type": "bytes32"
        },
        {
          "indexed": true,
          "internalType": "address",
          "name": "target",
          "type": "address"
        },
        {
          "indexed": false,
          "internalType": "uint256",
          "name": "value",
          "type": "uint256"
        },
        {
          "indexed": false,
          "internalType": "uint256",
          "name": "timestamp",
          "type": "uint256"
        }
      ],
      "name": "Queue",
      "type": "event"
    },
    {
      "anonymous": false,
      "inputs": [
        {
          "indexed": false,
          "internalType": "uint256",
          "name": "newGracePeriod",
          "type": "uint256"
        }
      ],
      "name": "VotingFinalized",
      "type": "event"
    },
    {
      "inputs": [],
      "name": "accountBalance",
      "outputs": [
        {
          "internalType": "uint256",
          "name": "",
          "type": "uint256"
        }
      ],
      "stateMutability": "view",
      "type": "function",
      "constant": true
    },
    {
      "inputs": [],
      "name": "accountsContract",
      "outputs": [
        {
          "internalType": "contract AccountManager",
          "name": "",
          "type": "address"
        }
      ],
      "stateMutability": "view",
      "type": "function",
      "constant": true
    },
    {
      "inputs": [],
      "name": "admin",
      "outputs": [
        {
          "internalType": "address",
          "name": "",
          "type": "address"
        }
      ],
      "stateMutability": "view",
      "type": "function",
      "constant": true
    },
    {
      "inputs": [],
      "name": "depositAmt",
      "outputs": [
        {
          "internalType": "uint256",
          "name": "",
          "type": "uint256"
        }
      ],
      "stateMutability": "view",
      "type": "function",
      "constant": true
    },
    {
      "inputs": [],
      "name": "maxGracePeriod",
      "outputs": [
        {
          "internalType": "uint256",
          "name": "",
          "type": "uint256"
        }
      ],
      "stateMutability": "view",
      "type": "function",
      "constant": true
    },
    {
      "inputs": [],
      "name": "minGracePeriod",
      "outputs": [
        {
          "internalType": "uint256",
          "name": "",
          "type": "uint256"
        }
      ],
      "stateMutability": "view",
      "type": "function",
      "constant": true
    },
    {
      "inputs": [],
      "name": "owner",
      "outputs": [
        {
          "internalType": "address",
          "name": "",
          "type": "address"
        }
      ],
      "stateMutability": "view",
      "type": "function",
      "constant": true
    },
    {
      "inputs": [
        {
          "internalType": "uint256",
          "name": "",
          "type": "uint256"
        }
      ],
      "name": "voted",
      "outputs": [
        {
          "internalType": "address",
          "name": "",
          "type": "address"
        }
      ],
      "stateMutability": "view",
      "type": "function",
      "constant": true
    },
    {
      "inputs": [],
      "name": "whoDeposited",
      "outputs": [
        {
          "internalType": "address",
          "name": "",
          "type": "address"
        }
      ],
      "stateMutability": "view",
      "type": "function",
      "constant": true
    },
    {
      "inputs": [],
      "name": "getGracePeriod",
      "outputs": [
        {
          "internalType": "uint256",
          "name": "",
          "type": "uint256"
        }
      ],
      "stateMutability": "view",
      "type": "function",
      "constant": true
    },
    {
      "inputs": [
        {
          "internalType": "address",
          "name": "_target",
          "type": "address"
        },
        {
          "internalType": "uint256",
          "name": "_value",
          "type": "uint256"
        }
      ],
      "name": "getTxId",
      "outputs": [
        {
          "internalType": "bytes32",
          "name": "",
          "type": "bytes32"
        }
      ],
      "stateMutability": "pure",
      "type": "function",
      "constant": true
    },
    {
      "inputs": [
        {
          "internalType": "address",
          "name": "_target",
          "type": "address"
        },
        {
          "internalType": "uint256",
          "name": "_value",
          "type": "uint256"
        }
      ],
      "name": "queue",
      "outputs": [
        {
          "internalType": "bytes32",
          "name": "",
          "type": "bytes32"
        }
      ],
      "stateMutability": "nonpayable",
      "type": "function"
    },
    {
      "inputs": [
        {
          "internalType": "bytes32",
          "name": "_txId",
          "type": "bytes32"
        }
      ],
      "name": "execute",
      "outputs": [
        {
          "internalType": "address",
          "name": "target",
          "type": "address"
        },
        {
          "internalType": "uint256",
          "name": "value",
          "type": "uint256"
        }
      ],
      "stateMutability": "nonpayable",
      "type": "function"
    },
    {
      "inputs": [
        {
          "internalType": "bytes32",
          "name": "_txId",
          "type": "bytes32"
        }
      ],
      "name": "cancel",
      "outputs": [
        {
          "internalType": "address",
          "name": "sender",
          "type": "address"
        },
        {
          "internalType": "uint256",
          "name": "value",
          "type": "uint256"
        }
      ],
      "stateMutability": "nonpayable",
      "type": "function"
    },
    {
      "inputs": [
        {
          "internalType": "bytes32",
          "name": "_txId",
          "type": "bytes32"
        }
      ],
      "name": "getTx",
      "outputs": [
        {
          "components": [
            {
              "internalType": "bytes32",
              "name": "txId",
              "type": "bytes32"
            },
            {
              "internalType": "address",
              "name": "target",
              "type": "address"
            },
            {
              "internalType": "uint256",
              "name": "value",
              "type": "uint256"
            },
            {
              "internalType": "uint256",
              "name": "timestamp",
              "type": "uint256"
            },
            {
              "internalType": "bool",
              "name": "queued",
              "type": "bool"
            },
            {
              "internalType": "address",
              "name": "depositor",
              "type": "address"
            }
          ],
          "internalType": "struct Timelock.Tx",
          "name": "transaction",
          "type": "tuple"
        }
      ],
      "stateMutability": "view",
      "type": "function",
      "constant": true
    },
    {
      "inputs": [
        {
          "internalType": "uint256",
          "name": "_proposedGracePeriod",
          "type": "uint256"
        }
      ],
      "name": "startVoting",
      "outputs": [],
      "stateMutability": "nonpayable",
      "type": "function"
    },
    {
      "inputs": [],
      "name": "voteGracePeriod",
      "outputs": [],
      "stateMutability": "nonpayable",
      "type": "function"
    },
    {
      "inputs": [
        {
          "internalType": "address",
          "name": "_address",
          "type": "address"
        }
      ],
      "name": "voterHasVoted",
      "outputs": [
        {
          "internalType": "bool",
          "name": "",
          "type": "bool"
        }
      ],
      "stateMutability": "view",
      "type": "function",
      "constant": true
    },
    {
      "inputs": [],
      "name": "finalizeVote",
      "outputs": [],
      "stateMutability": "nonpayable",
      "type": "function"
    },
    {
      "inputs": [],
      "name": "getCurrentGracePeriod",
      "outputs": [
        {
          "internalType": "uint256",
          "name": "",
          "type": "uint256"
        }
      ],
      "stateMutability": "view",
      "type": "function",
      "constant": true
    },
    {
      "inputs": [],
      "name": "getProposedGracePeriod",
      "outputs": [
        {
          "internalType": "uint256",
          "name": "",
          "type": "uint256"
        }
      ],
      "stateMutability": "view",
      "type": "function",
      "constant": true
    }
  ],
  "bytecode": "0x60806040523480156200001157600080fd5b5060405162002c3338038062002c3383398181016040528101906200003791906200013c565b83600660006101000a81548173ffffffffffffffffffffffffffffffffffffffff021916908373ffffffffffffffffffffffffffffffffffffffff16021790555082600881905550816009819055508060028190555050505050620001ae565b600080fd5b600073ffffffffffffffffffffffffffffffffffffffff82169050919050565b6000620000c9826200009c565b9050919050565b620000db81620000bc565b8114620000e757600080fd5b50565b600081519050620000fb81620000d0565b92915050565b6000819050919050565b620001168162000101565b81146200012257600080fd5b50565b60008151905062000136816200010b565b92915050565b6000806000806080858703121562000159576200015862000097565b5b60006200016987828801620000ea565b94505060206200017c8782880162000125565b93505060406200018f8782880162000125565b9250506060620001a28782880162000125565b91505092959194509250565b612a7580620001be6000396000f3fe608060405234801561001057600080fd5b50600436106101375760003560e01c8063a1761664116100b8578063ba4090de1161007c578063ba4090de1461031c578063c4d252f51461033a578063dbd183881461036b578063e751f27114610389578063f851a440146103ba578063f9628d94146103d857610137565b8063a176166414610262578063ada6e9f214610280578063b0a1c1c4146102b0578063b5677b42146102ce578063b915cb6c146102ec57610137565b806354ef7f2d116100ff57806354ef7f2d146101ce57806367db86a5146101d857806384f2f0c4146101f65780638da5cb5b146102145780638fbb38ff1461023257610137565b80631a7cd1971461013c5780632916f2b4146101465780633d2f5bda146101645780634428711314610180578063446f201e146101b0575b600080fd5b610144610408565b005b61014e610645565b60405161015b9190611cc3565b60405180910390f35b61017e60048036038101906101799190611d0f565b61064b565b005b61019a60048036038101906101959190611d9a565b6108b8565b6040516101a79190611df3565b60405180910390f35b6101b8610d37565b6040516101c59190611e6d565b60405180910390f35b6101d6610d5d565b005b6101e0610ec4565b6040516101ed9190611cc3565b60405180910390f35b6101fe610ece565b60405161020b9190611cc3565b60405180910390f35b61021c610ed4565b6040516102299190611e97565b60405180910390f35b61024c60048036038101906102479190611d0f565b610efa565b6040516102599190611e97565b60405180910390f35b61026a610f39565b6040516102779190611e97565b60405180910390f35b61029a60048036038101906102959190611eb2565b610f5f565b6040516102a79190611efa565b60405180910390f35b6102b861100d565b6040516102c59190611cc3565b60405180910390f35b6102d6611013565b6040516102e39190611cc3565b60405180910390f35b61030660048036038101906103019190611f41565b611019565b6040516103139190612025565b60405180910390f35b61032461112a565b6040516103319190611cc3565b60405180910390f35b610354600480360381019061034f9190611f41565b611134565b604051610362929190612040565b60405180910390f35b610373611515565b6040516103809190611cc3565b60405180910390f35b6103a3600480360381019061039e9190611f41565b61151f565b6040516103b1929190612040565b60405180910390f35b6103c2611977565b6040516103cf9190611e97565b60405180910390f35b6103f260048036038101906103ed9190611d9a565b61199d565b6040516103ff9190611df3565b60405180910390f35b600a54421015801561041c5750600b544211155b61045b576040517f08c379a0000000000000000000000000000000000000000000000000000000008152600401610452906120c6565b60405180910390fd5b6000601054036104a0576040517f08c379a000000000000000000000000000000000000000000000000000000000815260040161049790612132565b60405180910390fd5b600660009054906101000a900473ffffffffffffffffffffffffffffffffffffffff1673ffffffffffffffffffffffffffffffffffffffff166375cd51ed336040518263ffffffff1660e01b81526004016104fb9190611e97565b602060405180830381865afa158015610518573d6000803e3d6000fd5b505050506040513d601f19601f8201168201806040525081019061053c919061217e565b61057b576040517f08c379a0000000000000000000000000000000000000000000000000000000008152600401610572906121f7565b60405180910390fd5b61058433610f5f565b156105c4576040517f08c379a00000000000000000000000000000000000000000000000000000000081526004016105bb90612263565b60405180910390fd5b600f339080600181540180825580915050600190039060005260206000200160009091909190916101000a81548173ffffffffffffffffffffffffffffffffffffffff021916908373ffffffffffffffffffffffffffffffffffffffff160217905550600e546106326119d0565b1061064357610642601054611a0b565b5b565b60085481565b600660009054906101000a900473ffffffffffffffffffffffffffffffffffffffff1673ffffffffffffffffffffffffffffffffffffffff16636e9960c36040518163ffffffff1660e01b8152600401602060405180830381865afa1580156106b8573d6000803e3d6000fd5b505050506040513d601f19601f820116820180604052508101906106dc9190612298565b73ffffffffffffffffffffffffffffffffffffffff163373ffffffffffffffffffffffffffffffffffffffff1614610749576040517f08c379a000000000000000000000000000000000000000000000000000000000815260040161074090612311565b60405180910390fd5b600854811015801561075d57506009548111155b61079c576040517f08c379a0000000000000000000000000000000000000000000000000000000008152600401610793906123a3565b60405180910390fd5b60025481036107e0576040517f08c379a00000000000000000000000000000000000000000000000000000000081526004016107d790612435565b60405180910390fd5b600d60009054906101000a900460ff1615610830576040517f08c379a0000000000000000000000000000000000000000000000000000000008152600401610827906124a1565b60405180910390fd5b610838611a54565b42600a8190555060784261084c91906124f0565b600b819055506001600d60006101000a81548160ff021916908315150217905550610875611ad9565b806010819055507fcae3278bf7174c45bcf59eaee8f153db11a04c8f14eef657b88ba3f0cde06d5d6010546040516108ad9190611cc3565b60405180910390a150565b60008082116108fc576040517f08c379a00000000000000000000000000000000000000000000000000000000081526004016108f3906125b8565b60405180910390fd5b81600660009054906101000a900473ffffffffffffffffffffffffffffffffffffffff1673ffffffffffffffffffffffffffffffffffffffff1663b6aa680c336040518263ffffffff1660e01b81526004016109589190611e97565b602060405180830381865afa158015610975573d6000803e3d6000fd5b505050506040513d601f19601f8201168201806040525081019061099991906125ed565b116109d9576040517f08c379a00000000000000000000000000000000000000000000000000000000081526004016109d090612666565b60405180910390fd5b60006109e5848461199d565b905060008082815260200190815260200160002060040160009054906101000a900460ff1615610a4c57806040517f995042be000000000000000000000000000000000000000000000000000000008152600401610a439190611df3565b60405180910390fd5b60006040518060c001604052808381526020018673ffffffffffffffffffffffffffffffffffffffff1681526020018581526020014281526020016001151581526020013373ffffffffffffffffffffffffffffffffffffffff168152509050806000808481526020019081526020016000206000820151816000015560208201518160010160006101000a81548173ffffffffffffffffffffffffffffffffffffffff021916908373ffffffffffffffffffffffffffffffffffffffff160217905550604082015181600201556060820151816003015560808201518160040160006101000a81548160ff02191690831515021790555060a08201518160040160016101000a81548173ffffffffffffffffffffffffffffffffffffffff021916908373ffffffffffffffffffffffffffffffffffffffff160217905550905050600084600660009054906101000a900473ffffffffffffffffffffffffffffffffffffffff1673ffffffffffffffffffffffffffffffffffffffff1663b6aa680c336040518263ffffffff1660e01b8152600401610bec9190611e97565b602060405180830381865afa158015610c09573d6000803e3d6000fd5b505050506040513d601f19601f82011682018060405250810190610c2d91906125ed565b610c379190612686565b90508573ffffffffffffffffffffffffffffffffffffffff16837f29829d31c3b36d4a4d8cba00b41f628ae184b474a5a3a12296efe0e31da83ddd8742604051610c829291906126ba565b60405180910390a3600660009054906101000a900473ffffffffffffffffffffffffffffffffffffffff1673ffffffffffffffffffffffffffffffffffffffff166333d07dc933836040518363ffffffff1660e01b8152600401610ce7929190612040565b6020604051808303816000875af1158015610d06573d6000803e3d6000fd5b505050506040513d601f19601f82011682018060405250810190610d2a919061217e565b5082935050505092915050565b600660009054906101000a900473ffffffffffffffffffffffffffffffffffffffff1681565b600b544211610da1576040517f08c379a0000000000000000000000000000000000000000000000000000000008152600401610d989061272f565b60405180910390fd5b600060105403610de6576040517f08c379a0000000000000000000000000000000000000000000000000000000008152600401610ddd9061279b565b60405180910390fd5b600e54610df16119d0565b10610e7857610e01601054611a0b565b7fcc2c34a1adf0911114053f75b51b2b1f8fc9ef9e25f0a5f12f210032b5b0a1b2601054604051610e329190611cc3565b60405180910390a17f886c75dbb46b8e34257da373ac60898ecebd9682c7dfeb9c4d65383b92d5ff2d601054604051610e6b9190611cc3565b60405180910390a1610eba565b6000610eb9576040517f08c379a0000000000000000000000000000000000000000000000000000000008152600401610eb09061282d565b60405180910390fd5b5b610ec2611a54565b565b6000600254905090565b60095481565b600760009054906101000a900473ffffffffffffffffffffffffffffffffffffffff1681565b600f8181548110610f0a57600080fd5b906000526020600020016000915054906101000a900473ffffffffffffffffffffffffffffffffffffffff1681565b600360009054906101000a900473ffffffffffffffffffffffffffffffffffffffff1681565b600080600090505b600f80549050811015611002578273ffffffffffffffffffffffffffffffffffffffff16600f8281548110610f9f57610f9e61284d565b5b9060005260206000200160009054906101000a900473ffffffffffffffffffffffffffffffffffffffff1673ffffffffffffffffffffffffffffffffffffffff1603610fef576001915050611008565b8080610ffa9061287c565b915050610f67565b50600090505b919050565b60055481565b60045481565b611021611b9c565b6000808381526020019081526020016000206040518060c0016040529081600082015481526020016001820160009054906101000a900473ffffffffffffffffffffffffffffffffffffffff1673ffffffffffffffffffffffffffffffffffffffff1673ffffffffffffffffffffffffffffffffffffffff16815260200160028201548152602001600382015481526020016004820160009054906101000a900460ff161515151581526020016004820160019054906101000a900473ffffffffffffffffffffffffffffffffffffffff1673ffffffffffffffffffffffffffffffffffffffff1673ffffffffffffffffffffffffffffffffffffffff16815250509050919050565b6000601054905090565b60008060008084815260200190815260200160002060040160009054906101000a900460ff1661119b57826040517f0995c9d50000000000000000000000000000000000000000000000000000000081526004016111929190611df3565b60405180910390fd5b60008060008581526020019081526020016000206040518060c0016040529081600082015481526020016001820160009054906101000a900473ffffffffffffffffffffffffffffffffffffffff1673ffffffffffffffffffffffffffffffffffffffff1673ffffffffffffffffffffffffffffffffffffffff16815260200160028201548152602001600382015481526020016004820160009054906101000a900460ff161515151581526020016004820160019054906101000a900473ffffffffffffffffffffffffffffffffffffffff1673ffffffffffffffffffffffffffffffffffffffff1673ffffffffffffffffffffffffffffffffffffffff1681525050905060025481606001516112b391906124f0565b4210611309574260025482606001516112cc91906124f0565b6040517f92ae26d10000000000000000000000000000000000000000000000000000000081526004016113009291906126ba565b60405180910390fd5b600080600086815260200190815260200160002060040160006101000a81548160ff02191690831515021790555060008160400151600660009054906101000a900473ffffffffffffffffffffffffffffffffffffffff1673ffffffffffffffffffffffffffffffffffffffff1663b6aa680c8460a001516040518263ffffffff1660e01b815260040161139d9190611e97565b602060405180830381865afa1580156113ba573d6000803e3d6000fd5b505050506040513d601f19601f820116820180604052508101906113de91906125ed565b6113e891906124f0565b90506000600660009054906101000a900473ffffffffffffffffffffffffffffffffffffffff1673ffffffffffffffffffffffffffffffffffffffff166333d07dc98460a00151846040518363ffffffff1660e01b815260040161144d929190612040565b6020604051808303816000875af115801561146c573d6000803e3d6000fd5b505050506040513d601f19601f82011682018060405250810190611490919061217e565b9050857fe8d9861dbc9c663ed3accd261bbe2fe01e0d3d9e5f51fa38523b265c7757a93a60405160405180910390a2806114ff576040517f08c379a00000000000000000000000000000000000000000000000000000000081526004016114f690612936565b60405180910390fd5b8260a00151836040015194509450505050915091565b6000600254905090565b60008060008084815260200190815260200160002060040160009054906101000a900460ff1661158657826040517f0995c9d500000000000000000000000000000000000000000000000000000000815260040161157d9190611df3565b60405180910390fd5b60008060008581526020019081526020016000206040518060c0016040529081600082015481526020016001820160009054906101000a900473ffffffffffffffffffffffffffffffffffffffff1673ffffffffffffffffffffffffffffffffffffffff1673ffffffffffffffffffffffffffffffffffffffff16815260200160028201548152602001600382015481526020016004820160009054906101000a900460ff161515151581526020016004820160019054906101000a900473ffffffffffffffffffffffffffffffffffffffff1673ffffffffffffffffffffffffffffffffffffffff1673ffffffffffffffffffffffffffffffffffffffff1681525050905080606001514210156116db574281606001516040517f035fce5b0000000000000000000000000000000000000000000000000000000081526004016116d29291906126ba565b60405180910390fd5b60025481606001516116ed91906124f0565b4210156117445742600254826060015161170791906124f0565b6040517f7dc4f9e000000000000000000000000000000000000000000000000000000000815260040161173b9291906126ba565b60405180910390fd5b600080600086815260200190815260200160002060040160006101000a81548160ff02191690831515021790555060008160400151600660009054906101000a900473ffffffffffffffffffffffffffffffffffffffff1673ffffffffffffffffffffffffffffffffffffffff1663b6aa680c84602001516040518263ffffffff1660e01b81526004016117d89190611e97565b602060405180830381865afa1580156117f5573d6000803e3d6000fd5b505050506040513d601f19601f8201168201806040525081019061181991906125ed565b61182391906124f0565b90506000600660009054906101000a900473ffffffffffffffffffffffffffffffffffffffff1673ffffffffffffffffffffffffffffffffffffffff166333d07dc98460200151846040518363ffffffff1660e01b8152600401611888929190612040565b6020604051808303816000875af11580156118a7573d6000803e3d6000fd5b505050506040513d601f19601f820116820180604052508101906118cb919061217e565b905080611904576040517fd9b4f81e00000000000000000000000000000000000000000000000000000000815260040160405180910390fd5b826020015173ffffffffffffffffffffffffffffffffffffffff16867f12c1a2c49028795b0ce8a17c5a4476dd1224c3ab775a1eed866d7ff04de03e21856040015186606001516040516119599291906126ba565b60405180910390a38260200151836040015194509450505050915091565b600160009054906101000a900473ffffffffffffffffffffffffffffffffffffffff1681565b600082826040516020016119b2929190612040565b60405160208183030381529060405280519060200120905092915050565b6000805b600f80549050811015611a0757600f80549050826119f291906124f0565b915080806119ff9061287c565b9150506119d4565b5090565b806002819055507f886c75dbb46b8e34257da373ac60898ecebd9682c7dfeb9c4d65383b92d5ff2d81604051611a419190611cc3565b60405180910390a1611a51611a54565b50565b60006010819055506000600d60006101000a81548160ff021916908315150217905550600067ffffffffffffffff811115611a9257611a91612956565b5b604051908082528060200260200182016040528015611ac05781602001602082028036833780820191505090505b50600f9080519060200190611ad6929190611c03565b50565b6000600660009054906101000a900473ffffffffffffffffffffffffffffffffffffffff1673ffffffffffffffffffffffffffffffffffffffff1663a98e4e776040518163ffffffff1660e01b8152600401602060405180830381865afa158015611b48573d6000803e3d6000fd5b505050506040513d601f19601f82011682018060405250810190611b6c91906125ed565b905060646063603383611b7f9190612985565b611b8991906124f0565b611b939190612a0e565b600e8190555050565b6040518060c0016040528060008019168152602001600073ffffffffffffffffffffffffffffffffffffffff1681526020016000815260200160008152602001600015158152602001600073ffffffffffffffffffffffffffffffffffffffff1681525090565b828054828255906000526020600020908101928215611c7c579160200282015b82811115611c7b5782518260006101000a81548173ffffffffffffffffffffffffffffffffffffffff021916908373ffffffffffffffffffffffffffffffffffffffff16021790555091602001919060010190611c23565b5b509050611c899190611c8d565b5090565b5b80821115611ca6576000816000905550600101611c8e565b5090565b6000819050919050565b611cbd81611caa565b82525050565b6000602082019050611cd86000830184611cb4565b92915050565b600080fd5b611cec81611caa565b8114611cf757600080fd5b50565b600081359050611d0981611ce3565b92915050565b600060208284031215611d2557611d24611cde565b5b6000611d3384828501611cfa565b91505092915050565b600073ffffffffffffffffffffffffffffffffffffffff82169050919050565b6000611d6782611d3c565b9050919050565b611d7781611d5c565b8114611d8257600080fd5b50565b600081359050611d9481611d6e565b92915050565b60008060408385031215611db157611db0611cde565b5b6000611dbf85828601611d85565b9250506020611dd085828601611cfa565b9150509250929050565b6000819050919050565b611ded81611dda565b82525050565b6000602082019050611e086000830184611de4565b92915050565b6000819050919050565b6000611e33611e2e611e2984611d3c565b611e0e565b611d3c565b9050919050565b6000611e4582611e18565b9050919050565b6000611e5782611e3a565b9050919050565b611e6781611e4c565b82525050565b6000602082019050611e826000830184611e5e565b92915050565b611e9181611d5c565b82525050565b6000602082019050611eac6000830184611e88565b92915050565b600060208284031215611ec857611ec7611cde565b5b6000611ed684828501611d85565b91505092915050565b60008115159050919050565b611ef481611edf565b82525050565b6000602082019050611f0f6000830184611eeb565b92915050565b611f1e81611dda565b8114611f2957600080fd5b50565b600081359050611f3b81611f15565b92915050565b600060208284031215611f5757611f56611cde565b5b6000611f6584828501611f2c565b91505092915050565b611f7781611dda565b82525050565b611f8681611d5c565b82525050565b611f9581611caa565b82525050565b611fa481611edf565b82525050565b60c082016000820151611fc06000850182611f6e565b506020820151611fd36020850182611f7d565b506040820151611fe66040850182611f8c565b506060820151611ff96060850182611f8c565b50608082015161200c6080850182611f9b565b5060a082015161201f60a0850182611f7d565b50505050565b600060c08201905061203a6000830184611faa565b92915050565b60006040820190506120556000830185611e88565b6120626020830184611cb4565b9392505050565b600082825260208201905092915050565b7f566f74696e67207068617365206973206e6f74206163746976652e0000000000600082015250565b60006120b0601b83612069565b91506120bb8261207a565b602082019050919050565b600060208201905081810360008301526120df816120a3565b9050919050565b7f4e6f20477261636520506572696f642070726f706f7365642e00000000000000600082015250565b600061211c601983612069565b9150612127826120e6565b602082019050919050565b6000602082019050818103600083015261214b8161210f565b9050919050565b61215b81611edf565b811461216657600080fd5b50565b60008151905061217881612152565b92915050565b60006020828403121561219457612193611cde565b5b60006121a284828501612169565b91505092915050565b7f4f6e6c7920726567697374657265642075736572732063616e20766f74652e00600082015250565b60006121e1601f83612069565b91506121ec826121ab565b602082019050919050565b60006020820190508181036000830152612210816121d4565b9050919050565b7f416c726561647920766f7465642e000000000000000000000000000000000000600082015250565b600061224d600e83612069565b915061225882612217565b602082019050919050565b6000602082019050818103600083015261227c81612240565b9050919050565b60008151905061229281611d6e565b92915050565b6000602082840312156122ae576122ad611cde565b5b60006122bc84828501612283565b91505092915050565b7f4e6f7420436f6e74726163742041646d696e0000000000000000000000000000600082015250565b60006122fb601283612069565b9150612306826122c5565b602082019050919050565b6000602082019050818103600083015261232a816122ee565b9050919050565b7f50726f706f73656420677261636520506572696f64204f7574206f662072616e60008201527f6765000000000000000000000000000000000000000000000000000000000000602082015250565b600061238d602283612069565b915061239882612331565b604082019050919050565b600060208201905081810360008301526123bc81612380565b9050919050565b7f50726f706f73656420677261636520706572696f642073616d6520776974682060008201527f63757272656e7420677261636520706572696f64000000000000000000000000602082015250565b600061241f603483612069565b915061242a826123c3565b604082019050919050565b6000602082019050818103600083015261244e81612412565b9050919050565b7f566f74696e6720697320616c7265616479206163746976652e00000000000000600082015250565b600061248b601983612069565b915061249682612455565b602082019050919050565b600060208201905081810360008301526124ba8161247e565b9050919050565b7f4e487b7100000000000000000000000000000000000000000000000000000000600052601160045260246000fd5b60006124fb82611caa565b915061250683611caa565b9250827fffffffffffffffffffffffffffffffffffffffffffffffffffffffffffffffff0382111561253b5761253a6124c1565b5b828201905092915050565b7f45746865722076616c7565206d7573742062652067726561746572207468616e60008201527f20302e0000000000000000000000000000000000000000000000000000000000602082015250565b60006125a2602383612069565b91506125ad82612546565b604082019050919050565b600060208201905081810360008301526125d181612595565b9050919050565b6000815190506125e781611ce3565b92915050565b60006020828403121561260357612602611cde565b5b6000612611848285016125d8565b91505092915050565b7f496e73756666696369656e742042616c616e6365000000000000000000000000600082015250565b6000612650601483612069565b915061265b8261261a565b602082019050919050565b6000602082019050818103600083015261267f81612643565b9050919050565b600061269182611caa565b915061269c83611caa565b9250828210156126af576126ae6124c1565b5b828203905092915050565b60006040820190506126cf6000830185611cb4565b6126dc6020830184611cb4565b9392505050565b7f566f74696e6720706572696f6420686173206e6f7420656e6465642e00000000600082015250565b6000612719601c83612069565b9150612724826126e3565b602082019050919050565b600060208201905081810360008301526127488161270c565b9050919050565b7f4e6f2070726f706f73656420677261636520706572696f642e00000000000000600082015250565b6000612785601983612069565b91506127908261274f565b602082019050919050565b600060208201905081810360008301526127b481612778565b9050919050565b7f546f74616c20566f746573206973206e6f74207265616368656420746865207460008201527f68726573686f6c64000000000000000000000000000000000000000000000000602082015250565b6000612817602883612069565b9150612822826127bb565b604082019050919050565b600060208201905081810360008301526128468161280a565b9050919050565b7f4e487b7100000000000000000000000000000000000000000000000000000000600052603260045260246000fd5b600061288782611caa565b91507fffffffffffffffffffffffffffffffffffffffffffffffffffffffffffffffff82036128b9576128b86124c1565b5b600182019050919050565b7f4661696c656420746f2072657475726e20457468657220746f206465706f736960008201527f746f720000000000000000000000000000000000000000000000000000000000602082015250565b6000612920602383612069565b915061292b826128c4565b604082019050919050565b6000602082019050818103600083015261294f81612913565b9050919050565b7f4e487b7100000000000000000000000000000000000000000000000000000000600052604160045260246000fd5b600061299082611caa565b915061299b83611caa565b9250817fffffffffffffffffffffffffffffffffffffffffffffffffffffffffffffffff04831182151516156129d4576129d36124c1565b5b828202905092915050565b7f4e487b7100000000000000000000000000000000000000000000000000000000600052601260045260246000fd5b6000612a1982611caa565b9150612a2483611caa565b925082612a3457612a336129df565b5b82820490509291505056fea26469706673582212208e9a086d30da9cb7977d625bbf54f5e611722890273828c9bc4fbe77f48de89864736f6c634300080d0033",
  "immutableReferences": {},
  "source": "// SPDX-License-Identifier: MIT\r\npragma solidity ^0.8.0;\r\nimport \"./AccountManager.sol\";\r\n\r\ncontract Timelock {\r\n    constructor(\r\n        address _accountsContractAddress,\r\n        uint256 _minGracePeriod,\r\n        uint256 _maxGracePeriod,\r\n        uint256 _defaultGracePeriod\r\n    ) {\r\n        // admin = msg.sender;\r\n        accountsContract = AccountManager(_accountsContractAddress);\r\n        minGracePeriod = _minGracePeriod;\r\n        maxGracePeriod = _maxGracePeriod;\r\n        gracePeriod = _defaultGracePeriod;\r\n    }\r\n\r\n    //Transaction--------------------------------------------------------------\r\n    error AlreadyQueuedError(bytes32 txId);\r\n    error NotQueuedError(bytes32 txId);\r\n    error TimestampNotPassedError(uint256 blockTimestamp, uint256 timestamp);\r\n    error TimestampNotMatureError(uint256 blockTimestamp, uint256 expiresAt);\r\n    error TimestampExpiredError(uint256 blockTimestamp, uint256 expiresAt);\r\n    error TxFailedError();\r\n    error NotAdminError();\r\n\r\n    event Queue(\r\n        bytes32 indexed txId,\r\n        address indexed target,\r\n        uint256 value,\r\n        uint256 timestamp\r\n    );\r\n    event Execute(\r\n        bytes32 indexed txId,\r\n        address indexed target,\r\n        uint256 value,\r\n        uint256 timestamp\r\n    );\r\n    event Cancel(bytes32 indexed txId);\r\n    event Deposited(address indexed user, uint256 amount);\r\n\r\n    // Struct to store transaction details\r\n    struct Tx {\r\n        bytes32 txId;\r\n        address target;\r\n        uint256 value;\r\n        uint256 timestamp;\r\n        bool queued;\r\n        address depositor;\r\n    }\r\n\r\n    // Mapping of transaction IDs to transaction data\r\n    mapping(bytes32 => Tx) private txs;\r\n\r\n    address public admin;\r\n\r\n    uint256 private gracePeriod;\r\n\r\n    address public whoDeposited;\r\n    uint256 public depositAmt;\r\n    uint256 public accountBalance;\r\n\r\n    function getGracePeriod() public view returns (uint256) {\r\n        return gracePeriod;\r\n    }\r\n\r\n    function getTxId(\r\n        address _target,\r\n        uint256 _value\r\n    ) public pure returns (bytes32) {\r\n        return keccak256(abi.encode(_target, _value));\r\n    }\r\n\r\n    function queue(address _target, uint256 _value) external returns (bytes32) {\r\n        require(_value > 0, \"Ether value must be greater than 0.\");\r\n        require(\r\n            accountsContract.getAccountDeposit(msg.sender) > _value,\r\n            \"Insufficient Balance\"\r\n        );\r\n        // Generate the transaction ID based on the target and value\r\n        bytes32 txId = getTxId(_target, _value);\r\n\r\n        // Ensure the transaction is not already queued\r\n        if (txs[txId].queued) {\r\n            revert AlreadyQueuedError(txId);\r\n        }\r\n\r\n        // Store the new transaction\r\n        Tx memory currentTx = Tx(\r\n            txId,\r\n            _target,\r\n            _value,\r\n            block.timestamp,\r\n            true,\r\n            msg.sender\r\n        );\r\n        txs[txId] = currentTx;\r\n        uint256 newAmount = accountsContract.getAccountDeposit(msg.sender) -\r\n            _value;\r\n        // Emit the Queue event\r\n        emit Queue(txId, _target, _value, block.timestamp);\r\n        accountsContract.depositUpdate(msg.sender, newAmount);\r\n        return txId;\r\n    }\r\n\r\n    function execute(\r\n        bytes32 _txId\r\n    ) external returns (address target, uint256 value) {\r\n        // Ensure the transaction is actually queued\r\n        if (!txs[_txId].queued) {\r\n            revert NotQueuedError(_txId);\r\n        }\r\n\r\n        Tx memory currentTx = txs[_txId];\r\n\r\n        // Ensure the timestamp has passed for execution\r\n        if (block.timestamp < currentTx.timestamp) {\r\n            revert TimestampNotPassedError(\r\n                block.timestamp,\r\n                currentTx.timestamp\r\n            );\r\n        }\r\n\r\n        // Ensure the transaction is executed after the grace period\r\n        if (block.timestamp < currentTx.timestamp + gracePeriod) {\r\n            revert TimestampNotMatureError(\r\n                block.timestamp,\r\n                currentTx.timestamp + gracePeriod\r\n            );\r\n        }\r\n\r\n        // Mark the transaction as executed\r\n        txs[_txId].queued = false;\r\n        // Execute the transaction using the .call function\r\n\r\n        uint256 newAmount = accountsContract.getAccountDeposit(\r\n            currentTx.target\r\n        ) + currentTx.value;\r\n        bool success = accountsContract.depositUpdate(\r\n            currentTx.target,\r\n            newAmount\r\n        );\r\n        if (!success) {\r\n            revert TxFailedError();\r\n        }\r\n\r\n        // Emit the Execute event\r\n        emit Execute(\r\n            _txId,\r\n            currentTx.target,\r\n            currentTx.value,\r\n            currentTx.timestamp\r\n        );\r\n\r\n        return (currentTx.target, currentTx.value);\r\n    }\r\n\r\n    function cancel(\r\n        bytes32 _txId\r\n    ) external returns (address sender, uint256 value) {\r\n        // Ensure the transaction is queued\r\n        if (!txs[_txId].queued) {\r\n            revert NotQueuedError(_txId);\r\n        }\r\n\r\n        Tx memory currentTx = txs[_txId];\r\n        // Ensure the transaction is executed in the grace period\r\n        if (block.timestamp >= currentTx.timestamp + gracePeriod) {\r\n            revert TimestampExpiredError(\r\n                block.timestamp,\r\n                currentTx.timestamp + gracePeriod\r\n            );\r\n        }\r\n        // Mark the transaction as canceled\r\n\r\n        txs[_txId].queued = false;\r\n\r\n        uint256 newAmount = accountsContract.getAccountDeposit(\r\n            currentTx.depositor\r\n        ) + currentTx.value;\r\n        bool success = accountsContract.depositUpdate(\r\n            currentTx.depositor,\r\n            newAmount\r\n        );\r\n        // Emit the Cancel event\r\n        emit Cancel(_txId);\r\n        require(success, \"Failed to return Ether to depositor\");\r\n        return (currentTx.depositor, currentTx.value);\r\n    }\r\n\r\n    function getTx(\r\n        bytes32 _txId\r\n    ) external view returns (Tx memory transaction) {\r\n        return txs[_txId];\r\n    }\r\n\r\n    //Grace Period Voting-------------------------------------------------\r\n    AccountManager public accountsContract;\r\n    event NewGracePeriodProposed(uint256 newGracePeriod);\r\n    event GracePeriodChanged(uint256 gracePeriod);\r\n    event VotingFinalized(uint256 newGracePeriod);\r\n    address public owner;\r\n    uint256 public minGracePeriod;\r\n    uint256 public maxGracePeriod;\r\n\r\n    uint256 private votingStartTime;\r\n    uint256 private votingEndTime;\r\n    uint256 private proposalDeadline;\r\n    bool private votingActive;\r\n    uint256 private voteThreshold;\r\n    address[] public voted;\r\n    uint256 private proposedGracePeriod;\r\n    modifier onlyAdmin() {\r\n        require(\r\n            msg.sender == accountsContract.getAdmin(),\r\n            \"Not Contract Admin\"\r\n        );\r\n        _;\r\n    }\r\n\r\n    modifier duringVotingPhase() {\r\n        require(\r\n            block.timestamp >= votingStartTime &&\r\n                block.timestamp <= votingEndTime,\r\n            \"Voting phase is not active.\"\r\n        );\r\n        _;\r\n    }\r\n\r\n    modifier afterVotingPhase() {\r\n        require(\r\n            block.timestamp > votingEndTime,\r\n            \"Voting period has not ended.\"\r\n        );\r\n        _;\r\n    }\r\n\r\n    function startVoting(uint256 _proposedGracePeriod) public onlyAdmin {\r\n        require(\r\n            (_proposedGracePeriod >= minGracePeriod &&\r\n                _proposedGracePeriod <= maxGracePeriod),\r\n            \"Proposed grace Period Out of range\"\r\n        );\r\n        require(\r\n            _proposedGracePeriod != gracePeriod,\r\n            \"Proposed grace period same with current grace period\"\r\n        );\r\n        require(!votingActive, \"Voting is already active.\");\r\n        resetVoting();\r\n        votingStartTime = block.timestamp;\r\n        votingEndTime = block.timestamp + 120; // Total of 2 minutes\r\n\r\n        votingActive = true;\r\n\r\n        updateVoteThreshold();\r\n        proposedGracePeriod = _proposedGracePeriod;\r\n        emit NewGracePeriodProposed(proposedGracePeriod);\r\n    }\r\n\r\n    function updateVoteThreshold() internal {\r\n        uint256 totalRegisteredUsers = accountsContract.getAccountCount();\r\n        voteThreshold = (totalRegisteredUsers * 51 + 99) / 100; // Equivalent to rounding up (51% rule)\r\n    }\r\n\r\n    function voteGracePeriod() public duringVotingPhase {\r\n        require(proposedGracePeriod != 0, \"No Grace Period proposed.\");\r\n        require(\r\n            accountsContract.accountExists(msg.sender),\r\n            \"Only registered users can vote.\"\r\n        );\r\n        require(!voterHasVoted(msg.sender), \"Already voted.\");\r\n\r\n        voted.push(msg.sender);\r\n\r\n        // Check if vote threshold has been met\r\n        if (getTotalVotes() >= voteThreshold) {\r\n            finalizeGPByThresHold(proposedGracePeriod);\r\n        }\r\n    }\r\n\r\n    function voterHasVoted(address _address) public view returns (bool) {\r\n        for (uint256 i = 0; i < voted.length; i++) {\r\n            if (voted[i] == _address) {\r\n                return true;\r\n            }\r\n        }\r\n\r\n        return false;\r\n    }\r\n\r\n    function finalizeGPByThresHold(uint256 _proposedGracePeriod) internal {\r\n        gracePeriod = _proposedGracePeriod;\r\n\r\n        emit VotingFinalized(_proposedGracePeriod);\r\n        resetVoting();\r\n    }\r\n\r\n    // FINALIZE the voting process after 2 minutes\r\n    function finalizeVote() public afterVotingPhase {\r\n        require(proposedGracePeriod != 0, \"No proposed grace period.\");\r\n        if (getTotalVotes() >= voteThreshold) {\r\n            finalizeGPByThresHold(proposedGracePeriod);\r\n            emit GracePeriodChanged(proposedGracePeriod);\r\n            emit VotingFinalized(proposedGracePeriod);\r\n        } else {\r\n            require(false, \"Total Votes is not reached the threshold\");\r\n        }\r\n\r\n        resetVoting();\r\n    }\r\n\r\n    function getCurrentGracePeriod() public view returns (uint256) {\r\n        return gracePeriod;\r\n    }\r\n\r\n    function getProposedGracePeriod() public view returns (uint256) {\r\n        return proposedGracePeriod;\r\n    }\r\n\r\n    function resetVoting() internal {\r\n        proposedGracePeriod = 0;\r\n        votingActive = false;\r\n\r\n        voted = new address[](0);\r\n    }\r\n\r\n    function getTotalVotes() internal view returns (uint256 totalVotes) {\r\n        totalVotes = 0;\r\n        for (uint256 i = 0; i < voted.length; i++) {\r\n            totalVotes += voted.length;\r\n        }\r\n\r\n        return totalVotes;\r\n    }\r\n}\r\n",
  "sourcePath": "C:\\Users\\quint\\vscode\\My Projects\\Timelock\\contracts\\Timelock.sol",
  "compiler": {
    "name": "solc",
    "version": "0.8.13+commit.abaa5c0e.Emscripten.clang"
  },
  "schemaVersion": "3.4.16",
  "updatedAt": "2024-09-21T01:11:37.367Z",
  "networkType": "ethereum",
  "devdoc": {
    "kind": "dev",
    "methods": {},
    "version": 1
  },
  "userdoc": {
    "kind": "user",
    "methods": {},
    "version": 1
  }
}