{
  "contractName": "Timelock",
  "abi": [
    {
      "inputs": [
        {
          "internalType": "address",
          "name": "_accountsContractAddress",
          "type": "address"
        },
        {
          "internalType": "address",
          "name": "_voteAdminAddress",
          "type": "address"
        }
      ],
      "stateMutability": "nonpayable",
      "type": "constructor"
    },
    {
      "inputs": [
        {
          "internalType": "bytes32",
          "name": "txId",
          "type": "bytes32"
        }
      ],
      "name": "AlreadyQueuedError",
      "type": "error"
    },
    {
      "inputs": [],
      "name": "AlreadyVotedError",
      "type": "error"
    },
    {
      "inputs": [],
      "name": "InvalidGracePeriodError",
      "type": "error"
    },
    {
      "inputs": [],
      "name": "NoProposalError",
      "type": "error"
    },
    {
      "inputs": [],
      "name": "NotAdminError",
      "type": "error"
    },
    {
      "inputs": [
        {
          "internalType": "bytes32",
          "name": "txId",
          "type": "bytes32"
        }
      ],
      "name": "NotQueuedError",
      "type": "error"
    },
    {
      "inputs": [
        {
          "internalType": "uint256",
          "name": "blockTimestamp",
          "type": "uint256"
        },
        {
          "internalType": "uint256",
          "name": "expiresAt",
          "type": "uint256"
        }
      ],
      "name": "TimestampExpiredError",
      "type": "error"
    },
    {
      "inputs": [
        {
          "internalType": "uint256",
          "name": "blockTimestamp",
          "type": "uint256"
        },
        {
          "internalType": "uint256",
          "name": "timestamp",
          "type": "uint256"
        }
      ],
      "name": "TimestampNotInRangeError",
      "type": "error"
    },
    {
      "inputs": [
        {
          "internalType": "uint256",
          "name": "blockTimestmap",
          "type": "uint256"
        },
        {
          "internalType": "uint256",
          "name": "timestamp",
          "type": "uint256"
        }
      ],
      "name": "TimestampNotPassedError",
      "type": "error"
    },
    {
      "inputs": [],
      "name": "TxFailedError",
      "type": "error"
    },
    {
      "inputs": [],
      "name": "VotingNotAllowedError",
      "type": "error"
    },
    {
      "anonymous": false,
      "inputs": [
        {
          "indexed": true,
          "internalType": "bytes32",
          "name": "txId",
          "type": "bytes32"
        }
      ],
      "name": "Cancel",
      "type": "event"
    },
    {
      "anonymous": false,
      "inputs": [
        {
          "indexed": true,
          "internalType": "bytes32",
          "name": "txId",
          "type": "bytes32"
        },
        {
          "indexed": true,
          "internalType": "address",
          "name": "target",
          "type": "address"
        },
        {
          "indexed": false,
          "internalType": "uint256",
          "name": "value",
          "type": "uint256"
        },
        {
          "indexed": false,
          "internalType": "string",
          "name": "func",
          "type": "string"
        },
        {
          "indexed": false,
          "internalType": "bytes",
          "name": "data",
          "type": "bytes"
        },
        {
          "indexed": false,
          "internalType": "uint256",
          "name": "timestamp",
          "type": "uint256"
        }
      ],
      "name": "Execute",
      "type": "event"
    },
    {
      "anonymous": false,
      "inputs": [
        {
          "indexed": false,
          "internalType": "uint256",
          "name": "newGracePeriod",
          "type": "uint256"
        }
      ],
      "name": "GracePeriodUpdated",
      "type": "event"
    },
    {
      "anonymous": false,
      "inputs": [
        {
          "indexed": true,
          "internalType": "bytes32",
          "name": "txId",
          "type": "bytes32"
        },
        {
          "indexed": true,
          "internalType": "address",
          "name": "target",
          "type": "address"
        },
        {
          "indexed": false,
          "internalType": "uint256",
          "name": "value",
          "type": "uint256"
        },
        {
          "indexed": false,
          "internalType": "string",
          "name": "func",
          "type": "string"
        },
        {
          "indexed": false,
          "internalType": "bytes",
          "name": "data",
          "type": "bytes"
        },
        {
          "indexed": false,
          "internalType": "uint256",
          "name": "timestamp",
          "type": "uint256"
        }
      ],
      "name": "Queue",
      "type": "event"
    },
    {
      "anonymous": false,
      "inputs": [],
      "name": "VotingReset",
      "type": "event"
    },
    {
      "inputs": [],
      "name": "accountsContract",
      "outputs": [
        {
          "internalType": "contract AccountManager",
          "name": "",
          "type": "address"
        }
      ],
      "stateMutability": "view",
      "type": "function",
      "constant": true
    },
    {
      "inputs": [],
      "name": "voteAdminContract",
      "outputs": [
        {
          "internalType": "contract VoteAdmin",
          "name": "",
          "type": "address"
        }
      ],
      "stateMutability": "view",
      "type": "function",
      "constant": true
    },
    {
      "stateMutability": "payable",
      "type": "receive",
      "payable": true
    },
    {
      "inputs": [
        {
          "internalType": "address",
          "name": "_target",
          "type": "address"
        },
        {
          "internalType": "uint256",
          "name": "_value",
          "type": "uint256"
        },
        {
          "internalType": "string",
          "name": "_func",
          "type": "string"
        },
        {
          "internalType": "bytes",
          "name": "_data",
          "type": "bytes"
        },
        {
          "internalType": "uint256",
          "name": "_timestamp",
          "type": "uint256"
        }
      ],
      "name": "getTxId",
      "outputs": [
        {
          "internalType": "bytes32",
          "name": "",
          "type": "bytes32"
        }
      ],
      "stateMutability": "pure",
      "type": "function",
      "constant": true
    },
    {
      "inputs": [
        {
          "internalType": "address",
          "name": "_target",
          "type": "address"
        },
        {
          "internalType": "uint256",
          "name": "_value",
          "type": "uint256"
        },
        {
          "internalType": "string",
          "name": "_func",
          "type": "string"
        },
        {
          "internalType": "bytes",
          "name": "_data",
          "type": "bytes"
        },
        {
          "internalType": "uint256",
          "name": "_timestamp",
          "type": "uint256"
        }
      ],
      "name": "queue",
      "outputs": [
        {
          "internalType": "bytes32",
          "name": "",
          "type": "bytes32"
        }
      ],
      "stateMutability": "nonpayable",
      "type": "function"
    },
    {
      "inputs": [
        {
          "internalType": "bytes32",
          "name": "_txId",
          "type": "bytes32"
        }
      ],
      "name": "execute",
      "outputs": [
        {
          "internalType": "bytes",
          "name": "",
          "type": "bytes"
        }
      ],
      "stateMutability": "payable",
      "type": "function",
      "payable": true
    },
    {
      "inputs": [
        {
          "internalType": "bytes32",
          "name": "_txId",
          "type": "bytes32"
        }
      ],
      "name": "cancel",
      "outputs": [],
      "stateMutability": "nonpayable",
      "type": "function"
    },
    {
      "inputs": [
        {
          "internalType": "bytes32",
          "name": "_txId",
          "type": "bytes32"
        }
      ],
      "name": "getTx",
      "outputs": [
        {
          "components": [
            {
              "internalType": "bytes32",
              "name": "txId",
              "type": "bytes32"
            },
            {
              "internalType": "address",
              "name": "target",
              "type": "address"
            },
            {
              "internalType": "uint256",
              "name": "value",
              "type": "uint256"
            },
            {
              "internalType": "string",
              "name": "func",
              "type": "string"
            },
            {
              "internalType": "bytes",
              "name": "data",
              "type": "bytes"
            },
            {
              "internalType": "uint256",
              "name": "timestamp",
              "type": "uint256"
            },
            {
              "internalType": "bool",
              "name": "queued",
              "type": "bool"
            }
          ],
          "internalType": "struct Timelock.Tx",
          "name": "transaction",
          "type": "tuple"
        }
      ],
      "stateMutability": "view",
      "type": "function",
      "constant": true
    },
    {
      "inputs": [
        {
          "internalType": "uint256",
          "name": "_newGracePeriod",
          "type": "uint256"
        }
      ],
      "name": "proposeGracePeriod",
      "outputs": [],
      "stateMutability": "nonpayable",
      "type": "function"
    },
    {
      "inputs": [],
      "name": "vote",
      "outputs": [],
      "stateMutability": "nonpayable",
      "type": "function"
    },
    {
      "inputs": [],
      "name": "resetVoting",
      "outputs": [],
      "stateMutability": "nonpayable",
      "type": "function"
    }
  ],
  "bytecode": "0x6080604052601e6004553480156200001657600080fd5b50604051620025663803806200256683398181016040528101906200003c919062000130565b81600760006101000a81548173ffffffffffffffffffffffffffffffffffffffff021916908373ffffffffffffffffffffffffffffffffffffffff16021790555080600860006101000a81548173ffffffffffffffffffffffffffffffffffffffff021916908373ffffffffffffffffffffffffffffffffffffffff160217905550505062000177565b600080fd5b600073ffffffffffffffffffffffffffffffffffffffff82169050919050565b6000620000f882620000cb565b9050919050565b6200010a81620000eb565b81146200011657600080fd5b50565b6000815190506200012a81620000ff565b92915050565b600080604083850312156200014a5762000149620000c6565b5b60006200015a8582860162000119565b92505060206200016d8582860162000119565b9150509250929050565b6123df80620001876000396000f3fe6080604052600436106100955760003560e01c8063856e698c11610059578063856e698c146101745780638a1ce0b61461018b578063b915cb6c146101c8578063c4d252f514610205578063e751f2711461022e5761009c565b80632cb060e5146100a1578063446f201e146100cc5780634b9915a5146100f7578063632a9a5214610134578063720083851461014b5761009c565b3661009c57005b600080fd5b3480156100ad57600080fd5b506100b661025e565b6040516100c3919061184c565b60405180910390f35b3480156100d857600080fd5b506100e1610284565b6040516100ee9190611888565b60405180910390f35b34801561010357600080fd5b5061011e600480360381019061011991906119dc565b6102aa565b60405161012b9190611ab1565b60405180910390f35b34801561014057600080fd5b5061014961069b565b005b34801561015757600080fd5b50610172600480360381019061016d9190611acc565b610818565b005b34801561018057600080fd5b506101896109ef565b005b34801561019757600080fd5b506101b260048036038101906101ad91906119dc565b610b40565b6040516101bf9190611ab1565b60405180910390f35b3480156101d457600080fd5b506101ef60048036038101906101ea9190611b25565b610b82565b6040516101fc9190611d2b565b60405180910390f35b34801561021157600080fd5b5061022c60048036038101906102279190611b25565b610d62565b005b61024860048036038101906102439190611b25565b610f1b565b6040516102559190611d97565b60405180910390f35b600860009054906101000a900473ffffffffffffffffffffffffffffffffffffffff1681565b600760009054906101000a900473ffffffffffffffffffffffffffffffffffffffff1681565b6000600860009054906101000a900473ffffffffffffffffffffffffffffffffffffffff1673ffffffffffffffffffffffffffffffffffffffff1663643d430c6040518163ffffffff1660e01b8152600401602060405180830381865afa158015610319573d6000803e3d6000fd5b505050506040513d601f19601f8201168201806040525081019061033d9190611dce565b73ffffffffffffffffffffffffffffffffffffffff163373ffffffffffffffffffffffffffffffffffffffff16146103a1576040517fb5c42b3b00000000000000000000000000000000000000000000000000000000815260040160405180910390fd5b60006103b289898989898989610b40565b90506006600082815260200190815260200160002060060160009054906101000a900460ff161561041a57806040517f995042be0000000000000000000000000000000000000000000000000000000081526004016104119190611ab1565b60405180910390fd5b60006040518060e001604052808381526020018b73ffffffffffffffffffffffffffffffffffffffff1681526020018a815260200189898080601f016020809104026020016040519081016040528093929190818152602001838380828437600081840152601f19601f82011690508083019250505050505050815260200187878080601f016020809104026020016040519081016040528093929190818152602001838380828437600081840152601f19601f820116905080830192505050505050508152602001858152602001600115158152509050600a426104ff9190611e2a565b84108061051857506103e8426105159190611e2a565b84115b1561055c5742846040517f1a9616c2000000000000000000000000000000000000000000000000000000008152600401610553929190611e8f565b60405180910390fd5b80600660008481526020019081526020016000206000820151816000015560208201518160010160006101000a81548173ffffffffffffffffffffffffffffffffffffffff021916908373ffffffffffffffffffffffffffffffffffffffff1602179055506040820151816002015560608201518160030190805190602001906105e792919061164c565b5060808201518160040190805190602001906106049291906116d2565b5060a0820151816005015560c08201518160060160006101000a81548160ff0219169083151502179055509050508973ffffffffffffffffffffffffffffffffffffffff16827f3c22f47140594040d205a5533cfedd86c9ab8622c39ead03affb2d97052c794c8b8b8b8b8b8b60405161068396959493929190611f32565b60405180910390a38192505050979650505050505050565b600760009054906101000a900473ffffffffffffffffffffffffffffffffffffffff1673ffffffffffffffffffffffffffffffffffffffff166375cd51ed336040518263ffffffff1660e01b81526004016106f69190611f98565b602060405180830381865afa158015610713573d6000803e3d6000fd5b505050506040513d601f19601f820116820180604052508101906107379190611fdf565b61076d576040517fdd739d0d00000000000000000000000000000000000000000000000000000000815260040160405180910390fd5b600115156000803373ffffffffffffffffffffffffffffffffffffffff1673ffffffffffffffffffffffffffffffffffffffff16815260200190815260200160002060009054906101000a900460ff161515036107f6576040517f175be0a600000000000000000000000000000000000000000000000000000000815260040160405180910390fd5b600260008154809291906108099061200c565b9190505550610816611492565b565b600760009054906101000a900473ffffffffffffffffffffffffffffffffffffffff1673ffffffffffffffffffffffffffffffffffffffff166375cd51ed336040518263ffffffff1660e01b81526004016108739190611f98565b602060405180830381865afa158015610890573d6000803e3d6000fd5b505050506040513d601f19601f820116820180604052508101906108b49190611fdf565b6108ea576040517fdd739d0d00000000000000000000000000000000000000000000000000000000815260040160405180910390fd5b600060035411610926576040517f5eb79fed00000000000000000000000000000000000000000000000000000000815260040160405180910390fd5b60008111610960576040517f41d117db00000000000000000000000000000000000000000000000000000000815260040160405180910390fd5b8060038190555060016000803373ffffffffffffffffffffffffffffffffffffffff1673ffffffffffffffffffffffffffffffffffffffff16815260200190815260200160002060006101000a81548160ff021916908315150217905550600260008154809291906109d19061200c565b91905055506109de6114f6565b6001819055506109ec611492565b50565b600860009054906101000a900473ffffffffffffffffffffffffffffffffffffffff1673ffffffffffffffffffffffffffffffffffffffff1663643d430c6040518163ffffffff1660e01b8152600401602060405180830381865afa158015610a5c573d6000803e3d6000fd5b505050506040513d601f19601f82011682018060405250810190610a809190611dce565b73ffffffffffffffffffffffffffffffffffffffff163373ffffffffffffffffffffffffffffffffffffffff1614610ae4576040517fb5c42b3b00000000000000000000000000000000000000000000000000000000815260040160405180910390fd5b610e10600554610af49190611e2a565b421015610b36576040517f08c379a0000000000000000000000000000000000000000000000000000000008152600401610b2d906120c6565b60405180910390fd5b610b3e61158e565b565b600087878787878787604051602001610b5f97969594939291906120e6565b604051602081830303815290604052805190602001209050979650505050505050565b610b8a611758565b600660008381526020019081526020016000206040518060e0016040529081600082015481526020016001820160009054906101000a900473ffffffffffffffffffffffffffffffffffffffff1673ffffffffffffffffffffffffffffffffffffffff1673ffffffffffffffffffffffffffffffffffffffff16815260200160028201548152602001600382018054610c229061217a565b80601f0160208091040260200160405190810160405280929190818152602001828054610c4e9061217a565b8015610c9b5780601f10610c7057610100808354040283529160200191610c9b565b820191906000526020600020905b815481529060010190602001808311610c7e57829003601f168201915b50505050508152602001600482018054610cb49061217a565b80601f0160208091040260200160405190810160405280929190818152602001828054610ce09061217a565b8015610d2d5780601f10610d0257610100808354040283529160200191610d2d565b820191906000526020600020905b815481529060010190602001808311610d1057829003601f168201915b50505050508152602001600582015481526020016006820160009054906101000a900460ff1615151515815250509050919050565b600860009054906101000a900473ffffffffffffffffffffffffffffffffffffffff1673ffffffffffffffffffffffffffffffffffffffff1663643d430c6040518163ffffffff1660e01b8152600401602060405180830381865afa158015610dcf573d6000803e3d6000fd5b505050506040513d601f19601f82011682018060405250810190610df39190611dce565b73ffffffffffffffffffffffffffffffffffffffff163373ffffffffffffffffffffffffffffffffffffffff1614610e57576040517fb5c42b3b00000000000000000000000000000000000000000000000000000000815260040160405180910390fd5b6006600082815260200190815260200160002060060160009054906101000a900460ff16610ebc57806040517f0995c9d5000000000000000000000000000000000000000000000000000000008152600401610eb39190611ab1565b60405180910390fd5b60006006600083815260200190815260200160002060060160006101000a81548160ff021916908315150217905550807fe8d9861dbc9c663ed3accd261bbe2fe01e0d3d9e5f51fa38523b265c7757a93a60405160405180910390a250565b6060600860009054906101000a900473ffffffffffffffffffffffffffffffffffffffff1673ffffffffffffffffffffffffffffffffffffffff1663643d430c6040518163ffffffff1660e01b8152600401602060405180830381865afa158015610f8a573d6000803e3d6000fd5b505050506040513d601f19601f82011682018060405250810190610fae9190611dce565b73ffffffffffffffffffffffffffffffffffffffff163373ffffffffffffffffffffffffffffffffffffffff1614611012576040517fb5c42b3b00000000000000000000000000000000000000000000000000000000815260040160405180910390fd5b6006600083815260200190815260200160002060060160009054906101000a900460ff1661107757816040517f0995c9d500000000000000000000000000000000000000000000000000000000815260040161106e9190611ab1565b60405180910390fd5b6000600660008481526020019081526020016000206040518060e0016040529081600082015481526020016001820160009054906101000a900473ffffffffffffffffffffffffffffffffffffffff1673ffffffffffffffffffffffffffffffffffffffff1673ffffffffffffffffffffffffffffffffffffffff168152602001600282015481526020016003820180546111119061217a565b80601f016020809104026020016040519081016040528092919081815260200182805461113d9061217a565b801561118a5780601f1061115f5761010080835404028352916020019161118a565b820191906000526020600020905b81548152906001019060200180831161116d57829003601f168201915b505050505081526020016004820180546111a39061217a565b80601f01602080910402602001604051908101604052809291908181526020018280546111cf9061217a565b801561121c5780601f106111f15761010080835404028352916020019161121c565b820191906000526020600020905b8154815290600101906020018083116111ff57829003601f168201915b50505050508152602001600582015481526020016006820160009054906101000a900460ff16151515158152505090508060a0015142101561129b57428160a001516040517f035fce5b000000000000000000000000000000000000000000000000000000008152600401611292929190611e8f565b60405180910390fd5b6004548160a001516112ad9190611e2a565b4211156112f557426004546040517f92ae26d10000000000000000000000000000000000000000000000000000000081526004016112ec929190611e8f565b60405180910390fd5b60006006600085815260200190815260200160002060060160006101000a81548160ff0219169083151502179055506060600082606001515111156113665781606001518051906020012060405160200161135091906121f8565b604051602081830303815290604052905061136e565b816080015190505b600080836020015173ffffffffffffffffffffffffffffffffffffffff1684604001518460405161139f919061224f565b60006040518083038185875af1925050503d80600081146113dc576040519150601f19603f3d011682016040523d82523d6000602084013e6113e1565b606091505b50915091508161141d576040517fd9b4f81e00000000000000000000000000000000000000000000000000000000815260040160405180910390fd5b836020015173ffffffffffffffffffffffffffffffffffffffff16867fd1d5c3c892c18716bd88852091d1b63dc6849e9d7c37f69d566884bf954d4bd98660400151876060015188608001518960a0015160405161147e949392919061229f565b60405180910390a380945050505050919050565b600154600280546114a391906122f2565b11156114f4576003546004819055507f33d1191f5a3abfe19d468d51bb5ece97489f1277a912a5b5c65992fc279ad3d46004546040516114e3919061234c565b60405180910390a16114f361158e565b5b565b6000600760009054906101000a900473ffffffffffffffffffffffffffffffffffffffff1673ffffffffffffffffffffffffffffffffffffffff1663a98e4e776040518163ffffffff1660e01b8152600401602060405180830381865afa158015611565573d6000803e3d6000fd5b505050506040513d601f19601f82011682018060405250810190611589919061237c565b905090565b60005b6001548110156116055760008060003273ffffffffffffffffffffffffffffffffffffffff1673ffffffffffffffffffffffffffffffffffffffff16815260200190815260200160002060006101000a81548160ff02191690831515021790555080806115fd9061200c565b915050611591565b506000600181905550600060028190555060006005819055507feb4b0a76799cb305ae86d5a0b30e0e77b1e23fa8cb85eb788ede212bd6b324a660405160405180910390a1565b8280546116589061217a565b90600052602060002090601f01602090048101928261167a57600085556116c1565b82601f1061169357805160ff19168380011785556116c1565b828001600101855582156116c1579182015b828111156116c05782518255916020019190600101906116a5565b5b5090506116ce91906117b0565b5090565b8280546116de9061217a565b90600052602060002090601f0160209004810192826117005760008555611747565b82601f1061171957805160ff1916838001178555611747565b82800160010185558215611747579182015b8281111561174657825182559160200191906001019061172b565b5b50905061175491906117b0565b5090565b6040518060e0016040528060008019168152602001600073ffffffffffffffffffffffffffffffffffffffff168152602001600081526020016060815260200160608152602001600081526020016000151581525090565b5b808211156117c95760008160009055506001016117b1565b5090565b600073ffffffffffffffffffffffffffffffffffffffff82169050919050565b6000819050919050565b600061181261180d611808846117cd565b6117ed565b6117cd565b9050919050565b6000611824826117f7565b9050919050565b600061183682611819565b9050919050565b6118468161182b565b82525050565b6000602082019050611861600083018461183d565b92915050565b600061187282611819565b9050919050565b61188281611867565b82525050565b600060208201905061189d6000830184611879565b92915050565b600080fd5b600080fd5b60006118b8826117cd565b9050919050565b6118c8816118ad565b81146118d357600080fd5b50565b6000813590506118e5816118bf565b92915050565b6000819050919050565b6118fe816118eb565b811461190957600080fd5b50565b60008135905061191b816118f5565b92915050565b600080fd5b600080fd5b600080fd5b60008083601f84011261194657611945611921565b5b8235905067ffffffffffffffff81111561196357611962611926565b5b60208301915083600182028301111561197f5761197e61192b565b5b9250929050565b60008083601f84011261199c5761199b611921565b5b8235905067ffffffffffffffff8111156119b9576119b8611926565b5b6020830191508360018202830111156119d5576119d461192b565b5b9250929050565b600080600080600080600060a0888a0312156119fb576119fa6118a3565b5b6000611a098a828b016118d6565b9750506020611a1a8a828b0161190c565b965050604088013567ffffffffffffffff811115611a3b57611a3a6118a8565b5b611a478a828b01611930565b9550955050606088013567ffffffffffffffff811115611a6a57611a696118a8565b5b611a768a828b01611986565b93509350506080611a898a828b0161190c565b91505092959891949750929550565b6000819050919050565b611aab81611a98565b82525050565b6000602082019050611ac66000830184611aa2565b92915050565b600060208284031215611ae257611ae16118a3565b5b6000611af08482850161190c565b91505092915050565b611b0281611a98565b8114611b0d57600080fd5b50565b600081359050611b1f81611af9565b92915050565b600060208284031215611b3b57611b3a6118a3565b5b6000611b4984828501611b10565b91505092915050565b611b5b81611a98565b82525050565b611b6a816118ad565b82525050565b611b79816118eb565b82525050565b600081519050919050565b600082825260208201905092915050565b60005b83811015611bb9578082015181840152602081019050611b9e565b83811115611bc8576000848401525b50505050565b6000601f19601f8301169050919050565b6000611bea82611b7f565b611bf48185611b8a565b9350611c04818560208601611b9b565b611c0d81611bce565b840191505092915050565b600081519050919050565b600082825260208201905092915050565b6000611c3f82611c18565b611c498185611c23565b9350611c59818560208601611b9b565b611c6281611bce565b840191505092915050565b60008115159050919050565b611c8281611c6d565b82525050565b600060e083016000830151611ca06000860182611b52565b506020830151611cb36020860182611b61565b506040830151611cc66040860182611b70565b5060608301518482036060860152611cde8282611bdf565b91505060808301518482036080860152611cf88282611c34565b91505060a0830151611d0d60a0860182611b70565b5060c0830151611d2060c0860182611c79565b508091505092915050565b60006020820190508181036000830152611d458184611c88565b905092915050565b600082825260208201905092915050565b6000611d6982611c18565b611d738185611d4d565b9350611d83818560208601611b9b565b611d8c81611bce565b840191505092915050565b60006020820190508181036000830152611db18184611d5e565b905092915050565b600081519050611dc8816118bf565b92915050565b600060208284031215611de457611de36118a3565b5b6000611df284828501611db9565b91505092915050565b7f4e487b7100000000000000000000000000000000000000000000000000000000600052601160045260246000fd5b6000611e35826118eb565b9150611e40836118eb565b9250827fffffffffffffffffffffffffffffffffffffffffffffffffffffffffffffffff03821115611e7557611e74611dfb565b5b828201905092915050565b611e89816118eb565b82525050565b6000604082019050611ea46000830185611e80565b611eb16020830184611e80565b9392505050565b600082825260208201905092915050565b82818337600083830152505050565b6000611ee48385611eb8565b9350611ef1838584611ec9565b611efa83611bce565b840190509392505050565b6000611f118385611d4d565b9350611f1e838584611ec9565b611f2783611bce565b840190509392505050565b6000608082019050611f476000830189611e80565b8181036020830152611f5a818789611ed8565b90508181036040830152611f6f818587611f05565b9050611f7e6060830184611e80565b979650505050505050565b611f92816118ad565b82525050565b6000602082019050611fad6000830184611f89565b92915050565b611fbc81611c6d565b8114611fc757600080fd5b50565b600081519050611fd981611fb3565b92915050565b600060208284031215611ff557611ff46118a3565b5b600061200384828501611fca565b91505092915050565b6000612017826118eb565b91507fffffffffffffffffffffffffffffffffffffffffffffffffffffffffffffffff820361204957612048611dfb565b5b600182019050919050565b7f566f74696e6720706572696f6420686173206e6f74206578706972656420796560008201527f742e000000000000000000000000000000000000000000000000000000000000602082015250565b60006120b0602283611eb8565b91506120bb82612054565b604082019050919050565b600060208201905081810360008301526120df816120a3565b9050919050565b600060a0820190506120fb600083018a611f89565b6121086020830189611e80565b818103604083015261211b818789611ed8565b90508181036060830152612130818587611f05565b905061213f6080830184611e80565b98975050505050505050565b7f4e487b7100000000000000000000000000000000000000000000000000000000600052602260045260246000fd5b6000600282049050600182168061219257607f821691505b6020821081036121a5576121a461214b565b5b50919050565b60007fffffffff0000000000000000000000000000000000000000000000000000000082169050919050565b6000819050919050565b6121f26121ed826121ab565b6121d7565b82525050565b600061220482846121e1565b60048201915081905092915050565b600081905092915050565b600061222982611c18565b6122338185612213565b9350612243818560208601611b9b565b80840191505092915050565b600061225b828461221e565b915081905092915050565b600061227182611b7f565b61227b8185611eb8565b935061228b818560208601611b9b565b61229481611bce565b840191505092915050565b60006080820190506122b46000830187611e80565b81810360208301526122c68186612266565b905081810360408301526122da8185611d5e565b90506122e96060830184611e80565b95945050505050565b60006122fd826118eb565b9150612308836118eb565b9250817fffffffffffffffffffffffffffffffffffffffffffffffffffffffffffffffff048311821515161561234157612340611dfb565b5b828202905092915050565b60006020820190506123616000830184611e80565b92915050565b600081519050612376816118f5565b92915050565b600060208284031215612392576123916118a3565b5b60006123a084828501612367565b9150509291505056fea264697066735822122044a291f720c523a4420d5f3c25b5f15e916dc398f2c8ba2c9bd7f68727f3df2564736f6c634300080d0033",
  "immutableReferences": {},
  "source": "// SPDX-License-Identifier: MIT\r\npragma solidity ^0.8.0;\r\nimport \"./Account.sol\";\r\nimport \"./VoteAdmin.sol\";\r\n\r\ncontract Timelock {\r\n    error NotAdminError();\r\n    error AlreadyQueuedError(bytes32 txId);\r\n    error TimestampNotInRangeError(uint256 blockTimestamp, uint256 timestamp);\r\n    error NotQueuedError(bytes32 txId);\r\n    error TimestampNotPassedError(uint256 blockTimestmap, uint256 timestamp);\r\n    error TimestampExpiredError(uint256 blockTimestamp, uint256 expiresAt);\r\n    error InvalidGracePeriodError();\r\n    error VotingNotAllowedError();\r\n    error AlreadyVotedError();\r\n    error NoProposalError();\r\n\r\n    event VotingReset();\r\n\r\n    event GracePeriodUpdated(uint256 newGracePeriod);\r\n    struct Tx {\r\n        bytes32 txId;\r\n        address target;\r\n        uint256 value;\r\n        string func;\r\n        bytes data;\r\n        uint256 timestamp;\r\n        bool queued;\r\n    }\r\n    error TxFailedError();\r\n    event Queue(\r\n        bytes32 indexed txId,\r\n        address indexed target,\r\n        uint256 value,\r\n        string func,\r\n        bytes data,\r\n        uint256 timestamp\r\n    );\r\n    event Execute(\r\n        bytes32 indexed txId,\r\n        address indexed target,\r\n        uint256 value,\r\n        string func,\r\n        bytes data,\r\n        uint256 timestamp\r\n    );\r\n    \r\n    event Cancel(bytes32 indexed txId);\r\n    modifier onlyVoter() {\r\n        if (!accountsContract.accountExists(msg.sender)) {\r\n            revert VotingNotAllowedError();\r\n        }\r\n        _;\r\n    }\r\n    mapping(address => bool) private hasVoted;\r\n    uint256 private totalVotes;\r\n    uint256 private votesForNewPeriod;\r\n    uint256 private proposedGracePeriod;\r\n    uint256 private constant MIN_DELAY = 10; // seconds\r\n    uint256 private constant MAX_DELAY = 1000; // seconds.\r\n    uint256 private gracePeriod = 30; // seconds\r\n    // address private admin;\r\n    uint256 private votingStartTime;\r\n    uint256 private constant VOTING_DURATION = 1 hours; // Duration for voting\r\n\r\n    // tx id => tx\r\n    mapping(bytes32 => Tx) private txs;\r\n    // Declare a reference to the imported AccountsContract\r\n    AccountManager  public accountsContract;\r\n    VoteAdmin  public voteAdminContract;\r\n\r\n    // Constructor sets the address of the deployed AccountsContract\r\n\r\n    constructor(address _accountsContractAddress, address _voteAdminAddress) {\r\n        // admin = msg.sender;\r\n        accountsContract = AccountManager(_accountsContractAddress);\r\n        voteAdminContract = VoteAdmin(_voteAdminAddress);\r\n    }\r\n\r\n    modifier onlyAdmin() {\r\n        if (msg.sender != voteAdminContract.getCurrentAdmin()) {\r\n            revert NotAdminError();\r\n        }\r\n        _;\r\n    }\r\n\r\n    receive() external payable {}\r\n\r\n    function getTxId(\r\n        address _target,\r\n        uint256 _value,\r\n        string calldata _func,\r\n        bytes calldata _data,\r\n        uint256 _timestamp\r\n    ) public pure returns (bytes32) {\r\n        return keccak256(abi.encode(_target, _value, _func, _data, _timestamp));\r\n    }\r\n\r\n    function queue(\r\n        address _target,\r\n        uint256 _value,\r\n        string calldata _func,\r\n        bytes calldata _data,\r\n        uint256 _timestamp\r\n    ) external onlyAdmin returns (bytes32) {\r\n        bytes32 txId = getTxId(_target, _value, _func, _data, _timestamp);\r\n        if (txs[txId].queued) {\r\n            revert AlreadyQueuedError(txId);\r\n        }\r\n        Tx memory currentTx = Tx(\r\n            txId,\r\n            _target,\r\n            _value,\r\n            _func,\r\n            _data,\r\n            _timestamp,\r\n            true\r\n        );\r\n\r\n        if (\r\n            _timestamp < block.timestamp + MIN_DELAY ||\r\n            _timestamp > block.timestamp + MAX_DELAY\r\n        ) {\r\n            revert TimestampNotInRangeError(block.timestamp, _timestamp);\r\n        }\r\n        txs[txId] = currentTx;\r\n        emit Queue(txId, _target, _value, _func, _data, _timestamp);\r\n\r\n        return txId;\r\n    }\r\n\r\n    function execute(bytes32 _txId)\r\n        external\r\n        payable\r\n        onlyAdmin\r\n        returns (bytes memory)\r\n    {\r\n        if (!txs[_txId].queued) {\r\n            revert NotQueuedError(_txId);\r\n        }\r\n        Tx memory currentTx = txs[_txId];\r\n        if (block.timestamp < currentTx.timestamp) {\r\n            revert TimestampNotPassedError(\r\n                block.timestamp,\r\n                currentTx.timestamp\r\n            );\r\n        }\r\n        if (block.timestamp > currentTx.timestamp + gracePeriod) {\r\n            revert TimestampExpiredError(block.timestamp, gracePeriod);\r\n        }\r\n\r\n        txs[_txId].queued = false;\r\n        // prepare data.\r\n        bytes memory data;\r\n        if (bytes(currentTx.func).length > 0) {\r\n            // data func selector + _data\r\n            data = abi.encodePacked(bytes4(keccak256(bytes(currentTx.func))));\r\n        } else {\r\n            // call fallback with data.\r\n            data = currentTx.data;\r\n        } // call target\r\n        (bool ok, bytes memory res) = currentTx.target.call{\r\n            value: currentTx.value\r\n        }(data);\r\n        if (!ok) {\r\n            revert TxFailedError();\r\n        }\r\n\r\n        emit Execute(\r\n            _txId,\r\n            currentTx.target,\r\n            currentTx.value,\r\n            currentTx.func,\r\n            currentTx.data,\r\n            currentTx.timestamp\r\n        );\r\n        return res;\r\n    }\r\n\r\n    function cancel(bytes32 _txId) external onlyAdmin {\r\n        if (!txs[_txId].queued) {\r\n            revert NotQueuedError(_txId);\r\n        }\r\n        txs[_txId].queued = false;\r\n        emit Cancel(_txId);\r\n    }\r\n\r\n    function getTx(bytes32 _txId)\r\n        external\r\n        view\r\n        returns (Tx memory transaction)\r\n    {\r\n        return txs[_txId];\r\n    }\r\n\r\n    // VOTING SYSTEM\r\n    function proposeGracePeriod(uint256 _newGracePeriod) external onlyVoter {\r\n        if(proposedGracePeriod<=0) revert NoProposalError();\r\n        if (_newGracePeriod <= 0) {\r\n            revert InvalidGracePeriodError();\r\n        }\r\n        proposedGracePeriod = _newGracePeriod;\r\n        hasVoted[msg.sender] = true;\r\n        votesForNewPeriod++;\r\n        totalVotes = getTotalAccounts();\r\n        checkResult();\r\n    }\r\n\r\n    function vote() external onlyVoter {\r\n        if (hasVoted[msg.sender] == true) revert AlreadyVotedError();\r\n        votesForNewPeriod++;\r\n        checkResult();\r\n    }\r\n\r\n    function resetVoting() external onlyAdmin{\r\n        require(\r\n            block.timestamp >= votingStartTime + VOTING_DURATION,\r\n            \"Voting period has not expired yet.\"\r\n        );\r\n        _resetVoting();\r\n    }\r\n\r\n    // Check if we have enough votes (simple majority)\r\n    function checkResult() internal {\r\n        if (votesForNewPeriod * 2 > totalVotes) {\r\n            gracePeriod = proposedGracePeriod;\r\n            emit GracePeriodUpdated(gracePeriod);\r\n            _resetVoting();\r\n        }\r\n    }\r\n\r\n    function _resetVoting() internal {\r\n        for (uint256 i = 0; i < totalVotes; i++) {\r\n            hasVoted[tx.origin] = false;\r\n        }\r\n        totalVotes = 0;\r\n        votesForNewPeriod = 0;\r\n        votingStartTime = 0;\r\n        emit VotingReset();\r\n    }\r\n\r\n   \r\n    // Example function to get the total number of accounts\r\n    function getTotalAccounts() internal view returns (uint256) {\r\n        return accountsContract.getAccountCount();\r\n    }\r\n\r\n\r\n    function getGracePeriod() internal view returns (uint256) {\r\n        return gracePeriod;\r\n    }\r\n}\r\n",
  "sourcePath": "c:\\Timelock\\contracts\\Timelock.sol",
  "compiler": {
    "name": "solc",
    "version": "0.8.13+commit.abaa5c0e.Emscripten.clang"
  },
  "schemaVersion": "3.4.16",
  "updatedAt": "2024-09-18T09:00:14.179Z",
  "networkType": "ethereum",
  "devdoc": {
    "kind": "dev",
    "methods": {},
    "version": 1
  },
  "userdoc": {
    "kind": "user",
    "methods": {},
    "version": 1
  }
}