{
  "contractName": "Timelock",
  "abi": [
    {
      "inputs": [
        {
          "internalType": "address",
          "name": "_accountsContractAddress",
          "type": "address"
        },
        {
          "internalType": "uint256",
          "name": "_minGracePeriod",
          "type": "uint256"
        },
        {
          "internalType": "uint256",
          "name": "_maxGracePeriod",
          "type": "uint256"
        },
        {
          "internalType": "uint256",
          "name": "_defaultGracePeriod",
          "type": "uint256"
        }
      ],
      "stateMutability": "nonpayable",
      "type": "constructor"
    },
    {
      "inputs": [
        {
          "internalType": "bytes32",
          "name": "txId",
          "type": "bytes32"
        }
      ],
      "name": "AlreadyQueuedError",
      "type": "error"
    },
    {
      "inputs": [],
      "name": "NotAdminError",
      "type": "error"
    },
    {
      "inputs": [
        {
          "internalType": "bytes32",
          "name": "txId",
          "type": "bytes32"
        }
      ],
      "name": "NotQueuedError",
      "type": "error"
    },
    {
      "inputs": [
        {
          "internalType": "uint256",
          "name": "blockTimestamp",
          "type": "uint256"
        },
        {
          "internalType": "uint256",
          "name": "expiresAt",
          "type": "uint256"
        }
      ],
      "name": "TimestampExpiredError",
      "type": "error"
    },
    {
      "inputs": [
        {
          "internalType": "uint256",
          "name": "blockTimestamp",
          "type": "uint256"
        },
        {
          "internalType": "uint256",
          "name": "expiresAt",
          "type": "uint256"
        }
      ],
      "name": "TimestampNotMatureError",
      "type": "error"
    },
    {
      "inputs": [
        {
          "internalType": "uint256",
          "name": "blockTimestamp",
          "type": "uint256"
        },
        {
          "internalType": "uint256",
          "name": "timestamp",
          "type": "uint256"
        }
      ],
      "name": "TimestampNotPassedError",
      "type": "error"
    },
    {
      "inputs": [],
      "name": "TxFailedError",
      "type": "error"
    },
    {
      "anonymous": false,
      "inputs": [
        {
          "indexed": true,
          "internalType": "bytes32",
          "name": "txId",
          "type": "bytes32"
        }
      ],
      "name": "Cancel",
      "type": "event"
    },
    {
      "anonymous": false,
      "inputs": [
        {
          "indexed": true,
          "internalType": "address",
          "name": "user",
          "type": "address"
        },
        {
          "indexed": false,
          "internalType": "uint256",
          "name": "amount",
          "type": "uint256"
        }
      ],
      "name": "Deposited",
      "type": "event"
    },
    {
      "anonymous": false,
      "inputs": [
        {
          "indexed": true,
          "internalType": "bytes32",
          "name": "txId",
          "type": "bytes32"
        },
        {
          "indexed": true,
          "internalType": "address",
          "name": "target",
          "type": "address"
        },
        {
          "indexed": false,
          "internalType": "uint256",
          "name": "value",
          "type": "uint256"
        },
        {
          "indexed": false,
          "internalType": "uint256",
          "name": "timestamp",
          "type": "uint256"
        }
      ],
      "name": "Execute",
      "type": "event"
    },
    {
      "anonymous": false,
      "inputs": [
        {
          "indexed": false,
          "internalType": "uint256",
          "name": "gracePeriod",
          "type": "uint256"
        }
      ],
      "name": "GracePeriodChanged",
      "type": "event"
    },
    {
      "anonymous": false,
      "inputs": [
        {
          "indexed": false,
          "internalType": "uint256",
          "name": "newGracePeriod",
          "type": "uint256"
        }
      ],
      "name": "NewGracePeriodProposed",
      "type": "event"
    },
    {
      "anonymous": false,
      "inputs": [
        {
          "indexed": true,
          "internalType": "bytes32",
          "name": "txId",
          "type": "bytes32"
        },
        {
          "indexed": true,
          "internalType": "address",
          "name": "target",
          "type": "address"
        },
        {
          "indexed": false,
          "internalType": "uint256",
          "name": "value",
          "type": "uint256"
        },
        {
          "indexed": false,
          "internalType": "uint256",
          "name": "timestamp",
          "type": "uint256"
        }
      ],
      "name": "Queue",
      "type": "event"
    },
    {
      "anonymous": false,
      "inputs": [
        {
          "indexed": false,
          "internalType": "uint256",
          "name": "newGracePeriod",
          "type": "uint256"
        }
      ],
      "name": "VotingFinalized",
      "type": "event"
    },
    {
      "inputs": [],
      "name": "accountBalance",
      "outputs": [
        {
          "internalType": "uint256",
          "name": "",
          "type": "uint256"
        }
      ],
      "stateMutability": "view",
      "type": "function",
      "constant": true
    },
    {
      "inputs": [],
      "name": "accountsContract",
      "outputs": [
        {
          "internalType": "contract AccountManager",
          "name": "",
          "type": "address"
        }
      ],
      "stateMutability": "view",
      "type": "function",
      "constant": true
    },
    {
      "inputs": [],
      "name": "admin",
      "outputs": [
        {
          "internalType": "address",
          "name": "",
          "type": "address"
        }
      ],
      "stateMutability": "view",
      "type": "function",
      "constant": true
    },
    {
      "inputs": [],
      "name": "depositAmt",
      "outputs": [
        {
          "internalType": "uint256",
          "name": "",
          "type": "uint256"
        }
      ],
      "stateMutability": "view",
      "type": "function",
      "constant": true
    },
    {
      "inputs": [],
      "name": "maxGracePeriod",
      "outputs": [
        {
          "internalType": "uint256",
          "name": "",
          "type": "uint256"
        }
      ],
      "stateMutability": "view",
      "type": "function",
      "constant": true
    },
    {
      "inputs": [],
      "name": "minGracePeriod",
      "outputs": [
        {
          "internalType": "uint256",
          "name": "",
          "type": "uint256"
        }
      ],
      "stateMutability": "view",
      "type": "function",
      "constant": true
    },
    {
      "inputs": [],
      "name": "owner",
      "outputs": [
        {
          "internalType": "address",
          "name": "",
          "type": "address"
        }
      ],
      "stateMutability": "view",
      "type": "function",
      "constant": true
    },
    {
      "inputs": [
        {
          "internalType": "uint256",
          "name": "",
          "type": "uint256"
        }
      ],
      "name": "voted",
      "outputs": [
        {
          "internalType": "address",
          "name": "",
          "type": "address"
        }
      ],
      "stateMutability": "view",
      "type": "function",
      "constant": true
    },
    {
      "inputs": [],
      "name": "whoDeposited",
      "outputs": [
        {
          "internalType": "address",
          "name": "",
          "type": "address"
        }
      ],
      "stateMutability": "view",
      "type": "function",
      "constant": true
    },
    {
      "inputs": [],
      "name": "getGracePeriod",
      "outputs": [
        {
          "internalType": "uint256",
          "name": "",
          "type": "uint256"
        }
      ],
      "stateMutability": "view",
      "type": "function",
      "constant": true
    },
    {
      "inputs": [
        {
          "internalType": "address",
          "name": "_target",
          "type": "address"
        },
        {
          "internalType": "uint256",
          "name": "_value",
          "type": "uint256"
        }
      ],
      "name": "getTxId",
      "outputs": [
        {
          "internalType": "bytes32",
          "name": "",
          "type": "bytes32"
        }
      ],
      "stateMutability": "pure",
      "type": "function",
      "constant": true
    },
    {
      "inputs": [
        {
          "internalType": "address",
          "name": "_target",
          "type": "address"
        },
        {
          "internalType": "uint256",
          "name": "_value",
          "type": "uint256"
        }
      ],
      "name": "queue",
      "outputs": [
        {
          "internalType": "bytes32",
          "name": "",
          "type": "bytes32"
        }
      ],
      "stateMutability": "nonpayable",
      "type": "function"
    },
    {
      "inputs": [],
      "name": "getTxArr",
      "outputs": [
        {
          "components": [
            {
              "internalType": "bytes32",
              "name": "txId",
              "type": "bytes32"
            },
            {
              "internalType": "address",
              "name": "target",
              "type": "address"
            },
            {
              "internalType": "uint256",
              "name": "value",
              "type": "uint256"
            },
            {
              "internalType": "uint256",
              "name": "timestamp",
              "type": "uint256"
            },
            {
              "internalType": "bool",
              "name": "queued",
              "type": "bool"
            },
            {
              "internalType": "address",
              "name": "depositor",
              "type": "address"
            }
          ],
          "internalType": "struct Timelock.Tx[]",
          "name": "",
          "type": "tuple[]"
        }
      ],
      "stateMutability": "view",
      "type": "function",
      "constant": true
    },
    {
      "inputs": [
        {
          "internalType": "bytes32",
          "name": "_txId",
          "type": "bytes32"
        }
      ],
      "name": "execute",
      "outputs": [
        {
          "internalType": "address",
          "name": "target",
          "type": "address"
        },
        {
          "internalType": "uint256",
          "name": "value",
          "type": "uint256"
        }
      ],
      "stateMutability": "nonpayable",
      "type": "function"
    },
    {
      "inputs": [
        {
          "internalType": "bytes32",
          "name": "_txId",
          "type": "bytes32"
        }
      ],
      "name": "cancel",
      "outputs": [
        {
          "internalType": "address",
          "name": "sender",
          "type": "address"
        },
        {
          "internalType": "uint256",
          "name": "value",
          "type": "uint256"
        }
      ],
      "stateMutability": "nonpayable",
      "type": "function"
    },
    {
      "inputs": [
        {
          "internalType": "bytes32",
          "name": "_txId",
          "type": "bytes32"
        }
      ],
      "name": "getTx",
      "outputs": [
        {
          "components": [
            {
              "internalType": "bytes32",
              "name": "txId",
              "type": "bytes32"
            },
            {
              "internalType": "address",
              "name": "target",
              "type": "address"
            },
            {
              "internalType": "uint256",
              "name": "value",
              "type": "uint256"
            },
            {
              "internalType": "uint256",
              "name": "timestamp",
              "type": "uint256"
            },
            {
              "internalType": "bool",
              "name": "queued",
              "type": "bool"
            },
            {
              "internalType": "address",
              "name": "depositor",
              "type": "address"
            }
          ],
          "internalType": "struct Timelock.Tx",
          "name": "transaction",
          "type": "tuple"
        }
      ],
      "stateMutability": "view",
      "type": "function",
      "constant": true
    },
    {
      "inputs": [
        {
          "internalType": "uint256",
          "name": "_proposedGracePeriod",
          "type": "uint256"
        }
      ],
      "name": "startVoting",
      "outputs": [],
      "stateMutability": "nonpayable",
      "type": "function"
    },
    {
      "inputs": [],
      "name": "voteGracePeriod",
      "outputs": [],
      "stateMutability": "nonpayable",
      "type": "function"
    },
    {
      "inputs": [
        {
          "internalType": "address",
          "name": "_address",
          "type": "address"
        }
      ],
      "name": "voterHasVoted",
      "outputs": [
        {
          "internalType": "bool",
          "name": "",
          "type": "bool"
        }
      ],
      "stateMutability": "view",
      "type": "function",
      "constant": true
    },
    {
      "inputs": [],
      "name": "finalizeVote",
      "outputs": [],
      "stateMutability": "nonpayable",
      "type": "function"
    },
    {
      "inputs": [],
      "name": "getCurrentGracePeriod",
      "outputs": [
        {
          "internalType": "uint256",
          "name": "",
          "type": "uint256"
        }
      ],
      "stateMutability": "view",
      "type": "function",
      "constant": true
    },
    {
      "inputs": [],
      "name": "getProposedGracePeriod",
      "outputs": [
        {
          "internalType": "uint256",
          "name": "",
          "type": "uint256"
        }
      ],
      "stateMutability": "view",
      "type": "function",
      "constant": true
    }
  ],
  "bytecode": "0x60806040523480156200001157600080fd5b5060405162002e7b38038062002e7b83398181016040528101906200003791906200013c565b83600860006101000a81548173ffffffffffffffffffffffffffffffffffffffff021916908373ffffffffffffffffffffffffffffffffffffffff16021790555082600a8190555081600b819055508060048190555050505050620001ae565b600080fd5b600073ffffffffffffffffffffffffffffffffffffffff82169050919050565b6000620000c9826200009c565b9050919050565b620000db81620000bc565b8114620000e757600080fd5b50565b600081519050620000fb81620000d0565b92915050565b6000819050919050565b620001168162000101565b81146200012257600080fd5b50565b60008151905062000136816200010b565b92915050565b6000806000806080858703121562000159576200015862000097565b5b60006200016987828801620000ea565b94505060206200017c8782880162000125565b93505060406200018f8782880162000125565b9250506060620001a28782880162000125565b91505092959194509250565b612cbd80620001be6000396000f3fe608060405234801561001057600080fd5b50600436106101425760003560e01c8063a1761664116100b8578063ba4090de1161007c578063ba4090de14610345578063c4d252f514610363578063dbd1838814610394578063e751f271146103b2578063f851a440146103e3578063f9628d941461040157610142565b8063a17616641461028b578063ada6e9f2146102a9578063b0a1c1c4146102d9578063b5677b42146102f7578063b915cb6c1461031557610142565b8063446f201e1161010a578063446f201e146101d957806354ef7f2d146101f757806367db86a51461020157806384f2f0c41461021f5780638da5cb5b1461023d5780638fbb38ff1461025b57610142565b80631a7cd197146101475780632916f2b4146101515780632fe71b861461016f5780633d2f5bda1461018d57806344287113146101a9575b600080fd5b61014f610431565b005b61015961066e565b6040516101669190611dbb565b60405180910390f35b610177610674565b6040516101849190611f84565b60405180910390f35b6101a760048036038101906101a29190611fd7565b610867565b005b6101c360048036038101906101be9190612030565b6109d6565b6040516101d0919061207f565b60405180910390f35b6101e1610e87565b6040516101ee91906120f9565b60405180910390f35b6101ff610ead565b005b610209610fd3565b6040516102169190611dbb565b60405180910390f35b610227610fdd565b6040516102349190611dbb565b60405180910390f35b610245610fe3565b6040516102529190612123565b60405180910390f35b61027560048036038101906102709190611fd7565b611009565b6040516102829190612123565b60405180910390f35b610293611048565b6040516102a09190612123565b60405180910390f35b6102c360048036038101906102be919061213e565b61106e565b6040516102d0919061217a565b60405180910390f35b6102e161111c565b6040516102ee9190611dbb565b60405180910390f35b6102ff611122565b60405161030c9190611dbb565b60405180910390f35b61032f600480360381019061032a91906121c1565b611128565b60405161033c9190612269565b60405180910390f35b61034d611239565b60405161035a9190611dbb565b60405180910390f35b61037d600480360381019061037891906121c1565b611243565b60405161038b929190612284565b60405180910390f35b61039c611624565b6040516103a99190611dbb565b60405180910390f35b6103cc60048036038101906103c791906121c1565b61162e565b6040516103da929190612284565b60405180910390f35b6103eb611a67565b6040516103f89190612123565b60405180910390f35b61041b60048036038101906104169190612030565b611a8d565b604051610428919061207f565b60405180910390f35b600c5442101580156104455750600d544211155b610484576040517f08c379a000000000000000000000000000000000000000000000000000000000815260040161047b9061230a565b60405180910390fd5b6000601254036104c9576040517f08c379a00000000000000000000000000000000000000000000000000000000081526004016104c090612376565b60405180910390fd5b600860009054906101000a900473ffffffffffffffffffffffffffffffffffffffff1673ffffffffffffffffffffffffffffffffffffffff166375cd51ed336040518263ffffffff1660e01b81526004016105249190612123565b602060405180830381865afa158015610541573d6000803e3d6000fd5b505050506040513d601f19601f8201168201806040525081019061056591906123c2565b6105a4576040517f08c379a000000000000000000000000000000000000000000000000000000000815260040161059b9061243b565b60405180910390fd5b6105ad3361106e565b156105ed576040517f08c379a00000000000000000000000000000000000000000000000000000000081526004016105e4906124a7565b60405180910390fd5b6011339080600181540180825580915050600190039060005260206000200160009091909190916101000a81548173ffffffffffffffffffffffffffffffffffffffff021916908373ffffffffffffffffffffffffffffffffffffffff16021790555060105461065b611ac0565b1061066c5761066b601254611afb565b5b565b600a5481565b6060600060025467ffffffffffffffff811115610694576106936124c7565b5b6040519080825280602002602001820160405280156106cd57816020015b6106ba611c94565b8152602001906001900390816106b25790505b50905060005b60025481101561085f576000806001600084815260200190815260200160002054815260200190815260200160002060040160009054906101000a900460ff161561084c57600080600160008481526020019081526020016000205481526020019081526020016000206040518060c0016040529081600082015481526020016001820160009054906101000a900473ffffffffffffffffffffffffffffffffffffffff1673ffffffffffffffffffffffffffffffffffffffff1673ffffffffffffffffffffffffffffffffffffffff16815260200160028201548152602001600382015481526020016004820160009054906101000a900460ff161515151581526020016004820160019054906101000a900473ffffffffffffffffffffffffffffffffffffffff1673ffffffffffffffffffffffffffffffffffffffff1673ffffffffffffffffffffffffffffffffffffffff16815250508282815181106108405761083f6124f6565b5b60200260200101819052505b808061085790612554565b9150506106d3565b508091505090565b600a54811015801561087b5750600b548111155b6108ba576040517f08c379a00000000000000000000000000000000000000000000000000000000081526004016108b19061260e565b60405180910390fd5b60045481036108fe576040517f08c379a00000000000000000000000000000000000000000000000000000000081526004016108f5906126a0565b60405180910390fd5b600f60009054906101000a900460ff161561094e576040517f08c379a00000000000000000000000000000000000000000000000000000000081526004016109459061270c565b60405180910390fd5b610956611b44565b42600c8190555060784261096a919061272c565b600d819055506001600f60006101000a81548160ff021916908315150217905550610993611bd1565b806012819055507fcae3278bf7174c45bcf59eaee8f153db11a04c8f14eef657b88ba3f0cde06d5d6012546040516109cb9190611dbb565b60405180910390a150565b6000808211610a1a576040517f08c379a0000000000000000000000000000000000000000000000000000000008152600401610a11906127f4565b60405180910390fd5b81600860009054906101000a900473ffffffffffffffffffffffffffffffffffffffff1673ffffffffffffffffffffffffffffffffffffffff1663b6aa680c336040518263ffffffff1660e01b8152600401610a769190612123565b602060405180830381865afa158015610a93573d6000803e3d6000fd5b505050506040513d601f19601f82011682018060405250810190610ab79190612829565b11610af7576040517f08c379a0000000000000000000000000000000000000000000000000000000008152600401610aee906128a2565b60405180910390fd5b6000610b038484611a8d565b905060008082815260200190815260200160002060040160009054906101000a900460ff1615610b6a57806040517f995042be000000000000000000000000000000000000000000000000000000008152600401610b61919061207f565b60405180910390fd5b60006040518060c001604052808381526020018673ffffffffffffffffffffffffffffffffffffffff1681526020018581526020014281526020016001151581526020013373ffffffffffffffffffffffffffffffffffffffff168152509050806000808481526020019081526020016000206000820151816000015560208201518160010160006101000a81548173ffffffffffffffffffffffffffffffffffffffff021916908373ffffffffffffffffffffffffffffffffffffffff160217905550604082015181600201556060820151816003015560808201518160040160006101000a81548160ff02191690831515021790555060a08201518160040160016101000a81548173ffffffffffffffffffffffffffffffffffffffff021916908373ffffffffffffffffffffffffffffffffffffffff1602179055509050508160016000600254815260200190815260200160002081905550600084600860009054906101000a900473ffffffffffffffffffffffffffffffffffffffff1673ffffffffffffffffffffffffffffffffffffffff1663b6aa680c336040518263ffffffff1660e01b8152600401610d249190612123565b602060405180830381865afa158015610d41573d6000803e3d6000fd5b505050506040513d601f19601f82011682018060405250810190610d659190612829565b610d6f91906128c2565b90508573ffffffffffffffffffffffffffffffffffffffff16837f29829d31c3b36d4a4d8cba00b41f628ae184b474a5a3a12296efe0e31da83ddd8742604051610dba9291906128f6565b60405180910390a3600860009054906101000a900473ffffffffffffffffffffffffffffffffffffffff1673ffffffffffffffffffffffffffffffffffffffff166333d07dc933836040518363ffffffff1660e01b8152600401610e1f929190612284565b6020604051808303816000875af1158015610e3e573d6000803e3d6000fd5b505050506040513d601f19601f82011682018060405250810190610e6291906123c2565b5060026000815480929190610e7690612554565b919050555082935050505092915050565b600860009054906101000a900473ffffffffffffffffffffffffffffffffffffffff1681565b600d544211610ef1576040517f08c379a0000000000000000000000000000000000000000000000000000000008152600401610ee89061296b565b60405180910390fd5b600060125403610f36576040517f08c379a0000000000000000000000000000000000000000000000000000000008152600401610f2d906129d7565b60405180910390fd5b601054610f41611ac0565b10610fc857610f51601254611afb565b7fcc2c34a1adf0911114053f75b51b2b1f8fc9ef9e25f0a5f12f210032b5b0a1b2601254604051610f829190611dbb565b60405180910390a17f886c75dbb46b8e34257da373ac60898ecebd9682c7dfeb9c4d65383b92d5ff2d601254604051610fbb9190611dbb565b60405180910390a1610fc9565b5b610fd1611b44565b565b6000600454905090565b600b5481565b600960009054906101000a900473ffffffffffffffffffffffffffffffffffffffff1681565b6011818154811061101957600080fd5b906000526020600020016000915054906101000a900473ffffffffffffffffffffffffffffffffffffffff1681565b600560009054906101000a900473ffffffffffffffffffffffffffffffffffffffff1681565b600080600090505b601180549050811015611111578273ffffffffffffffffffffffffffffffffffffffff16601182815481106110ae576110ad6124f6565b5b9060005260206000200160009054906101000a900473ffffffffffffffffffffffffffffffffffffffff1673ffffffffffffffffffffffffffffffffffffffff16036110fe576001915050611117565b808061110990612554565b915050611076565b50600090505b919050565b60075481565b60065481565b611130611c94565b6000808381526020019081526020016000206040518060c0016040529081600082015481526020016001820160009054906101000a900473ffffffffffffffffffffffffffffffffffffffff1673ffffffffffffffffffffffffffffffffffffffff1673ffffffffffffffffffffffffffffffffffffffff16815260200160028201548152602001600382015481526020016004820160009054906101000a900460ff161515151581526020016004820160019054906101000a900473ffffffffffffffffffffffffffffffffffffffff1673ffffffffffffffffffffffffffffffffffffffff1673ffffffffffffffffffffffffffffffffffffffff16815250509050919050565b6000601254905090565b60008060008084815260200190815260200160002060040160009054906101000a900460ff166112aa57826040517f0995c9d50000000000000000000000000000000000000000000000000000000081526004016112a1919061207f565b60405180910390fd5b60008060008581526020019081526020016000206040518060c0016040529081600082015481526020016001820160009054906101000a900473ffffffffffffffffffffffffffffffffffffffff1673ffffffffffffffffffffffffffffffffffffffff1673ffffffffffffffffffffffffffffffffffffffff16815260200160028201548152602001600382015481526020016004820160009054906101000a900460ff161515151581526020016004820160019054906101000a900473ffffffffffffffffffffffffffffffffffffffff1673ffffffffffffffffffffffffffffffffffffffff1673ffffffffffffffffffffffffffffffffffffffff1681525050905060045481606001516113c2919061272c565b4210611418574260045482606001516113db919061272c565b6040517f92ae26d100000000000000000000000000000000000000000000000000000000815260040161140f9291906128f6565b60405180910390fd5b600080600086815260200190815260200160002060040160006101000a81548160ff02191690831515021790555060008160400151600860009054906101000a900473ffffffffffffffffffffffffffffffffffffffff1673ffffffffffffffffffffffffffffffffffffffff1663b6aa680c8460a001516040518263ffffffff1660e01b81526004016114ac9190612123565b602060405180830381865afa1580156114c9573d6000803e3d6000fd5b505050506040513d601f19601f820116820180604052508101906114ed9190612829565b6114f7919061272c565b90506000600860009054906101000a900473ffffffffffffffffffffffffffffffffffffffff1673ffffffffffffffffffffffffffffffffffffffff166333d07dc98460a00151846040518363ffffffff1660e01b815260040161155c929190612284565b6020604051808303816000875af115801561157b573d6000803e3d6000fd5b505050506040513d601f19601f8201168201806040525081019061159f91906123c2565b9050857fe8d9861dbc9c663ed3accd261bbe2fe01e0d3d9e5f51fa38523b265c7757a93a60405160405180910390a28061160e576040517f08c379a000000000000000000000000000000000000000000000000000000000815260040161160590612a69565b60405180910390fd5b8260a00151836040015194509450505050915091565b6000600454905090565b60008060008084815260200190815260200160002060040160009054906101000a900460ff16611693576040517f08c379a000000000000000000000000000000000000000000000000000000000815260040161168a90612ad5565b60405180910390fd5b60008060008581526020019081526020016000206040518060c0016040529081600082015481526020016001820160009054906101000a900473ffffffffffffffffffffffffffffffffffffffff1673ffffffffffffffffffffffffffffffffffffffff1673ffffffffffffffffffffffffffffffffffffffff16815260200160028201548152602001600382015481526020016004820160009054906101000a900460ff161515151581526020016004820160019054906101000a900473ffffffffffffffffffffffffffffffffffffffff1673ffffffffffffffffffffffffffffffffffffffff1673ffffffffffffffffffffffffffffffffffffffff1681525050905080606001514210156117e0576040517f08c379a00000000000000000000000000000000000000000000000000000000081526004016117d790612b41565b60405180910390fd5b60045481606001516117f2919061272c565b421015611834576040517f08c379a000000000000000000000000000000000000000000000000000000000815260040161182b90612bad565b60405180910390fd5b600080600086815260200190815260200160002060040160006101000a81548160ff02191690831515021790555060008160400151600860009054906101000a900473ffffffffffffffffffffffffffffffffffffffff1673ffffffffffffffffffffffffffffffffffffffff1663b6aa680c84602001516040518263ffffffff1660e01b81526004016118c89190612123565b602060405180830381865afa1580156118e5573d6000803e3d6000fd5b505050506040513d601f19601f820116820180604052508101906119099190612829565b611913919061272c565b90506000600860009054906101000a900473ffffffffffffffffffffffffffffffffffffffff1673ffffffffffffffffffffffffffffffffffffffff166333d07dc98460200151846040518363ffffffff1660e01b8152600401611978929190612284565b6020604051808303816000875af1158015611997573d6000803e3d6000fd5b505050506040513d601f19601f820116820180604052508101906119bb91906123c2565b9050806119f4576040517fd9b4f81e00000000000000000000000000000000000000000000000000000000815260040160405180910390fd5b826020015173ffffffffffffffffffffffffffffffffffffffff16867f12c1a2c49028795b0ce8a17c5a4476dd1224c3ab775a1eed866d7ff04de03e2185604001518660600151604051611a499291906128f6565b60405180910390a38260200151836040015194509450505050915091565b600360009054906101000a900473ffffffffffffffffffffffffffffffffffffffff1681565b60008282604051602001611aa2929190612284565b60405160208183030381529060405280519060200120905092915050565b6000805b601180549050811015611af75760118054905082611ae2919061272c565b91508080611aef90612554565b915050611ac4565b5090565b806004819055507f886c75dbb46b8e34257da373ac60898ecebd9682c7dfeb9c4d65383b92d5ff2d81604051611b319190611dbb565b60405180910390a1611b41611b44565b50565b60006012819055506000600f60006101000a81548160ff0219169083151502179055506000600d81905550600067ffffffffffffffff811115611b8a57611b896124c7565b5b604051908082528060200260200182016040528015611bb85781602001602082028036833780820191505090505b5060119080519060200190611bce929190611cfb565b50565b6000600860009054906101000a900473ffffffffffffffffffffffffffffffffffffffff1673ffffffffffffffffffffffffffffffffffffffff1663a98e4e776040518163ffffffff1660e01b8152600401602060405180830381865afa158015611c40573d6000803e3d6000fd5b505050506040513d601f19601f82011682018060405250810190611c649190612829565b905060646063603383611c779190612bcd565b611c81919061272c565b611c8b9190612c56565b60108190555050565b6040518060c0016040528060008019168152602001600073ffffffffffffffffffffffffffffffffffffffff1681526020016000815260200160008152602001600015158152602001600073ffffffffffffffffffffffffffffffffffffffff1681525090565b828054828255906000526020600020908101928215611d74579160200282015b82811115611d735782518260006101000a81548173ffffffffffffffffffffffffffffffffffffffff021916908373ffffffffffffffffffffffffffffffffffffffff16021790555091602001919060010190611d1b565b5b509050611d819190611d85565b5090565b5b80821115611d9e576000816000905550600101611d86565b5090565b6000819050919050565b611db581611da2565b82525050565b6000602082019050611dd06000830184611dac565b92915050565b600081519050919050565b600082825260208201905092915050565b6000819050602082019050919050565b6000819050919050565b611e1581611e02565b82525050565b600073ffffffffffffffffffffffffffffffffffffffff82169050919050565b6000611e4682611e1b565b9050919050565b611e5681611e3b565b82525050565b611e6581611da2565b82525050565b60008115159050919050565b611e8081611e6b565b82525050565b60c082016000820151611e9c6000850182611e0c565b506020820151611eaf6020850182611e4d565b506040820151611ec26040850182611e5c565b506060820151611ed56060850182611e5c565b506080820151611ee86080850182611e77565b5060a0820151611efb60a0850182611e4d565b50505050565b6000611f0d8383611e86565b60c08301905092915050565b6000602082019050919050565b6000611f3182611dd6565b611f3b8185611de1565b9350611f4683611df2565b8060005b83811015611f77578151611f5e8882611f01565b9750611f6983611f19565b925050600181019050611f4a565b5085935050505092915050565b60006020820190508181036000830152611f9e8184611f26565b905092915050565b600080fd5b611fb481611da2565b8114611fbf57600080fd5b50565b600081359050611fd181611fab565b92915050565b600060208284031215611fed57611fec611fa6565b5b6000611ffb84828501611fc2565b91505092915050565b61200d81611e3b565b811461201857600080fd5b50565b60008135905061202a81612004565b92915050565b6000806040838503121561204757612046611fa6565b5b60006120558582860161201b565b925050602061206685828601611fc2565b9150509250929050565b61207981611e02565b82525050565b60006020820190506120946000830184612070565b92915050565b6000819050919050565b60006120bf6120ba6120b584611e1b565b61209a565b611e1b565b9050919050565b60006120d1826120a4565b9050919050565b60006120e3826120c6565b9050919050565b6120f3816120d8565b82525050565b600060208201905061210e60008301846120ea565b92915050565b61211d81611e3b565b82525050565b60006020820190506121386000830184612114565b92915050565b60006020828403121561215457612153611fa6565b5b60006121628482850161201b565b91505092915050565b61217481611e6b565b82525050565b600060208201905061218f600083018461216b565b92915050565b61219e81611e02565b81146121a957600080fd5b50565b6000813590506121bb81612195565b92915050565b6000602082840312156121d7576121d6611fa6565b5b60006121e5848285016121ac565b91505092915050565b60c0820160008201516122046000850182611e0c565b5060208201516122176020850182611e4d565b50604082015161222a6040850182611e5c565b50606082015161223d6060850182611e5c565b5060808201516122506080850182611e77565b5060a082015161226360a0850182611e4d565b50505050565b600060c08201905061227e60008301846121ee565b92915050565b60006040820190506122996000830185612114565b6122a66020830184611dac565b9392505050565b600082825260208201905092915050565b7f566f74696e67207068617365206973206e6f74206163746976652e0000000000600082015250565b60006122f4601b836122ad565b91506122ff826122be565b602082019050919050565b60006020820190508181036000830152612323816122e7565b9050919050565b7f4e6f20477261636520506572696f642070726f706f7365642e00000000000000600082015250565b60006123606019836122ad565b915061236b8261232a565b602082019050919050565b6000602082019050818103600083015261238f81612353565b9050919050565b61239f81611e6b565b81146123aa57600080fd5b50565b6000815190506123bc81612396565b92915050565b6000602082840312156123d8576123d7611fa6565b5b60006123e6848285016123ad565b91505092915050565b7f4f6e6c7920726567697374657265642075736572732063616e20766f74652e00600082015250565b6000612425601f836122ad565b9150612430826123ef565b602082019050919050565b6000602082019050818103600083015261245481612418565b9050919050565b7f416c726561647920766f7465642e000000000000000000000000000000000000600082015250565b6000612491600e836122ad565b915061249c8261245b565b602082019050919050565b600060208201905081810360008301526124c081612484565b9050919050565b7f4e487b7100000000000000000000000000000000000000000000000000000000600052604160045260246000fd5b7f4e487b7100000000000000000000000000000000000000000000000000000000600052603260045260246000fd5b7f4e487b7100000000000000000000000000000000000000000000000000000000600052601160045260246000fd5b600061255f82611da2565b91507fffffffffffffffffffffffffffffffffffffffffffffffffffffffffffffffff820361259157612590612525565b5b600182019050919050565b7f50726f706f73656420677261636520506572696f64204f7574206f662072616e60008201527f6765000000000000000000000000000000000000000000000000000000000000602082015250565b60006125f86022836122ad565b91506126038261259c565b604082019050919050565b60006020820190508181036000830152612627816125eb565b9050919050565b7f50726f706f73656420677261636520706572696f642073616d6520776974682060008201527f63757272656e7420677261636520706572696f64000000000000000000000000602082015250565b600061268a6034836122ad565b91506126958261262e565b604082019050919050565b600060208201905081810360008301526126b98161267d565b9050919050565b7f566f74696e6720697320616c7265616479206163746976652e00000000000000600082015250565b60006126f66019836122ad565b9150612701826126c0565b602082019050919050565b60006020820190508181036000830152612725816126e9565b9050919050565b600061273782611da2565b915061274283611da2565b9250827fffffffffffffffffffffffffffffffffffffffffffffffffffffffffffffffff0382111561277757612776612525565b5b828201905092915050565b7f45746865722076616c7565206d7573742062652067726561746572207468616e60008201527f20302e0000000000000000000000000000000000000000000000000000000000602082015250565b60006127de6023836122ad565b91506127e982612782565b604082019050919050565b6000602082019050818103600083015261280d816127d1565b9050919050565b60008151905061282381611fab565b92915050565b60006020828403121561283f5761283e611fa6565b5b600061284d84828501612814565b91505092915050565b7f496e73756666696369656e742042616c616e6365000000000000000000000000600082015250565b600061288c6014836122ad565b915061289782612856565b602082019050919050565b600060208201905081810360008301526128bb8161287f565b9050919050565b60006128cd82611da2565b91506128d883611da2565b9250828210156128eb576128ea612525565b5b828203905092915050565b600060408201905061290b6000830185611dac565b6129186020830184611dac565b9392505050565b7f566f74696e6720706572696f6420686173206e6f7420656e6465642e00000000600082015250565b6000612955601c836122ad565b91506129608261291f565b602082019050919050565b6000602082019050818103600083015261298481612948565b9050919050565b7f4e6f2070726f706f73656420677261636520706572696f642e00000000000000600082015250565b60006129c16019836122ad565b91506129cc8261298b565b602082019050919050565b600060208201905081810360008301526129f0816129b4565b9050919050565b7f4661696c656420746f2072657475726e20457468657220746f206465706f736960008201527f746f720000000000000000000000000000000000000000000000000000000000602082015250565b6000612a536023836122ad565b9150612a5e826129f7565b604082019050919050565b60006020820190508181036000830152612a8281612a46565b9050919050565b7f4e6f742071756575656400000000000000000000000000000000000000000000600082015250565b6000612abf600a836122ad565b9150612aca82612a89565b602082019050919050565b60006020820190508181036000830152612aee81612ab2565b9050919050565b7f74696d657374616d70206265666f72652074782074696d657374616d70000000600082015250565b6000612b2b601d836122ad565b9150612b3682612af5565b602082019050919050565b60006020820190508181036000830152612b5a81612b1e565b9050919050565b7f4e6f74206d617475726564000000000000000000000000000000000000000000600082015250565b6000612b97600b836122ad565b9150612ba282612b61565b602082019050919050565b60006020820190508181036000830152612bc681612b8a565b9050919050565b6000612bd882611da2565b9150612be383611da2565b9250817fffffffffffffffffffffffffffffffffffffffffffffffffffffffffffffffff0483118215151615612c1c57612c1b612525565b5b828202905092915050565b7f4e487b7100000000000000000000000000000000000000000000000000000000600052601260045260246000fd5b6000612c6182611da2565b9150612c6c83611da2565b925082612c7c57612c7b612c27565b5b82820490509291505056fea26469706673582212201daa6269b7c549faa9585d0fcdcf29712d7660f4ebef9ab9b7b52fc2819483f864736f6c634300080d0033",
  "immutableReferences": {},
  "source": "// SPDX-License-Identifier: MIT\r\npragma solidity ^0.8.0;\r\nimport \"./AccountManager.sol\";\r\n\r\ncontract Timelock {\r\n    constructor(\r\n        address _accountsContractAddress,\r\n        uint256 _minGracePeriod,\r\n        uint256 _maxGracePeriod,\r\n        uint256 _defaultGracePeriod\r\n    ) {\r\n        // admin = msg.sender;\r\n        accountsContract = AccountManager(_accountsContractAddress);\r\n        minGracePeriod = _minGracePeriod;\r\n        maxGracePeriod = _maxGracePeriod;\r\n        gracePeriod = _defaultGracePeriod;\r\n    }\r\n\r\n    //Transaction--------------------------------------------------------------\r\n    error AlreadyQueuedError(bytes32 txId);\r\n    error NotQueuedError(bytes32 txId);\r\n    error TimestampNotPassedError(uint256 blockTimestamp, uint256 timestamp);\r\n    error TimestampNotMatureError(uint256 blockTimestamp, uint256 expiresAt);\r\n    error TimestampExpiredError(uint256 blockTimestamp, uint256 expiresAt);\r\n    error TxFailedError();\r\n    error NotAdminError();\r\n\r\n    event Queue(\r\n        bytes32 indexed txId,\r\n        address indexed target,\r\n        uint256 value,\r\n        uint256 timestamp\r\n    );\r\n    event Execute(\r\n        bytes32 indexed txId,\r\n        address indexed target,\r\n        uint256 value,\r\n        uint256 timestamp\r\n    );\r\n    event Cancel(bytes32 indexed txId);\r\n    event Deposited(address indexed user, uint256 amount);\r\n\r\n    // Struct to store transaction details\r\n    struct Tx {\r\n        bytes32 txId;\r\n        address target;\r\n        uint256 value;\r\n        uint256 timestamp;\r\n        bool queued;\r\n        address depositor;\r\n    }\r\n\r\n    // Mapping of transaction IDs to transaction data\r\n    mapping(bytes32 => Tx) private txs;\r\n    mapping(uint => bytes32) private indexToTxMapping;\r\n    uint txCount;\r\n    address public admin;\r\n\r\n    uint256 private gracePeriod;\r\n\r\n    address public whoDeposited;\r\n    uint256 public depositAmt;\r\n    uint256 public accountBalance;\r\n\r\n    function getGracePeriod() public view returns (uint256) {\r\n        return gracePeriod;\r\n    }\r\n\r\n    function getTxId(\r\n        address _target,\r\n        uint256 _value\r\n    ) public pure returns (bytes32) {\r\n        return keccak256(abi.encode(_target, _value));\r\n    }\r\n\r\n    function queue(address _target, uint256 _value) external returns (bytes32) {\r\n        require(_value > 0, \"Ether value must be greater than 0.\");\r\n        require(\r\n            accountsContract.getAccountDeposit(msg.sender) > _value,\r\n            \"Insufficient Balance\"\r\n        );\r\n        // Generate the transaction ID based on the target and value\r\n        bytes32 txId = getTxId(_target, _value);\r\n\r\n        // Ensure the transaction is not already queued\r\n        if (txs[txId].queued) {\r\n            revert AlreadyQueuedError(txId);\r\n        }\r\n\r\n        // Store the new transaction\r\n        Tx memory currentTx = Tx(\r\n            txId,\r\n            _target,\r\n            _value,\r\n            block.timestamp,\r\n            true,\r\n            msg.sender\r\n        );\r\n        txs[txId] = currentTx;\r\n        indexToTxMapping[txCount] = txId;\r\n\r\n        uint256 newAmount = accountsContract.getAccountDeposit(msg.sender) -\r\n            _value;\r\n        // Emit the Queue event\r\n        emit Queue(txId, _target, _value, block.timestamp);\r\n        accountsContract.depositUpdate(msg.sender, newAmount);\r\n        txCount++;\r\n        return txId;\r\n    }\r\n\r\n    function getTxArr() public view returns (Tx[] memory) {\r\n        Tx[] memory arr = new Tx[](txCount);\r\n        for (uint i = 0; i < txCount; i++) {\r\n            if (txs[indexToTxMapping[i]].queued) {\r\n                arr[i] = txs[indexToTxMapping[i]];\r\n            }\r\n        }\r\n        return arr;\r\n    }\r\n\r\n    function execute(\r\n        bytes32 _txId\r\n    ) external returns (address target, uint256 value) {\r\n        // Ensure the transaction is actually queued\r\n        require(txs[_txId].queued,\"Not queued\");\r\n\r\n        Tx memory currentTx = txs[_txId];\r\n\r\n        // Ensure the timestamp has passed for execution\r\n        require(block.timestamp >= currentTx.timestamp,\"timestamp before tx timestamp\");\r\n\r\n        // Ensure the transaction is executed after the grace period\r\n        require(block.timestamp >= currentTx.timestamp + gracePeriod, \"Not matured\");\r\n\r\n        // Mark the transaction as executed\r\n        txs[_txId].queued = false;\r\n        // Execute the transaction using the .call function\r\n\r\n        uint256 newAmount = accountsContract.getAccountDeposit(\r\n            currentTx.target\r\n        ) + currentTx.value;\r\n        bool success = accountsContract.depositUpdate(\r\n            currentTx.target,\r\n            newAmount\r\n        );\r\n        if (!success) {\r\n            revert TxFailedError();\r\n        }\r\n\r\n        // Emit the Execute event\r\n        emit Execute(\r\n            _txId,\r\n            currentTx.target,\r\n            currentTx.value,\r\n            currentTx.timestamp\r\n        );\r\n\r\n        return (currentTx.target, currentTx.value);\r\n    }\r\n\r\n    function cancel(\r\n        bytes32 _txId\r\n    ) external returns (address sender, uint256 value) {\r\n        // Ensure the transaction is queued\r\n        if (!txs[_txId].queued) {\r\n            revert NotQueuedError(_txId);\r\n        }\r\n\r\n        Tx memory currentTx = txs[_txId];\r\n        // Ensure the transaction is executed in the grace period\r\n        if (block.timestamp >= currentTx.timestamp + gracePeriod) {\r\n            revert TimestampExpiredError(\r\n                block.timestamp,\r\n                currentTx.timestamp + gracePeriod\r\n            );\r\n        }\r\n        // Mark the transaction as canceled\r\n\r\n        txs[_txId].queued = false;\r\n\r\n        uint256 newAmount = accountsContract.getAccountDeposit(\r\n            currentTx.depositor\r\n        ) + currentTx.value;\r\n        bool success = accountsContract.depositUpdate(\r\n            currentTx.depositor,\r\n            newAmount\r\n        );\r\n        // Emit the Cancel event\r\n        emit Cancel(_txId);\r\n        require(success, \"Failed to return Ether to depositor\");\r\n        return (currentTx.depositor, currentTx.value);\r\n    }\r\n\r\n    function getTx(\r\n        bytes32 _txId\r\n    ) external view returns (Tx memory transaction) {\r\n        return txs[_txId];\r\n    }\r\n\r\n    //Grace Period Voting-------------------------------------------------\r\n    AccountManager public accountsContract;\r\n    event NewGracePeriodProposed(uint256 newGracePeriod);\r\n    event GracePeriodChanged(uint256 gracePeriod);\r\n    event VotingFinalized(uint256 newGracePeriod);\r\n    address public owner;\r\n    uint256 public minGracePeriod;\r\n    uint256 public maxGracePeriod;\r\n\r\n    uint256 private votingStartTime;\r\n    uint256 private votingEndTime;\r\n    uint256 private proposalDeadline;\r\n    bool private votingActive;\r\n    uint256 private voteThreshold;\r\n    address[] public voted;\r\n    uint256 private proposedGracePeriod;\r\n    modifier onlyAdmin() {\r\n        require(\r\n            msg.sender == accountsContract.getAdmin(),\r\n            \"Not Contract Admin\"\r\n        );\r\n        _;\r\n    }\r\n\r\n    modifier duringVotingPhase() {\r\n        require(\r\n            block.timestamp >= votingStartTime &&\r\n                block.timestamp <= votingEndTime,\r\n            \"Voting phase is not active.\"\r\n        );\r\n        _;\r\n    }\r\n\r\n    modifier afterVotingPhase() {\r\n        require(\r\n            block.timestamp > votingEndTime,\r\n            \"Voting period has not ended.\"\r\n        );\r\n        _;\r\n    }\r\n\r\n    function startVoting(uint256 _proposedGracePeriod) public {\r\n        require(\r\n            (_proposedGracePeriod >= minGracePeriod &&\r\n                _proposedGracePeriod <= maxGracePeriod),\r\n            \"Proposed grace Period Out of range\"\r\n        );\r\n        require(\r\n            _proposedGracePeriod != gracePeriod,\r\n            \"Proposed grace period same with current grace period\"\r\n        );\r\n        require(!votingActive, \"Voting is already active.\");\r\n        resetVoting();\r\n        votingStartTime = block.timestamp;\r\n        votingEndTime = block.timestamp + 120; // Total of 2 minutes\r\n\r\n        votingActive = true;\r\n\r\n        updateVoteThreshold();\r\n        proposedGracePeriod = _proposedGracePeriod;\r\n        emit NewGracePeriodProposed(proposedGracePeriod);\r\n    }\r\n\r\n    function updateVoteThreshold() internal {\r\n        uint256 totalRegisteredUsers = accountsContract.getAccountCount();\r\n        voteThreshold = (totalRegisteredUsers * 51 + 99) / 100; // Equivalent to rounding up (51% rule)\r\n    }\r\n\r\n    function voteGracePeriod() public duringVotingPhase {\r\n        require(proposedGracePeriod != 0, \"No Grace Period proposed.\");\r\n        require(\r\n            accountsContract.accountExists(msg.sender),\r\n            \"Only registered users can vote.\"\r\n        );\r\n        require(!voterHasVoted(msg.sender), \"Already voted.\");\r\n\r\n        voted.push(msg.sender);\r\n\r\n        // Check if vote threshold has been met\r\n        if (getTotalVotes() >= voteThreshold) {\r\n            finalizeGPByThresHold(proposedGracePeriod);\r\n        }\r\n    }\r\n\r\n    function voterHasVoted(address _address) public view returns (bool) {\r\n        for (uint256 i = 0; i < voted.length; i++) {\r\n            if (voted[i] == _address) {\r\n                return true;\r\n            }\r\n        }\r\n\r\n        return false;\r\n    }\r\n\r\n    function finalizeGPByThresHold(uint256 _proposedGracePeriod) internal {\r\n        gracePeriod = _proposedGracePeriod;\r\n\r\n        emit VotingFinalized(_proposedGracePeriod);\r\n        resetVoting();\r\n    }\r\n\r\n    // FINALIZE the voting process after 2 minutes\r\n    function finalizeVote() public afterVotingPhase {\r\n        require(proposedGracePeriod != 0, \"No proposed grace period.\");\r\n        if (getTotalVotes() >= voteThreshold) {\r\n            finalizeGPByThresHold(proposedGracePeriod);\r\n            emit GracePeriodChanged(proposedGracePeriod);\r\n            emit VotingFinalized(proposedGracePeriod);\r\n        } else {\r\n            // require(false, \"Total Votes is not reached the threshold\");\r\n        }\r\n\r\n        resetVoting();\r\n    }\r\n\r\n    function getCurrentGracePeriod() public view returns (uint256) {\r\n        return gracePeriod;\r\n    }\r\n\r\n    function getProposedGracePeriod() public view returns (uint256) {\r\n        return proposedGracePeriod;\r\n    }\r\n\r\n    function resetVoting() internal {\r\n        proposedGracePeriod = 0;\r\n        votingActive = false;\r\n        votingEndTime = 0;\r\n        voted = new address[](0);\r\n    }\r\n\r\n    function getTotalVotes() internal view returns (uint256 totalVotes) {\r\n        totalVotes = 0;\r\n        for (uint256 i = 0; i < voted.length; i++) {\r\n            totalVotes += voted.length;\r\n        }\r\n\r\n        return totalVotes;\r\n    }\r\n}\r\n",
  "sourcePath": "C:\\Users\\quint\\vscode\\My Projects\\Timelock\\contracts\\Timelock.sol",
  "compiler": {
    "name": "solc",
    "version": "0.8.13+commit.abaa5c0e.Emscripten.clang"
  },
  "schemaVersion": "3.4.16",
  "updatedAt": "2024-09-22T09:52:36.390Z",
  "networkType": "ethereum",
  "devdoc": {
    "kind": "dev",
    "methods": {},
    "version": 1
  },
  "userdoc": {
    "kind": "user",
    "methods": {},
    "version": 1
  }
}