{
  "contractName": "VoteAdmin",
  "abi": [
    {
      "inputs": [
        {
          "internalType": "address",
          "name": "_accountsContractAddress",
          "type": "address"
        }
      ],
      "stateMutability": "nonpayable",
      "type": "constructor"
    },
    {
      "anonymous": false,
      "inputs": [
        {
          "indexed": true,
          "internalType": "address",
          "name": "newAdmin",
          "type": "address"
        }
      ],
      "name": "AdminChanged",
      "type": "event"
    },
    {
      "anonymous": false,
      "inputs": [
        {
          "indexed": true,
          "internalType": "address",
          "name": "proposedAdmin",
          "type": "address"
        }
      ],
      "name": "NewAdminProposed",
      "type": "event"
    },
    {
      "anonymous": false,
      "inputs": [
        {
          "indexed": true,
          "internalType": "address",
          "name": "newAdmin",
          "type": "address"
        }
      ],
      "name": "VotingFinalized",
      "type": "event"
    },
    {
      "inputs": [],
      "name": "accountsContract",
      "outputs": [
        {
          "internalType": "contract AccountManager",
          "name": "",
          "type": "address"
        }
      ],
      "stateMutability": "view",
      "type": "function",
      "constant": true
    },
    {
      "inputs": [
        {
          "internalType": "uint256",
          "name": "",
          "type": "uint256"
        }
      ],
      "name": "voted",
      "outputs": [
        {
          "internalType": "address",
          "name": "",
          "type": "address"
        }
      ],
      "stateMutability": "view",
      "type": "function",
      "constant": true
    },
    {
      "inputs": [],
      "name": "startVoting",
      "outputs": [],
      "stateMutability": "nonpayable",
      "type": "function"
    },
    {
      "inputs": [
        {
          "internalType": "address",
          "name": "_proposedAdmin",
          "type": "address"
        }
      ],
      "name": "proposeAdmin",
      "outputs": [],
      "stateMutability": "nonpayable",
      "type": "function"
    },
    {
      "inputs": [],
      "name": "voteForAdmin",
      "outputs": [],
      "stateMutability": "nonpayable",
      "type": "function"
    },
    {
      "inputs": [
        {
          "internalType": "address",
          "name": "_address",
          "type": "address"
        }
      ],
      "name": "voterHasVoted",
      "outputs": [
        {
          "internalType": "bool",
          "name": "",
          "type": "bool"
        }
      ],
      "stateMutability": "view",
      "type": "function",
      "constant": true
    },
    {
      "inputs": [],
      "name": "finalizeAdmin",
      "outputs": [],
      "stateMutability": "nonpayable",
      "type": "function"
    },
    {
      "inputs": [],
      "name": "getCurrentAdmin",
      "outputs": [
        {
          "internalType": "address",
          "name": "",
          "type": "address"
        }
      ],
      "stateMutability": "view",
      "type": "function",
      "constant": true
    }
  ],
  "bytecode": "0x60806040523480156200001157600080fd5b506040516200165738038062001657833981810160405281019062000037919062000129565b33600660016101000a81548173ffffffffffffffffffffffffffffffffffffffff021916908373ffffffffffffffffffffffffffffffffffffffff160217905550806000806101000a81548173ffffffffffffffffffffffffffffffffffffffff021916908373ffffffffffffffffffffffffffffffffffffffff160217905550506200015b565b600080fd5b600073ffffffffffffffffffffffffffffffffffffffff82169050919050565b6000620000f182620000c4565b9050919050565b6200010381620000e4565b81146200010f57600080fd5b50565b6000815190506200012381620000f8565b92915050565b600060208284031215620001425762000141620000bf565b5b6000620001528482850162000112565b91505092915050565b6114ec806200016b6000396000f3fe608060405234801561001057600080fd5b50600436106100885760003560e01c8063643d430c1161005b578063643d430c146100db5780638fbb38ff146100f9578063ada6e9f214610129578063db843bd41461015957610088565b8063147bf6c41461008d5780631ec6b60a146100a957806330c82302146100b3578063446f201e146100bd575b600080fd5b6100a760048036038101906100a29190610c83565b610163565b005b6100b16102c0565b005b6100bb6103f3565b005b6100c5610676565b6040516100d29190610d0f565b60405180910390f35b6100e361069a565b6040516100f09190610d39565b60405180910390f35b610113600480360381019061010e9190610d8a565b6106c4565b6040516101209190610d39565b60405180910390f35b610143600480360381019061013e9190610c83565b610703565b6040516101509190610dd2565b60405180910390f35b6101616107b1565b005b6005544211156101a8576040517f08c379a000000000000000000000000000000000000000000000000000000000815260040161019f90610e4a565b60405180910390fd5b600073ffffffffffffffffffffffffffffffffffffffff16600160009054906101000a900473ffffffffffffffffffffffffffffffffffffffff1673ffffffffffffffffffffffffffffffffffffffff1614610239576040517f08c379a000000000000000000000000000000000000000000000000000000000815260040161023090610eb6565b60405180910390fd5b80600160006101000a81548173ffffffffffffffffffffffffffffffffffffffff021916908373ffffffffffffffffffffffffffffffffffffffff1602179055508073ffffffffffffffffffffffffffffffffffffffff167f97d210a523508586890024de7bad4fd80655885ca22d0c7d5fd8ae9bdda9d65e60405160405180910390a250565b600660019054906101000a900473ffffffffffffffffffffffffffffffffffffffff1673ffffffffffffffffffffffffffffffffffffffff163373ffffffffffffffffffffffffffffffffffffffff1614610350576040517f08c379a000000000000000000000000000000000000000000000000000000000815260040161034790610f22565b60405180910390fd5b600660009054906101000a900460ff16156103a0576040517f08c379a000000000000000000000000000000000000000000000000000000000815260040161039790610f8e565b60405180910390fd5b426003819055506078426103b49190610fdd565b600581905550610258426103c89190610fdd565b6004819055506001600660006101000a81548160ff0219169083151502179055506103f16109bd565b565b600554421015801561040757506004544211155b610446576040517f08c379a000000000000000000000000000000000000000000000000000000000815260040161043d9061107f565b60405180910390fd5b600073ffffffffffffffffffffffffffffffffffffffff16600160009054906101000a900473ffffffffffffffffffffffffffffffffffffffff1673ffffffffffffffffffffffffffffffffffffffff16036104d7576040517f08c379a00000000000000000000000000000000000000000000000000000000081526004016104ce906110eb565b60405180910390fd5b60008054906101000a900473ffffffffffffffffffffffffffffffffffffffff1673ffffffffffffffffffffffffffffffffffffffff166375cd51ed336040518263ffffffff1660e01b81526004016105309190610d39565b602060405180830381865afa15801561054d573d6000803e3d6000fd5b505050506040513d601f19601f820116820180604052508101906105719190611137565b6105b0576040517f08c379a00000000000000000000000000000000000000000000000000000000081526004016105a7906111b0565b60405180910390fd5b6105b933610703565b6105f8576040517f08c379a00000000000000000000000000000000000000000000000000000000081526004016105ef9061121c565b60405180910390fd5b6007339080600181540180825580915050600190039060005260206000200160009091909190916101000a81548173ffffffffffffffffffffffffffffffffffffffff021916908373ffffffffffffffffffffffffffffffffffffffff160217905550600254610666610a7f565b10610674576106736107b1565b5b565b60008054906101000a900473ffffffffffffffffffffffffffffffffffffffff1681565b6000600660019054906101000a900473ffffffffffffffffffffffffffffffffffffffff16905090565b600781815481106106d457600080fd5b906000526020600020016000915054906101000a900473ffffffffffffffffffffffffffffffffffffffff1681565b600080600090505b6007805490508110156107a6578273ffffffffffffffffffffffffffffffffffffffff16600782815481106107435761074261123c565b5b9060005260206000200160009054906101000a900473ffffffffffffffffffffffffffffffffffffffff1673ffffffffffffffffffffffffffffffffffffffff16036107935760019150506107ac565b808061079e9061126b565b91505061070b565b50600090505b919050565b60045442116107f5576040517f08c379a00000000000000000000000000000000000000000000000000000000081526004016107ec906112ff565b60405180910390fd5b600073ffffffffffffffffffffffffffffffffffffffff16600160009054906101000a900473ffffffffffffffffffffffffffffffffffffffff1673ffffffffffffffffffffffffffffffffffffffff1603610886576040517f08c379a000000000000000000000000000000000000000000000000000000000815260040161087d9061136b565b60405180910390fd5b600160009054906101000a900473ffffffffffffffffffffffffffffffffffffffff16600660016101000a81548173ffffffffffffffffffffffffffffffffffffffff021916908373ffffffffffffffffffffffffffffffffffffffff160217905550600160009054906101000a900473ffffffffffffffffffffffffffffffffffffffff1673ffffffffffffffffffffffffffffffffffffffff167f7ce7ec0b50378fb6c0186ffb5f48325f6593fcb4ca4386f21861af3129188f5c60405160405180910390a2600160009054906101000a900473ffffffffffffffffffffffffffffffffffffffff1673ffffffffffffffffffffffffffffffffffffffff167f632d764abfaaa0b14481c6a74ffc7ee7e9a8490097cdc054de8c42239a62e1c560405160405180910390a26109bb610aba565b565b60008060009054906101000a900473ffffffffffffffffffffffffffffffffffffffff1673ffffffffffffffffffffffffffffffffffffffff1663a98e4e776040518163ffffffff1660e01b8152600401602060405180830381865afa158015610a2b573d6000803e3d6000fd5b505050506040513d601f19601f82011682018060405250810190610a4f91906113a0565b905060646063603383610a6291906113cd565b610a6c9190610fdd565b610a769190611456565b60028190555050565b6000805b600780549050811015610ab65760078054905082610aa19190610fdd565b91508080610aae9061126b565b915050610a83565b5090565b6000600160006101000a81548173ffffffffffffffffffffffffffffffffffffffff021916908373ffffffffffffffffffffffffffffffffffffffff1602179055506000600660006101000a81548160ff021916908315150217905550600067ffffffffffffffff811115610b3257610b31611487565b5b604051908082528060200260200182016040528015610b605781602001602082028036833780820191505090505b5060079080519060200190610b76929190610b79565b50565b828054828255906000526020600020908101928215610bf2579160200282015b82811115610bf15782518260006101000a81548173ffffffffffffffffffffffffffffffffffffffff021916908373ffffffffffffffffffffffffffffffffffffffff16021790555091602001919060010190610b99565b5b509050610bff9190610c03565b5090565b5b80821115610c1c576000816000905550600101610c04565b5090565b600080fd5b600073ffffffffffffffffffffffffffffffffffffffff82169050919050565b6000610c5082610c25565b9050919050565b610c6081610c45565b8114610c6b57600080fd5b50565b600081359050610c7d81610c57565b92915050565b600060208284031215610c9957610c98610c20565b5b6000610ca784828501610c6e565b91505092915050565b6000819050919050565b6000610cd5610cd0610ccb84610c25565b610cb0565b610c25565b9050919050565b6000610ce782610cba565b9050919050565b6000610cf982610cdc565b9050919050565b610d0981610cee565b82525050565b6000602082019050610d246000830184610d00565b92915050565b610d3381610c45565b82525050565b6000602082019050610d4e6000830184610d2a565b92915050565b6000819050919050565b610d6781610d54565b8114610d7257600080fd5b50565b600081359050610d8481610d5e565b92915050565b600060208284031215610da057610d9f610c20565b5b6000610dae84828501610d75565b91505092915050565b60008115159050919050565b610dcc81610db7565b82525050565b6000602082019050610de76000830184610dc3565b92915050565b600082825260208201905092915050565b7f50726f706f73616c2070686173652068617320656e6465642e00000000000000600082015250565b6000610e34601983610ded565b9150610e3f82610dfe565b602082019050919050565b60006020820190508181036000830152610e6381610e27565b9050919050565b7f41646d696e20697320616c72656164792070726f706f7365642e000000000000600082015250565b6000610ea0601a83610ded565b9150610eab82610e6a565b602082019050919050565b60006020820190508181036000830152610ecf81610e93565b9050919050565b7f4f6e6c792061646d696e2063616e206578656375746520746869732e00000000600082015250565b6000610f0c601c83610ded565b9150610f1782610ed6565b602082019050919050565b60006020820190508181036000830152610f3b81610eff565b9050919050565b7f566f74696e6720697320616c7265616479206163746976652e00000000000000600082015250565b6000610f78601983610ded565b9150610f8382610f42565b602082019050919050565b60006020820190508181036000830152610fa781610f6b565b9050919050565b7f4e487b7100000000000000000000000000000000000000000000000000000000600052601160045260246000fd5b6000610fe882610d54565b9150610ff383610d54565b9250827fffffffffffffffffffffffffffffffffffffffffffffffffffffffffffffffff0382111561102857611027610fae565b5b828201905092915050565b7f566f74696e67207068617365206973206e6f74206163746976652e0000000000600082015250565b6000611069601b83610ded565b915061107482611033565b602082019050919050565b600060208201905081810360008301526110988161105c565b9050919050565b7f4e6f2061646d696e2070726f706f7365642e0000000000000000000000000000600082015250565b60006110d5601283610ded565b91506110e08261109f565b602082019050919050565b60006020820190508181036000830152611104816110c8565b9050919050565b61111481610db7565b811461111f57600080fd5b50565b6000815190506111318161110b565b92915050565b60006020828403121561114d5761114c610c20565b5b600061115b84828501611122565b91505092915050565b7f4f6e6c7920726567697374657265642075736572732063616e20766f74652e00600082015250565b600061119a601f83610ded565b91506111a582611164565b602082019050919050565b600060208201905081810360008301526111c98161118d565b9050919050565b7f416c726561647920766f7465642e000000000000000000000000000000000000600082015250565b6000611206600e83610ded565b9150611211826111d0565b602082019050919050565b60006020820190508181036000830152611235816111f9565b9050919050565b7f4e487b7100000000000000000000000000000000000000000000000000000000600052603260045260246000fd5b600061127682610d54565b91507fffffffffffffffffffffffffffffffffffffffffffffffffffffffffffffffff82036112a8576112a7610fae565b5b600182019050919050565b7f566f74696e6720706572696f6420686173206e6f7420656e6465642e00000000600082015250565b60006112e9601c83610ded565b91506112f4826112b3565b602082019050919050565b60006020820190508181036000830152611318816112dc565b9050919050565b7f4e6f2070726f706f7365642061646d696e2e0000000000000000000000000000600082015250565b6000611355601283610ded565b91506113608261131f565b602082019050919050565b6000602082019050818103600083015261138481611348565b9050919050565b60008151905061139a81610d5e565b92915050565b6000602082840312156113b6576113b5610c20565b5b60006113c48482850161138b565b91505092915050565b60006113d882610d54565b91506113e383610d54565b9250817fffffffffffffffffffffffffffffffffffffffffffffffffffffffffffffffff048311821515161561141c5761141b610fae565b5b828202905092915050565b7f4e487b7100000000000000000000000000000000000000000000000000000000600052601260045260246000fd5b600061146182610d54565b915061146c83610d54565b92508261147c5761147b611427565b5b828204905092915050565b7f4e487b7100000000000000000000000000000000000000000000000000000000600052604160045260246000fdfea2646970667358221220689c568f4aed51ab9a1d40528d7bc4b1741e87c333fb25a1e2b93435239cdb8564736f6c634300080d0033",
  "immutableReferences": {},
  "source": "// SPDX-License-Identifier: MIT\r\npragma solidity ^0.8.0;\r\nimport \"./Account.sol\";\r\n\r\ncontract VoteAdmin {\r\n   \r\n    event NewAdminProposed(address indexed proposedAdmin);\r\n    event AdminChanged(address indexed newAdmin);\r\n    event VotingFinalized(address indexed newAdmin);\r\n\r\n    AccountManager public accountsContract;\r\n\r\n    constructor(address _accountsContractAddress) {\r\n        admin = msg.sender;\r\n        accountsContract = AccountManager(_accountsContractAddress);\r\n    }\r\n\r\n    \r\n    address private proposedAdmin;\r\n    uint private voteThreshold; // Auto calculate based on registered users\r\n    uint private votingStartTime;\r\n    uint private votingEndTime;\r\n    uint private proposalDeadline;\r\n    bool private votingActive;\r\n    address private admin;\r\n    address[] public voted; // List of all registered users\r\n\r\n    modifier onlyAdmin() {\r\n        require(msg.sender == admin, \"Only admin can execute this.\");\r\n        _;\r\n    }\r\n    modifier duringProposalPhase() {\r\n        require(\r\n            block.timestamp <= proposalDeadline,\r\n            \"Proposal phase has ended.\"\r\n        );\r\n        _;\r\n    }\r\n\r\n    modifier duringVotingPhase() {\r\n        require(\r\n            block.timestamp >= proposalDeadline &&\r\n                block.timestamp <= votingEndTime,\r\n            \"Voting phase is not active.\"\r\n        );\r\n        _;\r\n    }\r\n\r\n    modifier afterVotingPhase() {\r\n        require(\r\n            block.timestamp > votingEndTime,\r\n            \"Voting period has not ended.\"\r\n        );\r\n        _;\r\n    }\r\n\r\n    // Start the voting process with a time lock\r\n    function startVoting() public onlyAdmin {\r\n        require(!votingActive, \"Voting is already active.\");\r\n        // require(registeredUsers.length > 0, \"No registered users available.\");\r\n\r\n        // Set the deadlines for proposal and voting\r\n        votingStartTime = block.timestamp;\r\n        proposalDeadline = block.timestamp + 2 minutes; // First 2 minutes for proposing\r\n        votingEndTime = block.timestamp + 10 minutes; // Total of 10 minutes\r\n\r\n        votingActive = true;\r\n\r\n        // Recalculate vote threshold based on 51% of registered users\r\n        updateVoteThreshold();\r\n    }\r\n    // Automatically calculate vote threshold (51% of registered users, rounded up)\r\n    function updateVoteThreshold() internal {\r\n        uint totalRegisteredUsers = accountsContract.getAccountCount();\r\n        voteThreshold = (totalRegisteredUsers * 51 + 99) / 100; // Equivalent to rounding up (51% rule)\r\n    }\r\n    // PROPOSE a new admin during the first 2 minutes\r\n    function proposeAdmin(address _proposedAdmin) public duringProposalPhase {\r\n        require(proposedAdmin == address(0), \"Admin is already proposed.\");\r\n        proposedAdmin = _proposedAdmin;\r\n        emit NewAdminProposed(_proposedAdmin);\r\n    }\r\n\r\n    // VOTE for proposed admin (voting happens between 2 and 10 minutes)\r\n    function voteForAdmin() public duringVotingPhase {\r\n        require(proposedAdmin != address(0), \"No admin proposed.\");\r\n        require(\r\n            accountsContract.accountExists(msg.sender),\r\n            \"Only registered users can vote.\"\r\n        );\r\n        require(voterHasVoted(msg.sender), \"Already voted.\");\r\n\r\n        voted.push(msg.sender);\r\n\r\n        // Check if vote threshold has been met\r\n        if (getTotalVotes() >= voteThreshold) {\r\n            finalizeAdmin();\r\n        }\r\n    }\r\n    function voterHasVoted(address _address) public view returns (bool) {\r\n        for (uint i = 0; i < voted.length; i++) {\r\n            if (voted[i] == _address) {\r\n                return true;\r\n            }\r\n        }\r\n\r\n        return false;\r\n    }\r\n    // FINALIZE the voting process after 10 minutes\r\n    function finalizeAdmin() public afterVotingPhase {\r\n        require(proposedAdmin != address(0), \"No proposed admin.\");\r\n\r\n        // Change the admin\r\n        admin = proposedAdmin;\r\n        emit AdminChanged(proposedAdmin);\r\n        emit VotingFinalized(proposedAdmin);\r\n\r\n        // Reset the voting state\r\n        resetVoting();\r\n    }\r\n    function getCurrentAdmin() public view returns (address) {\r\n        return admin;\r\n    }\r\n\r\n    // Reset voting process after it ends\r\n    function resetVoting() internal {\r\n        proposedAdmin = address(0);\r\n        votingActive = false;\r\n\r\n       voted = new address[](0); \r\n    }\r\n\r\n    // Get total votes cast\r\n    function getTotalVotes() internal view returns (uint totalVotes) {\r\n        totalVotes = 0;\r\n        for (uint i = 0; i < voted.length; i++) {\r\n            totalVotes += voted.length;\r\n        }\r\n\r\n        return totalVotes;\r\n    }\r\n}\r\n",
  "sourcePath": "c:\\Timelock\\contracts\\VoteAdmin.sol",
  "compiler": {
    "name": "solc",
    "version": "0.8.13+commit.abaa5c0e.Emscripten.clang"
  },
  "schemaVersion": "3.4.16",
  "updatedAt": "2024-09-18T09:00:14.196Z",
  "networkType": "ethereum",
  "devdoc": {
    "kind": "dev",
    "methods": {},
    "version": 1
  },
  "userdoc": {
    "kind": "user",
    "methods": {},
    "version": 1
  }
}